{
	"contracts/Functionalities.sol": {
		"SupplyChain": {
			"abi": [
				{
					"inputs": [
						{
							"internalType": "address",
							"name": "_gtidsAdmin",
							"type": "address"
						},
						{
							"internalType": "address",
							"name": "_warehouse",
							"type": "address"
						},
						{
							"internalType": "address",
							"name": "_bank",
							"type": "address"
						},
						{
							"internalType": "address",
							"name": "_farmer",
							"type": "address"
						},
						{
							"internalType": "address",
							"name": "_bcAgent",
							"type": "address"
						}
					],
					"stateMutability": "nonpayable",
					"type": "constructor"
				},
				{
					"anonymous": false,
					"inputs": [
						{
							"indexed": true,
							"internalType": "address",
							"name": "farmer",
							"type": "address"
						},
						{
							"indexed": true,
							"internalType": "address",
							"name": "warehouse",
							"type": "address"
						}
					],
					"name": "ContractSigned",
					"type": "event"
				},
				{
					"anonymous": false,
					"inputs": [
						{
							"indexed": true,
							"internalType": "address",
							"name": "farmer",
							"type": "address"
						},
						{
							"indexed": false,
							"internalType": "uint256",
							"name": "amount",
							"type": "uint256"
						}
					],
					"name": "GoodsStored",
					"type": "event"
				},
				{
					"anonymous": false,
					"inputs": [
						{
							"indexed": true,
							"internalType": "address",
							"name": "farmer",
							"type": "address"
						},
						{
							"indexed": true,
							"internalType": "address",
							"name": "bank",
							"type": "address"
						}
					],
					"name": "LoanRepaid",
					"type": "event"
				},
				{
					"anonymous": false,
					"inputs": [
						{
							"indexed": true,
							"internalType": "address",
							"name": "farmer",
							"type": "address"
						},
						{
							"indexed": true,
							"internalType": "address",
							"name": "bank",
							"type": "address"
						}
					],
					"name": "LoanTaken",
					"type": "event"
				},
				{
					"anonymous": false,
					"inputs": [
						{
							"indexed": true,
							"internalType": "address",
							"name": "farmer",
							"type": "address"
						},
						{
							"indexed": true,
							"internalType": "address",
							"name": "bank",
							"type": "address"
						}
					],
					"name": "OwnershipTransferred",
					"type": "event"
				},
				{
					"inputs": [],
					"name": "bank",
					"outputs": [
						{
							"internalType": "address",
							"name": "",
							"type": "address"
						}
					],
					"stateMutability": "view",
					"type": "function"
				},
				{
					"inputs": [],
					"name": "bcAgent",
					"outputs": [
						{
							"internalType": "address",
							"name": "",
							"type": "address"
						}
					],
					"stateMutability": "view",
					"type": "function"
				},
				{
					"inputs": [],
					"name": "farmer",
					"outputs": [
						{
							"internalType": "address",
							"name": "",
							"type": "address"
						}
					],
					"stateMutability": "view",
					"type": "function"
				},
				{
					"inputs": [
						{
							"internalType": "address",
							"name": "",
							"type": "address"
						}
					],
					"name": "goodsStored",
					"outputs": [
						{
							"internalType": "uint256",
							"name": "",
							"type": "uint256"
						}
					],
					"stateMutability": "view",
					"type": "function"
				},
				{
					"inputs": [],
					"name": "gtidsAdmin",
					"outputs": [
						{
							"internalType": "address",
							"name": "",
							"type": "address"
						}
					],
					"stateMutability": "view",
					"type": "function"
				},
				{
					"inputs": [
						{
							"internalType": "address",
							"name": "",
							"type": "address"
						}
					],
					"name": "isContractSigned",
					"outputs": [
						{
							"internalType": "bool",
							"name": "",
							"type": "bool"
						}
					],
					"stateMutability": "view",
					"type": "function"
				},
				{
					"inputs": [
						{
							"internalType": "address",
							"name": "",
							"type": "address"
						}
					],
					"name": "isLoanTaken",
					"outputs": [
						{
							"internalType": "bool",
							"name": "",
							"type": "bool"
						}
					],
					"stateMutability": "view",
					"type": "function"
				},
				{
					"inputs": [
						{
							"internalType": "address",
							"name": "",
							"type": "address"
						}
					],
					"name": "ownership",
					"outputs": [
						{
							"internalType": "address",
							"name": "",
							"type": "address"
						}
					],
					"stateMutability": "view",
					"type": "function"
				},
				{
					"inputs": [],
					"name": "repayLoan",
					"outputs": [],
					"stateMutability": "nonpayable",
					"type": "function"
				},
				{
					"inputs": [],
					"name": "signContract",
					"outputs": [],
					"stateMutability": "nonpayable",
					"type": "function"
				},
				{
					"inputs": [
						{
							"internalType": "uint256",
							"name": "amount",
							"type": "uint256"
						}
					],
					"name": "storeGoods",
					"outputs": [],
					"stateMutability": "nonpayable",
					"type": "function"
				},
				{
					"inputs": [],
					"name": "transferOwnershipToBank",
					"outputs": [],
					"stateMutability": "nonpayable",
					"type": "function"
				},
				{
					"inputs": [],
					"name": "warehouse",
					"outputs": [
						{
							"internalType": "address",
							"name": "",
							"type": "address"
						}
					],
					"stateMutability": "view",
					"type": "function"
				}
			],
			"devdoc": {
				"kind": "dev",
				"methods": {},
				"version": 1
			},
			"evm": {
				"assembly": "    /* \"contracts/Functionalities.sol\":66:2727  contract SupplyChain {... */\n  mstore(0x40, 0x80)\n    /* \"contracts/Functionalities.sol\":813:1123  constructor(... */\n  callvalue\n  dup1\n  iszero\n  tag_1\n  jumpi\n  0x00\n  dup1\n  revert\ntag_1:\n  pop\n  mload(0x40)\n  sub(codesize, bytecodeSize)\n  dup1\n  bytecodeSize\n  dup4\n  codecopy\n  dup2\n  dup2\n  add\n  0x40\n  mstore\n  dup2\n  add\n  swap1\n  tag_2\n  swap2\n  swap1\n  tag_3\n  jump\t// in\ntag_2:\n    /* \"contracts/Functionalities.sol\":992:1003  _gtidsAdmin */\n  dup5\n    /* \"contracts/Functionalities.sol\":979:989  gtidsAdmin */\n  0x00\n  dup1\n    /* \"contracts/Functionalities.sol\":979:1003  gtidsAdmin = _gtidsAdmin */\n  0x0100\n  exp\n  dup2\n  sload\n  dup2\n  0xffffffffffffffffffffffffffffffffffffffff\n  mul\n  not\n  and\n  swap1\n  dup4\n  0xffffffffffffffffffffffffffffffffffffffff\n  and\n  mul\n  or\n  swap1\n  sstore\n  pop\n    /* \"contracts/Functionalities.sol\":1026:1036  _warehouse */\n  dup4\n    /* \"contracts/Functionalities.sol\":1014:1023  warehouse */\n  0x01\n  0x00\n    /* \"contracts/Functionalities.sol\":1014:1036  warehouse = _warehouse */\n  0x0100\n  exp\n  dup2\n  sload\n  dup2\n  0xffffffffffffffffffffffffffffffffffffffff\n  mul\n  not\n  and\n  swap1\n  dup4\n  0xffffffffffffffffffffffffffffffffffffffff\n  and\n  mul\n  or\n  swap1\n  sstore\n  pop\n    /* \"contracts/Functionalities.sol\":1054:1059  _bank */\n  dup3\n    /* \"contracts/Functionalities.sol\":1047:1051  bank */\n  0x02\n  0x00\n    /* \"contracts/Functionalities.sol\":1047:1059  bank = _bank */\n  0x0100\n  exp\n  dup2\n  sload\n  dup2\n  0xffffffffffffffffffffffffffffffffffffffff\n  mul\n  not\n  and\n  swap1\n  dup4\n  0xffffffffffffffffffffffffffffffffffffffff\n  and\n  mul\n  or\n  swap1\n  sstore\n  pop\n    /* \"contracts/Functionalities.sol\":1079:1086  _farmer */\n  dup2\n    /* \"contracts/Functionalities.sol\":1070:1076  farmer */\n  0x03\n  0x00\n    /* \"contracts/Functionalities.sol\":1070:1086  farmer = _farmer */\n  0x0100\n  exp\n  dup2\n  sload\n  dup2\n  0xffffffffffffffffffffffffffffffffffffffff\n  mul\n  not\n  and\n  swap1\n  dup4\n  0xffffffffffffffffffffffffffffffffffffffff\n  and\n  mul\n  or\n  swap1\n  sstore\n  pop\n    /* \"contracts/Functionalities.sol\":1107:1115  _bcAgent */\n  dup1\n    /* \"contracts/Functionalities.sol\":1097:1104  bcAgent */\n  0x04\n  0x00\n    /* \"contracts/Functionalities.sol\":1097:1115  bcAgent = _bcAgent */\n  0x0100\n  exp\n  dup2\n  sload\n  dup2\n  0xffffffffffffffffffffffffffffffffffffffff\n  mul\n  not\n  and\n  swap1\n  dup4\n  0xffffffffffffffffffffffffffffffffffffffff\n  and\n  mul\n  or\n  swap1\n  sstore\n  pop\n    /* \"contracts/Functionalities.sol\":813:1123  constructor(... */\n  pop\n  pop\n  pop\n  pop\n  pop\n    /* \"contracts/Functionalities.sol\":66:2727  contract SupplyChain {... */\n  jump(tag_6)\n    /* \"#utility.yul\":88:205   */\ntag_8:\n    /* \"#utility.yul\":197:198   */\n  0x00\n    /* \"#utility.yul\":194:195   */\n  dup1\n    /* \"#utility.yul\":187:199   */\n  revert\n    /* \"#utility.yul\":334:460   */\ntag_10:\n    /* \"#utility.yul\":371:378   */\n  0x00\n    /* \"#utility.yul\":411:453   */\n  0xffffffffffffffffffffffffffffffffffffffff\n    /* \"#utility.yul\":404:409   */\n  dup3\n    /* \"#utility.yul\":400:454   */\n  and\n    /* \"#utility.yul\":389:454   */\n  swap1\n  pop\n    /* \"#utility.yul\":334:460   */\n  swap2\n  swap1\n  pop\n  jump\t// out\n    /* \"#utility.yul\":466:562   */\ntag_11:\n    /* \"#utility.yul\":503:510   */\n  0x00\n    /* \"#utility.yul\":532:556   */\n  tag_20\n    /* \"#utility.yul\":550:555   */\n  dup3\n    /* \"#utility.yul\":532:556   */\n  tag_10\n  jump\t// in\ntag_20:\n    /* \"#utility.yul\":521:556   */\n  swap1\n  pop\n    /* \"#utility.yul\":466:562   */\n  swap2\n  swap1\n  pop\n  jump\t// out\n    /* \"#utility.yul\":568:690   */\ntag_12:\n    /* \"#utility.yul\":641:665   */\n  tag_22\n    /* \"#utility.yul\":659:664   */\n  dup2\n    /* \"#utility.yul\":641:665   */\n  tag_11\n  jump\t// in\ntag_22:\n    /* \"#utility.yul\":634:639   */\n  dup2\n    /* \"#utility.yul\":631:666   */\n  eq\n    /* \"#utility.yul\":621:684   */\n  tag_23\n  jumpi\n    /* \"#utility.yul\":680:681   */\n  0x00\n    /* \"#utility.yul\":677:678   */\n  dup1\n    /* \"#utility.yul\":670:682   */\n  revert\n    /* \"#utility.yul\":621:684   */\ntag_23:\n    /* \"#utility.yul\":568:690   */\n  pop\n  jump\t// out\n    /* \"#utility.yul\":696:839   */\ntag_13:\n    /* \"#utility.yul\":753:758   */\n  0x00\n    /* \"#utility.yul\":784:790   */\n  dup2\n    /* \"#utility.yul\":778:791   */\n  mload\n    /* \"#utility.yul\":769:791   */\n  swap1\n  pop\n    /* \"#utility.yul\":800:833   */\n  tag_25\n    /* \"#utility.yul\":827:832   */\n  dup2\n    /* \"#utility.yul\":800:833   */\n  tag_12\n  jump\t// in\ntag_25:\n    /* \"#utility.yul\":696:839   */\n  swap3\n  swap2\n  pop\n  pop\n  jump\t// out\n    /* \"#utility.yul\":845:1822   */\ntag_3:\n    /* \"#utility.yul\":951:957   */\n  0x00\n    /* \"#utility.yul\":959:965   */\n  dup1\n    /* \"#utility.yul\":967:973   */\n  0x00\n    /* \"#utility.yul\":975:981   */\n  dup1\n    /* \"#utility.yul\":983:989   */\n  0x00\n    /* \"#utility.yul\":1032:1035   */\n  0xa0\n    /* \"#utility.yul\":1020:1029   */\n  dup7\n    /* \"#utility.yul\":1011:1018   */\n  dup9\n    /* \"#utility.yul\":1007:1030   */\n  sub\n    /* \"#utility.yul\":1003:1036   */\n  slt\n    /* \"#utility.yul\":1000:1120   */\n  iszero\n  tag_27\n  jumpi\n    /* \"#utility.yul\":1039:1118   */\n  tag_28\n  tag_8\n  jump\t// in\ntag_28:\n    /* \"#utility.yul\":1000:1120   */\ntag_27:\n    /* \"#utility.yul\":1159:1160   */\n  0x00\n    /* \"#utility.yul\":1184:1248   */\n  tag_29\n    /* \"#utility.yul\":1240:1247   */\n  dup9\n    /* \"#utility.yul\":1231:1237   */\n  dup3\n    /* \"#utility.yul\":1220:1229   */\n  dup10\n    /* \"#utility.yul\":1216:1238   */\n  add\n    /* \"#utility.yul\":1184:1248   */\n  tag_13\n  jump\t// in\ntag_29:\n    /* \"#utility.yul\":1174:1248   */\n  swap6\n  pop\n    /* \"#utility.yul\":1130:1258   */\n  pop\n    /* \"#utility.yul\":1297:1299   */\n  0x20\n    /* \"#utility.yul\":1323:1387   */\n  tag_30\n    /* \"#utility.yul\":1379:1386   */\n  dup9\n    /* \"#utility.yul\":1370:1376   */\n  dup3\n    /* \"#utility.yul\":1359:1368   */\n  dup10\n    /* \"#utility.yul\":1355:1377   */\n  add\n    /* \"#utility.yul\":1323:1387   */\n  tag_13\n  jump\t// in\ntag_30:\n    /* \"#utility.yul\":1313:1387   */\n  swap5\n  pop\n    /* \"#utility.yul\":1268:1397   */\n  pop\n    /* \"#utility.yul\":1436:1438   */\n  0x40\n    /* \"#utility.yul\":1462:1526   */\n  tag_31\n    /* \"#utility.yul\":1518:1525   */\n  dup9\n    /* \"#utility.yul\":1509:1515   */\n  dup3\n    /* \"#utility.yul\":1498:1507   */\n  dup10\n    /* \"#utility.yul\":1494:1516   */\n  add\n    /* \"#utility.yul\":1462:1526   */\n  tag_13\n  jump\t// in\ntag_31:\n    /* \"#utility.yul\":1452:1526   */\n  swap4\n  pop\n    /* \"#utility.yul\":1407:1536   */\n  pop\n    /* \"#utility.yul\":1575:1577   */\n  0x60\n    /* \"#utility.yul\":1601:1665   */\n  tag_32\n    /* \"#utility.yul\":1657:1664   */\n  dup9\n    /* \"#utility.yul\":1648:1654   */\n  dup3\n    /* \"#utility.yul\":1637:1646   */\n  dup10\n    /* \"#utility.yul\":1633:1655   */\n  add\n    /* \"#utility.yul\":1601:1665   */\n  tag_13\n  jump\t// in\ntag_32:\n    /* \"#utility.yul\":1591:1665   */\n  swap3\n  pop\n    /* \"#utility.yul\":1546:1675   */\n  pop\n    /* \"#utility.yul\":1714:1717   */\n  0x80\n    /* \"#utility.yul\":1741:1805   */\n  tag_33\n    /* \"#utility.yul\":1797:1804   */\n  dup9\n    /* \"#utility.yul\":1788:1794   */\n  dup3\n    /* \"#utility.yul\":1777:1786   */\n  dup10\n    /* \"#utility.yul\":1773:1795   */\n  add\n    /* \"#utility.yul\":1741:1805   */\n  tag_13\n  jump\t// in\ntag_33:\n    /* \"#utility.yul\":1731:1805   */\n  swap2\n  pop\n    /* \"#utility.yul\":1685:1815   */\n  pop\n    /* \"#utility.yul\":845:1822   */\n  swap3\n  swap6\n  pop\n  swap3\n  swap6\n  swap1\n  swap4\n  pop\n  jump\t// out\n    /* \"contracts/Functionalities.sol\":66:2727  contract SupplyChain {... */\ntag_6:\n  dataSize(sub_0)\n  dup1\n  dataOffset(sub_0)\n  0x00\n  codecopy\n  0x00\n  return\nstop\n\nsub_0: assembly {\n        /* \"contracts/Functionalities.sol\":66:2727  contract SupplyChain {... */\n      mstore(0x40, 0x80)\n      callvalue\n      dup1\n      iszero\n      tag_1\n      jumpi\n      0x00\n      dup1\n      revert\n    tag_1:\n      pop\n      jumpi(tag_2, lt(calldatasize, 0x04))\n      shr(0xe0, calldataload(0x00))\n      dup1\n      0x76cdb03b\n      gt\n      tag_16\n      jumpi\n      dup1\n      0xb8b4f1a0\n      gt\n      tag_17\n      jumpi\n      dup1\n      0xb8b4f1a0\n      eq\n      tag_12\n      jumpi\n      dup1\n      0xd811fcf0\n      eq\n      tag_13\n      jumpi\n      dup1\n      0xf0ff0ee6\n      eq\n      tag_14\n      jumpi\n      dup1\n      0xf966ade7\n      eq\n      tag_15\n      jumpi\n      jump(tag_2)\n    tag_17:\n      dup1\n      0x76cdb03b\n      eq\n      tag_9\n      jumpi\n      dup1\n      0x9b622769\n      eq\n      tag_10\n      jumpi\n      dup1\n      0xa3c29885\n      eq\n      tag_11\n      jumpi\n      jump(tag_2)\n    tag_16:\n      dup1\n      0x0e9c1aea\n      eq\n      tag_3\n      jumpi\n      dup1\n      0x27d6d6e0\n      eq\n      tag_4\n      jumpi\n      dup1\n      0x400777b0\n      eq\n      tag_5\n      jumpi\n      dup1\n      0x4546a375\n      eq\n      tag_6\n      jumpi\n      dup1\n      0x4e123761\n      eq\n      tag_7\n      jumpi\n      dup1\n      0x5b23df56\n      eq\n      tag_8\n      jumpi\n    tag_2:\n      0x00\n      dup1\n      revert\n        /* \"contracts/Functionalities.sol\":350:393  mapping(address => bool) public isLoanTaken */\n    tag_3:\n      tag_18\n      0x04\n      dup1\n      calldatasize\n      sub\n      dup2\n      add\n      swap1\n      tag_19\n      swap2\n      swap1\n      tag_20\n      jump\t// in\n    tag_19:\n      tag_21\n      jump\t// in\n    tag_18:\n      mload(0x40)\n      tag_22\n      swap2\n      swap1\n      tag_23\n      jump\t// in\n    tag_22:\n      mload(0x40)\n      dup1\n      swap2\n      sub\n      swap1\n      return\n        /* \"contracts/Functionalities.sol\":400:444  mapping(address => address) public ownership */\n    tag_4:\n      tag_24\n      0x04\n      dup1\n      calldatasize\n      sub\n      dup2\n      add\n      swap1\n      tag_25\n      swap2\n      swap1\n      tag_20\n      jump\t// in\n    tag_25:\n      tag_26\n      jump\t// in\n    tag_24:\n      mload(0x40)\n      tag_27\n      swap2\n      swap1\n      tag_28\n      jump\t// in\n    tag_27:\n      mload(0x40)\n      dup1\n      swap2\n      sub\n      swap1\n      return\n        /* \"contracts/Functionalities.sol\":242:288  mapping(address => uint256) public goodsStored */\n    tag_5:\n      tag_29\n      0x04\n      dup1\n      calldatasize\n      sub\n      dup2\n      add\n      swap1\n      tag_30\n      swap2\n      swap1\n      tag_20\n      jump\t// in\n    tag_30:\n      tag_31\n      jump\t// in\n    tag_29:\n      mload(0x40)\n      tag_32\n      swap2\n      swap1\n      tag_33\n      jump\t// in\n    tag_32:\n      mload(0x40)\n      dup1\n      swap2\n      sub\n      swap1\n      return\n        /* \"contracts/Functionalities.sol\":211:233  address public bcAgent */\n    tag_6:\n      tag_34\n      tag_35\n      jump\t// in\n    tag_34:\n      mload(0x40)\n      tag_36\n      swap2\n      swap1\n      tag_28\n      jump\t// in\n    tag_36:\n      mload(0x40)\n      dup1\n      swap2\n      sub\n      swap1\n      return\n        /* \"contracts/Functionalities.sol\":1131:1395  function storeGoods(uint256 amount) external {... */\n    tag_7:\n      tag_37\n      0x04\n      dup1\n      calldatasize\n      sub\n      dup2\n      add\n      swap1\n      tag_38\n      swap2\n      swap1\n      tag_39\n      jump\t// in\n    tag_38:\n      tag_40\n      jump\t// in\n    tag_37:\n      stop\n        /* \"contracts/Functionalities.sol\":1698:2350  function transferOwnershipToBank() external {... */\n    tag_8:\n      tag_41\n      tag_42\n      jump\t// in\n    tag_41:\n      stop\n        /* \"contracts/Functionalities.sol\":157:176  address public bank */\n    tag_9:\n      tag_43\n      tag_44\n      jump\t// in\n    tag_43:\n      mload(0x40)\n      tag_45\n      swap2\n      swap1\n      tag_28\n      jump\t// in\n    tag_45:\n      mload(0x40)\n      dup1\n      swap2\n      sub\n      swap1\n      return\n        /* \"contracts/Functionalities.sol\":126:150  address public warehouse */\n    tag_10:\n      tag_46\n      tag_47\n      jump\t// in\n    tag_46:\n      mload(0x40)\n      tag_48\n      swap2\n      swap1\n      tag_28\n      jump\t// in\n    tag_48:\n      mload(0x40)\n      dup1\n      swap2\n      sub\n      swap1\n      return\n        /* \"contracts/Functionalities.sol\":94:119  address public gtidsAdmin */\n    tag_11:\n      tag_49\n      tag_50\n      jump\t// in\n    tag_49:\n      mload(0x40)\n      tag_51\n      swap2\n      swap1\n      tag_28\n      jump\t// in\n    tag_51:\n      mload(0x40)\n      dup1\n      swap2\n      sub\n      swap1\n      return\n        /* \"contracts/Functionalities.sol\":1403:1690  function signContract() external {... */\n    tag_12:\n      tag_52\n      tag_53\n      jump\t// in\n    tag_52:\n      stop\n        /* \"contracts/Functionalities.sol\":183:204  address public farmer */\n    tag_13:\n      tag_54\n      tag_55\n      jump\t// in\n    tag_54:\n      mload(0x40)\n      tag_56\n      swap2\n      swap1\n      tag_28\n      jump\t// in\n    tag_56:\n      mload(0x40)\n      dup1\n      swap2\n      sub\n      swap1\n      return\n        /* \"contracts/Functionalities.sol\":295:343  mapping(address => bool) public isContractSigned */\n    tag_14:\n      tag_57\n      0x04\n      dup1\n      calldatasize\n      sub\n      dup2\n      add\n      swap1\n      tag_58\n      swap2\n      swap1\n      tag_20\n      jump\t// in\n    tag_58:\n      tag_59\n      jump\t// in\n    tag_57:\n      mload(0x40)\n      tag_60\n      swap2\n      swap1\n      tag_23\n      jump\t// in\n    tag_60:\n      mload(0x40)\n      dup1\n      swap2\n      sub\n      swap1\n      return\n        /* \"contracts/Functionalities.sol\":2358:2724  function repayLoan() external {... */\n    tag_15:\n      tag_61\n      tag_62\n      jump\t// in\n    tag_61:\n      stop\n        /* \"contracts/Functionalities.sol\":350:393  mapping(address => bool) public isLoanTaken */\n    tag_21:\n      mstore(0x20, 0x07)\n      dup1\n      0x00\n      mstore\n      keccak256(0x00, 0x40)\n      0x00\n      swap2\n      pop\n      sload\n      swap1\n      0x0100\n      exp\n      swap1\n      div\n      0xff\n      and\n      dup2\n      jump\t// out\n        /* \"contracts/Functionalities.sol\":400:444  mapping(address => address) public ownership */\n    tag_26:\n      mstore(0x20, 0x08)\n      dup1\n      0x00\n      mstore\n      keccak256(0x00, 0x40)\n      0x00\n      swap2\n      pop\n      sload\n      swap1\n      0x0100\n      exp\n      swap1\n      div\n      0xffffffffffffffffffffffffffffffffffffffff\n      and\n      dup2\n      jump\t// out\n        /* \"contracts/Functionalities.sol\":242:288  mapping(address => uint256) public goodsStored */\n    tag_31:\n      mstore(0x20, 0x05)\n      dup1\n      0x00\n      mstore\n      keccak256(0x00, 0x40)\n      0x00\n      swap2\n      pop\n      swap1\n      pop\n      sload\n      dup2\n      jump\t// out\n        /* \"contracts/Functionalities.sol\":211:233  address public bcAgent */\n    tag_35:\n      0x04\n      0x00\n      swap1\n      sload\n      swap1\n      0x0100\n      exp\n      swap1\n      div\n      0xffffffffffffffffffffffffffffffffffffffff\n      and\n      dup2\n      jump\t// out\n        /* \"contracts/Functionalities.sol\":1131:1395  function storeGoods(uint256 amount) external {... */\n    tag_40:\n        /* \"contracts/Functionalities.sol\":1209:1215  farmer */\n      0x03\n      0x00\n      swap1\n      sload\n      swap1\n      0x0100\n      exp\n      swap1\n      div\n      0xffffffffffffffffffffffffffffffffffffffff\n      and\n        /* \"contracts/Functionalities.sol\":1195:1215  msg.sender == farmer */\n      0xffffffffffffffffffffffffffffffffffffffff\n      and\n        /* \"contracts/Functionalities.sol\":1195:1205  msg.sender */\n      caller\n        /* \"contracts/Functionalities.sol\":1195:1215  msg.sender == farmer */\n      0xffffffffffffffffffffffffffffffffffffffff\n      and\n      eq\n        /* \"contracts/Functionalities.sol\":1187:1252  require(msg.sender == farmer, \"Only the farmer can store goods.\") */\n      tag_64\n      jumpi\n      mload(0x40)\n      0x08c379a000000000000000000000000000000000000000000000000000000000\n      dup2\n      mstore\n      0x04\n      add\n      tag_65\n      swap1\n      tag_66\n      jump\t// in\n    tag_65:\n      mload(0x40)\n      dup1\n      swap2\n      sub\n      swap1\n      revert\n    tag_64:\n        /* \"contracts/Functionalities.sol\":1285:1291  amount */\n      dup1\n        /* \"contracts/Functionalities.sol\":1263:1274  goodsStored */\n      0x05\n        /* \"contracts/Functionalities.sol\":1263:1282  goodsStored[farmer] */\n      0x00\n        /* \"contracts/Functionalities.sol\":1275:1281  farmer */\n      0x03\n      0x00\n      swap1\n      sload\n      swap1\n      0x0100\n      exp\n      swap1\n      div\n      0xffffffffffffffffffffffffffffffffffffffff\n      and\n        /* \"contracts/Functionalities.sol\":1263:1282  goodsStored[farmer] */\n      0xffffffffffffffffffffffffffffffffffffffff\n      and\n      0xffffffffffffffffffffffffffffffffffffffff\n      and\n      dup2\n      mstore\n      0x20\n      add\n      swap1\n      dup2\n      mstore\n      0x20\n      add\n      0x00\n      keccak256\n        /* \"contracts/Functionalities.sol\":1263:1291  goodsStored[farmer] = amount */\n      dup2\n      swap1\n      sstore\n      pop\n        /* \"contracts/Functionalities.sol\":1319:1325  farmer */\n      0x03\n      0x00\n      swap1\n      sload\n      swap1\n      0x0100\n      exp\n      swap1\n      div\n      0xffffffffffffffffffffffffffffffffffffffff\n      and\n        /* \"contracts/Functionalities.sol\":1307:1334  GoodsStored(farmer, amount) */\n      0xffffffffffffffffffffffffffffffffffffffff\n      and\n      0xcd0e60707198c9d197ab0fb2b1f89fb950a5c432ae91910a9c850090878891fd\n        /* \"contracts/Functionalities.sol\":1327:1333  amount */\n      dup3\n        /* \"contracts/Functionalities.sol\":1307:1334  GoodsStored(farmer, amount) */\n      mload(0x40)\n      tag_67\n      swap2\n      swap1\n      tag_33\n      jump\t// in\n    tag_67:\n      mload(0x40)\n      dup1\n      swap2\n      sub\n      swap1\n      log2\n        /* \"contracts/Functionalities.sol\":1131:1395  function storeGoods(uint256 amount) external {... */\n      pop\n      jump\t// out\n        /* \"contracts/Functionalities.sol\":1698:2350  function transferOwnershipToBank() external {... */\n    tag_42:\n        /* \"contracts/Functionalities.sol\":1789:1795  farmer */\n      0x03\n      0x00\n      swap1\n      sload\n      swap1\n      0x0100\n      exp\n      swap1\n      div\n      0xffffffffffffffffffffffffffffffffffffffff\n      and\n        /* \"contracts/Functionalities.sol\":1775:1795  msg.sender == farmer */\n      0xffffffffffffffffffffffffffffffffffffffff\n      and\n        /* \"contracts/Functionalities.sol\":1775:1785  msg.sender */\n      caller\n        /* \"contracts/Functionalities.sol\":1775:1795  msg.sender == farmer */\n      0xffffffffffffffffffffffffffffffffffffffff\n      and\n      eq\n        /* \"contracts/Functionalities.sol\":1753:1874  require(... */\n      tag_69\n      jumpi\n      mload(0x40)\n      0x08c379a000000000000000000000000000000000000000000000000000000000\n      dup2\n      mstore\n      0x04\n      add\n      tag_70\n      swap1\n      tag_71\n      jump\t// in\n    tag_70:\n      mload(0x40)\n      dup1\n      swap2\n      sub\n      swap1\n      revert\n    tag_69:\n        /* \"contracts/Functionalities.sol\":1907:1923  isContractSigned */\n      0x06\n        /* \"contracts/Functionalities.sol\":1907:1931  isContractSigned[farmer] */\n      0x00\n        /* \"contracts/Functionalities.sol\":1924:1930  farmer */\n      0x03\n      0x00\n      swap1\n      sload\n      swap1\n      0x0100\n      exp\n      swap1\n      div\n      0xffffffffffffffffffffffffffffffffffffffff\n      and\n        /* \"contracts/Functionalities.sol\":1907:1931  isContractSigned[farmer] */\n      0xffffffffffffffffffffffffffffffffffffffff\n      and\n      0xffffffffffffffffffffffffffffffffffffffff\n      and\n      dup2\n      mstore\n      0x20\n      add\n      swap1\n      dup2\n      mstore\n      0x20\n      add\n      0x00\n      keccak256\n      0x00\n      swap1\n      sload\n      swap1\n      0x0100\n      exp\n      swap1\n      div\n      0xff\n      and\n        /* \"contracts/Functionalities.sol\":1885:2013  require(... */\n      tag_72\n      jumpi\n      mload(0x40)\n      0x08c379a000000000000000000000000000000000000000000000000000000000\n      dup2\n      mstore\n      0x04\n      add\n      tag_73\n      swap1\n      tag_74\n      jump\t// in\n    tag_73:\n      mload(0x40)\n      dup1\n      swap2\n      sub\n      swap1\n      revert\n    tag_72:\n        /* \"contracts/Functionalities.sol\":2047:2058  isLoanTaken */\n      0x07\n        /* \"contracts/Functionalities.sol\":2047:2066  isLoanTaken[farmer] */\n      0x00\n        /* \"contracts/Functionalities.sol\":2059:2065  farmer */\n      0x03\n      0x00\n      swap1\n      sload\n      swap1\n      0x0100\n      exp\n      swap1\n      div\n      0xffffffffffffffffffffffffffffffffffffffff\n      and\n        /* \"contracts/Functionalities.sol\":2047:2066  isLoanTaken[farmer] */\n      0xffffffffffffffffffffffffffffffffffffffff\n      and\n      0xffffffffffffffffffffffffffffffffffffffff\n      and\n      dup2\n      mstore\n      0x20\n      add\n      swap1\n      dup2\n      mstore\n      0x20\n      add\n      0x00\n      keccak256\n      0x00\n      swap1\n      sload\n      swap1\n      0x0100\n      exp\n      swap1\n      div\n      0xff\n      and\n        /* \"contracts/Functionalities.sol\":2046:2066  !isLoanTaken[farmer] */\n      iszero\n        /* \"contracts/Functionalities.sol\":2024:2136  require(... */\n      tag_75\n      jumpi\n      mload(0x40)\n      0x08c379a000000000000000000000000000000000000000000000000000000000\n      dup2\n      mstore\n      0x04\n      add\n      tag_76\n      swap1\n      tag_77\n      jump\t// in\n    tag_76:\n      mload(0x40)\n      dup1\n      swap2\n      sub\n      swap1\n      revert\n    tag_75:\n        /* \"contracts/Functionalities.sol\":2212:2216  bank */\n      0x02\n      0x00\n      swap1\n      sload\n      swap1\n      0x0100\n      exp\n      swap1\n      div\n      0xffffffffffffffffffffffffffffffffffffffff\n      and\n        /* \"contracts/Functionalities.sol\":2192:2201  ownership */\n      0x08\n        /* \"contracts/Functionalities.sol\":2192:2209  ownership[farmer] */\n      0x00\n        /* \"contracts/Functionalities.sol\":2202:2208  farmer */\n      0x03\n      0x00\n      swap1\n      sload\n      swap1\n      0x0100\n      exp\n      swap1\n      div\n      0xffffffffffffffffffffffffffffffffffffffff\n      and\n        /* \"contracts/Functionalities.sol\":2192:2209  ownership[farmer] */\n      0xffffffffffffffffffffffffffffffffffffffff\n      and\n      0xffffffffffffffffffffffffffffffffffffffff\n      and\n      dup2\n      mstore\n      0x20\n      add\n      swap1\n      dup2\n      mstore\n      0x20\n      add\n      0x00\n      keccak256\n      0x00\n        /* \"contracts/Functionalities.sol\":2192:2216  ownership[farmer] = bank */\n      0x0100\n      exp\n      dup2\n      sload\n      dup2\n      0xffffffffffffffffffffffffffffffffffffffff\n      mul\n      not\n      and\n      swap1\n      dup4\n      0xffffffffffffffffffffffffffffffffffffffff\n      and\n      mul\n      or\n      swap1\n      sstore\n      pop\n        /* \"contracts/Functionalities.sol\":2249:2253  true */\n      0x01\n        /* \"contracts/Functionalities.sol\":2227:2238  isLoanTaken */\n      0x07\n        /* \"contracts/Functionalities.sol\":2227:2246  isLoanTaken[farmer] */\n      0x00\n        /* \"contracts/Functionalities.sol\":2239:2245  farmer */\n      0x03\n      0x00\n      swap1\n      sload\n      swap1\n      0x0100\n      exp\n      swap1\n      div\n      0xffffffffffffffffffffffffffffffffffffffff\n      and\n        /* \"contracts/Functionalities.sol\":2227:2246  isLoanTaken[farmer] */\n      0xffffffffffffffffffffffffffffffffffffffff\n      and\n      0xffffffffffffffffffffffffffffffffffffffff\n      and\n      dup2\n      mstore\n      0x20\n      add\n      swap1\n      dup2\n      mstore\n      0x20\n      add\n      0x00\n      keccak256\n      0x00\n        /* \"contracts/Functionalities.sol\":2227:2253  isLoanTaken[farmer] = true */\n      0x0100\n      exp\n      dup2\n      sload\n      dup2\n      0xff\n      mul\n      not\n      and\n      swap1\n      dup4\n      iszero\n      iszero\n      mul\n      or\n      swap1\n      sstore\n      pop\n        /* \"contracts/Functionalities.sol\":2298:2302  bank */\n      0x02\n      0x00\n      swap1\n      sload\n      swap1\n      0x0100\n      exp\n      swap1\n      div\n      0xffffffffffffffffffffffffffffffffffffffff\n      and\n        /* \"contracts/Functionalities.sol\":2269:2303  OwnershipTransferred(farmer, bank) */\n      0xffffffffffffffffffffffffffffffffffffffff\n      and\n        /* \"contracts/Functionalities.sol\":2290:2296  farmer */\n      0x03\n      0x00\n      swap1\n      sload\n      swap1\n      0x0100\n      exp\n      swap1\n      div\n      0xffffffffffffffffffffffffffffffffffffffff\n      and\n        /* \"contracts/Functionalities.sol\":2269:2303  OwnershipTransferred(farmer, bank) */\n      0xffffffffffffffffffffffffffffffffffffffff\n      and\n      0x8be0079c531659141344cd1fd0a4f28419497f9722a3daafe3b4186f6b6457e0\n      mload(0x40)\n      mload(0x40)\n      dup1\n      swap2\n      sub\n      swap1\n      log3\n        /* \"contracts/Functionalities.sol\":2337:2341  bank */\n      0x02\n      0x00\n      swap1\n      sload\n      swap1\n      0x0100\n      exp\n      swap1\n      div\n      0xffffffffffffffffffffffffffffffffffffffff\n      and\n        /* \"contracts/Functionalities.sol\":2319:2342  LoanTaken(farmer, bank) */\n      0xffffffffffffffffffffffffffffffffffffffff\n      and\n        /* \"contracts/Functionalities.sol\":2329:2335  farmer */\n      0x03\n      0x00\n      swap1\n      sload\n      swap1\n      0x0100\n      exp\n      swap1\n      div\n      0xffffffffffffffffffffffffffffffffffffffff\n      and\n        /* \"contracts/Functionalities.sol\":2319:2342  LoanTaken(farmer, bank) */\n      0xffffffffffffffffffffffffffffffffffffffff\n      and\n      0x04d3d00e626d7a1bc4ec766425429841a1ab4dc9307812bf4d766cef5b8d65cf\n      mload(0x40)\n      mload(0x40)\n      dup1\n      swap2\n      sub\n      swap1\n      log3\n        /* \"contracts/Functionalities.sol\":1698:2350  function transferOwnershipToBank() external {... */\n      jump\t// out\n        /* \"contracts/Functionalities.sol\":157:176  address public bank */\n    tag_44:\n      0x02\n      0x00\n      swap1\n      sload\n      swap1\n      0x0100\n      exp\n      swap1\n      div\n      0xffffffffffffffffffffffffffffffffffffffff\n      and\n      dup2\n      jump\t// out\n        /* \"contracts/Functionalities.sol\":126:150  address public warehouse */\n    tag_47:\n      0x01\n      0x00\n      swap1\n      sload\n      swap1\n      0x0100\n      exp\n      swap1\n      div\n      0xffffffffffffffffffffffffffffffffffffffff\n      and\n      dup2\n      jump\t// out\n        /* \"contracts/Functionalities.sol\":94:119  address public gtidsAdmin */\n    tag_50:\n      0x00\n      dup1\n      sload\n      swap1\n      0x0100\n      exp\n      swap1\n      div\n      0xffffffffffffffffffffffffffffffffffffffff\n      and\n      dup2\n      jump\t// out\n        /* \"contracts/Functionalities.sol\":1403:1690  function signContract() external {... */\n    tag_53:\n        /* \"contracts/Functionalities.sol\":1469:1475  farmer */\n      0x03\n      0x00\n      swap1\n      sload\n      swap1\n      0x0100\n      exp\n      swap1\n      div\n      0xffffffffffffffffffffffffffffffffffffffff\n      and\n        /* \"contracts/Functionalities.sol\":1455:1475  msg.sender == farmer */\n      0xffffffffffffffffffffffffffffffffffffffff\n      and\n        /* \"contracts/Functionalities.sol\":1455:1465  msg.sender */\n      caller\n        /* \"contracts/Functionalities.sol\":1455:1475  msg.sender == farmer */\n      0xffffffffffffffffffffffffffffffffffffffff\n      and\n      eq\n        /* \"contracts/Functionalities.sol\":1447:1518  require(msg.sender == farmer, \"Only the farmer can sign the contract.\") */\n      tag_79\n      jumpi\n      mload(0x40)\n      0x08c379a000000000000000000000000000000000000000000000000000000000\n      dup2\n      mstore\n      0x04\n      add\n      tag_80\n      swap1\n      tag_81\n      jump\t// in\n    tag_80:\n      mload(0x40)\n      dup1\n      swap2\n      sub\n      swap1\n      revert\n    tag_79:\n        /* \"contracts/Functionalities.sol\":1538:1554  isContractSigned */\n      0x06\n        /* \"contracts/Functionalities.sol\":1538:1562  isContractSigned[farmer] */\n      0x00\n        /* \"contracts/Functionalities.sol\":1555:1561  farmer */\n      0x03\n      0x00\n      swap1\n      sload\n      swap1\n      0x0100\n      exp\n      swap1\n      div\n      0xffffffffffffffffffffffffffffffffffffffff\n      and\n        /* \"contracts/Functionalities.sol\":1538:1562  isContractSigned[farmer] */\n      0xffffffffffffffffffffffffffffffffffffffff\n      and\n      0xffffffffffffffffffffffffffffffffffffffff\n      and\n      dup2\n      mstore\n      0x20\n      add\n      swap1\n      dup2\n      mstore\n      0x20\n      add\n      0x00\n      keccak256\n      0x00\n      swap1\n      sload\n      swap1\n      0x0100\n      exp\n      swap1\n      div\n      0xff\n      and\n        /* \"contracts/Functionalities.sol\":1537:1562  !isContractSigned[farmer] */\n      iszero\n        /* \"contracts/Functionalities.sol\":1529:1591  require(!isContractSigned[farmer], \"Contract already signed.\") */\n      tag_82\n      jumpi\n      mload(0x40)\n      0x08c379a000000000000000000000000000000000000000000000000000000000\n      dup2\n      mstore\n      0x04\n      add\n      tag_83\n      swap1\n      tag_84\n      jump\t// in\n    tag_83:\n      mload(0x40)\n      dup1\n      swap2\n      sub\n      swap1\n      revert\n    tag_82:\n        /* \"contracts/Functionalities.sol\":1629:1633  true */\n      0x01\n        /* \"contracts/Functionalities.sol\":1602:1618  isContractSigned */\n      0x06\n        /* \"contracts/Functionalities.sol\":1602:1626  isContractSigned[farmer] */\n      0x00\n        /* \"contracts/Functionalities.sol\":1619:1625  farmer */\n      0x03\n      0x00\n      swap1\n      sload\n      swap1\n      0x0100\n      exp\n      swap1\n      div\n      0xffffffffffffffffffffffffffffffffffffffff\n      and\n        /* \"contracts/Functionalities.sol\":1602:1626  isContractSigned[farmer] */\n      0xffffffffffffffffffffffffffffffffffffffff\n      and\n      0xffffffffffffffffffffffffffffffffffffffff\n      and\n      dup2\n      mstore\n      0x20\n      add\n      swap1\n      dup2\n      mstore\n      0x20\n      add\n      0x00\n      keccak256\n      0x00\n        /* \"contracts/Functionalities.sol\":1602:1633  isContractSigned[farmer] = true */\n      0x0100\n      exp\n      dup2\n      sload\n      dup2\n      0xff\n      mul\n      not\n      and\n      swap1\n      dup4\n      iszero\n      iszero\n      mul\n      or\n      swap1\n      sstore\n      pop\n        /* \"contracts/Functionalities.sol\":1672:1681  warehouse */\n      0x01\n      0x00\n      swap1\n      sload\n      swap1\n      0x0100\n      exp\n      swap1\n      div\n      0xffffffffffffffffffffffffffffffffffffffff\n      and\n        /* \"contracts/Functionalities.sol\":1649:1682  ContractSigned(farmer, warehouse) */\n      0xffffffffffffffffffffffffffffffffffffffff\n      and\n        /* \"contracts/Functionalities.sol\":1664:1670  farmer */\n      0x03\n      0x00\n      swap1\n      sload\n      swap1\n      0x0100\n      exp\n      swap1\n      div\n      0xffffffffffffffffffffffffffffffffffffffff\n      and\n        /* \"contracts/Functionalities.sol\":1649:1682  ContractSigned(farmer, warehouse) */\n      0xffffffffffffffffffffffffffffffffffffffff\n      and\n      0x2e8ef42a9628bc1660f1f397a4fb77b6369005ddbe363f5510591f88db43b118\n      mload(0x40)\n      mload(0x40)\n      dup1\n      swap2\n      sub\n      swap1\n      log3\n        /* \"contracts/Functionalities.sol\":1403:1690  function signContract() external {... */\n      jump\t// out\n        /* \"contracts/Functionalities.sol\":183:204  address public farmer */\n    tag_55:\n      0x03\n      0x00\n      swap1\n      sload\n      swap1\n      0x0100\n      exp\n      swap1\n      div\n      0xffffffffffffffffffffffffffffffffffffffff\n      and\n      dup2\n      jump\t// out\n        /* \"contracts/Functionalities.sol\":295:343  mapping(address => bool) public isContractSigned */\n    tag_59:\n      mstore(0x20, 0x06)\n      dup1\n      0x00\n      mstore\n      keccak256(0x00, 0x40)\n      0x00\n      swap2\n      pop\n      sload\n      swap1\n      0x0100\n      exp\n      swap1\n      div\n      0xff\n      and\n      dup2\n      jump\t// out\n        /* \"contracts/Functionalities.sol\":2358:2724  function repayLoan() external {... */\n    tag_62:\n        /* \"contracts/Functionalities.sol\":2421:2427  farmer */\n      0x03\n      0x00\n      swap1\n      sload\n      swap1\n      0x0100\n      exp\n      swap1\n      div\n      0xffffffffffffffffffffffffffffffffffffffff\n      and\n        /* \"contracts/Functionalities.sol\":2407:2427  msg.sender == farmer */\n      0xffffffffffffffffffffffffffffffffffffffff\n      and\n        /* \"contracts/Functionalities.sol\":2407:2417  msg.sender */\n      caller\n        /* \"contracts/Functionalities.sol\":2407:2427  msg.sender == farmer */\n      0xffffffffffffffffffffffffffffffffffffffff\n      and\n      eq\n        /* \"contracts/Functionalities.sol\":2399:2467  require(msg.sender == farmer, \"Only the farmer can repay the loan.\") */\n      tag_86\n      jumpi\n      mload(0x40)\n      0x08c379a000000000000000000000000000000000000000000000000000000000\n      dup2\n      mstore\n      0x04\n      add\n      tag_87\n      swap1\n      tag_88\n      jump\t// in\n    tag_87:\n      mload(0x40)\n      dup1\n      swap2\n      sub\n      swap1\n      revert\n    tag_86:\n        /* \"contracts/Functionalities.sol\":2486:2497  isLoanTaken */\n      0x07\n        /* \"contracts/Functionalities.sol\":2486:2505  isLoanTaken[farmer] */\n      0x00\n        /* \"contracts/Functionalities.sol\":2498:2504  farmer */\n      0x03\n      0x00\n      swap1\n      sload\n      swap1\n      0x0100\n      exp\n      swap1\n      div\n      0xffffffffffffffffffffffffffffffffffffffff\n      and\n        /* \"contracts/Functionalities.sol\":2486:2505  isLoanTaken[farmer] */\n      0xffffffffffffffffffffffffffffffffffffffff\n      and\n      0xffffffffffffffffffffffffffffffffffffffff\n      and\n      dup2\n      mstore\n      0x20\n      add\n      swap1\n      dup2\n      mstore\n      0x20\n      add\n      0x00\n      keccak256\n      0x00\n      swap1\n      sload\n      swap1\n      0x0100\n      exp\n      swap1\n      div\n      0xff\n      and\n        /* \"contracts/Functionalities.sol\":2478:2547  require(isLoanTaken[farmer], \"No loan has been taken for the goods.\") */\n      tag_89\n      jumpi\n      mload(0x40)\n      0x08c379a000000000000000000000000000000000000000000000000000000000\n      dup2\n      mstore\n      0x04\n      add\n      tag_90\n      swap1\n      tag_91\n      jump\t// in\n    tag_90:\n      mload(0x40)\n      dup1\n      swap2\n      sub\n      swap1\n      revert\n    tag_89:\n        /* \"contracts/Functionalities.sol\":2580:2586  farmer */\n      0x03\n      0x00\n      swap1\n      sload\n      swap1\n      0x0100\n      exp\n      swap1\n      div\n      0xffffffffffffffffffffffffffffffffffffffff\n      and\n        /* \"contracts/Functionalities.sol\":2560:2569  ownership */\n      0x08\n        /* \"contracts/Functionalities.sol\":2560:2577  ownership[farmer] */\n      0x00\n        /* \"contracts/Functionalities.sol\":2570:2576  farmer */\n      0x03\n      0x00\n      swap1\n      sload\n      swap1\n      0x0100\n      exp\n      swap1\n      div\n      0xffffffffffffffffffffffffffffffffffffffff\n      and\n        /* \"contracts/Functionalities.sol\":2560:2577  ownership[farmer] */\n      0xffffffffffffffffffffffffffffffffffffffff\n      and\n      0xffffffffffffffffffffffffffffffffffffffff\n      and\n      dup2\n      mstore\n      0x20\n      add\n      swap1\n      dup2\n      mstore\n      0x20\n      add\n      0x00\n      keccak256\n      0x00\n        /* \"contracts/Functionalities.sol\":2560:2586  ownership[farmer] = farmer */\n      0x0100\n      exp\n      dup2\n      sload\n      dup2\n      0xffffffffffffffffffffffffffffffffffffffff\n      mul\n      not\n      and\n      swap1\n      dup4\n      0xffffffffffffffffffffffffffffffffffffffff\n      and\n      mul\n      or\n      swap1\n      sstore\n      pop\n        /* \"contracts/Functionalities.sol\":2619:2624  false */\n      0x00\n        /* \"contracts/Functionalities.sol\":2597:2608  isLoanTaken */\n      0x07\n        /* \"contracts/Functionalities.sol\":2597:2616  isLoanTaken[farmer] */\n      0x00\n        /* \"contracts/Functionalities.sol\":2609:2615  farmer */\n      0x03\n      0x00\n      swap1\n      sload\n      swap1\n      0x0100\n      exp\n      swap1\n      div\n      0xffffffffffffffffffffffffffffffffffffffff\n      and\n        /* \"contracts/Functionalities.sol\":2597:2616  isLoanTaken[farmer] */\n      0xffffffffffffffffffffffffffffffffffffffff\n      and\n      0xffffffffffffffffffffffffffffffffffffffff\n      and\n      dup2\n      mstore\n      0x20\n      add\n      swap1\n      dup2\n      mstore\n      0x20\n      add\n      0x00\n      keccak256\n      0x00\n        /* \"contracts/Functionalities.sol\":2597:2624  isLoanTaken[farmer] = false */\n      0x0100\n      exp\n      dup2\n      sload\n      dup2\n      0xff\n      mul\n      not\n      and\n      swap1\n      dup4\n      iszero\n      iszero\n      mul\n      or\n      swap1\n      sstore\n      pop\n        /* \"contracts/Functionalities.sol\":2669:2675  farmer */\n      0x03\n      0x00\n      swap1\n      sload\n      swap1\n      0x0100\n      exp\n      swap1\n      div\n      0xffffffffffffffffffffffffffffffffffffffff\n      and\n        /* \"contracts/Functionalities.sol\":2640:2676  OwnershipTransferred(farmer, farmer) */\n      0xffffffffffffffffffffffffffffffffffffffff\n      and\n        /* \"contracts/Functionalities.sol\":2661:2667  farmer */\n      0x03\n      0x00\n      swap1\n      sload\n      swap1\n      0x0100\n      exp\n      swap1\n      div\n      0xffffffffffffffffffffffffffffffffffffffff\n      and\n        /* \"contracts/Functionalities.sol\":2640:2676  OwnershipTransferred(farmer, farmer) */\n      0xffffffffffffffffffffffffffffffffffffffff\n      and\n      0x8be0079c531659141344cd1fd0a4f28419497f9722a3daafe3b4186f6b6457e0\n      mload(0x40)\n      mload(0x40)\n      dup1\n      swap2\n      sub\n      swap1\n      log3\n        /* \"contracts/Functionalities.sol\":2711:2715  bank */\n      0x02\n      0x00\n      swap1\n      sload\n      swap1\n      0x0100\n      exp\n      swap1\n      div\n      0xffffffffffffffffffffffffffffffffffffffff\n      and\n        /* \"contracts/Functionalities.sol\":2692:2716  LoanRepaid(farmer, bank) */\n      0xffffffffffffffffffffffffffffffffffffffff\n      and\n        /* \"contracts/Functionalities.sol\":2703:2709  farmer */\n      0x03\n      0x00\n      swap1\n      sload\n      swap1\n      0x0100\n      exp\n      swap1\n      div\n      0xffffffffffffffffffffffffffffffffffffffff\n      and\n        /* \"contracts/Functionalities.sol\":2692:2716  LoanRepaid(farmer, bank) */\n      0xffffffffffffffffffffffffffffffffffffffff\n      and\n      0xc845558dabd7a7a2c3c6e598cdc1de87e93ba0ae25fd05b86cc79efccd0703fb\n      mload(0x40)\n      mload(0x40)\n      dup1\n      swap2\n      sub\n      swap1\n      log3\n        /* \"contracts/Functionalities.sol\":2358:2724  function repayLoan() external {... */\n      jump\t// out\n        /* \"#utility.yul\":88:205   */\n    tag_93:\n        /* \"#utility.yul\":197:198   */\n      0x00\n        /* \"#utility.yul\":194:195   */\n      dup1\n        /* \"#utility.yul\":187:199   */\n      revert\n        /* \"#utility.yul\":334:460   */\n    tag_95:\n        /* \"#utility.yul\":371:378   */\n      0x00\n        /* \"#utility.yul\":411:453   */\n      0xffffffffffffffffffffffffffffffffffffffff\n        /* \"#utility.yul\":404:409   */\n      dup3\n        /* \"#utility.yul\":400:454   */\n      and\n        /* \"#utility.yul\":389:454   */\n      swap1\n      pop\n        /* \"#utility.yul\":334:460   */\n      swap2\n      swap1\n      pop\n      jump\t// out\n        /* \"#utility.yul\":466:562   */\n    tag_96:\n        /* \"#utility.yul\":503:510   */\n      0x00\n        /* \"#utility.yul\":532:556   */\n      tag_129\n        /* \"#utility.yul\":550:555   */\n      dup3\n        /* \"#utility.yul\":532:556   */\n      tag_95\n      jump\t// in\n    tag_129:\n        /* \"#utility.yul\":521:556   */\n      swap1\n      pop\n        /* \"#utility.yul\":466:562   */\n      swap2\n      swap1\n      pop\n      jump\t// out\n        /* \"#utility.yul\":568:690   */\n    tag_97:\n        /* \"#utility.yul\":641:665   */\n      tag_131\n        /* \"#utility.yul\":659:664   */\n      dup2\n        /* \"#utility.yul\":641:665   */\n      tag_96\n      jump\t// in\n    tag_131:\n        /* \"#utility.yul\":634:639   */\n      dup2\n        /* \"#utility.yul\":631:666   */\n      eq\n        /* \"#utility.yul\":621:684   */\n      tag_132\n      jumpi\n        /* \"#utility.yul\":680:681   */\n      0x00\n        /* \"#utility.yul\":677:678   */\n      dup1\n        /* \"#utility.yul\":670:682   */\n      revert\n        /* \"#utility.yul\":621:684   */\n    tag_132:\n        /* \"#utility.yul\":568:690   */\n      pop\n      jump\t// out\n        /* \"#utility.yul\":696:835   */\n    tag_98:\n        /* \"#utility.yul\":742:747   */\n      0x00\n        /* \"#utility.yul\":780:786   */\n      dup2\n        /* \"#utility.yul\":767:787   */\n      calldataload\n        /* \"#utility.yul\":758:787   */\n      swap1\n      pop\n        /* \"#utility.yul\":796:829   */\n      tag_134\n        /* \"#utility.yul\":823:828   */\n      dup2\n        /* \"#utility.yul\":796:829   */\n      tag_97\n      jump\t// in\n    tag_134:\n        /* \"#utility.yul\":696:835   */\n      swap3\n      swap2\n      pop\n      pop\n      jump\t// out\n        /* \"#utility.yul\":841:1170   */\n    tag_20:\n        /* \"#utility.yul\":900:906   */\n      0x00\n        /* \"#utility.yul\":949:951   */\n      0x20\n        /* \"#utility.yul\":937:946   */\n      dup3\n        /* \"#utility.yul\":928:935   */\n      dup5\n        /* \"#utility.yul\":924:947   */\n      sub\n        /* \"#utility.yul\":920:952   */\n      slt\n        /* \"#utility.yul\":917:1036   */\n      iszero\n      tag_136\n      jumpi\n        /* \"#utility.yul\":955:1034   */\n      tag_137\n      tag_93\n      jump\t// in\n    tag_137:\n        /* \"#utility.yul\":917:1036   */\n    tag_136:\n        /* \"#utility.yul\":1075:1076   */\n      0x00\n        /* \"#utility.yul\":1100:1153   */\n      tag_138\n        /* \"#utility.yul\":1145:1152   */\n      dup5\n        /* \"#utility.yul\":1136:1142   */\n      dup3\n        /* \"#utility.yul\":1125:1134   */\n      dup6\n        /* \"#utility.yul\":1121:1143   */\n      add\n        /* \"#utility.yul\":1100:1153   */\n      tag_98\n      jump\t// in\n    tag_138:\n        /* \"#utility.yul\":1090:1153   */\n      swap2\n      pop\n        /* \"#utility.yul\":1046:1163   */\n      pop\n        /* \"#utility.yul\":841:1170   */\n      swap3\n      swap2\n      pop\n      pop\n      jump\t// out\n        /* \"#utility.yul\":1176:1266   */\n    tag_99:\n        /* \"#utility.yul\":1210:1217   */\n      0x00\n        /* \"#utility.yul\":1253:1258   */\n      dup2\n        /* \"#utility.yul\":1246:1259   */\n      iszero\n        /* \"#utility.yul\":1239:1260   */\n      iszero\n        /* \"#utility.yul\":1228:1260   */\n      swap1\n      pop\n        /* \"#utility.yul\":1176:1266   */\n      swap2\n      swap1\n      pop\n      jump\t// out\n        /* \"#utility.yul\":1272:1381   */\n    tag_100:\n        /* \"#utility.yul\":1353:1374   */\n      tag_141\n        /* \"#utility.yul\":1368:1373   */\n      dup2\n        /* \"#utility.yul\":1353:1374   */\n      tag_99\n      jump\t// in\n    tag_141:\n        /* \"#utility.yul\":1348:1351   */\n      dup3\n        /* \"#utility.yul\":1341:1375   */\n      mstore\n        /* \"#utility.yul\":1272:1381   */\n      pop\n      pop\n      jump\t// out\n        /* \"#utility.yul\":1387:1597   */\n    tag_23:\n        /* \"#utility.yul\":1474:1478   */\n      0x00\n        /* \"#utility.yul\":1512:1514   */\n      0x20\n        /* \"#utility.yul\":1501:1510   */\n      dup3\n        /* \"#utility.yul\":1497:1515   */\n      add\n        /* \"#utility.yul\":1489:1515   */\n      swap1\n      pop\n        /* \"#utility.yul\":1525:1590   */\n      tag_143\n        /* \"#utility.yul\":1587:1588   */\n      0x00\n        /* \"#utility.yul\":1576:1585   */\n      dup4\n        /* \"#utility.yul\":1572:1589   */\n      add\n        /* \"#utility.yul\":1563:1569   */\n      dup5\n        /* \"#utility.yul\":1525:1590   */\n      tag_100\n      jump\t// in\n    tag_143:\n        /* \"#utility.yul\":1387:1597   */\n      swap3\n      swap2\n      pop\n      pop\n      jump\t// out\n        /* \"#utility.yul\":1603:1721   */\n    tag_101:\n        /* \"#utility.yul\":1690:1714   */\n      tag_145\n        /* \"#utility.yul\":1708:1713   */\n      dup2\n        /* \"#utility.yul\":1690:1714   */\n      tag_96\n      jump\t// in\n    tag_145:\n        /* \"#utility.yul\":1685:1688   */\n      dup3\n        /* \"#utility.yul\":1678:1715   */\n      mstore\n        /* \"#utility.yul\":1603:1721   */\n      pop\n      pop\n      jump\t// out\n        /* \"#utility.yul\":1727:1949   */\n    tag_28:\n        /* \"#utility.yul\":1820:1824   */\n      0x00\n        /* \"#utility.yul\":1858:1860   */\n      0x20\n        /* \"#utility.yul\":1847:1856   */\n      dup3\n        /* \"#utility.yul\":1843:1861   */\n      add\n        /* \"#utility.yul\":1835:1861   */\n      swap1\n      pop\n        /* \"#utility.yul\":1871:1942   */\n      tag_147\n        /* \"#utility.yul\":1939:1940   */\n      0x00\n        /* \"#utility.yul\":1928:1937   */\n      dup4\n        /* \"#utility.yul\":1924:1941   */\n      add\n        /* \"#utility.yul\":1915:1921   */\n      dup5\n        /* \"#utility.yul\":1871:1942   */\n      tag_101\n      jump\t// in\n    tag_147:\n        /* \"#utility.yul\":1727:1949   */\n      swap3\n      swap2\n      pop\n      pop\n      jump\t// out\n        /* \"#utility.yul\":1955:2032   */\n    tag_102:\n        /* \"#utility.yul\":1992:1999   */\n      0x00\n        /* \"#utility.yul\":2021:2026   */\n      dup2\n        /* \"#utility.yul\":2010:2026   */\n      swap1\n      pop\n        /* \"#utility.yul\":1955:2032   */\n      swap2\n      swap1\n      pop\n      jump\t// out\n        /* \"#utility.yul\":2038:2156   */\n    tag_103:\n        /* \"#utility.yul\":2125:2149   */\n      tag_150\n        /* \"#utility.yul\":2143:2148   */\n      dup2\n        /* \"#utility.yul\":2125:2149   */\n      tag_102\n      jump\t// in\n    tag_150:\n        /* \"#utility.yul\":2120:2123   */\n      dup3\n        /* \"#utility.yul\":2113:2150   */\n      mstore\n        /* \"#utility.yul\":2038:2156   */\n      pop\n      pop\n      jump\t// out\n        /* \"#utility.yul\":2162:2384   */\n    tag_33:\n        /* \"#utility.yul\":2255:2259   */\n      0x00\n        /* \"#utility.yul\":2293:2295   */\n      0x20\n        /* \"#utility.yul\":2282:2291   */\n      dup3\n        /* \"#utility.yul\":2278:2296   */\n      add\n        /* \"#utility.yul\":2270:2296   */\n      swap1\n      pop\n        /* \"#utility.yul\":2306:2377   */\n      tag_152\n        /* \"#utility.yul\":2374:2375   */\n      0x00\n        /* \"#utility.yul\":2363:2372   */\n      dup4\n        /* \"#utility.yul\":2359:2376   */\n      add\n        /* \"#utility.yul\":2350:2356   */\n      dup5\n        /* \"#utility.yul\":2306:2377   */\n      tag_103\n      jump\t// in\n    tag_152:\n        /* \"#utility.yul\":2162:2384   */\n      swap3\n      swap2\n      pop\n      pop\n      jump\t// out\n        /* \"#utility.yul\":2390:2512   */\n    tag_104:\n        /* \"#utility.yul\":2463:2487   */\n      tag_154\n        /* \"#utility.yul\":2481:2486   */\n      dup2\n        /* \"#utility.yul\":2463:2487   */\n      tag_102\n      jump\t// in\n    tag_154:\n        /* \"#utility.yul\":2456:2461   */\n      dup2\n        /* \"#utility.yul\":2453:2488   */\n      eq\n        /* \"#utility.yul\":2443:2506   */\n      tag_155\n      jumpi\n        /* \"#utility.yul\":2502:2503   */\n      0x00\n        /* \"#utility.yul\":2499:2500   */\n      dup1\n        /* \"#utility.yul\":2492:2504   */\n      revert\n        /* \"#utility.yul\":2443:2506   */\n    tag_155:\n        /* \"#utility.yul\":2390:2512   */\n      pop\n      jump\t// out\n        /* \"#utility.yul\":2518:2657   */\n    tag_105:\n        /* \"#utility.yul\":2564:2569   */\n      0x00\n        /* \"#utility.yul\":2602:2608   */\n      dup2\n        /* \"#utility.yul\":2589:2609   */\n      calldataload\n        /* \"#utility.yul\":2580:2609   */\n      swap1\n      pop\n        /* \"#utility.yul\":2618:2651   */\n      tag_157\n        /* \"#utility.yul\":2645:2650   */\n      dup2\n        /* \"#utility.yul\":2618:2651   */\n      tag_104\n      jump\t// in\n    tag_157:\n        /* \"#utility.yul\":2518:2657   */\n      swap3\n      swap2\n      pop\n      pop\n      jump\t// out\n        /* \"#utility.yul\":2663:2992   */\n    tag_39:\n        /* \"#utility.yul\":2722:2728   */\n      0x00\n        /* \"#utility.yul\":2771:2773   */\n      0x20\n        /* \"#utility.yul\":2759:2768   */\n      dup3\n        /* \"#utility.yul\":2750:2757   */\n      dup5\n        /* \"#utility.yul\":2746:2769   */\n      sub\n        /* \"#utility.yul\":2742:2774   */\n      slt\n        /* \"#utility.yul\":2739:2858   */\n      iszero\n      tag_159\n      jumpi\n        /* \"#utility.yul\":2777:2856   */\n      tag_160\n      tag_93\n      jump\t// in\n    tag_160:\n        /* \"#utility.yul\":2739:2858   */\n    tag_159:\n        /* \"#utility.yul\":2897:2898   */\n      0x00\n        /* \"#utility.yul\":2922:2975   */\n      tag_161\n        /* \"#utility.yul\":2967:2974   */\n      dup5\n        /* \"#utility.yul\":2958:2964   */\n      dup3\n        /* \"#utility.yul\":2947:2956   */\n      dup6\n        /* \"#utility.yul\":2943:2965   */\n      add\n        /* \"#utility.yul\":2922:2975   */\n      tag_105\n      jump\t// in\n    tag_161:\n        /* \"#utility.yul\":2912:2975   */\n      swap2\n      pop\n        /* \"#utility.yul\":2868:2985   */\n      pop\n        /* \"#utility.yul\":2663:2992   */\n      swap3\n      swap2\n      pop\n      pop\n      jump\t// out\n        /* \"#utility.yul\":2998:3167   */\n    tag_106:\n        /* \"#utility.yul\":3082:3093   */\n      0x00\n        /* \"#utility.yul\":3116:3122   */\n      dup3\n        /* \"#utility.yul\":3111:3114   */\n      dup3\n        /* \"#utility.yul\":3104:3123   */\n      mstore\n        /* \"#utility.yul\":3156:3160   */\n      0x20\n        /* \"#utility.yul\":3151:3154   */\n      dup3\n        /* \"#utility.yul\":3147:3161   */\n      add\n        /* \"#utility.yul\":3132:3161   */\n      swap1\n      pop\n        /* \"#utility.yul\":2998:3167   */\n      swap3\n      swap2\n      pop\n      pop\n      jump\t// out\n        /* \"#utility.yul\":3173:3355   */\n    tag_107:\n        /* \"#utility.yul\":3313:3347   */\n      0x4f6e6c7920746865206661726d65722063616e2073746f726520676f6f64732e\n        /* \"#utility.yul\":3309:3310   */\n      0x00\n        /* \"#utility.yul\":3301:3307   */\n      dup3\n        /* \"#utility.yul\":3297:3311   */\n      add\n        /* \"#utility.yul\":3290:3348   */\n      mstore\n        /* \"#utility.yul\":3173:3355   */\n      pop\n      jump\t// out\n        /* \"#utility.yul\":3361:3727   */\n    tag_108:\n        /* \"#utility.yul\":3503:3506   */\n      0x00\n        /* \"#utility.yul\":3524:3591   */\n      tag_165\n        /* \"#utility.yul\":3588:3590   */\n      0x20\n        /* \"#utility.yul\":3583:3586   */\n      dup4\n        /* \"#utility.yul\":3524:3591   */\n      tag_106\n      jump\t// in\n    tag_165:\n        /* \"#utility.yul\":3517:3591   */\n      swap2\n      pop\n        /* \"#utility.yul\":3600:3693   */\n      tag_166\n        /* \"#utility.yul\":3689:3692   */\n      dup3\n        /* \"#utility.yul\":3600:3693   */\n      tag_107\n      jump\t// in\n    tag_166:\n        /* \"#utility.yul\":3718:3720   */\n      0x20\n        /* \"#utility.yul\":3713:3716   */\n      dup3\n        /* \"#utility.yul\":3709:3721   */\n      add\n        /* \"#utility.yul\":3702:3721   */\n      swap1\n      pop\n        /* \"#utility.yul\":3361:3727   */\n      swap2\n      swap1\n      pop\n      jump\t// out\n        /* \"#utility.yul\":3733:4152   */\n    tag_66:\n        /* \"#utility.yul\":3899:3903   */\n      0x00\n        /* \"#utility.yul\":3937:3939   */\n      0x20\n        /* \"#utility.yul\":3926:3935   */\n      dup3\n        /* \"#utility.yul\":3922:3940   */\n      add\n        /* \"#utility.yul\":3914:3940   */\n      swap1\n      pop\n        /* \"#utility.yul\":3986:3995   */\n      dup2\n        /* \"#utility.yul\":3980:3984   */\n      dup2\n        /* \"#utility.yul\":3976:3996   */\n      sub\n        /* \"#utility.yul\":3972:3973   */\n      0x00\n        /* \"#utility.yul\":3961:3970   */\n      dup4\n        /* \"#utility.yul\":3957:3974   */\n      add\n        /* \"#utility.yul\":3950:3997   */\n      mstore\n        /* \"#utility.yul\":4014:4145   */\n      tag_168\n        /* \"#utility.yul\":4140:4144   */\n      dup2\n        /* \"#utility.yul\":4014:4145   */\n      tag_108\n      jump\t// in\n    tag_168:\n        /* \"#utility.yul\":4006:4145   */\n      swap1\n      pop\n        /* \"#utility.yul\":3733:4152   */\n      swap2\n      swap1\n      pop\n      jump\t// out\n        /* \"#utility.yul\":4158:4396   */\n    tag_109:\n        /* \"#utility.yul\":4298:4332   */\n      0x4f6e6c7920746865206661726d65722063616e207472616e73666572206f776e\n        /* \"#utility.yul\":4294:4295   */\n      0x00\n        /* \"#utility.yul\":4286:4292   */\n      dup3\n        /* \"#utility.yul\":4282:4296   */\n      add\n        /* \"#utility.yul\":4275:4333   */\n      mstore\n        /* \"#utility.yul\":4367:4388   */\n      0x65727368697020746f207468652062616e6b2e00000000000000000000000000\n        /* \"#utility.yul\":4362:4364   */\n      0x20\n        /* \"#utility.yul\":4354:4360   */\n      dup3\n        /* \"#utility.yul\":4350:4365   */\n      add\n        /* \"#utility.yul\":4343:4389   */\n      mstore\n        /* \"#utility.yul\":4158:4396   */\n      pop\n      jump\t// out\n        /* \"#utility.yul\":4402:4768   */\n    tag_110:\n        /* \"#utility.yul\":4544:4547   */\n      0x00\n        /* \"#utility.yul\":4565:4632   */\n      tag_171\n        /* \"#utility.yul\":4629:4631   */\n      0x33\n        /* \"#utility.yul\":4624:4627   */\n      dup4\n        /* \"#utility.yul\":4565:4632   */\n      tag_106\n      jump\t// in\n    tag_171:\n        /* \"#utility.yul\":4558:4632   */\n      swap2\n      pop\n        /* \"#utility.yul\":4641:4734   */\n      tag_172\n        /* \"#utility.yul\":4730:4733   */\n      dup3\n        /* \"#utility.yul\":4641:4734   */\n      tag_109\n      jump\t// in\n    tag_172:\n        /* \"#utility.yul\":4759:4761   */\n      0x40\n        /* \"#utility.yul\":4754:4757   */\n      dup3\n        /* \"#utility.yul\":4750:4762   */\n      add\n        /* \"#utility.yul\":4743:4762   */\n      swap1\n      pop\n        /* \"#utility.yul\":4402:4768   */\n      swap2\n      swap1\n      pop\n      jump\t// out\n        /* \"#utility.yul\":4774:5193   */\n    tag_71:\n        /* \"#utility.yul\":4940:4944   */\n      0x00\n        /* \"#utility.yul\":4978:4980   */\n      0x20\n        /* \"#utility.yul\":4967:4976   */\n      dup3\n        /* \"#utility.yul\":4963:4981   */\n      add\n        /* \"#utility.yul\":4955:4981   */\n      swap1\n      pop\n        /* \"#utility.yul\":5027:5036   */\n      dup2\n        /* \"#utility.yul\":5021:5025   */\n      dup2\n        /* \"#utility.yul\":5017:5037   */\n      sub\n        /* \"#utility.yul\":5013:5014   */\n      0x00\n        /* \"#utility.yul\":5002:5011   */\n      dup4\n        /* \"#utility.yul\":4998:5015   */\n      add\n        /* \"#utility.yul\":4991:5038   */\n      mstore\n        /* \"#utility.yul\":5055:5186   */\n      tag_174\n        /* \"#utility.yul\":5181:5185   */\n      dup2\n        /* \"#utility.yul\":5055:5186   */\n      tag_110\n      jump\t// in\n    tag_174:\n        /* \"#utility.yul\":5047:5186   */\n      swap1\n      pop\n        /* \"#utility.yul\":4774:5193   */\n      swap2\n      swap1\n      pop\n      jump\t// out\n        /* \"#utility.yul\":5199:5440   */\n    tag_111:\n        /* \"#utility.yul\":5339:5373   */\n      0x436f6e7472616374206d757374206265207369676e6564206265666f72652074\n        /* \"#utility.yul\":5335:5336   */\n      0x00\n        /* \"#utility.yul\":5327:5333   */\n      dup3\n        /* \"#utility.yul\":5323:5337   */\n      add\n        /* \"#utility.yul\":5316:5374   */\n      mstore\n        /* \"#utility.yul\":5408:5432   */\n      0x72616e7366657272696e67206f776e6572736869702e00000000000000000000\n        /* \"#utility.yul\":5403:5405   */\n      0x20\n        /* \"#utility.yul\":5395:5401   */\n      dup3\n        /* \"#utility.yul\":5391:5406   */\n      add\n        /* \"#utility.yul\":5384:5433   */\n      mstore\n        /* \"#utility.yul\":5199:5440   */\n      pop\n      jump\t// out\n        /* \"#utility.yul\":5446:5812   */\n    tag_112:\n        /* \"#utility.yul\":5588:5591   */\n      0x00\n        /* \"#utility.yul\":5609:5676   */\n      tag_177\n        /* \"#utility.yul\":5673:5675   */\n      0x36\n        /* \"#utility.yul\":5668:5671   */\n      dup4\n        /* \"#utility.yul\":5609:5676   */\n      tag_106\n      jump\t// in\n    tag_177:\n        /* \"#utility.yul\":5602:5676   */\n      swap2\n      pop\n        /* \"#utility.yul\":5685:5778   */\n      tag_178\n        /* \"#utility.yul\":5774:5777   */\n      dup3\n        /* \"#utility.yul\":5685:5778   */\n      tag_111\n      jump\t// in\n    tag_178:\n        /* \"#utility.yul\":5803:5805   */\n      0x40\n        /* \"#utility.yul\":5798:5801   */\n      dup3\n        /* \"#utility.yul\":5794:5806   */\n      add\n        /* \"#utility.yul\":5787:5806   */\n      swap1\n      pop\n        /* \"#utility.yul\":5446:5812   */\n      swap2\n      swap1\n      pop\n      jump\t// out\n        /* \"#utility.yul\":5818:6237   */\n    tag_74:\n        /* \"#utility.yul\":5984:5988   */\n      0x00\n        /* \"#utility.yul\":6022:6024   */\n      0x20\n        /* \"#utility.yul\":6011:6020   */\n      dup3\n        /* \"#utility.yul\":6007:6025   */\n      add\n        /* \"#utility.yul\":5999:6025   */\n      swap1\n      pop\n        /* \"#utility.yul\":6071:6080   */\n      dup2\n        /* \"#utility.yul\":6065:6069   */\n      dup2\n        /* \"#utility.yul\":6061:6081   */\n      sub\n        /* \"#utility.yul\":6057:6058   */\n      0x00\n        /* \"#utility.yul\":6046:6055   */\n      dup4\n        /* \"#utility.yul\":6042:6059   */\n      add\n        /* \"#utility.yul\":6035:6082   */\n      mstore\n        /* \"#utility.yul\":6099:6230   */\n      tag_180\n        /* \"#utility.yul\":6225:6229   */\n      dup2\n        /* \"#utility.yul\":6099:6230   */\n      tag_112\n      jump\t// in\n    tag_180:\n        /* \"#utility.yul\":6091:6230   */\n      swap1\n      pop\n        /* \"#utility.yul\":5818:6237   */\n      swap2\n      swap1\n      pop\n      jump\t// out\n        /* \"#utility.yul\":6243:6472   */\n    tag_113:\n        /* \"#utility.yul\":6383:6417   */\n      0x4c6f616e2068617320616c7265616479206265656e2074616b656e20666f7220\n        /* \"#utility.yul\":6379:6380   */\n      0x00\n        /* \"#utility.yul\":6371:6377   */\n      dup3\n        /* \"#utility.yul\":6367:6381   */\n      add\n        /* \"#utility.yul\":6360:6418   */\n      mstore\n        /* \"#utility.yul\":6452:6464   */\n      0x74686520676f6f64732e00000000000000000000000000000000000000000000\n        /* \"#utility.yul\":6447:6449   */\n      0x20\n        /* \"#utility.yul\":6439:6445   */\n      dup3\n        /* \"#utility.yul\":6435:6450   */\n      add\n        /* \"#utility.yul\":6428:6465   */\n      mstore\n        /* \"#utility.yul\":6243:6472   */\n      pop\n      jump\t// out\n        /* \"#utility.yul\":6478:6844   */\n    tag_114:\n        /* \"#utility.yul\":6620:6623   */\n      0x00\n        /* \"#utility.yul\":6641:6708   */\n      tag_183\n        /* \"#utility.yul\":6705:6707   */\n      0x2a\n        /* \"#utility.yul\":6700:6703   */\n      dup4\n        /* \"#utility.yul\":6641:6708   */\n      tag_106\n      jump\t// in\n    tag_183:\n        /* \"#utility.yul\":6634:6708   */\n      swap2\n      pop\n        /* \"#utility.yul\":6717:6810   */\n      tag_184\n        /* \"#utility.yul\":6806:6809   */\n      dup3\n        /* \"#utility.yul\":6717:6810   */\n      tag_113\n      jump\t// in\n    tag_184:\n        /* \"#utility.yul\":6835:6837   */\n      0x40\n        /* \"#utility.yul\":6830:6833   */\n      dup3\n        /* \"#utility.yul\":6826:6838   */\n      add\n        /* \"#utility.yul\":6819:6838   */\n      swap1\n      pop\n        /* \"#utility.yul\":6478:6844   */\n      swap2\n      swap1\n      pop\n      jump\t// out\n        /* \"#utility.yul\":6850:7269   */\n    tag_77:\n        /* \"#utility.yul\":7016:7020   */\n      0x00\n        /* \"#utility.yul\":7054:7056   */\n      0x20\n        /* \"#utility.yul\":7043:7052   */\n      dup3\n        /* \"#utility.yul\":7039:7057   */\n      add\n        /* \"#utility.yul\":7031:7057   */\n      swap1\n      pop\n        /* \"#utility.yul\":7103:7112   */\n      dup2\n        /* \"#utility.yul\":7097:7101   */\n      dup2\n        /* \"#utility.yul\":7093:7113   */\n      sub\n        /* \"#utility.yul\":7089:7090   */\n      0x00\n        /* \"#utility.yul\":7078:7087   */\n      dup4\n        /* \"#utility.yul\":7074:7091   */\n      add\n        /* \"#utility.yul\":7067:7114   */\n      mstore\n        /* \"#utility.yul\":7131:7262   */\n      tag_186\n        /* \"#utility.yul\":7257:7261   */\n      dup2\n        /* \"#utility.yul\":7131:7262   */\n      tag_114\n      jump\t// in\n    tag_186:\n        /* \"#utility.yul\":7123:7262   */\n      swap1\n      pop\n        /* \"#utility.yul\":6850:7269   */\n      swap2\n      swap1\n      pop\n      jump\t// out\n        /* \"#utility.yul\":7275:7500   */\n    tag_115:\n        /* \"#utility.yul\":7415:7449   */\n      0x4f6e6c7920746865206661726d65722063616e207369676e2074686520636f6e\n        /* \"#utility.yul\":7411:7412   */\n      0x00\n        /* \"#utility.yul\":7403:7409   */\n      dup3\n        /* \"#utility.yul\":7399:7413   */\n      add\n        /* \"#utility.yul\":7392:7450   */\n      mstore\n        /* \"#utility.yul\":7484:7492   */\n      0x74726163742e0000000000000000000000000000000000000000000000000000\n        /* \"#utility.yul\":7479:7481   */\n      0x20\n        /* \"#utility.yul\":7471:7477   */\n      dup3\n        /* \"#utility.yul\":7467:7482   */\n      add\n        /* \"#utility.yul\":7460:7493   */\n      mstore\n        /* \"#utility.yul\":7275:7500   */\n      pop\n      jump\t// out\n        /* \"#utility.yul\":7506:7872   */\n    tag_116:\n        /* \"#utility.yul\":7648:7651   */\n      0x00\n        /* \"#utility.yul\":7669:7736   */\n      tag_189\n        /* \"#utility.yul\":7733:7735   */\n      0x26\n        /* \"#utility.yul\":7728:7731   */\n      dup4\n        /* \"#utility.yul\":7669:7736   */\n      tag_106\n      jump\t// in\n    tag_189:\n        /* \"#utility.yul\":7662:7736   */\n      swap2\n      pop\n        /* \"#utility.yul\":7745:7838   */\n      tag_190\n        /* \"#utility.yul\":7834:7837   */\n      dup3\n        /* \"#utility.yul\":7745:7838   */\n      tag_115\n      jump\t// in\n    tag_190:\n        /* \"#utility.yul\":7863:7865   */\n      0x40\n        /* \"#utility.yul\":7858:7861   */\n      dup3\n        /* \"#utility.yul\":7854:7866   */\n      add\n        /* \"#utility.yul\":7847:7866   */\n      swap1\n      pop\n        /* \"#utility.yul\":7506:7872   */\n      swap2\n      swap1\n      pop\n      jump\t// out\n        /* \"#utility.yul\":7878:8297   */\n    tag_81:\n        /* \"#utility.yul\":8044:8048   */\n      0x00\n        /* \"#utility.yul\":8082:8084   */\n      0x20\n        /* \"#utility.yul\":8071:8080   */\n      dup3\n        /* \"#utility.yul\":8067:8085   */\n      add\n        /* \"#utility.yul\":8059:8085   */\n      swap1\n      pop\n        /* \"#utility.yul\":8131:8140   */\n      dup2\n        /* \"#utility.yul\":8125:8129   */\n      dup2\n        /* \"#utility.yul\":8121:8141   */\n      sub\n        /* \"#utility.yul\":8117:8118   */\n      0x00\n        /* \"#utility.yul\":8106:8115   */\n      dup4\n        /* \"#utility.yul\":8102:8119   */\n      add\n        /* \"#utility.yul\":8095:8142   */\n      mstore\n        /* \"#utility.yul\":8159:8290   */\n      tag_192\n        /* \"#utility.yul\":8285:8289   */\n      dup2\n        /* \"#utility.yul\":8159:8290   */\n      tag_116\n      jump\t// in\n    tag_192:\n        /* \"#utility.yul\":8151:8290   */\n      swap1\n      pop\n        /* \"#utility.yul\":7878:8297   */\n      swap2\n      swap1\n      pop\n      jump\t// out\n        /* \"#utility.yul\":8303:8477   */\n    tag_117:\n        /* \"#utility.yul\":8443:8469   */\n      0x436f6e747261637420616c7265616479207369676e65642e0000000000000000\n        /* \"#utility.yul\":8439:8440   */\n      0x00\n        /* \"#utility.yul\":8431:8437   */\n      dup3\n        /* \"#utility.yul\":8427:8441   */\n      add\n        /* \"#utility.yul\":8420:8470   */\n      mstore\n        /* \"#utility.yul\":8303:8477   */\n      pop\n      jump\t// out\n        /* \"#utility.yul\":8483:8849   */\n    tag_118:\n        /* \"#utility.yul\":8625:8628   */\n      0x00\n        /* \"#utility.yul\":8646:8713   */\n      tag_195\n        /* \"#utility.yul\":8710:8712   */\n      0x18\n        /* \"#utility.yul\":8705:8708   */\n      dup4\n        /* \"#utility.yul\":8646:8713   */\n      tag_106\n      jump\t// in\n    tag_195:\n        /* \"#utility.yul\":8639:8713   */\n      swap2\n      pop\n        /* \"#utility.yul\":8722:8815   */\n      tag_196\n        /* \"#utility.yul\":8811:8814   */\n      dup3\n        /* \"#utility.yul\":8722:8815   */\n      tag_117\n      jump\t// in\n    tag_196:\n        /* \"#utility.yul\":8840:8842   */\n      0x20\n        /* \"#utility.yul\":8835:8838   */\n      dup3\n        /* \"#utility.yul\":8831:8843   */\n      add\n        /* \"#utility.yul\":8824:8843   */\n      swap1\n      pop\n        /* \"#utility.yul\":8483:8849   */\n      swap2\n      swap1\n      pop\n      jump\t// out\n        /* \"#utility.yul\":8855:9274   */\n    tag_84:\n        /* \"#utility.yul\":9021:9025   */\n      0x00\n        /* \"#utility.yul\":9059:9061   */\n      0x20\n        /* \"#utility.yul\":9048:9057   */\n      dup3\n        /* \"#utility.yul\":9044:9062   */\n      add\n        /* \"#utility.yul\":9036:9062   */\n      swap1\n      pop\n        /* \"#utility.yul\":9108:9117   */\n      dup2\n        /* \"#utility.yul\":9102:9106   */\n      dup2\n        /* \"#utility.yul\":9098:9118   */\n      sub\n        /* \"#utility.yul\":9094:9095   */\n      0x00\n        /* \"#utility.yul\":9083:9092   */\n      dup4\n        /* \"#utility.yul\":9079:9096   */\n      add\n        /* \"#utility.yul\":9072:9119   */\n      mstore\n        /* \"#utility.yul\":9136:9267   */\n      tag_198\n        /* \"#utility.yul\":9262:9266   */\n      dup2\n        /* \"#utility.yul\":9136:9267   */\n      tag_118\n      jump\t// in\n    tag_198:\n        /* \"#utility.yul\":9128:9267   */\n      swap1\n      pop\n        /* \"#utility.yul\":8855:9274   */\n      swap2\n      swap1\n      pop\n      jump\t// out\n        /* \"#utility.yul\":9280:9502   */\n    tag_119:\n        /* \"#utility.yul\":9420:9454   */\n      0x4f6e6c7920746865206661726d65722063616e20726570617920746865206c6f\n        /* \"#utility.yul\":9416:9417   */\n      0x00\n        /* \"#utility.yul\":9408:9414   */\n      dup3\n        /* \"#utility.yul\":9404:9418   */\n      add\n        /* \"#utility.yul\":9397:9455   */\n      mstore\n        /* \"#utility.yul\":9489:9494   */\n      0x616e2e0000000000000000000000000000000000000000000000000000000000\n        /* \"#utility.yul\":9484:9486   */\n      0x20\n        /* \"#utility.yul\":9476:9482   */\n      dup3\n        /* \"#utility.yul\":9472:9487   */\n      add\n        /* \"#utility.yul\":9465:9495   */\n      mstore\n        /* \"#utility.yul\":9280:9502   */\n      pop\n      jump\t// out\n        /* \"#utility.yul\":9508:9874   */\n    tag_120:\n        /* \"#utility.yul\":9650:9653   */\n      0x00\n        /* \"#utility.yul\":9671:9738   */\n      tag_201\n        /* \"#utility.yul\":9735:9737   */\n      0x23\n        /* \"#utility.yul\":9730:9733   */\n      dup4\n        /* \"#utility.yul\":9671:9738   */\n      tag_106\n      jump\t// in\n    tag_201:\n        /* \"#utility.yul\":9664:9738   */\n      swap2\n      pop\n        /* \"#utility.yul\":9747:9840   */\n      tag_202\n        /* \"#utility.yul\":9836:9839   */\n      dup3\n        /* \"#utility.yul\":9747:9840   */\n      tag_119\n      jump\t// in\n    tag_202:\n        /* \"#utility.yul\":9865:9867   */\n      0x40\n        /* \"#utility.yul\":9860:9863   */\n      dup3\n        /* \"#utility.yul\":9856:9868   */\n      add\n        /* \"#utility.yul\":9849:9868   */\n      swap1\n      pop\n        /* \"#utility.yul\":9508:9874   */\n      swap2\n      swap1\n      pop\n      jump\t// out\n        /* \"#utility.yul\":9880:10299   */\n    tag_88:\n        /* \"#utility.yul\":10046:10050   */\n      0x00\n        /* \"#utility.yul\":10084:10086   */\n      0x20\n        /* \"#utility.yul\":10073:10082   */\n      dup3\n        /* \"#utility.yul\":10069:10087   */\n      add\n        /* \"#utility.yul\":10061:10087   */\n      swap1\n      pop\n        /* \"#utility.yul\":10133:10142   */\n      dup2\n        /* \"#utility.yul\":10127:10131   */\n      dup2\n        /* \"#utility.yul\":10123:10143   */\n      sub\n        /* \"#utility.yul\":10119:10120   */\n      0x00\n        /* \"#utility.yul\":10108:10117   */\n      dup4\n        /* \"#utility.yul\":10104:10121   */\n      add\n        /* \"#utility.yul\":10097:10144   */\n      mstore\n        /* \"#utility.yul\":10161:10292   */\n      tag_204\n        /* \"#utility.yul\":10287:10291   */\n      dup2\n        /* \"#utility.yul\":10161:10292   */\n      tag_120\n      jump\t// in\n    tag_204:\n        /* \"#utility.yul\":10153:10292   */\n      swap1\n      pop\n        /* \"#utility.yul\":9880:10299   */\n      swap2\n      swap1\n      pop\n      jump\t// out\n        /* \"#utility.yul\":10305:10529   */\n    tag_121:\n        /* \"#utility.yul\":10445:10479   */\n      0x4e6f206c6f616e20686173206265656e2074616b656e20666f72207468652067\n        /* \"#utility.yul\":10441:10442   */\n      0x00\n        /* \"#utility.yul\":10433:10439   */\n      dup3\n        /* \"#utility.yul\":10429:10443   */\n      add\n        /* \"#utility.yul\":10422:10480   */\n      mstore\n        /* \"#utility.yul\":10514:10521   */\n      0x6f6f64732e000000000000000000000000000000000000000000000000000000\n        /* \"#utility.yul\":10509:10511   */\n      0x20\n        /* \"#utility.yul\":10501:10507   */\n      dup3\n        /* \"#utility.yul\":10497:10512   */\n      add\n        /* \"#utility.yul\":10490:10522   */\n      mstore\n        /* \"#utility.yul\":10305:10529   */\n      pop\n      jump\t// out\n        /* \"#utility.yul\":10535:10901   */\n    tag_122:\n        /* \"#utility.yul\":10677:10680   */\n      0x00\n        /* \"#utility.yul\":10698:10765   */\n      tag_207\n        /* \"#utility.yul\":10762:10764   */\n      0x25\n        /* \"#utility.yul\":10757:10760   */\n      dup4\n        /* \"#utility.yul\":10698:10765   */\n      tag_106\n      jump\t// in\n    tag_207:\n        /* \"#utility.yul\":10691:10765   */\n      swap2\n      pop\n        /* \"#utility.yul\":10774:10867   */\n      tag_208\n        /* \"#utility.yul\":10863:10866   */\n      dup3\n        /* \"#utility.yul\":10774:10867   */\n      tag_121\n      jump\t// in\n    tag_208:\n        /* \"#utility.yul\":10892:10894   */\n      0x40\n        /* \"#utility.yul\":10887:10890   */\n      dup3\n        /* \"#utility.yul\":10883:10895   */\n      add\n        /* \"#utility.yul\":10876:10895   */\n      swap1\n      pop\n        /* \"#utility.yul\":10535:10901   */\n      swap2\n      swap1\n      pop\n      jump\t// out\n        /* \"#utility.yul\":10907:11326   */\n    tag_91:\n        /* \"#utility.yul\":11073:11077   */\n      0x00\n        /* \"#utility.yul\":11111:11113   */\n      0x20\n        /* \"#utility.yul\":11100:11109   */\n      dup3\n        /* \"#utility.yul\":11096:11114   */\n      add\n        /* \"#utility.yul\":11088:11114   */\n      swap1\n      pop\n        /* \"#utility.yul\":11160:11169   */\n      dup2\n        /* \"#utility.yul\":11154:11158   */\n      dup2\n        /* \"#utility.yul\":11150:11170   */\n      sub\n        /* \"#utility.yul\":11146:11147   */\n      0x00\n        /* \"#utility.yul\":11135:11144   */\n      dup4\n        /* \"#utility.yul\":11131:11148   */\n      add\n        /* \"#utility.yul\":11124:11171   */\n      mstore\n        /* \"#utility.yul\":11188:11319   */\n      tag_210\n        /* \"#utility.yul\":11314:11318   */\n      dup2\n        /* \"#utility.yul\":11188:11319   */\n      tag_122\n      jump\t// in\n    tag_210:\n        /* \"#utility.yul\":11180:11319   */\n      swap1\n      pop\n        /* \"#utility.yul\":10907:11326   */\n      swap2\n      swap1\n      pop\n      jump\t// out\n\n    auxdata: 0xa2646970667358221220d8a76dc4e0a52edaf0a7fe21504800798a9d7817a6bd3f5bac554c300ecf151c64736f6c634300080d0033\n}\n",
				"bytecode": {
					"linkReferences": {},
					"object": "60806040523480156200001157600080fd5b506040516200181c3803806200181c8339818101604052810190620000379190620001f0565b846000806101000a81548173ffffffffffffffffffffffffffffffffffffffff021916908373ffffffffffffffffffffffffffffffffffffffff16021790555083600160006101000a81548173ffffffffffffffffffffffffffffffffffffffff021916908373ffffffffffffffffffffffffffffffffffffffff16021790555082600260006101000a81548173ffffffffffffffffffffffffffffffffffffffff021916908373ffffffffffffffffffffffffffffffffffffffff16021790555081600360006101000a81548173ffffffffffffffffffffffffffffffffffffffff021916908373ffffffffffffffffffffffffffffffffffffffff16021790555080600460006101000a81548173ffffffffffffffffffffffffffffffffffffffff021916908373ffffffffffffffffffffffffffffffffffffffff160217905550505050505062000278565b600080fd5b600073ffffffffffffffffffffffffffffffffffffffff82169050919050565b6000620001b8826200018b565b9050919050565b620001ca81620001ab565b8114620001d657600080fd5b50565b600081519050620001ea81620001bf565b92915050565b600080600080600060a086880312156200020f576200020e62000186565b5b60006200021f88828901620001d9565b95505060206200023288828901620001d9565b94505060406200024588828901620001d9565b93505060606200025888828901620001d9565b92505060806200026b88828901620001d9565b9150509295509295909350565b61159480620002886000396000f3fe608060405234801561001057600080fd5b50600436106100cf5760003560e01c806376cdb03b1161008c578063b8b4f1a011610066578063b8b4f1a014610202578063d811fcf01461020c578063f0ff0ee61461022a578063f966ade71461025a576100cf565b806376cdb03b146101a85780639b622769146101c6578063a3c29885146101e4576100cf565b80630e9c1aea146100d457806327d6d6e014610104578063400777b0146101345780634546a375146101645780634e123761146101825780635b23df561461019e575b600080fd5b6100ee60048036038101906100e99190610fef565b610264565b6040516100fb9190611037565b60405180910390f35b61011e60048036038101906101199190610fef565b610284565b60405161012b9190611061565b60405180910390f35b61014e60048036038101906101499190610fef565b6102b7565b60405161015b9190611095565b60405180910390f35b61016c6102cf565b6040516101799190611061565b60405180910390f35b61019c600480360381019061019791906110dc565b6102f5565b005b6101a661045e565b005b6101b06108c5565b6040516101bd9190611061565b60405180910390f35b6101ce6108eb565b6040516101db9190611061565b60405180910390f35b6101ec610911565b6040516101f99190611061565b60405180910390f35b61020a610935565b005b610214610b8e565b6040516102219190611061565b60405180910390f35b610244600480360381019061023f9190610fef565b610bb4565b6040516102519190611037565b60405180910390f35b610262610bd4565b005b60076020528060005260406000206000915054906101000a900460ff1681565b60086020528060005260406000206000915054906101000a900473ffffffffffffffffffffffffffffffffffffffff1681565b60056020528060005260406000206000915090505481565b600460009054906101000a900473ffffffffffffffffffffffffffffffffffffffff1681565b600360009054906101000a900473ffffffffffffffffffffffffffffffffffffffff1673ffffffffffffffffffffffffffffffffffffffff163373ffffffffffffffffffffffffffffffffffffffff1614610385576040517f08c379a000000000000000000000000000000000000000000000000000000000815260040161037c90611166565b60405180910390fd5b8060056000600360009054906101000a900473ffffffffffffffffffffffffffffffffffffffff1673ffffffffffffffffffffffffffffffffffffffff1673ffffffffffffffffffffffffffffffffffffffff16815260200190815260200160002081905550600360009054906101000a900473ffffffffffffffffffffffffffffffffffffffff1673ffffffffffffffffffffffffffffffffffffffff167fcd0e60707198c9d197ab0fb2b1f89fb950a5c432ae91910a9c850090878891fd826040516104539190611095565b60405180910390a250565b600360009054906101000a900473ffffffffffffffffffffffffffffffffffffffff1673ffffffffffffffffffffffffffffffffffffffff163373ffffffffffffffffffffffffffffffffffffffff16146104ee576040517f08c379a00000000000000000000000000000000000000000000000000000000081526004016104e5906111f8565b60405180910390fd5b60066000600360009054906101000a900473ffffffffffffffffffffffffffffffffffffffff1673ffffffffffffffffffffffffffffffffffffffff1673ffffffffffffffffffffffffffffffffffffffff16815260200190815260200160002060009054906101000a900460ff1661059c576040517f08c379a00000000000000000000000000000000000000000000000000000000081526004016105939061128a565b60405180910390fd5b60076000600360009054906101000a900473ffffffffffffffffffffffffffffffffffffffff1673ffffffffffffffffffffffffffffffffffffffff1673ffffffffffffffffffffffffffffffffffffffff16815260200190815260200160002060009054906101000a900460ff161561064b576040517f08c379a00000000000000000000000000000000000000000000000000000000081526004016106429061131c565b60405180910390fd5b600260009054906101000a900473ffffffffffffffffffffffffffffffffffffffff1660086000600360009054906101000a900473ffffffffffffffffffffffffffffffffffffffff1673ffffffffffffffffffffffffffffffffffffffff1673ffffffffffffffffffffffffffffffffffffffff16815260200190815260200160002060006101000a81548173ffffffffffffffffffffffffffffffffffffffff021916908373ffffffffffffffffffffffffffffffffffffffff160217905550600160076000600360009054906101000a900473ffffffffffffffffffffffffffffffffffffffff1673ffffffffffffffffffffffffffffffffffffffff1673ffffffffffffffffffffffffffffffffffffffff16815260200190815260200160002060006101000a81548160ff021916908315150217905550600260009054906101000a900473ffffffffffffffffffffffffffffffffffffffff1673ffffffffffffffffffffffffffffffffffffffff16600360009054906101000a900473ffffffffffffffffffffffffffffffffffffffff1673ffffffffffffffffffffffffffffffffffffffff167f8be0079c531659141344cd1fd0a4f28419497f9722a3daafe3b4186f6b6457e060405160405180910390a3600260009054906101000a900473ffffffffffffffffffffffffffffffffffffffff1673ffffffffffffffffffffffffffffffffffffffff16600360009054906101000a900473ffffffffffffffffffffffffffffffffffffffff1673ffffffffffffffffffffffffffffffffffffffff167f04d3d00e626d7a1bc4ec766425429841a1ab4dc9307812bf4d766cef5b8d65cf60405160405180910390a3565b600260009054906101000a900473ffffffffffffffffffffffffffffffffffffffff1681565b600160009054906101000a900473ffffffffffffffffffffffffffffffffffffffff1681565b60008054906101000a900473ffffffffffffffffffffffffffffffffffffffff1681565b600360009054906101000a900473ffffffffffffffffffffffffffffffffffffffff1673ffffffffffffffffffffffffffffffffffffffff163373ffffffffffffffffffffffffffffffffffffffff16146109c5576040517f08c379a00000000000000000000000000000000000000000000000000000000081526004016109bc906113ae565b60405180910390fd5b60066000600360009054906101000a900473ffffffffffffffffffffffffffffffffffffffff1673ffffffffffffffffffffffffffffffffffffffff1673ffffffffffffffffffffffffffffffffffffffff16815260200190815260200160002060009054906101000a900460ff1615610a74576040517f08c379a0000000000000000000000000000000000000000000000000000000008152600401610a6b9061141a565b60405180910390fd5b600160066000600360009054906101000a900473ffffffffffffffffffffffffffffffffffffffff1673ffffffffffffffffffffffffffffffffffffffff1673ffffffffffffffffffffffffffffffffffffffff16815260200190815260200160002060006101000a81548160ff021916908315150217905550600160009054906101000a900473ffffffffffffffffffffffffffffffffffffffff1673ffffffffffffffffffffffffffffffffffffffff16600360009054906101000a900473ffffffffffffffffffffffffffffffffffffffff1673ffffffffffffffffffffffffffffffffffffffff167f2e8ef42a9628bc1660f1f397a4fb77b6369005ddbe363f5510591f88db43b11860405160405180910390a3565b600360009054906101000a900473ffffffffffffffffffffffffffffffffffffffff1681565b60066020528060005260406000206000915054906101000a900460ff1681565b600360009054906101000a900473ffffffffffffffffffffffffffffffffffffffff1673ffffffffffffffffffffffffffffffffffffffff163373ffffffffffffffffffffffffffffffffffffffff1614610c64576040517f08c379a0000000000000000000000000000000000000000000000000000000008152600401610c5b906114ac565b60405180910390fd5b60076000600360009054906101000a900473ffffffffffffffffffffffffffffffffffffffff1673ffffffffffffffffffffffffffffffffffffffff1673ffffffffffffffffffffffffffffffffffffffff16815260200190815260200160002060009054906101000a900460ff16610d12576040517f08c379a0000000000000000000000000000000000000000000000000000000008152600401610d099061153e565b60405180910390fd5b600360009054906101000a900473ffffffffffffffffffffffffffffffffffffffff1660086000600360009054906101000a900473ffffffffffffffffffffffffffffffffffffffff1673ffffffffffffffffffffffffffffffffffffffff1673ffffffffffffffffffffffffffffffffffffffff16815260200190815260200160002060006101000a81548173ffffffffffffffffffffffffffffffffffffffff021916908373ffffffffffffffffffffffffffffffffffffffff160217905550600060076000600360009054906101000a900473ffffffffffffffffffffffffffffffffffffffff1673ffffffffffffffffffffffffffffffffffffffff1673ffffffffffffffffffffffffffffffffffffffff16815260200190815260200160002060006101000a81548160ff021916908315150217905550600360009054906101000a900473ffffffffffffffffffffffffffffffffffffffff1673ffffffffffffffffffffffffffffffffffffffff16600360009054906101000a900473ffffffffffffffffffffffffffffffffffffffff1673ffffffffffffffffffffffffffffffffffffffff167f8be0079c531659141344cd1fd0a4f28419497f9722a3daafe3b4186f6b6457e060405160405180910390a3600260009054906101000a900473ffffffffffffffffffffffffffffffffffffffff1673ffffffffffffffffffffffffffffffffffffffff16600360009054906101000a900473ffffffffffffffffffffffffffffffffffffffff1673ffffffffffffffffffffffffffffffffffffffff167fc845558dabd7a7a2c3c6e598cdc1de87e93ba0ae25fd05b86cc79efccd0703fb60405160405180910390a3565b600080fd5b600073ffffffffffffffffffffffffffffffffffffffff82169050919050565b6000610fbc82610f91565b9050919050565b610fcc81610fb1565b8114610fd757600080fd5b50565b600081359050610fe981610fc3565b92915050565b60006020828403121561100557611004610f8c565b5b600061101384828501610fda565b91505092915050565b60008115159050919050565b6110318161101c565b82525050565b600060208201905061104c6000830184611028565b92915050565b61105b81610fb1565b82525050565b60006020820190506110766000830184611052565b92915050565b6000819050919050565b61108f8161107c565b82525050565b60006020820190506110aa6000830184611086565b92915050565b6110b98161107c565b81146110c457600080fd5b50565b6000813590506110d6816110b0565b92915050565b6000602082840312156110f2576110f1610f8c565b5b6000611100848285016110c7565b91505092915050565b600082825260208201905092915050565b7f4f6e6c7920746865206661726d65722063616e2073746f726520676f6f64732e600082015250565b6000611150602083611109565b915061115b8261111a565b602082019050919050565b6000602082019050818103600083015261117f81611143565b9050919050565b7f4f6e6c7920746865206661726d65722063616e207472616e73666572206f776e60008201527f65727368697020746f207468652062616e6b2e00000000000000000000000000602082015250565b60006111e2603383611109565b91506111ed82611186565b604082019050919050565b60006020820190508181036000830152611211816111d5565b9050919050565b7f436f6e7472616374206d757374206265207369676e6564206265666f7265207460008201527f72616e7366657272696e67206f776e6572736869702e00000000000000000000602082015250565b6000611274603683611109565b915061127f82611218565b604082019050919050565b600060208201905081810360008301526112a381611267565b9050919050565b7f4c6f616e2068617320616c7265616479206265656e2074616b656e20666f722060008201527f74686520676f6f64732e00000000000000000000000000000000000000000000602082015250565b6000611306602a83611109565b9150611311826112aa565b604082019050919050565b60006020820190508181036000830152611335816112f9565b9050919050565b7f4f6e6c7920746865206661726d65722063616e207369676e2074686520636f6e60008201527f74726163742e0000000000000000000000000000000000000000000000000000602082015250565b6000611398602683611109565b91506113a38261133c565b604082019050919050565b600060208201905081810360008301526113c78161138b565b9050919050565b7f436f6e747261637420616c7265616479207369676e65642e0000000000000000600082015250565b6000611404601883611109565b915061140f826113ce565b602082019050919050565b60006020820190508181036000830152611433816113f7565b9050919050565b7f4f6e6c7920746865206661726d65722063616e20726570617920746865206c6f60008201527f616e2e0000000000000000000000000000000000000000000000000000000000602082015250565b6000611496602383611109565b91506114a18261143a565b604082019050919050565b600060208201905081810360008301526114c581611489565b9050919050565b7f4e6f206c6f616e20686173206265656e2074616b656e20666f7220746865206760008201527f6f6f64732e000000000000000000000000000000000000000000000000000000602082015250565b6000611528602583611109565b9150611533826114cc565b604082019050919050565b600060208201905081810360008301526115578161151b565b905091905056fea2646970667358221220d8a76dc4e0a52edaf0a7fe21504800798a9d7817a6bd3f5bac554c300ecf151c64736f6c634300080d0033",
					"opcodes": "PUSH1 0x80 PUSH1 0x40 MSTORE CALLVALUE DUP1 ISZERO PUSH3 0x11 JUMPI PUSH1 0x0 DUP1 REVERT JUMPDEST POP PUSH1 0x40 MLOAD PUSH3 0x181C CODESIZE SUB DUP1 PUSH3 0x181C DUP4 CODECOPY DUP2 DUP2 ADD PUSH1 0x40 MSTORE DUP2 ADD SWAP1 PUSH3 0x37 SWAP2 SWAP1 PUSH3 0x1F0 JUMP JUMPDEST DUP5 PUSH1 0x0 DUP1 PUSH2 0x100 EXP DUP2 SLOAD DUP2 PUSH20 0xFFFFFFFFFFFFFFFFFFFFFFFFFFFFFFFFFFFFFFFF MUL NOT AND SWAP1 DUP4 PUSH20 0xFFFFFFFFFFFFFFFFFFFFFFFFFFFFFFFFFFFFFFFF AND MUL OR SWAP1 SSTORE POP DUP4 PUSH1 0x1 PUSH1 0x0 PUSH2 0x100 EXP DUP2 SLOAD DUP2 PUSH20 0xFFFFFFFFFFFFFFFFFFFFFFFFFFFFFFFFFFFFFFFF MUL NOT AND SWAP1 DUP4 PUSH20 0xFFFFFFFFFFFFFFFFFFFFFFFFFFFFFFFFFFFFFFFF AND MUL OR SWAP1 SSTORE POP DUP3 PUSH1 0x2 PUSH1 0x0 PUSH2 0x100 EXP DUP2 SLOAD DUP2 PUSH20 0xFFFFFFFFFFFFFFFFFFFFFFFFFFFFFFFFFFFFFFFF MUL NOT AND SWAP1 DUP4 PUSH20 0xFFFFFFFFFFFFFFFFFFFFFFFFFFFFFFFFFFFFFFFF AND MUL OR SWAP1 SSTORE POP DUP2 PUSH1 0x3 PUSH1 0x0 PUSH2 0x100 EXP DUP2 SLOAD DUP2 PUSH20 0xFFFFFFFFFFFFFFFFFFFFFFFFFFFFFFFFFFFFFFFF MUL NOT AND SWAP1 DUP4 PUSH20 0xFFFFFFFFFFFFFFFFFFFFFFFFFFFFFFFFFFFFFFFF AND MUL OR SWAP1 SSTORE POP DUP1 PUSH1 0x4 PUSH1 0x0 PUSH2 0x100 EXP DUP2 SLOAD DUP2 PUSH20 0xFFFFFFFFFFFFFFFFFFFFFFFFFFFFFFFFFFFFFFFF MUL NOT AND SWAP1 DUP4 PUSH20 0xFFFFFFFFFFFFFFFFFFFFFFFFFFFFFFFFFFFFFFFF AND MUL OR SWAP1 SSTORE POP POP POP POP POP POP PUSH3 0x278 JUMP JUMPDEST PUSH1 0x0 DUP1 REVERT JUMPDEST PUSH1 0x0 PUSH20 0xFFFFFFFFFFFFFFFFFFFFFFFFFFFFFFFFFFFFFFFF DUP3 AND SWAP1 POP SWAP2 SWAP1 POP JUMP JUMPDEST PUSH1 0x0 PUSH3 0x1B8 DUP3 PUSH3 0x18B JUMP JUMPDEST SWAP1 POP SWAP2 SWAP1 POP JUMP JUMPDEST PUSH3 0x1CA DUP2 PUSH3 0x1AB JUMP JUMPDEST DUP2 EQ PUSH3 0x1D6 JUMPI PUSH1 0x0 DUP1 REVERT JUMPDEST POP JUMP JUMPDEST PUSH1 0x0 DUP2 MLOAD SWAP1 POP PUSH3 0x1EA DUP2 PUSH3 0x1BF JUMP JUMPDEST SWAP3 SWAP2 POP POP JUMP JUMPDEST PUSH1 0x0 DUP1 PUSH1 0x0 DUP1 PUSH1 0x0 PUSH1 0xA0 DUP7 DUP9 SUB SLT ISZERO PUSH3 0x20F JUMPI PUSH3 0x20E PUSH3 0x186 JUMP JUMPDEST JUMPDEST PUSH1 0x0 PUSH3 0x21F DUP9 DUP3 DUP10 ADD PUSH3 0x1D9 JUMP JUMPDEST SWAP6 POP POP PUSH1 0x20 PUSH3 0x232 DUP9 DUP3 DUP10 ADD PUSH3 0x1D9 JUMP JUMPDEST SWAP5 POP POP PUSH1 0x40 PUSH3 0x245 DUP9 DUP3 DUP10 ADD PUSH3 0x1D9 JUMP JUMPDEST SWAP4 POP POP PUSH1 0x60 PUSH3 0x258 DUP9 DUP3 DUP10 ADD PUSH3 0x1D9 JUMP JUMPDEST SWAP3 POP POP PUSH1 0x80 PUSH3 0x26B DUP9 DUP3 DUP10 ADD PUSH3 0x1D9 JUMP JUMPDEST SWAP2 POP POP SWAP3 SWAP6 POP SWAP3 SWAP6 SWAP1 SWAP4 POP JUMP JUMPDEST PUSH2 0x1594 DUP1 PUSH3 0x288 PUSH1 0x0 CODECOPY PUSH1 0x0 RETURN INVALID PUSH1 0x80 PUSH1 0x40 MSTORE CALLVALUE DUP1 ISZERO PUSH2 0x10 JUMPI PUSH1 0x0 DUP1 REVERT JUMPDEST POP PUSH1 0x4 CALLDATASIZE LT PUSH2 0xCF JUMPI PUSH1 0x0 CALLDATALOAD PUSH1 0xE0 SHR DUP1 PUSH4 0x76CDB03B GT PUSH2 0x8C JUMPI DUP1 PUSH4 0xB8B4F1A0 GT PUSH2 0x66 JUMPI DUP1 PUSH4 0xB8B4F1A0 EQ PUSH2 0x202 JUMPI DUP1 PUSH4 0xD811FCF0 EQ PUSH2 0x20C JUMPI DUP1 PUSH4 0xF0FF0EE6 EQ PUSH2 0x22A JUMPI DUP1 PUSH4 0xF966ADE7 EQ PUSH2 0x25A JUMPI PUSH2 0xCF JUMP JUMPDEST DUP1 PUSH4 0x76CDB03B EQ PUSH2 0x1A8 JUMPI DUP1 PUSH4 0x9B622769 EQ PUSH2 0x1C6 JUMPI DUP1 PUSH4 0xA3C29885 EQ PUSH2 0x1E4 JUMPI PUSH2 0xCF JUMP JUMPDEST DUP1 PUSH4 0xE9C1AEA EQ PUSH2 0xD4 JUMPI DUP1 PUSH4 0x27D6D6E0 EQ PUSH2 0x104 JUMPI DUP1 PUSH4 0x400777B0 EQ PUSH2 0x134 JUMPI DUP1 PUSH4 0x4546A375 EQ PUSH2 0x164 JUMPI DUP1 PUSH4 0x4E123761 EQ PUSH2 0x182 JUMPI DUP1 PUSH4 0x5B23DF56 EQ PUSH2 0x19E JUMPI JUMPDEST PUSH1 0x0 DUP1 REVERT JUMPDEST PUSH2 0xEE PUSH1 0x4 DUP1 CALLDATASIZE SUB DUP2 ADD SWAP1 PUSH2 0xE9 SWAP2 SWAP1 PUSH2 0xFEF JUMP JUMPDEST PUSH2 0x264 JUMP JUMPDEST PUSH1 0x40 MLOAD PUSH2 0xFB SWAP2 SWAP1 PUSH2 0x1037 JUMP JUMPDEST PUSH1 0x40 MLOAD DUP1 SWAP2 SUB SWAP1 RETURN JUMPDEST PUSH2 0x11E PUSH1 0x4 DUP1 CALLDATASIZE SUB DUP2 ADD SWAP1 PUSH2 0x119 SWAP2 SWAP1 PUSH2 0xFEF JUMP JUMPDEST PUSH2 0x284 JUMP JUMPDEST PUSH1 0x40 MLOAD PUSH2 0x12B SWAP2 SWAP1 PUSH2 0x1061 JUMP JUMPDEST PUSH1 0x40 MLOAD DUP1 SWAP2 SUB SWAP1 RETURN JUMPDEST PUSH2 0x14E PUSH1 0x4 DUP1 CALLDATASIZE SUB DUP2 ADD SWAP1 PUSH2 0x149 SWAP2 SWAP1 PUSH2 0xFEF JUMP JUMPDEST PUSH2 0x2B7 JUMP JUMPDEST PUSH1 0x40 MLOAD PUSH2 0x15B SWAP2 SWAP1 PUSH2 0x1095 JUMP JUMPDEST PUSH1 0x40 MLOAD DUP1 SWAP2 SUB SWAP1 RETURN JUMPDEST PUSH2 0x16C PUSH2 0x2CF JUMP JUMPDEST PUSH1 0x40 MLOAD PUSH2 0x179 SWAP2 SWAP1 PUSH2 0x1061 JUMP JUMPDEST PUSH1 0x40 MLOAD DUP1 SWAP2 SUB SWAP1 RETURN JUMPDEST PUSH2 0x19C PUSH1 0x4 DUP1 CALLDATASIZE SUB DUP2 ADD SWAP1 PUSH2 0x197 SWAP2 SWAP1 PUSH2 0x10DC JUMP JUMPDEST PUSH2 0x2F5 JUMP JUMPDEST STOP JUMPDEST PUSH2 0x1A6 PUSH2 0x45E JUMP JUMPDEST STOP JUMPDEST PUSH2 0x1B0 PUSH2 0x8C5 JUMP JUMPDEST PUSH1 0x40 MLOAD PUSH2 0x1BD SWAP2 SWAP1 PUSH2 0x1061 JUMP JUMPDEST PUSH1 0x40 MLOAD DUP1 SWAP2 SUB SWAP1 RETURN JUMPDEST PUSH2 0x1CE PUSH2 0x8EB JUMP JUMPDEST PUSH1 0x40 MLOAD PUSH2 0x1DB SWAP2 SWAP1 PUSH2 0x1061 JUMP JUMPDEST PUSH1 0x40 MLOAD DUP1 SWAP2 SUB SWAP1 RETURN JUMPDEST PUSH2 0x1EC PUSH2 0x911 JUMP JUMPDEST PUSH1 0x40 MLOAD PUSH2 0x1F9 SWAP2 SWAP1 PUSH2 0x1061 JUMP JUMPDEST PUSH1 0x40 MLOAD DUP1 SWAP2 SUB SWAP1 RETURN JUMPDEST PUSH2 0x20A PUSH2 0x935 JUMP JUMPDEST STOP JUMPDEST PUSH2 0x214 PUSH2 0xB8E JUMP JUMPDEST PUSH1 0x40 MLOAD PUSH2 0x221 SWAP2 SWAP1 PUSH2 0x1061 JUMP JUMPDEST PUSH1 0x40 MLOAD DUP1 SWAP2 SUB SWAP1 RETURN JUMPDEST PUSH2 0x244 PUSH1 0x4 DUP1 CALLDATASIZE SUB DUP2 ADD SWAP1 PUSH2 0x23F SWAP2 SWAP1 PUSH2 0xFEF JUMP JUMPDEST PUSH2 0xBB4 JUMP JUMPDEST PUSH1 0x40 MLOAD PUSH2 0x251 SWAP2 SWAP1 PUSH2 0x1037 JUMP JUMPDEST PUSH1 0x40 MLOAD DUP1 SWAP2 SUB SWAP1 RETURN JUMPDEST PUSH2 0x262 PUSH2 0xBD4 JUMP JUMPDEST STOP JUMPDEST PUSH1 0x7 PUSH1 0x20 MSTORE DUP1 PUSH1 0x0 MSTORE PUSH1 0x40 PUSH1 0x0 KECCAK256 PUSH1 0x0 SWAP2 POP SLOAD SWAP1 PUSH2 0x100 EXP SWAP1 DIV PUSH1 0xFF AND DUP2 JUMP JUMPDEST PUSH1 0x8 PUSH1 0x20 MSTORE DUP1 PUSH1 0x0 MSTORE PUSH1 0x40 PUSH1 0x0 KECCAK256 PUSH1 0x0 SWAP2 POP SLOAD SWAP1 PUSH2 0x100 EXP SWAP1 DIV PUSH20 0xFFFFFFFFFFFFFFFFFFFFFFFFFFFFFFFFFFFFFFFF AND DUP2 JUMP JUMPDEST PUSH1 0x5 PUSH1 0x20 MSTORE DUP1 PUSH1 0x0 MSTORE PUSH1 0x40 PUSH1 0x0 KECCAK256 PUSH1 0x0 SWAP2 POP SWAP1 POP SLOAD DUP2 JUMP JUMPDEST PUSH1 0x4 PUSH1 0x0 SWAP1 SLOAD SWAP1 PUSH2 0x100 EXP SWAP1 DIV PUSH20 0xFFFFFFFFFFFFFFFFFFFFFFFFFFFFFFFFFFFFFFFF AND DUP2 JUMP JUMPDEST PUSH1 0x3 PUSH1 0x0 SWAP1 SLOAD SWAP1 PUSH2 0x100 EXP SWAP1 DIV PUSH20 0xFFFFFFFFFFFFFFFFFFFFFFFFFFFFFFFFFFFFFFFF AND PUSH20 0xFFFFFFFFFFFFFFFFFFFFFFFFFFFFFFFFFFFFFFFF AND CALLER PUSH20 0xFFFFFFFFFFFFFFFFFFFFFFFFFFFFFFFFFFFFFFFF AND EQ PUSH2 0x385 JUMPI PUSH1 0x40 MLOAD PUSH32 0x8C379A000000000000000000000000000000000000000000000000000000000 DUP2 MSTORE PUSH1 0x4 ADD PUSH2 0x37C SWAP1 PUSH2 0x1166 JUMP JUMPDEST PUSH1 0x40 MLOAD DUP1 SWAP2 SUB SWAP1 REVERT JUMPDEST DUP1 PUSH1 0x5 PUSH1 0x0 PUSH1 0x3 PUSH1 0x0 SWAP1 SLOAD SWAP1 PUSH2 0x100 EXP SWAP1 DIV PUSH20 0xFFFFFFFFFFFFFFFFFFFFFFFFFFFFFFFFFFFFFFFF AND PUSH20 0xFFFFFFFFFFFFFFFFFFFFFFFFFFFFFFFFFFFFFFFF AND PUSH20 0xFFFFFFFFFFFFFFFFFFFFFFFFFFFFFFFFFFFFFFFF AND DUP2 MSTORE PUSH1 0x20 ADD SWAP1 DUP2 MSTORE PUSH1 0x20 ADD PUSH1 0x0 KECCAK256 DUP2 SWAP1 SSTORE POP PUSH1 0x3 PUSH1 0x0 SWAP1 SLOAD SWAP1 PUSH2 0x100 EXP SWAP1 DIV PUSH20 0xFFFFFFFFFFFFFFFFFFFFFFFFFFFFFFFFFFFFFFFF AND PUSH20 0xFFFFFFFFFFFFFFFFFFFFFFFFFFFFFFFFFFFFFFFF AND PUSH32 0xCD0E60707198C9D197AB0FB2B1F89FB950A5C432AE91910A9C850090878891FD DUP3 PUSH1 0x40 MLOAD PUSH2 0x453 SWAP2 SWAP1 PUSH2 0x1095 JUMP JUMPDEST PUSH1 0x40 MLOAD DUP1 SWAP2 SUB SWAP1 LOG2 POP JUMP JUMPDEST PUSH1 0x3 PUSH1 0x0 SWAP1 SLOAD SWAP1 PUSH2 0x100 EXP SWAP1 DIV PUSH20 0xFFFFFFFFFFFFFFFFFFFFFFFFFFFFFFFFFFFFFFFF AND PUSH20 0xFFFFFFFFFFFFFFFFFFFFFFFFFFFFFFFFFFFFFFFF AND CALLER PUSH20 0xFFFFFFFFFFFFFFFFFFFFFFFFFFFFFFFFFFFFFFFF AND EQ PUSH2 0x4EE JUMPI PUSH1 0x40 MLOAD PUSH32 0x8C379A000000000000000000000000000000000000000000000000000000000 DUP2 MSTORE PUSH1 0x4 ADD PUSH2 0x4E5 SWAP1 PUSH2 0x11F8 JUMP JUMPDEST PUSH1 0x40 MLOAD DUP1 SWAP2 SUB SWAP1 REVERT JUMPDEST PUSH1 0x6 PUSH1 0x0 PUSH1 0x3 PUSH1 0x0 SWAP1 SLOAD SWAP1 PUSH2 0x100 EXP SWAP1 DIV PUSH20 0xFFFFFFFFFFFFFFFFFFFFFFFFFFFFFFFFFFFFFFFF AND PUSH20 0xFFFFFFFFFFFFFFFFFFFFFFFFFFFFFFFFFFFFFFFF AND PUSH20 0xFFFFFFFFFFFFFFFFFFFFFFFFFFFFFFFFFFFFFFFF AND DUP2 MSTORE PUSH1 0x20 ADD SWAP1 DUP2 MSTORE PUSH1 0x20 ADD PUSH1 0x0 KECCAK256 PUSH1 0x0 SWAP1 SLOAD SWAP1 PUSH2 0x100 EXP SWAP1 DIV PUSH1 0xFF AND PUSH2 0x59C JUMPI PUSH1 0x40 MLOAD PUSH32 0x8C379A000000000000000000000000000000000000000000000000000000000 DUP2 MSTORE PUSH1 0x4 ADD PUSH2 0x593 SWAP1 PUSH2 0x128A JUMP JUMPDEST PUSH1 0x40 MLOAD DUP1 SWAP2 SUB SWAP1 REVERT JUMPDEST PUSH1 0x7 PUSH1 0x0 PUSH1 0x3 PUSH1 0x0 SWAP1 SLOAD SWAP1 PUSH2 0x100 EXP SWAP1 DIV PUSH20 0xFFFFFFFFFFFFFFFFFFFFFFFFFFFFFFFFFFFFFFFF AND PUSH20 0xFFFFFFFFFFFFFFFFFFFFFFFFFFFFFFFFFFFFFFFF AND PUSH20 0xFFFFFFFFFFFFFFFFFFFFFFFFFFFFFFFFFFFFFFFF AND DUP2 MSTORE PUSH1 0x20 ADD SWAP1 DUP2 MSTORE PUSH1 0x20 ADD PUSH1 0x0 KECCAK256 PUSH1 0x0 SWAP1 SLOAD SWAP1 PUSH2 0x100 EXP SWAP1 DIV PUSH1 0xFF AND ISZERO PUSH2 0x64B JUMPI PUSH1 0x40 MLOAD PUSH32 0x8C379A000000000000000000000000000000000000000000000000000000000 DUP2 MSTORE PUSH1 0x4 ADD PUSH2 0x642 SWAP1 PUSH2 0x131C JUMP JUMPDEST PUSH1 0x40 MLOAD DUP1 SWAP2 SUB SWAP1 REVERT JUMPDEST PUSH1 0x2 PUSH1 0x0 SWAP1 SLOAD SWAP1 PUSH2 0x100 EXP SWAP1 DIV PUSH20 0xFFFFFFFFFFFFFFFFFFFFFFFFFFFFFFFFFFFFFFFF AND PUSH1 0x8 PUSH1 0x0 PUSH1 0x3 PUSH1 0x0 SWAP1 SLOAD SWAP1 PUSH2 0x100 EXP SWAP1 DIV PUSH20 0xFFFFFFFFFFFFFFFFFFFFFFFFFFFFFFFFFFFFFFFF AND PUSH20 0xFFFFFFFFFFFFFFFFFFFFFFFFFFFFFFFFFFFFFFFF AND PUSH20 0xFFFFFFFFFFFFFFFFFFFFFFFFFFFFFFFFFFFFFFFF AND DUP2 MSTORE PUSH1 0x20 ADD SWAP1 DUP2 MSTORE PUSH1 0x20 ADD PUSH1 0x0 KECCAK256 PUSH1 0x0 PUSH2 0x100 EXP DUP2 SLOAD DUP2 PUSH20 0xFFFFFFFFFFFFFFFFFFFFFFFFFFFFFFFFFFFFFFFF MUL NOT AND SWAP1 DUP4 PUSH20 0xFFFFFFFFFFFFFFFFFFFFFFFFFFFFFFFFFFFFFFFF AND MUL OR SWAP1 SSTORE POP PUSH1 0x1 PUSH1 0x7 PUSH1 0x0 PUSH1 0x3 PUSH1 0x0 SWAP1 SLOAD SWAP1 PUSH2 0x100 EXP SWAP1 DIV PUSH20 0xFFFFFFFFFFFFFFFFFFFFFFFFFFFFFFFFFFFFFFFF AND PUSH20 0xFFFFFFFFFFFFFFFFFFFFFFFFFFFFFFFFFFFFFFFF AND PUSH20 0xFFFFFFFFFFFFFFFFFFFFFFFFFFFFFFFFFFFFFFFF AND DUP2 MSTORE PUSH1 0x20 ADD SWAP1 DUP2 MSTORE PUSH1 0x20 ADD PUSH1 0x0 KECCAK256 PUSH1 0x0 PUSH2 0x100 EXP DUP2 SLOAD DUP2 PUSH1 0xFF MUL NOT AND SWAP1 DUP4 ISZERO ISZERO MUL OR SWAP1 SSTORE POP PUSH1 0x2 PUSH1 0x0 SWAP1 SLOAD SWAP1 PUSH2 0x100 EXP SWAP1 DIV PUSH20 0xFFFFFFFFFFFFFFFFFFFFFFFFFFFFFFFFFFFFFFFF AND PUSH20 0xFFFFFFFFFFFFFFFFFFFFFFFFFFFFFFFFFFFFFFFF AND PUSH1 0x3 PUSH1 0x0 SWAP1 SLOAD SWAP1 PUSH2 0x100 EXP SWAP1 DIV PUSH20 0xFFFFFFFFFFFFFFFFFFFFFFFFFFFFFFFFFFFFFFFF AND PUSH20 0xFFFFFFFFFFFFFFFFFFFFFFFFFFFFFFFFFFFFFFFF AND PUSH32 0x8BE0079C531659141344CD1FD0A4F28419497F9722A3DAAFE3B4186F6B6457E0 PUSH1 0x40 MLOAD PUSH1 0x40 MLOAD DUP1 SWAP2 SUB SWAP1 LOG3 PUSH1 0x2 PUSH1 0x0 SWAP1 SLOAD SWAP1 PUSH2 0x100 EXP SWAP1 DIV PUSH20 0xFFFFFFFFFFFFFFFFFFFFFFFFFFFFFFFFFFFFFFFF AND PUSH20 0xFFFFFFFFFFFFFFFFFFFFFFFFFFFFFFFFFFFFFFFF AND PUSH1 0x3 PUSH1 0x0 SWAP1 SLOAD SWAP1 PUSH2 0x100 EXP SWAP1 DIV PUSH20 0xFFFFFFFFFFFFFFFFFFFFFFFFFFFFFFFFFFFFFFFF AND PUSH20 0xFFFFFFFFFFFFFFFFFFFFFFFFFFFFFFFFFFFFFFFF AND PUSH32 0x4D3D00E626D7A1BC4EC766425429841A1AB4DC9307812BF4D766CEF5B8D65CF PUSH1 0x40 MLOAD PUSH1 0x40 MLOAD DUP1 SWAP2 SUB SWAP1 LOG3 JUMP JUMPDEST PUSH1 0x2 PUSH1 0x0 SWAP1 SLOAD SWAP1 PUSH2 0x100 EXP SWAP1 DIV PUSH20 0xFFFFFFFFFFFFFFFFFFFFFFFFFFFFFFFFFFFFFFFF AND DUP2 JUMP JUMPDEST PUSH1 0x1 PUSH1 0x0 SWAP1 SLOAD SWAP1 PUSH2 0x100 EXP SWAP1 DIV PUSH20 0xFFFFFFFFFFFFFFFFFFFFFFFFFFFFFFFFFFFFFFFF AND DUP2 JUMP JUMPDEST PUSH1 0x0 DUP1 SLOAD SWAP1 PUSH2 0x100 EXP SWAP1 DIV PUSH20 0xFFFFFFFFFFFFFFFFFFFFFFFFFFFFFFFFFFFFFFFF AND DUP2 JUMP JUMPDEST PUSH1 0x3 PUSH1 0x0 SWAP1 SLOAD SWAP1 PUSH2 0x100 EXP SWAP1 DIV PUSH20 0xFFFFFFFFFFFFFFFFFFFFFFFFFFFFFFFFFFFFFFFF AND PUSH20 0xFFFFFFFFFFFFFFFFFFFFFFFFFFFFFFFFFFFFFFFF AND CALLER PUSH20 0xFFFFFFFFFFFFFFFFFFFFFFFFFFFFFFFFFFFFFFFF AND EQ PUSH2 0x9C5 JUMPI PUSH1 0x40 MLOAD PUSH32 0x8C379A000000000000000000000000000000000000000000000000000000000 DUP2 MSTORE PUSH1 0x4 ADD PUSH2 0x9BC SWAP1 PUSH2 0x13AE JUMP JUMPDEST PUSH1 0x40 MLOAD DUP1 SWAP2 SUB SWAP1 REVERT JUMPDEST PUSH1 0x6 PUSH1 0x0 PUSH1 0x3 PUSH1 0x0 SWAP1 SLOAD SWAP1 PUSH2 0x100 EXP SWAP1 DIV PUSH20 0xFFFFFFFFFFFFFFFFFFFFFFFFFFFFFFFFFFFFFFFF AND PUSH20 0xFFFFFFFFFFFFFFFFFFFFFFFFFFFFFFFFFFFFFFFF AND PUSH20 0xFFFFFFFFFFFFFFFFFFFFFFFFFFFFFFFFFFFFFFFF AND DUP2 MSTORE PUSH1 0x20 ADD SWAP1 DUP2 MSTORE PUSH1 0x20 ADD PUSH1 0x0 KECCAK256 PUSH1 0x0 SWAP1 SLOAD SWAP1 PUSH2 0x100 EXP SWAP1 DIV PUSH1 0xFF AND ISZERO PUSH2 0xA74 JUMPI PUSH1 0x40 MLOAD PUSH32 0x8C379A000000000000000000000000000000000000000000000000000000000 DUP2 MSTORE PUSH1 0x4 ADD PUSH2 0xA6B SWAP1 PUSH2 0x141A JUMP JUMPDEST PUSH1 0x40 MLOAD DUP1 SWAP2 SUB SWAP1 REVERT JUMPDEST PUSH1 0x1 PUSH1 0x6 PUSH1 0x0 PUSH1 0x3 PUSH1 0x0 SWAP1 SLOAD SWAP1 PUSH2 0x100 EXP SWAP1 DIV PUSH20 0xFFFFFFFFFFFFFFFFFFFFFFFFFFFFFFFFFFFFFFFF AND PUSH20 0xFFFFFFFFFFFFFFFFFFFFFFFFFFFFFFFFFFFFFFFF AND PUSH20 0xFFFFFFFFFFFFFFFFFFFFFFFFFFFFFFFFFFFFFFFF AND DUP2 MSTORE PUSH1 0x20 ADD SWAP1 DUP2 MSTORE PUSH1 0x20 ADD PUSH1 0x0 KECCAK256 PUSH1 0x0 PUSH2 0x100 EXP DUP2 SLOAD DUP2 PUSH1 0xFF MUL NOT AND SWAP1 DUP4 ISZERO ISZERO MUL OR SWAP1 SSTORE POP PUSH1 0x1 PUSH1 0x0 SWAP1 SLOAD SWAP1 PUSH2 0x100 EXP SWAP1 DIV PUSH20 0xFFFFFFFFFFFFFFFFFFFFFFFFFFFFFFFFFFFFFFFF AND PUSH20 0xFFFFFFFFFFFFFFFFFFFFFFFFFFFFFFFFFFFFFFFF AND PUSH1 0x3 PUSH1 0x0 SWAP1 SLOAD SWAP1 PUSH2 0x100 EXP SWAP1 DIV PUSH20 0xFFFFFFFFFFFFFFFFFFFFFFFFFFFFFFFFFFFFFFFF AND PUSH20 0xFFFFFFFFFFFFFFFFFFFFFFFFFFFFFFFFFFFFFFFF AND PUSH32 0x2E8EF42A9628BC1660F1F397A4FB77B6369005DDBE363F5510591F88DB43B118 PUSH1 0x40 MLOAD PUSH1 0x40 MLOAD DUP1 SWAP2 SUB SWAP1 LOG3 JUMP JUMPDEST PUSH1 0x3 PUSH1 0x0 SWAP1 SLOAD SWAP1 PUSH2 0x100 EXP SWAP1 DIV PUSH20 0xFFFFFFFFFFFFFFFFFFFFFFFFFFFFFFFFFFFFFFFF AND DUP2 JUMP JUMPDEST PUSH1 0x6 PUSH1 0x20 MSTORE DUP1 PUSH1 0x0 MSTORE PUSH1 0x40 PUSH1 0x0 KECCAK256 PUSH1 0x0 SWAP2 POP SLOAD SWAP1 PUSH2 0x100 EXP SWAP1 DIV PUSH1 0xFF AND DUP2 JUMP JUMPDEST PUSH1 0x3 PUSH1 0x0 SWAP1 SLOAD SWAP1 PUSH2 0x100 EXP SWAP1 DIV PUSH20 0xFFFFFFFFFFFFFFFFFFFFFFFFFFFFFFFFFFFFFFFF AND PUSH20 0xFFFFFFFFFFFFFFFFFFFFFFFFFFFFFFFFFFFFFFFF AND CALLER PUSH20 0xFFFFFFFFFFFFFFFFFFFFFFFFFFFFFFFFFFFFFFFF AND EQ PUSH2 0xC64 JUMPI PUSH1 0x40 MLOAD PUSH32 0x8C379A000000000000000000000000000000000000000000000000000000000 DUP2 MSTORE PUSH1 0x4 ADD PUSH2 0xC5B SWAP1 PUSH2 0x14AC JUMP JUMPDEST PUSH1 0x40 MLOAD DUP1 SWAP2 SUB SWAP1 REVERT JUMPDEST PUSH1 0x7 PUSH1 0x0 PUSH1 0x3 PUSH1 0x0 SWAP1 SLOAD SWAP1 PUSH2 0x100 EXP SWAP1 DIV PUSH20 0xFFFFFFFFFFFFFFFFFFFFFFFFFFFFFFFFFFFFFFFF AND PUSH20 0xFFFFFFFFFFFFFFFFFFFFFFFFFFFFFFFFFFFFFFFF AND PUSH20 0xFFFFFFFFFFFFFFFFFFFFFFFFFFFFFFFFFFFFFFFF AND DUP2 MSTORE PUSH1 0x20 ADD SWAP1 DUP2 MSTORE PUSH1 0x20 ADD PUSH1 0x0 KECCAK256 PUSH1 0x0 SWAP1 SLOAD SWAP1 PUSH2 0x100 EXP SWAP1 DIV PUSH1 0xFF AND PUSH2 0xD12 JUMPI PUSH1 0x40 MLOAD PUSH32 0x8C379A000000000000000000000000000000000000000000000000000000000 DUP2 MSTORE PUSH1 0x4 ADD PUSH2 0xD09 SWAP1 PUSH2 0x153E JUMP JUMPDEST PUSH1 0x40 MLOAD DUP1 SWAP2 SUB SWAP1 REVERT JUMPDEST PUSH1 0x3 PUSH1 0x0 SWAP1 SLOAD SWAP1 PUSH2 0x100 EXP SWAP1 DIV PUSH20 0xFFFFFFFFFFFFFFFFFFFFFFFFFFFFFFFFFFFFFFFF AND PUSH1 0x8 PUSH1 0x0 PUSH1 0x3 PUSH1 0x0 SWAP1 SLOAD SWAP1 PUSH2 0x100 EXP SWAP1 DIV PUSH20 0xFFFFFFFFFFFFFFFFFFFFFFFFFFFFFFFFFFFFFFFF AND PUSH20 0xFFFFFFFFFFFFFFFFFFFFFFFFFFFFFFFFFFFFFFFF AND PUSH20 0xFFFFFFFFFFFFFFFFFFFFFFFFFFFFFFFFFFFFFFFF AND DUP2 MSTORE PUSH1 0x20 ADD SWAP1 DUP2 MSTORE PUSH1 0x20 ADD PUSH1 0x0 KECCAK256 PUSH1 0x0 PUSH2 0x100 EXP DUP2 SLOAD DUP2 PUSH20 0xFFFFFFFFFFFFFFFFFFFFFFFFFFFFFFFFFFFFFFFF MUL NOT AND SWAP1 DUP4 PUSH20 0xFFFFFFFFFFFFFFFFFFFFFFFFFFFFFFFFFFFFFFFF AND MUL OR SWAP1 SSTORE POP PUSH1 0x0 PUSH1 0x7 PUSH1 0x0 PUSH1 0x3 PUSH1 0x0 SWAP1 SLOAD SWAP1 PUSH2 0x100 EXP SWAP1 DIV PUSH20 0xFFFFFFFFFFFFFFFFFFFFFFFFFFFFFFFFFFFFFFFF AND PUSH20 0xFFFFFFFFFFFFFFFFFFFFFFFFFFFFFFFFFFFFFFFF AND PUSH20 0xFFFFFFFFFFFFFFFFFFFFFFFFFFFFFFFFFFFFFFFF AND DUP2 MSTORE PUSH1 0x20 ADD SWAP1 DUP2 MSTORE PUSH1 0x20 ADD PUSH1 0x0 KECCAK256 PUSH1 0x0 PUSH2 0x100 EXP DUP2 SLOAD DUP2 PUSH1 0xFF MUL NOT AND SWAP1 DUP4 ISZERO ISZERO MUL OR SWAP1 SSTORE POP PUSH1 0x3 PUSH1 0x0 SWAP1 SLOAD SWAP1 PUSH2 0x100 EXP SWAP1 DIV PUSH20 0xFFFFFFFFFFFFFFFFFFFFFFFFFFFFFFFFFFFFFFFF AND PUSH20 0xFFFFFFFFFFFFFFFFFFFFFFFFFFFFFFFFFFFFFFFF AND PUSH1 0x3 PUSH1 0x0 SWAP1 SLOAD SWAP1 PUSH2 0x100 EXP SWAP1 DIV PUSH20 0xFFFFFFFFFFFFFFFFFFFFFFFFFFFFFFFFFFFFFFFF AND PUSH20 0xFFFFFFFFFFFFFFFFFFFFFFFFFFFFFFFFFFFFFFFF AND PUSH32 0x8BE0079C531659141344CD1FD0A4F28419497F9722A3DAAFE3B4186F6B6457E0 PUSH1 0x40 MLOAD PUSH1 0x40 MLOAD DUP1 SWAP2 SUB SWAP1 LOG3 PUSH1 0x2 PUSH1 0x0 SWAP1 SLOAD SWAP1 PUSH2 0x100 EXP SWAP1 DIV PUSH20 0xFFFFFFFFFFFFFFFFFFFFFFFFFFFFFFFFFFFFFFFF AND PUSH20 0xFFFFFFFFFFFFFFFFFFFFFFFFFFFFFFFFFFFFFFFF AND PUSH1 0x3 PUSH1 0x0 SWAP1 SLOAD SWAP1 PUSH2 0x100 EXP SWAP1 DIV PUSH20 0xFFFFFFFFFFFFFFFFFFFFFFFFFFFFFFFFFFFFFFFF AND PUSH20 0xFFFFFFFFFFFFFFFFFFFFFFFFFFFFFFFFFFFFFFFF AND PUSH32 0xC845558DABD7A7A2C3C6E598CDC1DE87E93BA0AE25FD05B86CC79EFCCD0703FB PUSH1 0x40 MLOAD PUSH1 0x40 MLOAD DUP1 SWAP2 SUB SWAP1 LOG3 JUMP JUMPDEST PUSH1 0x0 DUP1 REVERT JUMPDEST PUSH1 0x0 PUSH20 0xFFFFFFFFFFFFFFFFFFFFFFFFFFFFFFFFFFFFFFFF DUP3 AND SWAP1 POP SWAP2 SWAP1 POP JUMP JUMPDEST PUSH1 0x0 PUSH2 0xFBC DUP3 PUSH2 0xF91 JUMP JUMPDEST SWAP1 POP SWAP2 SWAP1 POP JUMP JUMPDEST PUSH2 0xFCC DUP2 PUSH2 0xFB1 JUMP JUMPDEST DUP2 EQ PUSH2 0xFD7 JUMPI PUSH1 0x0 DUP1 REVERT JUMPDEST POP JUMP JUMPDEST PUSH1 0x0 DUP2 CALLDATALOAD SWAP1 POP PUSH2 0xFE9 DUP2 PUSH2 0xFC3 JUMP JUMPDEST SWAP3 SWAP2 POP POP JUMP JUMPDEST PUSH1 0x0 PUSH1 0x20 DUP3 DUP5 SUB SLT ISZERO PUSH2 0x1005 JUMPI PUSH2 0x1004 PUSH2 0xF8C JUMP JUMPDEST JUMPDEST PUSH1 0x0 PUSH2 0x1013 DUP5 DUP3 DUP6 ADD PUSH2 0xFDA JUMP JUMPDEST SWAP2 POP POP SWAP3 SWAP2 POP POP JUMP JUMPDEST PUSH1 0x0 DUP2 ISZERO ISZERO SWAP1 POP SWAP2 SWAP1 POP JUMP JUMPDEST PUSH2 0x1031 DUP2 PUSH2 0x101C JUMP JUMPDEST DUP3 MSTORE POP POP JUMP JUMPDEST PUSH1 0x0 PUSH1 0x20 DUP3 ADD SWAP1 POP PUSH2 0x104C PUSH1 0x0 DUP4 ADD DUP5 PUSH2 0x1028 JUMP JUMPDEST SWAP3 SWAP2 POP POP JUMP JUMPDEST PUSH2 0x105B DUP2 PUSH2 0xFB1 JUMP JUMPDEST DUP3 MSTORE POP POP JUMP JUMPDEST PUSH1 0x0 PUSH1 0x20 DUP3 ADD SWAP1 POP PUSH2 0x1076 PUSH1 0x0 DUP4 ADD DUP5 PUSH2 0x1052 JUMP JUMPDEST SWAP3 SWAP2 POP POP JUMP JUMPDEST PUSH1 0x0 DUP2 SWAP1 POP SWAP2 SWAP1 POP JUMP JUMPDEST PUSH2 0x108F DUP2 PUSH2 0x107C JUMP JUMPDEST DUP3 MSTORE POP POP JUMP JUMPDEST PUSH1 0x0 PUSH1 0x20 DUP3 ADD SWAP1 POP PUSH2 0x10AA PUSH1 0x0 DUP4 ADD DUP5 PUSH2 0x1086 JUMP JUMPDEST SWAP3 SWAP2 POP POP JUMP JUMPDEST PUSH2 0x10B9 DUP2 PUSH2 0x107C JUMP JUMPDEST DUP2 EQ PUSH2 0x10C4 JUMPI PUSH1 0x0 DUP1 REVERT JUMPDEST POP JUMP JUMPDEST PUSH1 0x0 DUP2 CALLDATALOAD SWAP1 POP PUSH2 0x10D6 DUP2 PUSH2 0x10B0 JUMP JUMPDEST SWAP3 SWAP2 POP POP JUMP JUMPDEST PUSH1 0x0 PUSH1 0x20 DUP3 DUP5 SUB SLT ISZERO PUSH2 0x10F2 JUMPI PUSH2 0x10F1 PUSH2 0xF8C JUMP JUMPDEST JUMPDEST PUSH1 0x0 PUSH2 0x1100 DUP5 DUP3 DUP6 ADD PUSH2 0x10C7 JUMP JUMPDEST SWAP2 POP POP SWAP3 SWAP2 POP POP JUMP JUMPDEST PUSH1 0x0 DUP3 DUP3 MSTORE PUSH1 0x20 DUP3 ADD SWAP1 POP SWAP3 SWAP2 POP POP JUMP JUMPDEST PUSH32 0x4F6E6C7920746865206661726D65722063616E2073746F726520676F6F64732E PUSH1 0x0 DUP3 ADD MSTORE POP JUMP JUMPDEST PUSH1 0x0 PUSH2 0x1150 PUSH1 0x20 DUP4 PUSH2 0x1109 JUMP JUMPDEST SWAP2 POP PUSH2 0x115B DUP3 PUSH2 0x111A JUMP JUMPDEST PUSH1 0x20 DUP3 ADD SWAP1 POP SWAP2 SWAP1 POP JUMP JUMPDEST PUSH1 0x0 PUSH1 0x20 DUP3 ADD SWAP1 POP DUP2 DUP2 SUB PUSH1 0x0 DUP4 ADD MSTORE PUSH2 0x117F DUP2 PUSH2 0x1143 JUMP JUMPDEST SWAP1 POP SWAP2 SWAP1 POP JUMP JUMPDEST PUSH32 0x4F6E6C7920746865206661726D65722063616E207472616E73666572206F776E PUSH1 0x0 DUP3 ADD MSTORE PUSH32 0x65727368697020746F207468652062616E6B2E00000000000000000000000000 PUSH1 0x20 DUP3 ADD MSTORE POP JUMP JUMPDEST PUSH1 0x0 PUSH2 0x11E2 PUSH1 0x33 DUP4 PUSH2 0x1109 JUMP JUMPDEST SWAP2 POP PUSH2 0x11ED DUP3 PUSH2 0x1186 JUMP JUMPDEST PUSH1 0x40 DUP3 ADD SWAP1 POP SWAP2 SWAP1 POP JUMP JUMPDEST PUSH1 0x0 PUSH1 0x20 DUP3 ADD SWAP1 POP DUP2 DUP2 SUB PUSH1 0x0 DUP4 ADD MSTORE PUSH2 0x1211 DUP2 PUSH2 0x11D5 JUMP JUMPDEST SWAP1 POP SWAP2 SWAP1 POP JUMP JUMPDEST PUSH32 0x436F6E7472616374206D757374206265207369676E6564206265666F72652074 PUSH1 0x0 DUP3 ADD MSTORE PUSH32 0x72616E7366657272696E67206F776E6572736869702E00000000000000000000 PUSH1 0x20 DUP3 ADD MSTORE POP JUMP JUMPDEST PUSH1 0x0 PUSH2 0x1274 PUSH1 0x36 DUP4 PUSH2 0x1109 JUMP JUMPDEST SWAP2 POP PUSH2 0x127F DUP3 PUSH2 0x1218 JUMP JUMPDEST PUSH1 0x40 DUP3 ADD SWAP1 POP SWAP2 SWAP1 POP JUMP JUMPDEST PUSH1 0x0 PUSH1 0x20 DUP3 ADD SWAP1 POP DUP2 DUP2 SUB PUSH1 0x0 DUP4 ADD MSTORE PUSH2 0x12A3 DUP2 PUSH2 0x1267 JUMP JUMPDEST SWAP1 POP SWAP2 SWAP1 POP JUMP JUMPDEST PUSH32 0x4C6F616E2068617320616C7265616479206265656E2074616B656E20666F7220 PUSH1 0x0 DUP3 ADD MSTORE PUSH32 0x74686520676F6F64732E00000000000000000000000000000000000000000000 PUSH1 0x20 DUP3 ADD MSTORE POP JUMP JUMPDEST PUSH1 0x0 PUSH2 0x1306 PUSH1 0x2A DUP4 PUSH2 0x1109 JUMP JUMPDEST SWAP2 POP PUSH2 0x1311 DUP3 PUSH2 0x12AA JUMP JUMPDEST PUSH1 0x40 DUP3 ADD SWAP1 POP SWAP2 SWAP1 POP JUMP JUMPDEST PUSH1 0x0 PUSH1 0x20 DUP3 ADD SWAP1 POP DUP2 DUP2 SUB PUSH1 0x0 DUP4 ADD MSTORE PUSH2 0x1335 DUP2 PUSH2 0x12F9 JUMP JUMPDEST SWAP1 POP SWAP2 SWAP1 POP JUMP JUMPDEST PUSH32 0x4F6E6C7920746865206661726D65722063616E207369676E2074686520636F6E PUSH1 0x0 DUP3 ADD MSTORE PUSH32 0x74726163742E0000000000000000000000000000000000000000000000000000 PUSH1 0x20 DUP3 ADD MSTORE POP JUMP JUMPDEST PUSH1 0x0 PUSH2 0x1398 PUSH1 0x26 DUP4 PUSH2 0x1109 JUMP JUMPDEST SWAP2 POP PUSH2 0x13A3 DUP3 PUSH2 0x133C JUMP JUMPDEST PUSH1 0x40 DUP3 ADD SWAP1 POP SWAP2 SWAP1 POP JUMP JUMPDEST PUSH1 0x0 PUSH1 0x20 DUP3 ADD SWAP1 POP DUP2 DUP2 SUB PUSH1 0x0 DUP4 ADD MSTORE PUSH2 0x13C7 DUP2 PUSH2 0x138B JUMP JUMPDEST SWAP1 POP SWAP2 SWAP1 POP JUMP JUMPDEST PUSH32 0x436F6E747261637420616C7265616479207369676E65642E0000000000000000 PUSH1 0x0 DUP3 ADD MSTORE POP JUMP JUMPDEST PUSH1 0x0 PUSH2 0x1404 PUSH1 0x18 DUP4 PUSH2 0x1109 JUMP JUMPDEST SWAP2 POP PUSH2 0x140F DUP3 PUSH2 0x13CE JUMP JUMPDEST PUSH1 0x20 DUP3 ADD SWAP1 POP SWAP2 SWAP1 POP JUMP JUMPDEST PUSH1 0x0 PUSH1 0x20 DUP3 ADD SWAP1 POP DUP2 DUP2 SUB PUSH1 0x0 DUP4 ADD MSTORE PUSH2 0x1433 DUP2 PUSH2 0x13F7 JUMP JUMPDEST SWAP1 POP SWAP2 SWAP1 POP JUMP JUMPDEST PUSH32 0x4F6E6C7920746865206661726D65722063616E20726570617920746865206C6F PUSH1 0x0 DUP3 ADD MSTORE PUSH32 0x616E2E0000000000000000000000000000000000000000000000000000000000 PUSH1 0x20 DUP3 ADD MSTORE POP JUMP JUMPDEST PUSH1 0x0 PUSH2 0x1496 PUSH1 0x23 DUP4 PUSH2 0x1109 JUMP JUMPDEST SWAP2 POP PUSH2 0x14A1 DUP3 PUSH2 0x143A JUMP JUMPDEST PUSH1 0x40 DUP3 ADD SWAP1 POP SWAP2 SWAP1 POP JUMP JUMPDEST PUSH1 0x0 PUSH1 0x20 DUP3 ADD SWAP1 POP DUP2 DUP2 SUB PUSH1 0x0 DUP4 ADD MSTORE PUSH2 0x14C5 DUP2 PUSH2 0x1489 JUMP JUMPDEST SWAP1 POP SWAP2 SWAP1 POP JUMP JUMPDEST PUSH32 0x4E6F206C6F616E20686173206265656E2074616B656E20666F72207468652067 PUSH1 0x0 DUP3 ADD MSTORE PUSH32 0x6F6F64732E000000000000000000000000000000000000000000000000000000 PUSH1 0x20 DUP3 ADD MSTORE POP JUMP JUMPDEST PUSH1 0x0 PUSH2 0x1528 PUSH1 0x25 DUP4 PUSH2 0x1109 JUMP JUMPDEST SWAP2 POP PUSH2 0x1533 DUP3 PUSH2 0x14CC JUMP JUMPDEST PUSH1 0x40 DUP3 ADD SWAP1 POP SWAP2 SWAP1 POP JUMP JUMPDEST PUSH1 0x0 PUSH1 0x20 DUP3 ADD SWAP1 POP DUP2 DUP2 SUB PUSH1 0x0 DUP4 ADD MSTORE PUSH2 0x1557 DUP2 PUSH2 0x151B JUMP JUMPDEST SWAP1 POP SWAP2 SWAP1 POP JUMP INVALID LOG2 PUSH5 0x6970667358 0x22 SLT KECCAK256 0xD8 0xA7 PUSH14 0xC4E0A52EDAF0A7FE21504800798A SWAP14 PUSH25 0x17A6BD3F5BAC554C300ECF151C64736F6C634300080D003300 "
				},
				"gasEstimates": {
					"creation": {
						"codeDepositCost": "1104800",
						"executionCost": "infinite",
						"totalCost": "infinite"
					},
					"external": {
						"bank()": "2537",
						"bcAgent()": "2581",
						"farmer()": "2558",
						"goodsStored(address)": "2859",
						"gtidsAdmin()": "2578",
						"isContractSigned(address)": "2911",
						"isLoanTaken(address)": "2846",
						"ownership(address)": "infinite",
						"repayLoan()": "73537",
						"signContract()": "39028",
						"storeGoods(uint256)": "infinite",
						"transferOwnershipToBank()": "77942",
						"warehouse()": "2559"
					}
				},
				"methodIdentifiers": {
					"bank()": "76cdb03b",
					"bcAgent()": "4546a375",
					"farmer()": "d811fcf0",
					"goodsStored(address)": "400777b0",
					"gtidsAdmin()": "a3c29885",
					"isContractSigned(address)": "f0ff0ee6",
					"isLoanTaken(address)": "0e9c1aea",
					"ownership(address)": "27d6d6e0",
					"repayLoan()": "f966ade7",
					"signContract()": "b8b4f1a0",
					"storeGoods(uint256)": "4e123761",
					"transferOwnershipToBank()": "5b23df56",
					"warehouse()": "9b622769"
				}
			},
			"storageLayout": {
				"storage": [
					{
						"astId": 3,
						"contract": "contracts/Functionalities.sol:SupplyChain",
						"label": "gtidsAdmin",
						"offset": 0,
						"slot": "0",
						"type": "t_address"
					},
					{
						"astId": 5,
						"contract": "contracts/Functionalities.sol:SupplyChain",
						"label": "warehouse",
						"offset": 0,
						"slot": "1",
						"type": "t_address"
					},
					{
						"astId": 7,
						"contract": "contracts/Functionalities.sol:SupplyChain",
						"label": "bank",
						"offset": 0,
						"slot": "2",
						"type": "t_address"
					},
					{
						"astId": 9,
						"contract": "contracts/Functionalities.sol:SupplyChain",
						"label": "farmer",
						"offset": 0,
						"slot": "3",
						"type": "t_address"
					},
					{
						"astId": 11,
						"contract": "contracts/Functionalities.sol:SupplyChain",
						"label": "bcAgent",
						"offset": 0,
						"slot": "4",
						"type": "t_address"
					},
					{
						"astId": 15,
						"contract": "contracts/Functionalities.sol:SupplyChain",
						"label": "goodsStored",
						"offset": 0,
						"slot": "5",
						"type": "t_mapping(t_address,t_uint256)"
					},
					{
						"astId": 19,
						"contract": "contracts/Functionalities.sol:SupplyChain",
						"label": "isContractSigned",
						"offset": 0,
						"slot": "6",
						"type": "t_mapping(t_address,t_bool)"
					},
					{
						"astId": 23,
						"contract": "contracts/Functionalities.sol:SupplyChain",
						"label": "isLoanTaken",
						"offset": 0,
						"slot": "7",
						"type": "t_mapping(t_address,t_bool)"
					},
					{
						"astId": 27,
						"contract": "contracts/Functionalities.sol:SupplyChain",
						"label": "ownership",
						"offset": 0,
						"slot": "8",
						"type": "t_mapping(t_address,t_address)"
					}
				],
				"types": {
					"t_address": {
						"encoding": "inplace",
						"label": "address",
						"numberOfBytes": "20"
					},
					"t_bool": {
						"encoding": "inplace",
						"label": "bool",
						"numberOfBytes": "1"
					},
					"t_mapping(t_address,t_address)": {
						"encoding": "mapping",
						"key": "t_address",
						"label": "mapping(address => address)",
						"numberOfBytes": "32",
						"value": "t_address"
					},
					"t_mapping(t_address,t_bool)": {
						"encoding": "mapping",
						"key": "t_address",
						"label": "mapping(address => bool)",
						"numberOfBytes": "32",
						"value": "t_bool"
					},
					"t_mapping(t_address,t_uint256)": {
						"encoding": "mapping",
						"key": "t_address",
						"label": "mapping(address => uint256)",
						"numberOfBytes": "32",
						"value": "t_uint256"
					},
					"t_uint256": {
						"encoding": "inplace",
						"label": "uint256",
						"numberOfBytes": "32"
					}
				}
			},
			"userdoc": {
				"kind": "user",
				"methods": {},
				"version": 1
			}
		}
	}
}