{
	"contracts/WarehouseDao.sol": {
		"WarehouseContract": {
			"abi": [
				{
					"inputs": [
						{
							"internalType": "address",
							"name": "_owner",
							"type": "address"
						}
					],
					"stateMutability": "nonpayable",
					"type": "constructor"
				},
				{
					"inputs": [
						{
							"internalType": "address",
							"name": "_address",
							"type": "address"
						}
					],
					"name": "addViewer",
					"outputs": [],
					"stateMutability": "nonpayable",
					"type": "function"
				},
				{
					"inputs": [
						{
							"internalType": "address",
							"name": "_address",
							"type": "address"
						},
						{
							"internalType": "string",
							"name": "_organization",
							"type": "string"
						},
						{
							"internalType": "string",
							"name": "_name",
							"type": "string"
						},
						{
							"internalType": "string",
							"name": "_Address",
							"type": "string"
						},
						{
							"internalType": "string",
							"name": "_tinNo",
							"type": "string"
						},
						{
							"internalType": "string",
							"name": "_gstinNo",
							"type": "string"
						}
					],
					"name": "addWarehouse",
					"outputs": [],
					"stateMutability": "nonpayable",
					"type": "function"
				},
				{
					"inputs": [
						{
							"internalType": "address",
							"name": "_address",
							"type": "address"
						}
					],
					"name": "getWarehouse",
					"outputs": [
						{
							"components": [
								{
									"internalType": "string",
									"name": "organization",
									"type": "string"
								},
								{
									"internalType": "string",
									"name": "name",
									"type": "string"
								},
								{
									"internalType": "string",
									"name": "Address",
									"type": "string"
								},
								{
									"internalType": "string",
									"name": "tinNo",
									"type": "string"
								},
								{
									"internalType": "string",
									"name": "gstinNo",
									"type": "string"
								}
							],
							"internalType": "struct WarehouseContract.Warehouse",
							"name": "",
							"type": "tuple"
						}
					],
					"stateMutability": "view",
					"type": "function"
				},
				{
					"inputs": [
						{
							"internalType": "address",
							"name": "_address",
							"type": "address"
						}
					],
					"name": "removeViewer",
					"outputs": [],
					"stateMutability": "nonpayable",
					"type": "function"
				}
			],
			"devdoc": {
				"kind": "dev",
				"methods": {},
				"version": 1
			},
			"evm": {
				"assembly": "    /* \"contracts/WarehouseDao.sol\":66:1508  contract WarehouseContract {... */\n  mstore(0x40, 0x80)\n    /* \"contracts/WarehouseDao.sol\":404:498  constructor(address _owner) {... */\n  callvalue\n  dup1\n  iszero\n  tag_1\n  jumpi\n  0x00\n  dup1\n  revert\ntag_1:\n  pop\n  mload(0x40)\n  sub(codesize, bytecodeSize)\n  dup1\n  bytecodeSize\n  dup4\n  codecopy\n  dup2\n  dup2\n  add\n  0x40\n  mstore\n  dup2\n  add\n  swap1\n  tag_2\n  swap2\n  swap1\n  tag_3\n  jump\t// in\ntag_2:\n    /* \"contracts/WarehouseDao.sol\":451:457  _owner */\n  dup1\n    /* \"contracts/WarehouseDao.sol\":443:448  owner */\n  0x00\n  dup1\n    /* \"contracts/WarehouseDao.sol\":443:457  owner = _owner */\n  0x0100\n  exp\n  dup2\n  sload\n  dup2\n  0xffffffffffffffffffffffffffffffffffffffff\n  mul\n  not\n  and\n  swap1\n  dup4\n  0xffffffffffffffffffffffffffffffffffffffff\n  and\n  mul\n  or\n  swap1\n  sstore\n  pop\n    /* \"contracts/WarehouseDao.sol\":486:490  true */\n  0x01\n    /* \"contracts/WarehouseDao.sol\":468:475  viewers */\n  0x02\n    /* \"contracts/WarehouseDao.sol\":468:483  viewers[_owner] */\n  0x00\n    /* \"contracts/WarehouseDao.sol\":476:482  _owner */\n  dup4\n    /* \"contracts/WarehouseDao.sol\":468:483  viewers[_owner] */\n  0xffffffffffffffffffffffffffffffffffffffff\n  and\n  0xffffffffffffffffffffffffffffffffffffffff\n  and\n  dup2\n  mstore\n  0x20\n  add\n  swap1\n  dup2\n  mstore\n  0x20\n  add\n  0x00\n  keccak256\n  0x00\n    /* \"contracts/WarehouseDao.sol\":468:490  viewers[_owner] = true */\n  0x0100\n  exp\n  dup2\n  sload\n  dup2\n  0xff\n  mul\n  not\n  and\n  swap1\n  dup4\n  iszero\n  iszero\n  mul\n  or\n  swap1\n  sstore\n  pop\n    /* \"contracts/WarehouseDao.sol\":404:498  constructor(address _owner) {... */\n  pop\n    /* \"contracts/WarehouseDao.sol\":66:1508  contract WarehouseContract {... */\n  jump(tag_6)\n    /* \"#utility.yul\":88:205   */\ntag_8:\n    /* \"#utility.yul\":197:198   */\n  0x00\n    /* \"#utility.yul\":194:195   */\n  dup1\n    /* \"#utility.yul\":187:199   */\n  revert\n    /* \"#utility.yul\":334:460   */\ntag_10:\n    /* \"#utility.yul\":371:378   */\n  0x00\n    /* \"#utility.yul\":411:453   */\n  0xffffffffffffffffffffffffffffffffffffffff\n    /* \"#utility.yul\":404:409   */\n  dup3\n    /* \"#utility.yul\":400:454   */\n  and\n    /* \"#utility.yul\":389:454   */\n  swap1\n  pop\n    /* \"#utility.yul\":334:460   */\n  swap2\n  swap1\n  pop\n  jump\t// out\n    /* \"#utility.yul\":466:562   */\ntag_11:\n    /* \"#utility.yul\":503:510   */\n  0x00\n    /* \"#utility.yul\":532:556   */\n  tag_20\n    /* \"#utility.yul\":550:555   */\n  dup3\n    /* \"#utility.yul\":532:556   */\n  tag_10\n  jump\t// in\ntag_20:\n    /* \"#utility.yul\":521:556   */\n  swap1\n  pop\n    /* \"#utility.yul\":466:562   */\n  swap2\n  swap1\n  pop\n  jump\t// out\n    /* \"#utility.yul\":568:690   */\ntag_12:\n    /* \"#utility.yul\":641:665   */\n  tag_22\n    /* \"#utility.yul\":659:664   */\n  dup2\n    /* \"#utility.yul\":641:665   */\n  tag_11\n  jump\t// in\ntag_22:\n    /* \"#utility.yul\":634:639   */\n  dup2\n    /* \"#utility.yul\":631:666   */\n  eq\n    /* \"#utility.yul\":621:684   */\n  tag_23\n  jumpi\n    /* \"#utility.yul\":680:681   */\n  0x00\n    /* \"#utility.yul\":677:678   */\n  dup1\n    /* \"#utility.yul\":670:682   */\n  revert\n    /* \"#utility.yul\":621:684   */\ntag_23:\n    /* \"#utility.yul\":568:690   */\n  pop\n  jump\t// out\n    /* \"#utility.yul\":696:839   */\ntag_13:\n    /* \"#utility.yul\":753:758   */\n  0x00\n    /* \"#utility.yul\":784:790   */\n  dup2\n    /* \"#utility.yul\":778:791   */\n  mload\n    /* \"#utility.yul\":769:791   */\n  swap1\n  pop\n    /* \"#utility.yul\":800:833   */\n  tag_25\n    /* \"#utility.yul\":827:832   */\n  dup2\n    /* \"#utility.yul\":800:833   */\n  tag_12\n  jump\t// in\ntag_25:\n    /* \"#utility.yul\":696:839   */\n  swap3\n  swap2\n  pop\n  pop\n  jump\t// out\n    /* \"#utility.yul\":845:1196   */\ntag_3:\n    /* \"#utility.yul\":915:921   */\n  0x00\n    /* \"#utility.yul\":964:966   */\n  0x20\n    /* \"#utility.yul\":952:961   */\n  dup3\n    /* \"#utility.yul\":943:950   */\n  dup5\n    /* \"#utility.yul\":939:962   */\n  sub\n    /* \"#utility.yul\":935:967   */\n  slt\n    /* \"#utility.yul\":932:1051   */\n  iszero\n  tag_27\n  jumpi\n    /* \"#utility.yul\":970:1049   */\n  tag_28\n  tag_8\n  jump\t// in\ntag_28:\n    /* \"#utility.yul\":932:1051   */\ntag_27:\n    /* \"#utility.yul\":1090:1091   */\n  0x00\n    /* \"#utility.yul\":1115:1179   */\n  tag_29\n    /* \"#utility.yul\":1171:1178   */\n  dup5\n    /* \"#utility.yul\":1162:1168   */\n  dup3\n    /* \"#utility.yul\":1151:1160   */\n  dup6\n    /* \"#utility.yul\":1147:1169   */\n  add\n    /* \"#utility.yul\":1115:1179   */\n  tag_13\n  jump\t// in\ntag_29:\n    /* \"#utility.yul\":1105:1179   */\n  swap2\n  pop\n    /* \"#utility.yul\":1061:1189   */\n  pop\n    /* \"#utility.yul\":845:1196   */\n  swap3\n  swap2\n  pop\n  pop\n  jump\t// out\n    /* \"contracts/WarehouseDao.sol\":66:1508  contract WarehouseContract {... */\ntag_6:\n  dataSize(sub_0)\n  dup1\n  dataOffset(sub_0)\n  0x00\n  codecopy\n  0x00\n  return\nstop\n\nsub_0: assembly {\n        /* \"contracts/WarehouseDao.sol\":66:1508  contract WarehouseContract {... */\n      mstore(0x40, 0x80)\n      callvalue\n      dup1\n      iszero\n      tag_1\n      jumpi\n      0x00\n      dup1\n      revert\n    tag_1:\n      pop\n      jumpi(tag_2, lt(calldatasize, 0x04))\n      shr(0xe0, calldataload(0x00))\n      dup1\n      0x12554257\n      eq\n      tag_3\n      jumpi\n      dup1\n      0x601f8cf5\n      eq\n      tag_4\n      jumpi\n      dup1\n      0x69d948d3\n      eq\n      tag_5\n      jumpi\n      dup1\n      0xd1d98914\n      eq\n      tag_6\n      jumpi\n    tag_2:\n      0x00\n      dup1\n      revert\n        /* \"contracts/WarehouseDao.sol\":1368:1505  function getWarehouse(address _address) public view onlyViewers returns (Warehouse memory) {... */\n    tag_3:\n      tag_7\n      0x04\n      dup1\n      calldatasize\n      sub\n      dup2\n      add\n      swap1\n      tag_8\n      swap2\n      swap1\n      tag_9\n      jump\t// in\n    tag_8:\n      tag_10\n      jump\t// in\n    tag_7:\n      mload(0x40)\n      tag_11\n      swap2\n      swap1\n      tag_12\n      jump\t// in\n    tag_11:\n      mload(0x40)\n      dup1\n      swap2\n      sub\n      swap1\n      return\n        /* \"contracts/WarehouseDao.sol\":1146:1243  function addViewer(address _address) public onlyOwner {... */\n    tag_4:\n      tag_13\n      0x04\n      dup1\n      calldatasize\n      sub\n      dup2\n      add\n      swap1\n      tag_14\n      swap2\n      swap1\n      tag_9\n      jump\t// in\n    tag_14:\n      tag_15\n      jump\t// in\n    tag_13:\n      stop\n        /* \"contracts/WarehouseDao.sol\":801:1134  function addWarehouse(address _address, string memory _organization, string memory _name, string memory _Address, string memory _tinNo, string memory _gstinNo) public onlyOwner {... */\n    tag_5:\n      tag_16\n      0x04\n      dup1\n      calldatasize\n      sub\n      dup2\n      add\n      swap1\n      tag_17\n      swap2\n      swap1\n      tag_18\n      jump\t// in\n    tag_17:\n      tag_19\n      jump\t// in\n    tag_16:\n      stop\n        /* \"contracts/WarehouseDao.sol\":1255:1356  function removeViewer(address _address) public onlyOwner {... */\n    tag_6:\n      tag_20\n      0x04\n      dup1\n      calldatasize\n      sub\n      dup2\n      add\n      swap1\n      tag_21\n      swap2\n      swap1\n      tag_9\n      jump\t// in\n    tag_21:\n      tag_22\n      jump\t// in\n    tag_20:\n      stop\n        /* \"contracts/WarehouseDao.sol\":1368:1505  function getWarehouse(address _address) public view onlyViewers returns (Warehouse memory) {... */\n    tag_10:\n        /* \"contracts/WarehouseDao.sol\":1441:1457  Warehouse memory */\n      tag_23\n      tag_24\n      jump\t// in\n    tag_23:\n        /* \"contracts/WarehouseDao.sol\":693:700  viewers */\n      0x02\n        /* \"contracts/WarehouseDao.sol\":693:712  viewers[msg.sender] */\n      0x00\n        /* \"contracts/WarehouseDao.sol\":701:711  msg.sender */\n      caller\n        /* \"contracts/WarehouseDao.sol\":693:712  viewers[msg.sender] */\n      0xffffffffffffffffffffffffffffffffffffffff\n      and\n      0xffffffffffffffffffffffffffffffffffffffff\n      and\n      dup2\n      mstore\n      0x20\n      add\n      swap1\n      dup2\n      mstore\n      0x20\n      add\n      0x00\n      keccak256\n      0x00\n      swap1\n      sload\n      swap1\n      0x0100\n      exp\n      swap1\n      div\n      0xff\n      and\n        /* \"contracts/WarehouseDao.sol\":685:769  require(viewers[msg.sender], \"Only authorized viewers can access this information.\") */\n      tag_26\n      jumpi\n      mload(0x40)\n      0x08c379a000000000000000000000000000000000000000000000000000000000\n      dup2\n      mstore\n      0x04\n      add\n      tag_27\n      swap1\n      tag_28\n      jump\t// in\n    tag_27:\n      mload(0x40)\n      dup1\n      swap2\n      sub\n      swap1\n      revert\n    tag_26:\n        /* \"contracts/WarehouseDao.sol\":1477:1487  warehouses */\n      0x01\n        /* \"contracts/WarehouseDao.sol\":1477:1497  warehouses[_address] */\n      0x00\n        /* \"contracts/WarehouseDao.sol\":1488:1496  _address */\n      dup4\n        /* \"contracts/WarehouseDao.sol\":1477:1497  warehouses[_address] */\n      0xffffffffffffffffffffffffffffffffffffffff\n      and\n      0xffffffffffffffffffffffffffffffffffffffff\n      and\n      dup2\n      mstore\n      0x20\n      add\n      swap1\n      dup2\n      mstore\n      0x20\n      add\n      0x00\n      keccak256\n        /* \"contracts/WarehouseDao.sol\":1470:1497  return warehouses[_address] */\n      mload(0x40)\n      dup1\n      0xa0\n      add\n      0x40\n      mstore\n      swap1\n      dup2\n      0x00\n      dup3\n      add\n      dup1\n      sload\n      tag_30\n      swap1\n      tag_31\n      jump\t// in\n    tag_30:\n      dup1\n      0x1f\n      add\n      0x20\n      dup1\n      swap2\n      div\n      mul\n      0x20\n      add\n      mload(0x40)\n      swap1\n      dup2\n      add\n      0x40\n      mstore\n      dup1\n      swap3\n      swap2\n      swap1\n      dup2\n      dup2\n      mstore\n      0x20\n      add\n      dup3\n      dup1\n      sload\n      tag_32\n      swap1\n      tag_31\n      jump\t// in\n    tag_32:\n      dup1\n      iszero\n      tag_33\n      jumpi\n      dup1\n      0x1f\n      lt\n      tag_34\n      jumpi\n      0x0100\n      dup1\n      dup4\n      sload\n      div\n      mul\n      dup4\n      mstore\n      swap2\n      0x20\n      add\n      swap2\n      jump(tag_33)\n    tag_34:\n      dup3\n      add\n      swap2\n      swap1\n      0x00\n      mstore\n      keccak256(0x00, 0x20)\n      swap1\n    tag_35:\n      dup2\n      sload\n      dup2\n      mstore\n      swap1\n      0x01\n      add\n      swap1\n      0x20\n      add\n      dup1\n      dup4\n      gt\n      tag_35\n      jumpi\n      dup3\n      swap1\n      sub\n      0x1f\n      and\n      dup3\n      add\n      swap2\n    tag_33:\n      pop\n      pop\n      pop\n      pop\n      pop\n      dup2\n      mstore\n      0x20\n      add\n      0x01\n      dup3\n      add\n      dup1\n      sload\n      tag_36\n      swap1\n      tag_31\n      jump\t// in\n    tag_36:\n      dup1\n      0x1f\n      add\n      0x20\n      dup1\n      swap2\n      div\n      mul\n      0x20\n      add\n      mload(0x40)\n      swap1\n      dup2\n      add\n      0x40\n      mstore\n      dup1\n      swap3\n      swap2\n      swap1\n      dup2\n      dup2\n      mstore\n      0x20\n      add\n      dup3\n      dup1\n      sload\n      tag_37\n      swap1\n      tag_31\n      jump\t// in\n    tag_37:\n      dup1\n      iszero\n      tag_38\n      jumpi\n      dup1\n      0x1f\n      lt\n      tag_39\n      jumpi\n      0x0100\n      dup1\n      dup4\n      sload\n      div\n      mul\n      dup4\n      mstore\n      swap2\n      0x20\n      add\n      swap2\n      jump(tag_38)\n    tag_39:\n      dup3\n      add\n      swap2\n      swap1\n      0x00\n      mstore\n      keccak256(0x00, 0x20)\n      swap1\n    tag_40:\n      dup2\n      sload\n      dup2\n      mstore\n      swap1\n      0x01\n      add\n      swap1\n      0x20\n      add\n      dup1\n      dup4\n      gt\n      tag_40\n      jumpi\n      dup3\n      swap1\n      sub\n      0x1f\n      and\n      dup3\n      add\n      swap2\n    tag_38:\n      pop\n      pop\n      pop\n      pop\n      pop\n      dup2\n      mstore\n      0x20\n      add\n      0x02\n      dup3\n      add\n      dup1\n      sload\n      tag_41\n      swap1\n      tag_31\n      jump\t// in\n    tag_41:\n      dup1\n      0x1f\n      add\n      0x20\n      dup1\n      swap2\n      div\n      mul\n      0x20\n      add\n      mload(0x40)\n      swap1\n      dup2\n      add\n      0x40\n      mstore\n      dup1\n      swap3\n      swap2\n      swap1\n      dup2\n      dup2\n      mstore\n      0x20\n      add\n      dup3\n      dup1\n      sload\n      tag_42\n      swap1\n      tag_31\n      jump\t// in\n    tag_42:\n      dup1\n      iszero\n      tag_43\n      jumpi\n      dup1\n      0x1f\n      lt\n      tag_44\n      jumpi\n      0x0100\n      dup1\n      dup4\n      sload\n      div\n      mul\n      dup4\n      mstore\n      swap2\n      0x20\n      add\n      swap2\n      jump(tag_43)\n    tag_44:\n      dup3\n      add\n      swap2\n      swap1\n      0x00\n      mstore\n      keccak256(0x00, 0x20)\n      swap1\n    tag_45:\n      dup2\n      sload\n      dup2\n      mstore\n      swap1\n      0x01\n      add\n      swap1\n      0x20\n      add\n      dup1\n      dup4\n      gt\n      tag_45\n      jumpi\n      dup3\n      swap1\n      sub\n      0x1f\n      and\n      dup3\n      add\n      swap2\n    tag_43:\n      pop\n      pop\n      pop\n      pop\n      pop\n      dup2\n      mstore\n      0x20\n      add\n      0x03\n      dup3\n      add\n      dup1\n      sload\n      tag_46\n      swap1\n      tag_31\n      jump\t// in\n    tag_46:\n      dup1\n      0x1f\n      add\n      0x20\n      dup1\n      swap2\n      div\n      mul\n      0x20\n      add\n      mload(0x40)\n      swap1\n      dup2\n      add\n      0x40\n      mstore\n      dup1\n      swap3\n      swap2\n      swap1\n      dup2\n      dup2\n      mstore\n      0x20\n      add\n      dup3\n      dup1\n      sload\n      tag_47\n      swap1\n      tag_31\n      jump\t// in\n    tag_47:\n      dup1\n      iszero\n      tag_48\n      jumpi\n      dup1\n      0x1f\n      lt\n      tag_49\n      jumpi\n      0x0100\n      dup1\n      dup4\n      sload\n      div\n      mul\n      dup4\n      mstore\n      swap2\n      0x20\n      add\n      swap2\n      jump(tag_48)\n    tag_49:\n      dup3\n      add\n      swap2\n      swap1\n      0x00\n      mstore\n      keccak256(0x00, 0x20)\n      swap1\n    tag_50:\n      dup2\n      sload\n      dup2\n      mstore\n      swap1\n      0x01\n      add\n      swap1\n      0x20\n      add\n      dup1\n      dup4\n      gt\n      tag_50\n      jumpi\n      dup3\n      swap1\n      sub\n      0x1f\n      and\n      dup3\n      add\n      swap2\n    tag_48:\n      pop\n      pop\n      pop\n      pop\n      pop\n      dup2\n      mstore\n      0x20\n      add\n      0x04\n      dup3\n      add\n      dup1\n      sload\n      tag_51\n      swap1\n      tag_31\n      jump\t// in\n    tag_51:\n      dup1\n      0x1f\n      add\n      0x20\n      dup1\n      swap2\n      div\n      mul\n      0x20\n      add\n      mload(0x40)\n      swap1\n      dup2\n      add\n      0x40\n      mstore\n      dup1\n      swap3\n      swap2\n      swap1\n      dup2\n      dup2\n      mstore\n      0x20\n      add\n      dup3\n      dup1\n      sload\n      tag_52\n      swap1\n      tag_31\n      jump\t// in\n    tag_52:\n      dup1\n      iszero\n      tag_53\n      jumpi\n      dup1\n      0x1f\n      lt\n      tag_54\n      jumpi\n      0x0100\n      dup1\n      dup4\n      sload\n      div\n      mul\n      dup4\n      mstore\n      swap2\n      0x20\n      add\n      swap2\n      jump(tag_53)\n    tag_54:\n      dup3\n      add\n      swap2\n      swap1\n      0x00\n      mstore\n      keccak256(0x00, 0x20)\n      swap1\n    tag_55:\n      dup2\n      sload\n      dup2\n      mstore\n      swap1\n      0x01\n      add\n      swap1\n      0x20\n      add\n      dup1\n      dup4\n      gt\n      tag_55\n      jumpi\n      dup3\n      swap1\n      sub\n      0x1f\n      and\n      dup3\n      add\n      swap2\n    tag_53:\n      pop\n      pop\n      pop\n      pop\n      pop\n      dup2\n      mstore\n      pop\n      pop\n      swap1\n      pop\n        /* \"contracts/WarehouseDao.sol\":1368:1505  function getWarehouse(address _address) public view onlyViewers returns (Warehouse memory) {... */\n      swap2\n      swap1\n      pop\n      jump\t// out\n        /* \"contracts/WarehouseDao.sol\":1146:1243  function addViewer(address _address) public onlyOwner {... */\n    tag_15:\n        /* \"contracts/WarehouseDao.sol\":564:569  owner */\n      0x00\n      dup1\n      sload\n      swap1\n      0x0100\n      exp\n      swap1\n      div\n      0xffffffffffffffffffffffffffffffffffffffff\n      and\n        /* \"contracts/WarehouseDao.sol\":550:569  msg.sender == owner */\n      0xffffffffffffffffffffffffffffffffffffffff\n      and\n        /* \"contracts/WarehouseDao.sol\":550:560  msg.sender */\n      caller\n        /* \"contracts/WarehouseDao.sol\":550:569  msg.sender == owner */\n      0xffffffffffffffffffffffffffffffffffffffff\n      and\n      eq\n        /* \"contracts/WarehouseDao.sol\":542:619  require(msg.sender == owner, \"Only the GTIDS admin can perform this action.\") */\n      tag_57\n      jumpi\n      mload(0x40)\n      0x08c379a000000000000000000000000000000000000000000000000000000000\n      dup2\n      mstore\n      0x04\n      add\n      tag_58\n      swap1\n      tag_59\n      jump\t// in\n    tag_58:\n      mload(0x40)\n      dup1\n      swap2\n      sub\n      swap1\n      revert\n    tag_57:\n        /* \"contracts/WarehouseDao.sol\":1231:1235  true */\n      0x01\n        /* \"contracts/WarehouseDao.sol\":1211:1218  viewers */\n      0x02\n        /* \"contracts/WarehouseDao.sol\":1211:1228  viewers[_address] */\n      0x00\n        /* \"contracts/WarehouseDao.sol\":1219:1227  _address */\n      dup4\n        /* \"contracts/WarehouseDao.sol\":1211:1228  viewers[_address] */\n      0xffffffffffffffffffffffffffffffffffffffff\n      and\n      0xffffffffffffffffffffffffffffffffffffffff\n      and\n      dup2\n      mstore\n      0x20\n      add\n      swap1\n      dup2\n      mstore\n      0x20\n      add\n      0x00\n      keccak256\n      0x00\n        /* \"contracts/WarehouseDao.sol\":1211:1235  viewers[_address] = true */\n      0x0100\n      exp\n      dup2\n      sload\n      dup2\n      0xff\n      mul\n      not\n      and\n      swap1\n      dup4\n      iszero\n      iszero\n      mul\n      or\n      swap1\n      sstore\n      pop\n        /* \"contracts/WarehouseDao.sol\":1146:1243  function addViewer(address _address) public onlyOwner {... */\n      pop\n      jump\t// out\n        /* \"contracts/WarehouseDao.sol\":801:1134  function addWarehouse(address _address, string memory _organization, string memory _name, string memory _Address, string memory _tinNo, string memory _gstinNo) public onlyOwner {... */\n    tag_19:\n        /* \"contracts/WarehouseDao.sol\":564:569  owner */\n      0x00\n      dup1\n      sload\n      swap1\n      0x0100\n      exp\n      swap1\n      div\n      0xffffffffffffffffffffffffffffffffffffffff\n      and\n        /* \"contracts/WarehouseDao.sol\":550:569  msg.sender == owner */\n      0xffffffffffffffffffffffffffffffffffffffff\n      and\n        /* \"contracts/WarehouseDao.sol\":550:560  msg.sender */\n      caller\n        /* \"contracts/WarehouseDao.sol\":550:569  msg.sender == owner */\n      0xffffffffffffffffffffffffffffffffffffffff\n      and\n      eq\n        /* \"contracts/WarehouseDao.sol\":542:619  require(msg.sender == owner, \"Only the GTIDS admin can perform this action.\") */\n      tag_62\n      jumpi\n      mload(0x40)\n      0x08c379a000000000000000000000000000000000000000000000000000000000\n      dup2\n      mstore\n      0x04\n      add\n      tag_63\n      swap1\n      tag_59\n      jump\t// in\n    tag_63:\n      mload(0x40)\n      dup1\n      swap2\n      sub\n      swap1\n      revert\n    tag_62:\n        /* \"contracts/WarehouseDao.sol\":989:1018  Warehouse memory newWarehouse */\n      0x00\n        /* \"contracts/WarehouseDao.sol\":1021:1080  Warehouse(_organization, _name, _Address, _tinNo, _gstinNo) */\n      mload(0x40)\n      dup1\n      0xa0\n      add\n      0x40\n      mstore\n      dup1\n        /* \"contracts/WarehouseDao.sol\":1031:1044  _organization */\n      dup8\n        /* \"contracts/WarehouseDao.sol\":1021:1080  Warehouse(_organization, _name, _Address, _tinNo, _gstinNo) */\n      dup2\n      mstore\n      0x20\n      add\n        /* \"contracts/WarehouseDao.sol\":1046:1051  _name */\n      dup7\n        /* \"contracts/WarehouseDao.sol\":1021:1080  Warehouse(_organization, _name, _Address, _tinNo, _gstinNo) */\n      dup2\n      mstore\n      0x20\n      add\n        /* \"contracts/WarehouseDao.sol\":1053:1061  _Address */\n      dup6\n        /* \"contracts/WarehouseDao.sol\":1021:1080  Warehouse(_organization, _name, _Address, _tinNo, _gstinNo) */\n      dup2\n      mstore\n      0x20\n      add\n        /* \"contracts/WarehouseDao.sol\":1063:1069  _tinNo */\n      dup5\n        /* \"contracts/WarehouseDao.sol\":1021:1080  Warehouse(_organization, _name, _Address, _tinNo, _gstinNo) */\n      dup2\n      mstore\n      0x20\n      add\n        /* \"contracts/WarehouseDao.sol\":1071:1079  _gstinNo */\n      dup4\n        /* \"contracts/WarehouseDao.sol\":1021:1080  Warehouse(_organization, _name, _Address, _tinNo, _gstinNo) */\n      dup2\n      mstore\n      pop\n        /* \"contracts/WarehouseDao.sol\":989:1080  Warehouse memory newWarehouse = Warehouse(_organization, _name, _Address, _tinNo, _gstinNo) */\n      swap1\n      pop\n        /* \"contracts/WarehouseDao.sol\":1114:1126  newWarehouse */\n      dup1\n        /* \"contracts/WarehouseDao.sol\":1091:1101  warehouses */\n      0x01\n        /* \"contracts/WarehouseDao.sol\":1091:1111  warehouses[_address] */\n      0x00\n        /* \"contracts/WarehouseDao.sol\":1102:1110  _address */\n      dup10\n        /* \"contracts/WarehouseDao.sol\":1091:1111  warehouses[_address] */\n      0xffffffffffffffffffffffffffffffffffffffff\n      and\n      0xffffffffffffffffffffffffffffffffffffffff\n      and\n      dup2\n      mstore\n      0x20\n      add\n      swap1\n      dup2\n      mstore\n      0x20\n      add\n      0x00\n      keccak256\n        /* \"contracts/WarehouseDao.sol\":1091:1126  warehouses[_address] = newWarehouse */\n      0x00\n      dup3\n      add\n      mload\n      dup2\n      0x00\n      add\n      swap1\n      dup1\n      mload\n      swap1\n      0x20\n      add\n      swap1\n      tag_65\n      swap3\n      swap2\n      swap1\n      tag_66\n      jump\t// in\n    tag_65:\n      pop\n      0x20\n      dup3\n      add\n      mload\n      dup2\n      0x01\n      add\n      swap1\n      dup1\n      mload\n      swap1\n      0x20\n      add\n      swap1\n      tag_67\n      swap3\n      swap2\n      swap1\n      tag_66\n      jump\t// in\n    tag_67:\n      pop\n      0x40\n      dup3\n      add\n      mload\n      dup2\n      0x02\n      add\n      swap1\n      dup1\n      mload\n      swap1\n      0x20\n      add\n      swap1\n      tag_68\n      swap3\n      swap2\n      swap1\n      tag_66\n      jump\t// in\n    tag_68:\n      pop\n      0x60\n      dup3\n      add\n      mload\n      dup2\n      0x03\n      add\n      swap1\n      dup1\n      mload\n      swap1\n      0x20\n      add\n      swap1\n      tag_69\n      swap3\n      swap2\n      swap1\n      tag_66\n      jump\t// in\n    tag_69:\n      pop\n      0x80\n      dup3\n      add\n      mload\n      dup2\n      0x04\n      add\n      swap1\n      dup1\n      mload\n      swap1\n      0x20\n      add\n      swap1\n      tag_70\n      swap3\n      swap2\n      swap1\n      tag_66\n      jump\t// in\n    tag_70:\n      pop\n      swap1\n      pop\n      pop\n        /* \"contracts/WarehouseDao.sol\":978:1134  {... */\n      pop\n        /* \"contracts/WarehouseDao.sol\":801:1134  function addWarehouse(address _address, string memory _organization, string memory _name, string memory _Address, string memory _tinNo, string memory _gstinNo) public onlyOwner {... */\n      pop\n      pop\n      pop\n      pop\n      pop\n      pop\n      jump\t// out\n        /* \"contracts/WarehouseDao.sol\":1255:1356  function removeViewer(address _address) public onlyOwner {... */\n    tag_22:\n        /* \"contracts/WarehouseDao.sol\":564:569  owner */\n      0x00\n      dup1\n      sload\n      swap1\n      0x0100\n      exp\n      swap1\n      div\n      0xffffffffffffffffffffffffffffffffffffffff\n      and\n        /* \"contracts/WarehouseDao.sol\":550:569  msg.sender == owner */\n      0xffffffffffffffffffffffffffffffffffffffff\n      and\n        /* \"contracts/WarehouseDao.sol\":550:560  msg.sender */\n      caller\n        /* \"contracts/WarehouseDao.sol\":550:569  msg.sender == owner */\n      0xffffffffffffffffffffffffffffffffffffffff\n      and\n      eq\n        /* \"contracts/WarehouseDao.sol\":542:619  require(msg.sender == owner, \"Only the GTIDS admin can perform this action.\") */\n      tag_72\n      jumpi\n      mload(0x40)\n      0x08c379a000000000000000000000000000000000000000000000000000000000\n      dup2\n      mstore\n      0x04\n      add\n      tag_73\n      swap1\n      tag_59\n      jump\t// in\n    tag_73:\n      mload(0x40)\n      dup1\n      swap2\n      sub\n      swap1\n      revert\n    tag_72:\n        /* \"contracts/WarehouseDao.sol\":1343:1348  false */\n      0x00\n        /* \"contracts/WarehouseDao.sol\":1323:1330  viewers */\n      0x02\n        /* \"contracts/WarehouseDao.sol\":1323:1340  viewers[_address] */\n      0x00\n        /* \"contracts/WarehouseDao.sol\":1331:1339  _address */\n      dup4\n        /* \"contracts/WarehouseDao.sol\":1323:1340  viewers[_address] */\n      0xffffffffffffffffffffffffffffffffffffffff\n      and\n      0xffffffffffffffffffffffffffffffffffffffff\n      and\n      dup2\n      mstore\n      0x20\n      add\n      swap1\n      dup2\n      mstore\n      0x20\n      add\n      0x00\n      keccak256\n      0x00\n        /* \"contracts/WarehouseDao.sol\":1323:1348  viewers[_address] = false */\n      0x0100\n      exp\n      dup2\n      sload\n      dup2\n      0xff\n      mul\n      not\n      and\n      swap1\n      dup4\n      iszero\n      iszero\n      mul\n      or\n      swap1\n      sstore\n      pop\n        /* \"contracts/WarehouseDao.sol\":1255:1356  function removeViewer(address _address) public onlyOwner {... */\n      pop\n      jump\t// out\n    tag_24:\n      mload(0x40)\n      dup1\n      0xa0\n      add\n      0x40\n      mstore\n      dup1\n      0x60\n      dup2\n      mstore\n      0x20\n      add\n      0x60\n      dup2\n      mstore\n      0x20\n      add\n      0x60\n      dup2\n      mstore\n      0x20\n      add\n      0x60\n      dup2\n      mstore\n      0x20\n      add\n      0x60\n      dup2\n      mstore\n      pop\n      swap1\n      jump\t// out\n    tag_66:\n      dup3\n      dup1\n      sload\n      tag_75\n      swap1\n      tag_31\n      jump\t// in\n    tag_75:\n      swap1\n      0x00\n      mstore\n      keccak256(0x00, 0x20)\n      swap1\n      0x1f\n      add\n      0x20\n      swap1\n      div\n      dup2\n      add\n      swap3\n      dup3\n      tag_77\n      jumpi\n      0x00\n      dup6\n      sstore\n      jump(tag_76)\n    tag_77:\n      dup3\n      0x1f\n      lt\n      tag_78\n      jumpi\n      dup1\n      mload\n      not(0xff)\n      and\n      dup4\n      dup1\n      add\n      or\n      dup6\n      sstore\n      jump(tag_76)\n    tag_78:\n      dup3\n      dup1\n      add\n      0x01\n      add\n      dup6\n      sstore\n      dup3\n      iszero\n      tag_76\n      jumpi\n      swap2\n      dup3\n      add\n    tag_79:\n      dup3\n      dup2\n      gt\n      iszero\n      tag_80\n      jumpi\n      dup3\n      mload\n      dup3\n      sstore\n      swap2\n      0x20\n      add\n      swap2\n      swap1\n      0x01\n      add\n      swap1\n      jump(tag_79)\n    tag_80:\n    tag_76:\n      pop\n      swap1\n      pop\n      tag_81\n      swap2\n      swap1\n      tag_82\n      jump\t// in\n    tag_81:\n      pop\n      swap1\n      jump\t// out\n    tag_82:\n    tag_83:\n      dup1\n      dup3\n      gt\n      iszero\n      tag_84\n      jumpi\n      0x00\n      dup2\n      0x00\n      swap1\n      sstore\n      pop\n      0x01\n      add\n      jump(tag_83)\n    tag_84:\n      pop\n      swap1\n      jump\t// out\n        /* \"#utility.yul\":7:82   */\n    tag_85:\n        /* \"#utility.yul\":40:46   */\n      0x00\n        /* \"#utility.yul\":73:75   */\n      0x40\n        /* \"#utility.yul\":67:76   */\n      mload\n        /* \"#utility.yul\":57:76   */\n      swap1\n      pop\n        /* \"#utility.yul\":7:82   */\n      swap1\n      jump\t// out\n        /* \"#utility.yul\":88:205   */\n    tag_86:\n        /* \"#utility.yul\":197:198   */\n      0x00\n        /* \"#utility.yul\":194:195   */\n      dup1\n        /* \"#utility.yul\":187:199   */\n      revert\n        /* \"#utility.yul\":211:328   */\n    tag_87:\n        /* \"#utility.yul\":320:321   */\n      0x00\n        /* \"#utility.yul\":317:318   */\n      dup1\n        /* \"#utility.yul\":310:322   */\n      revert\n        /* \"#utility.yul\":334:460   */\n    tag_88:\n        /* \"#utility.yul\":371:378   */\n      0x00\n        /* \"#utility.yul\":411:453   */\n      0xffffffffffffffffffffffffffffffffffffffff\n        /* \"#utility.yul\":404:409   */\n      dup3\n        /* \"#utility.yul\":400:454   */\n      and\n        /* \"#utility.yul\":389:454   */\n      swap1\n      pop\n        /* \"#utility.yul\":334:460   */\n      swap2\n      swap1\n      pop\n      jump\t// out\n        /* \"#utility.yul\":466:562   */\n    tag_89:\n        /* \"#utility.yul\":503:510   */\n      0x00\n        /* \"#utility.yul\":532:556   */\n      tag_119\n        /* \"#utility.yul\":550:555   */\n      dup3\n        /* \"#utility.yul\":532:556   */\n      tag_88\n      jump\t// in\n    tag_119:\n        /* \"#utility.yul\":521:556   */\n      swap1\n      pop\n        /* \"#utility.yul\":466:562   */\n      swap2\n      swap1\n      pop\n      jump\t// out\n        /* \"#utility.yul\":568:690   */\n    tag_90:\n        /* \"#utility.yul\":641:665   */\n      tag_121\n        /* \"#utility.yul\":659:664   */\n      dup2\n        /* \"#utility.yul\":641:665   */\n      tag_89\n      jump\t// in\n    tag_121:\n        /* \"#utility.yul\":634:639   */\n      dup2\n        /* \"#utility.yul\":631:666   */\n      eq\n        /* \"#utility.yul\":621:684   */\n      tag_122\n      jumpi\n        /* \"#utility.yul\":680:681   */\n      0x00\n        /* \"#utility.yul\":677:678   */\n      dup1\n        /* \"#utility.yul\":670:682   */\n      revert\n        /* \"#utility.yul\":621:684   */\n    tag_122:\n        /* \"#utility.yul\":568:690   */\n      pop\n      jump\t// out\n        /* \"#utility.yul\":696:835   */\n    tag_91:\n        /* \"#utility.yul\":742:747   */\n      0x00\n        /* \"#utility.yul\":780:786   */\n      dup2\n        /* \"#utility.yul\":767:787   */\n      calldataload\n        /* \"#utility.yul\":758:787   */\n      swap1\n      pop\n        /* \"#utility.yul\":796:829   */\n      tag_124\n        /* \"#utility.yul\":823:828   */\n      dup2\n        /* \"#utility.yul\":796:829   */\n      tag_90\n      jump\t// in\n    tag_124:\n        /* \"#utility.yul\":696:835   */\n      swap3\n      swap2\n      pop\n      pop\n      jump\t// out\n        /* \"#utility.yul\":841:1170   */\n    tag_9:\n        /* \"#utility.yul\":900:906   */\n      0x00\n        /* \"#utility.yul\":949:951   */\n      0x20\n        /* \"#utility.yul\":937:946   */\n      dup3\n        /* \"#utility.yul\":928:935   */\n      dup5\n        /* \"#utility.yul\":924:947   */\n      sub\n        /* \"#utility.yul\":920:952   */\n      slt\n        /* \"#utility.yul\":917:1036   */\n      iszero\n      tag_126\n      jumpi\n        /* \"#utility.yul\":955:1034   */\n      tag_127\n      tag_86\n      jump\t// in\n    tag_127:\n        /* \"#utility.yul\":917:1036   */\n    tag_126:\n        /* \"#utility.yul\":1075:1076   */\n      0x00\n        /* \"#utility.yul\":1100:1153   */\n      tag_128\n        /* \"#utility.yul\":1145:1152   */\n      dup5\n        /* \"#utility.yul\":1136:1142   */\n      dup3\n        /* \"#utility.yul\":1125:1134   */\n      dup6\n        /* \"#utility.yul\":1121:1143   */\n      add\n        /* \"#utility.yul\":1100:1153   */\n      tag_91\n      jump\t// in\n    tag_128:\n        /* \"#utility.yul\":1090:1153   */\n      swap2\n      pop\n        /* \"#utility.yul\":1046:1163   */\n      pop\n        /* \"#utility.yul\":841:1170   */\n      swap3\n      swap2\n      pop\n      pop\n      jump\t// out\n        /* \"#utility.yul\":1176:1275   */\n    tag_92:\n        /* \"#utility.yul\":1228:1234   */\n      0x00\n        /* \"#utility.yul\":1262:1267   */\n      dup2\n        /* \"#utility.yul\":1256:1268   */\n      mload\n        /* \"#utility.yul\":1246:1268   */\n      swap1\n      pop\n        /* \"#utility.yul\":1176:1275   */\n      swap2\n      swap1\n      pop\n      jump\t// out\n        /* \"#utility.yul\":1281:1440   */\n    tag_93:\n        /* \"#utility.yul\":1355:1366   */\n      0x00\n        /* \"#utility.yul\":1389:1395   */\n      dup3\n        /* \"#utility.yul\":1384:1387   */\n      dup3\n        /* \"#utility.yul\":1377:1396   */\n      mstore\n        /* \"#utility.yul\":1429:1433   */\n      0x20\n        /* \"#utility.yul\":1424:1427   */\n      dup3\n        /* \"#utility.yul\":1420:1434   */\n      add\n        /* \"#utility.yul\":1405:1434   */\n      swap1\n      pop\n        /* \"#utility.yul\":1281:1440   */\n      swap3\n      swap2\n      pop\n      pop\n      jump\t// out\n        /* \"#utility.yul\":1446:1753   */\n    tag_94:\n        /* \"#utility.yul\":1514:1515   */\n      0x00\n        /* \"#utility.yul\":1524:1637   */\n    tag_132:\n        /* \"#utility.yul\":1538:1544   */\n      dup4\n        /* \"#utility.yul\":1535:1536   */\n      dup2\n        /* \"#utility.yul\":1532:1545   */\n      lt\n        /* \"#utility.yul\":1524:1637   */\n      iszero\n      tag_134\n      jumpi\n        /* \"#utility.yul\":1623:1624   */\n      dup1\n        /* \"#utility.yul\":1618:1621   */\n      dup3\n        /* \"#utility.yul\":1614:1625   */\n      add\n        /* \"#utility.yul\":1608:1626   */\n      mload\n        /* \"#utility.yul\":1604:1605   */\n      dup2\n        /* \"#utility.yul\":1599:1602   */\n      dup5\n        /* \"#utility.yul\":1595:1606   */\n      add\n        /* \"#utility.yul\":1588:1627   */\n      mstore\n        /* \"#utility.yul\":1560:1562   */\n      0x20\n        /* \"#utility.yul\":1557:1558   */\n      dup2\n        /* \"#utility.yul\":1553:1563   */\n      add\n        /* \"#utility.yul\":1548:1563   */\n      swap1\n      pop\n        /* \"#utility.yul\":1524:1637   */\n      jump(tag_132)\n    tag_134:\n        /* \"#utility.yul\":1655:1661   */\n      dup4\n        /* \"#utility.yul\":1652:1653   */\n      dup2\n        /* \"#utility.yul\":1649:1662   */\n      gt\n        /* \"#utility.yul\":1646:1747   */\n      iszero\n      tag_135\n      jumpi\n        /* \"#utility.yul\":1735:1736   */\n      0x00\n        /* \"#utility.yul\":1726:1732   */\n      dup5\n        /* \"#utility.yul\":1721:1724   */\n      dup5\n        /* \"#utility.yul\":1717:1733   */\n      add\n        /* \"#utility.yul\":1710:1737   */\n      mstore\n        /* \"#utility.yul\":1646:1747   */\n    tag_135:\n        /* \"#utility.yul\":1495:1753   */\n      pop\n        /* \"#utility.yul\":1446:1753   */\n      pop\n      pop\n      pop\n      jump\t// out\n        /* \"#utility.yul\":1759:1861   */\n    tag_95:\n        /* \"#utility.yul\":1800:1806   */\n      0x00\n        /* \"#utility.yul\":1851:1853   */\n      0x1f\n        /* \"#utility.yul\":1847:1854   */\n      not\n        /* \"#utility.yul\":1842:1844   */\n      0x1f\n        /* \"#utility.yul\":1835:1840   */\n      dup4\n        /* \"#utility.yul\":1831:1845   */\n      add\n        /* \"#utility.yul\":1827:1855   */\n      and\n        /* \"#utility.yul\":1817:1855   */\n      swap1\n      pop\n        /* \"#utility.yul\":1759:1861   */\n      swap2\n      swap1\n      pop\n      jump\t// out\n        /* \"#utility.yul\":1867:2211   */\n    tag_96:\n        /* \"#utility.yul\":1945:1948   */\n      0x00\n        /* \"#utility.yul\":1973:2012   */\n      tag_138\n        /* \"#utility.yul\":2006:2011   */\n      dup3\n        /* \"#utility.yul\":1973:2012   */\n      tag_92\n      jump\t// in\n    tag_138:\n        /* \"#utility.yul\":2028:2089   */\n      tag_139\n        /* \"#utility.yul\":2082:2088   */\n      dup2\n        /* \"#utility.yul\":2077:2080   */\n      dup6\n        /* \"#utility.yul\":2028:2089   */\n      tag_93\n      jump\t// in\n    tag_139:\n        /* \"#utility.yul\":2021:2089   */\n      swap4\n      pop\n        /* \"#utility.yul\":2098:2150   */\n      tag_140\n        /* \"#utility.yul\":2143:2149   */\n      dup2\n        /* \"#utility.yul\":2138:2141   */\n      dup6\n        /* \"#utility.yul\":2131:2135   */\n      0x20\n        /* \"#utility.yul\":2124:2129   */\n      dup7\n        /* \"#utility.yul\":2120:2136   */\n      add\n        /* \"#utility.yul\":2098:2150   */\n      tag_94\n      jump\t// in\n    tag_140:\n        /* \"#utility.yul\":2175:2204   */\n      tag_141\n        /* \"#utility.yul\":2197:2203   */\n      dup2\n        /* \"#utility.yul\":2175:2204   */\n      tag_95\n      jump\t// in\n    tag_141:\n        /* \"#utility.yul\":2170:2173   */\n      dup5\n        /* \"#utility.yul\":2166:2205   */\n      add\n        /* \"#utility.yul\":2159:2205   */\n      swap2\n      pop\n        /* \"#utility.yul\":1949:2211   */\n      pop\n        /* \"#utility.yul\":1867:2211   */\n      swap3\n      swap2\n      pop\n      pop\n      jump\t// out\n        /* \"#utility.yul\":2297:3724   */\n    tag_97:\n        /* \"#utility.yul\":2416:2419   */\n      0x00\n        /* \"#utility.yul\":2452:2456   */\n      0xa0\n        /* \"#utility.yul\":2447:2450   */\n      dup4\n        /* \"#utility.yul\":2443:2457   */\n      add\n        /* \"#utility.yul\":2547:2551   */\n      0x00\n        /* \"#utility.yul\":2540:2545   */\n      dup4\n        /* \"#utility.yul\":2536:2552   */\n      add\n        /* \"#utility.yul\":2530:2553   */\n      mload\n        /* \"#utility.yul\":2600:2603   */\n      dup5\n        /* \"#utility.yul\":2594:2598   */\n      dup3\n        /* \"#utility.yul\":2590:2604   */\n      sub\n        /* \"#utility.yul\":2583:2587   */\n      0x00\n        /* \"#utility.yul\":2578:2581   */\n      dup7\n        /* \"#utility.yul\":2574:2588   */\n      add\n        /* \"#utility.yul\":2567:2605   */\n      mstore\n        /* \"#utility.yul\":2626:2699   */\n      tag_143\n        /* \"#utility.yul\":2694:2698   */\n      dup3\n        /* \"#utility.yul\":2680:2692   */\n      dup3\n        /* \"#utility.yul\":2626:2699   */\n      tag_96\n      jump\t// in\n    tag_143:\n        /* \"#utility.yul\":2618:2699   */\n      swap2\n      pop\n        /* \"#utility.yul\":2467:2710   */\n      pop\n        /* \"#utility.yul\":2792:2796   */\n      0x20\n        /* \"#utility.yul\":2785:2790   */\n      dup4\n        /* \"#utility.yul\":2781:2797   */\n      add\n        /* \"#utility.yul\":2775:2798   */\n      mload\n        /* \"#utility.yul\":2845:2848   */\n      dup5\n        /* \"#utility.yul\":2839:2843   */\n      dup3\n        /* \"#utility.yul\":2835:2849   */\n      sub\n        /* \"#utility.yul\":2828:2832   */\n      0x20\n        /* \"#utility.yul\":2823:2826   */\n      dup7\n        /* \"#utility.yul\":2819:2833   */\n      add\n        /* \"#utility.yul\":2812:2850   */\n      mstore\n        /* \"#utility.yul\":2871:2944   */\n      tag_144\n        /* \"#utility.yul\":2939:2943   */\n      dup3\n        /* \"#utility.yul\":2925:2937   */\n      dup3\n        /* \"#utility.yul\":2871:2944   */\n      tag_96\n      jump\t// in\n    tag_144:\n        /* \"#utility.yul\":2863:2944   */\n      swap2\n      pop\n        /* \"#utility.yul\":2720:2955   */\n      pop\n        /* \"#utility.yul\":3040:3044   */\n      0x40\n        /* \"#utility.yul\":3033:3038   */\n      dup4\n        /* \"#utility.yul\":3029:3045   */\n      add\n        /* \"#utility.yul\":3023:3046   */\n      mload\n        /* \"#utility.yul\":3093:3096   */\n      dup5\n        /* \"#utility.yul\":3087:3091   */\n      dup3\n        /* \"#utility.yul\":3083:3097   */\n      sub\n        /* \"#utility.yul\":3076:3080   */\n      0x40\n        /* \"#utility.yul\":3071:3074   */\n      dup7\n        /* \"#utility.yul\":3067:3081   */\n      add\n        /* \"#utility.yul\":3060:3098   */\n      mstore\n        /* \"#utility.yul\":3119:3192   */\n      tag_145\n        /* \"#utility.yul\":3187:3191   */\n      dup3\n        /* \"#utility.yul\":3173:3185   */\n      dup3\n        /* \"#utility.yul\":3119:3192   */\n      tag_96\n      jump\t// in\n    tag_145:\n        /* \"#utility.yul\":3111:3192   */\n      swap2\n      pop\n        /* \"#utility.yul\":2965:3203   */\n      pop\n        /* \"#utility.yul\":3286:3290   */\n      0x60\n        /* \"#utility.yul\":3279:3284   */\n      dup4\n        /* \"#utility.yul\":3275:3291   */\n      add\n        /* \"#utility.yul\":3269:3292   */\n      mload\n        /* \"#utility.yul\":3339:3342   */\n      dup5\n        /* \"#utility.yul\":3333:3337   */\n      dup3\n        /* \"#utility.yul\":3329:3343   */\n      sub\n        /* \"#utility.yul\":3322:3326   */\n      0x60\n        /* \"#utility.yul\":3317:3320   */\n      dup7\n        /* \"#utility.yul\":3313:3327   */\n      add\n        /* \"#utility.yul\":3306:3344   */\n      mstore\n        /* \"#utility.yul\":3365:3438   */\n      tag_146\n        /* \"#utility.yul\":3433:3437   */\n      dup3\n        /* \"#utility.yul\":3419:3431   */\n      dup3\n        /* \"#utility.yul\":3365:3438   */\n      tag_96\n      jump\t// in\n    tag_146:\n        /* \"#utility.yul\":3357:3438   */\n      swap2\n      pop\n        /* \"#utility.yul\":3213:3449   */\n      pop\n        /* \"#utility.yul\":3534:3538   */\n      0x80\n        /* \"#utility.yul\":3527:3532   */\n      dup4\n        /* \"#utility.yul\":3523:3539   */\n      add\n        /* \"#utility.yul\":3517:3540   */\n      mload\n        /* \"#utility.yul\":3587:3590   */\n      dup5\n        /* \"#utility.yul\":3581:3585   */\n      dup3\n        /* \"#utility.yul\":3577:3591   */\n      sub\n        /* \"#utility.yul\":3570:3574   */\n      0x80\n        /* \"#utility.yul\":3565:3568   */\n      dup7\n        /* \"#utility.yul\":3561:3575   */\n      add\n        /* \"#utility.yul\":3554:3592   */\n      mstore\n        /* \"#utility.yul\":3613:3686   */\n      tag_147\n        /* \"#utility.yul\":3681:3685   */\n      dup3\n        /* \"#utility.yul\":3667:3679   */\n      dup3\n        /* \"#utility.yul\":3613:3686   */\n      tag_96\n      jump\t// in\n    tag_147:\n        /* \"#utility.yul\":3605:3686   */\n      swap2\n      pop\n        /* \"#utility.yul\":3459:3697   */\n      pop\n        /* \"#utility.yul\":3714:3718   */\n      dup1\n        /* \"#utility.yul\":3707:3718   */\n      swap2\n      pop\n        /* \"#utility.yul\":2421:3724   */\n      pop\n        /* \"#utility.yul\":2297:3724   */\n      swap3\n      swap2\n      pop\n      pop\n      jump\t// out\n        /* \"#utility.yul\":3730:4103   */\n    tag_12:\n        /* \"#utility.yul\":3873:3877   */\n      0x00\n        /* \"#utility.yul\":3911:3913   */\n      0x20\n        /* \"#utility.yul\":3900:3909   */\n      dup3\n        /* \"#utility.yul\":3896:3914   */\n      add\n        /* \"#utility.yul\":3888:3914   */\n      swap1\n      pop\n        /* \"#utility.yul\":3960:3969   */\n      dup2\n        /* \"#utility.yul\":3954:3958   */\n      dup2\n        /* \"#utility.yul\":3950:3970   */\n      sub\n        /* \"#utility.yul\":3946:3947   */\n      0x00\n        /* \"#utility.yul\":3935:3944   */\n      dup4\n        /* \"#utility.yul\":3931:3948   */\n      add\n        /* \"#utility.yul\":3924:3971   */\n      mstore\n        /* \"#utility.yul\":3988:4096   */\n      tag_149\n        /* \"#utility.yul\":4091:4095   */\n      dup2\n        /* \"#utility.yul\":4082:4088   */\n      dup5\n        /* \"#utility.yul\":3988:4096   */\n      tag_97\n      jump\t// in\n    tag_149:\n        /* \"#utility.yul\":3980:4096   */\n      swap1\n      pop\n        /* \"#utility.yul\":3730:4103   */\n      swap3\n      swap2\n      pop\n      pop\n      jump\t// out\n        /* \"#utility.yul\":4109:4226   */\n    tag_98:\n        /* \"#utility.yul\":4218:4219   */\n      0x00\n        /* \"#utility.yul\":4215:4216   */\n      dup1\n        /* \"#utility.yul\":4208:4220   */\n      revert\n        /* \"#utility.yul\":4232:4349   */\n    tag_99:\n        /* \"#utility.yul\":4341:4342   */\n      0x00\n        /* \"#utility.yul\":4338:4339   */\n      dup1\n        /* \"#utility.yul\":4331:4343   */\n      revert\n        /* \"#utility.yul\":4355:4535   */\n    tag_100:\n        /* \"#utility.yul\":4403:4480   */\n      0x4e487b7100000000000000000000000000000000000000000000000000000000\n        /* \"#utility.yul\":4400:4401   */\n      0x00\n        /* \"#utility.yul\":4393:4481   */\n      mstore\n        /* \"#utility.yul\":4500:4504   */\n      0x41\n        /* \"#utility.yul\":4497:4498   */\n      0x04\n        /* \"#utility.yul\":4490:4505   */\n      mstore\n        /* \"#utility.yul\":4524:4528   */\n      0x24\n        /* \"#utility.yul\":4521:4522   */\n      0x00\n        /* \"#utility.yul\":4514:4529   */\n      revert\n        /* \"#utility.yul\":4541:4822   */\n    tag_101:\n        /* \"#utility.yul\":4624:4651   */\n      tag_154\n        /* \"#utility.yul\":4646:4650   */\n      dup3\n        /* \"#utility.yul\":4624:4651   */\n      tag_95\n      jump\t// in\n    tag_154:\n        /* \"#utility.yul\":4616:4622   */\n      dup2\n        /* \"#utility.yul\":4612:4652   */\n      add\n        /* \"#utility.yul\":4754:4760   */\n      dup2\n        /* \"#utility.yul\":4742:4752   */\n      dup2\n        /* \"#utility.yul\":4739:4761   */\n      lt\n        /* \"#utility.yul\":4718:4736   */\n      0xffffffffffffffff\n        /* \"#utility.yul\":4706:4716   */\n      dup3\n        /* \"#utility.yul\":4703:4737   */\n      gt\n        /* \"#utility.yul\":4700:4762   */\n      or\n        /* \"#utility.yul\":4697:4785   */\n      iszero\n      tag_155\n      jumpi\n        /* \"#utility.yul\":4765:4783   */\n      tag_156\n      tag_100\n      jump\t// in\n    tag_156:\n        /* \"#utility.yul\":4697:4785   */\n    tag_155:\n        /* \"#utility.yul\":4805:4815   */\n      dup1\n        /* \"#utility.yul\":4801:4803   */\n      0x40\n        /* \"#utility.yul\":4794:4816   */\n      mstore\n        /* \"#utility.yul\":4584:4822   */\n      pop\n        /* \"#utility.yul\":4541:4822   */\n      pop\n      pop\n      jump\t// out\n        /* \"#utility.yul\":4828:4957   */\n    tag_102:\n        /* \"#utility.yul\":4862:4868   */\n      0x00\n        /* \"#utility.yul\":4889:4909   */\n      tag_158\n      tag_85\n      jump\t// in\n    tag_158:\n        /* \"#utility.yul\":4879:4909   */\n      swap1\n      pop\n        /* \"#utility.yul\":4918:4951   */\n      tag_159\n        /* \"#utility.yul\":4946:4950   */\n      dup3\n        /* \"#utility.yul\":4938:4944   */\n      dup3\n        /* \"#utility.yul\":4918:4951   */\n      tag_101\n      jump\t// in\n    tag_159:\n        /* \"#utility.yul\":4828:4957   */\n      swap2\n      swap1\n      pop\n      jump\t// out\n        /* \"#utility.yul\":4963:5271   */\n    tag_103:\n        /* \"#utility.yul\":5025:5029   */\n      0x00\n        /* \"#utility.yul\":5115:5133   */\n      0xffffffffffffffff\n        /* \"#utility.yul\":5107:5113   */\n      dup3\n        /* \"#utility.yul\":5104:5134   */\n      gt\n        /* \"#utility.yul\":5101:5157   */\n      iszero\n      tag_161\n      jumpi\n        /* \"#utility.yul\":5137:5155   */\n      tag_162\n      tag_100\n      jump\t// in\n    tag_162:\n        /* \"#utility.yul\":5101:5157   */\n    tag_161:\n        /* \"#utility.yul\":5175:5204   */\n      tag_163\n        /* \"#utility.yul\":5197:5203   */\n      dup3\n        /* \"#utility.yul\":5175:5204   */\n      tag_95\n      jump\t// in\n    tag_163:\n        /* \"#utility.yul\":5167:5204   */\n      swap1\n      pop\n        /* \"#utility.yul\":5259:5263   */\n      0x20\n        /* \"#utility.yul\":5253:5257   */\n      dup2\n        /* \"#utility.yul\":5249:5264   */\n      add\n        /* \"#utility.yul\":5241:5264   */\n      swap1\n      pop\n        /* \"#utility.yul\":4963:5271   */\n      swap2\n      swap1\n      pop\n      jump\t// out\n        /* \"#utility.yul\":5277:5431   */\n    tag_104:\n        /* \"#utility.yul\":5361:5367   */\n      dup3\n        /* \"#utility.yul\":5356:5359   */\n      dup2\n        /* \"#utility.yul\":5351:5354   */\n      dup4\n        /* \"#utility.yul\":5338:5368   */\n      calldatacopy\n        /* \"#utility.yul\":5423:5424   */\n      0x00\n        /* \"#utility.yul\":5414:5420   */\n      dup4\n        /* \"#utility.yul\":5409:5412   */\n      dup4\n        /* \"#utility.yul\":5405:5421   */\n      add\n        /* \"#utility.yul\":5398:5425   */\n      mstore\n        /* \"#utility.yul\":5277:5431   */\n      pop\n      pop\n      pop\n      jump\t// out\n        /* \"#utility.yul\":5437:5849   */\n    tag_105:\n        /* \"#utility.yul\":5515:5520   */\n      0x00\n        /* \"#utility.yul\":5540:5606   */\n      tag_166\n        /* \"#utility.yul\":5556:5605   */\n      tag_167\n        /* \"#utility.yul\":5598:5604   */\n      dup5\n        /* \"#utility.yul\":5556:5605   */\n      tag_103\n      jump\t// in\n    tag_167:\n        /* \"#utility.yul\":5540:5606   */\n      tag_102\n      jump\t// in\n    tag_166:\n        /* \"#utility.yul\":5531:5606   */\n      swap1\n      pop\n        /* \"#utility.yul\":5629:5635   */\n      dup3\n        /* \"#utility.yul\":5622:5627   */\n      dup2\n        /* \"#utility.yul\":5615:5636   */\n      mstore\n        /* \"#utility.yul\":5667:5671   */\n      0x20\n        /* \"#utility.yul\":5660:5665   */\n      dup2\n        /* \"#utility.yul\":5656:5672   */\n      add\n        /* \"#utility.yul\":5705:5708   */\n      dup5\n        /* \"#utility.yul\":5696:5702   */\n      dup5\n        /* \"#utility.yul\":5691:5694   */\n      dup5\n        /* \"#utility.yul\":5687:5703   */\n      add\n        /* \"#utility.yul\":5684:5709   */\n      gt\n        /* \"#utility.yul\":5681:5793   */\n      iszero\n      tag_168\n      jumpi\n        /* \"#utility.yul\":5712:5791   */\n      tag_169\n      tag_99\n      jump\t// in\n    tag_169:\n        /* \"#utility.yul\":5681:5793   */\n    tag_168:\n        /* \"#utility.yul\":5802:5843   */\n      tag_170\n        /* \"#utility.yul\":5836:5842   */\n      dup5\n        /* \"#utility.yul\":5831:5834   */\n      dup3\n        /* \"#utility.yul\":5826:5829   */\n      dup6\n        /* \"#utility.yul\":5802:5843   */\n      tag_104\n      jump\t// in\n    tag_170:\n        /* \"#utility.yul\":5521:5849   */\n      pop\n        /* \"#utility.yul\":5437:5849   */\n      swap4\n      swap3\n      pop\n      pop\n      pop\n      jump\t// out\n        /* \"#utility.yul\":5869:6209   */\n    tag_106:\n        /* \"#utility.yul\":5925:5930   */\n      0x00\n        /* \"#utility.yul\":5974:5977   */\n      dup3\n        /* \"#utility.yul\":5967:5971   */\n      0x1f\n        /* \"#utility.yul\":5959:5965   */\n      dup4\n        /* \"#utility.yul\":5955:5972   */\n      add\n        /* \"#utility.yul\":5951:5978   */\n      slt\n        /* \"#utility.yul\":5941:6063   */\n      tag_172\n      jumpi\n        /* \"#utility.yul\":5982:6061   */\n      tag_173\n      tag_98\n      jump\t// in\n    tag_173:\n        /* \"#utility.yul\":5941:6063   */\n    tag_172:\n        /* \"#utility.yul\":6099:6105   */\n      dup2\n        /* \"#utility.yul\":6086:6106   */\n      calldataload\n        /* \"#utility.yul\":6124:6203   */\n      tag_174\n        /* \"#utility.yul\":6199:6202   */\n      dup5\n        /* \"#utility.yul\":6191:6197   */\n      dup3\n        /* \"#utility.yul\":6184:6188   */\n      0x20\n        /* \"#utility.yul\":6176:6182   */\n      dup7\n        /* \"#utility.yul\":6172:6189   */\n      add\n        /* \"#utility.yul\":6124:6203   */\n      tag_105\n      jump\t// in\n    tag_174:\n        /* \"#utility.yul\":6115:6203   */\n      swap2\n      pop\n        /* \"#utility.yul\":5931:6209   */\n      pop\n        /* \"#utility.yul\":5869:6209   */\n      swap3\n      swap2\n      pop\n      pop\n      jump\t// out\n        /* \"#utility.yul\":6215:8172   */\n    tag_18:\n        /* \"#utility.yul\":6369:6375   */\n      0x00\n        /* \"#utility.yul\":6377:6383   */\n      dup1\n        /* \"#utility.yul\":6385:6391   */\n      0x00\n        /* \"#utility.yul\":6393:6399   */\n      dup1\n        /* \"#utility.yul\":6401:6407   */\n      0x00\n        /* \"#utility.yul\":6409:6415   */\n      dup1\n        /* \"#utility.yul\":6458:6461   */\n      0xc0\n        /* \"#utility.yul\":6446:6455   */\n      dup8\n        /* \"#utility.yul\":6437:6444   */\n      dup10\n        /* \"#utility.yul\":6433:6456   */\n      sub\n        /* \"#utility.yul\":6429:6462   */\n      slt\n        /* \"#utility.yul\":6426:6546   */\n      iszero\n      tag_176\n      jumpi\n        /* \"#utility.yul\":6465:6544   */\n      tag_177\n      tag_86\n      jump\t// in\n    tag_177:\n        /* \"#utility.yul\":6426:6546   */\n    tag_176:\n        /* \"#utility.yul\":6585:6586   */\n      0x00\n        /* \"#utility.yul\":6610:6663   */\n      tag_178\n        /* \"#utility.yul\":6655:6662   */\n      dup10\n        /* \"#utility.yul\":6646:6652   */\n      dup3\n        /* \"#utility.yul\":6635:6644   */\n      dup11\n        /* \"#utility.yul\":6631:6653   */\n      add\n        /* \"#utility.yul\":6610:6663   */\n      tag_91\n      jump\t// in\n    tag_178:\n        /* \"#utility.yul\":6600:6663   */\n      swap7\n      pop\n        /* \"#utility.yul\":6556:6673   */\n      pop\n        /* \"#utility.yul\":6740:6742   */\n      0x20\n        /* \"#utility.yul\":6729:6738   */\n      dup8\n        /* \"#utility.yul\":6725:6743   */\n      add\n        /* \"#utility.yul\":6712:6744   */\n      calldataload\n        /* \"#utility.yul\":6771:6789   */\n      0xffffffffffffffff\n        /* \"#utility.yul\":6763:6769   */\n      dup2\n        /* \"#utility.yul\":6760:6790   */\n      gt\n        /* \"#utility.yul\":6757:6874   */\n      iszero\n      tag_179\n      jumpi\n        /* \"#utility.yul\":6793:6872   */\n      tag_180\n      tag_87\n      jump\t// in\n    tag_180:\n        /* \"#utility.yul\":6757:6874   */\n    tag_179:\n        /* \"#utility.yul\":6898:6961   */\n      tag_181\n        /* \"#utility.yul\":6953:6960   */\n      dup10\n        /* \"#utility.yul\":6944:6950   */\n      dup3\n        /* \"#utility.yul\":6933:6942   */\n      dup11\n        /* \"#utility.yul\":6929:6951   */\n      add\n        /* \"#utility.yul\":6898:6961   */\n      tag_106\n      jump\t// in\n    tag_181:\n        /* \"#utility.yul\":6888:6961   */\n      swap6\n      pop\n        /* \"#utility.yul\":6683:6971   */\n      pop\n        /* \"#utility.yul\":7038:7040   */\n      0x40\n        /* \"#utility.yul\":7027:7036   */\n      dup8\n        /* \"#utility.yul\":7023:7041   */\n      add\n        /* \"#utility.yul\":7010:7042   */\n      calldataload\n        /* \"#utility.yul\":7069:7087   */\n      0xffffffffffffffff\n        /* \"#utility.yul\":7061:7067   */\n      dup2\n        /* \"#utility.yul\":7058:7088   */\n      gt\n        /* \"#utility.yul\":7055:7172   */\n      iszero\n      tag_182\n      jumpi\n        /* \"#utility.yul\":7091:7170   */\n      tag_183\n      tag_87\n      jump\t// in\n    tag_183:\n        /* \"#utility.yul\":7055:7172   */\n    tag_182:\n        /* \"#utility.yul\":7196:7259   */\n      tag_184\n        /* \"#utility.yul\":7251:7258   */\n      dup10\n        /* \"#utility.yul\":7242:7248   */\n      dup3\n        /* \"#utility.yul\":7231:7240   */\n      dup11\n        /* \"#utility.yul\":7227:7249   */\n      add\n        /* \"#utility.yul\":7196:7259   */\n      tag_106\n      jump\t// in\n    tag_184:\n        /* \"#utility.yul\":7186:7259   */\n      swap5\n      pop\n        /* \"#utility.yul\":6981:7269   */\n      pop\n        /* \"#utility.yul\":7336:7338   */\n      0x60\n        /* \"#utility.yul\":7325:7334   */\n      dup8\n        /* \"#utility.yul\":7321:7339   */\n      add\n        /* \"#utility.yul\":7308:7340   */\n      calldataload\n        /* \"#utility.yul\":7367:7385   */\n      0xffffffffffffffff\n        /* \"#utility.yul\":7359:7365   */\n      dup2\n        /* \"#utility.yul\":7356:7386   */\n      gt\n        /* \"#utility.yul\":7353:7470   */\n      iszero\n      tag_185\n      jumpi\n        /* \"#utility.yul\":7389:7468   */\n      tag_186\n      tag_87\n      jump\t// in\n    tag_186:\n        /* \"#utility.yul\":7353:7470   */\n    tag_185:\n        /* \"#utility.yul\":7494:7557   */\n      tag_187\n        /* \"#utility.yul\":7549:7556   */\n      dup10\n        /* \"#utility.yul\":7540:7546   */\n      dup3\n        /* \"#utility.yul\":7529:7538   */\n      dup11\n        /* \"#utility.yul\":7525:7547   */\n      add\n        /* \"#utility.yul\":7494:7557   */\n      tag_106\n      jump\t// in\n    tag_187:\n        /* \"#utility.yul\":7484:7557   */\n      swap4\n      pop\n        /* \"#utility.yul\":7279:7567   */\n      pop\n        /* \"#utility.yul\":7634:7637   */\n      0x80\n        /* \"#utility.yul\":7623:7632   */\n      dup8\n        /* \"#utility.yul\":7619:7638   */\n      add\n        /* \"#utility.yul\":7606:7639   */\n      calldataload\n        /* \"#utility.yul\":7666:7684   */\n      0xffffffffffffffff\n        /* \"#utility.yul\":7658:7664   */\n      dup2\n        /* \"#utility.yul\":7655:7685   */\n      gt\n        /* \"#utility.yul\":7652:7769   */\n      iszero\n      tag_188\n      jumpi\n        /* \"#utility.yul\":7688:7767   */\n      tag_189\n      tag_87\n      jump\t// in\n    tag_189:\n        /* \"#utility.yul\":7652:7769   */\n    tag_188:\n        /* \"#utility.yul\":7793:7856   */\n      tag_190\n        /* \"#utility.yul\":7848:7855   */\n      dup10\n        /* \"#utility.yul\":7839:7845   */\n      dup3\n        /* \"#utility.yul\":7828:7837   */\n      dup11\n        /* \"#utility.yul\":7824:7846   */\n      add\n        /* \"#utility.yul\":7793:7856   */\n      tag_106\n      jump\t// in\n    tag_190:\n        /* \"#utility.yul\":7783:7856   */\n      swap3\n      pop\n        /* \"#utility.yul\":7577:7866   */\n      pop\n        /* \"#utility.yul\":7933:7936   */\n      0xa0\n        /* \"#utility.yul\":7922:7931   */\n      dup8\n        /* \"#utility.yul\":7918:7937   */\n      add\n        /* \"#utility.yul\":7905:7938   */\n      calldataload\n        /* \"#utility.yul\":7965:7983   */\n      0xffffffffffffffff\n        /* \"#utility.yul\":7957:7963   */\n      dup2\n        /* \"#utility.yul\":7954:7984   */\n      gt\n        /* \"#utility.yul\":7951:8068   */\n      iszero\n      tag_191\n      jumpi\n        /* \"#utility.yul\":7987:8066   */\n      tag_192\n      tag_87\n      jump\t// in\n    tag_192:\n        /* \"#utility.yul\":7951:8068   */\n    tag_191:\n        /* \"#utility.yul\":8092:8155   */\n      tag_193\n        /* \"#utility.yul\":8147:8154   */\n      dup10\n        /* \"#utility.yul\":8138:8144   */\n      dup3\n        /* \"#utility.yul\":8127:8136   */\n      dup11\n        /* \"#utility.yul\":8123:8145   */\n      add\n        /* \"#utility.yul\":8092:8155   */\n      tag_106\n      jump\t// in\n    tag_193:\n        /* \"#utility.yul\":8082:8155   */\n      swap2\n      pop\n        /* \"#utility.yul\":7876:8165   */\n      pop\n        /* \"#utility.yul\":6215:8172   */\n      swap3\n      swap6\n      pop\n      swap3\n      swap6\n      pop\n      swap3\n      swap6\n      jump\t// out\n        /* \"#utility.yul\":8178:8347   */\n    tag_107:\n        /* \"#utility.yul\":8262:8273   */\n      0x00\n        /* \"#utility.yul\":8296:8302   */\n      dup3\n        /* \"#utility.yul\":8291:8294   */\n      dup3\n        /* \"#utility.yul\":8284:8303   */\n      mstore\n        /* \"#utility.yul\":8336:8340   */\n      0x20\n        /* \"#utility.yul\":8331:8334   */\n      dup3\n        /* \"#utility.yul\":8327:8341   */\n      add\n        /* \"#utility.yul\":8312:8341   */\n      swap1\n      pop\n        /* \"#utility.yul\":8178:8347   */\n      swap3\n      swap2\n      pop\n      pop\n      jump\t// out\n        /* \"#utility.yul\":8353:8592   */\n    tag_108:\n        /* \"#utility.yul\":8493:8527   */\n      0x4f6e6c7920617574686f72697a656420766965776572732063616e2061636365\n        /* \"#utility.yul\":8489:8490   */\n      0x00\n        /* \"#utility.yul\":8481:8487   */\n      dup3\n        /* \"#utility.yul\":8477:8491   */\n      add\n        /* \"#utility.yul\":8470:8528   */\n      mstore\n        /* \"#utility.yul\":8562:8584   */\n      0x7373207468697320696e666f726d6174696f6e2e000000000000000000000000\n        /* \"#utility.yul\":8557:8559   */\n      0x20\n        /* \"#utility.yul\":8549:8555   */\n      dup3\n        /* \"#utility.yul\":8545:8560   */\n      add\n        /* \"#utility.yul\":8538:8585   */\n      mstore\n        /* \"#utility.yul\":8353:8592   */\n      pop\n      jump\t// out\n        /* \"#utility.yul\":8598:8964   */\n    tag_109:\n        /* \"#utility.yul\":8740:8743   */\n      0x00\n        /* \"#utility.yul\":8761:8828   */\n      tag_197\n        /* \"#utility.yul\":8825:8827   */\n      0x34\n        /* \"#utility.yul\":8820:8823   */\n      dup4\n        /* \"#utility.yul\":8761:8828   */\n      tag_107\n      jump\t// in\n    tag_197:\n        /* \"#utility.yul\":8754:8828   */\n      swap2\n      pop\n        /* \"#utility.yul\":8837:8930   */\n      tag_198\n        /* \"#utility.yul\":8926:8929   */\n      dup3\n        /* \"#utility.yul\":8837:8930   */\n      tag_108\n      jump\t// in\n    tag_198:\n        /* \"#utility.yul\":8955:8957   */\n      0x40\n        /* \"#utility.yul\":8950:8953   */\n      dup3\n        /* \"#utility.yul\":8946:8958   */\n      add\n        /* \"#utility.yul\":8939:8958   */\n      swap1\n      pop\n        /* \"#utility.yul\":8598:8964   */\n      swap2\n      swap1\n      pop\n      jump\t// out\n        /* \"#utility.yul\":8970:9389   */\n    tag_28:\n        /* \"#utility.yul\":9136:9140   */\n      0x00\n        /* \"#utility.yul\":9174:9176   */\n      0x20\n        /* \"#utility.yul\":9163:9172   */\n      dup3\n        /* \"#utility.yul\":9159:9177   */\n      add\n        /* \"#utility.yul\":9151:9177   */\n      swap1\n      pop\n        /* \"#utility.yul\":9223:9232   */\n      dup2\n        /* \"#utility.yul\":9217:9221   */\n      dup2\n        /* \"#utility.yul\":9213:9233   */\n      sub\n        /* \"#utility.yul\":9209:9210   */\n      0x00\n        /* \"#utility.yul\":9198:9207   */\n      dup4\n        /* \"#utility.yul\":9194:9211   */\n      add\n        /* \"#utility.yul\":9187:9234   */\n      mstore\n        /* \"#utility.yul\":9251:9382   */\n      tag_200\n        /* \"#utility.yul\":9377:9381   */\n      dup2\n        /* \"#utility.yul\":9251:9382   */\n      tag_109\n      jump\t// in\n    tag_200:\n        /* \"#utility.yul\":9243:9382   */\n      swap1\n      pop\n        /* \"#utility.yul\":8970:9389   */\n      swap2\n      swap1\n      pop\n      jump\t// out\n        /* \"#utility.yul\":9395:9575   */\n    tag_110:\n        /* \"#utility.yul\":9443:9520   */\n      0x4e487b7100000000000000000000000000000000000000000000000000000000\n        /* \"#utility.yul\":9440:9441   */\n      0x00\n        /* \"#utility.yul\":9433:9521   */\n      mstore\n        /* \"#utility.yul\":9540:9544   */\n      0x22\n        /* \"#utility.yul\":9537:9538   */\n      0x04\n        /* \"#utility.yul\":9530:9545   */\n      mstore\n        /* \"#utility.yul\":9564:9568   */\n      0x24\n        /* \"#utility.yul\":9561:9562   */\n      0x00\n        /* \"#utility.yul\":9554:9569   */\n      revert\n        /* \"#utility.yul\":9581:9901   */\n    tag_31:\n        /* \"#utility.yul\":9625:9631   */\n      0x00\n        /* \"#utility.yul\":9662:9663   */\n      0x02\n        /* \"#utility.yul\":9656:9660   */\n      dup3\n        /* \"#utility.yul\":9652:9664   */\n      div\n        /* \"#utility.yul\":9642:9664   */\n      swap1\n      pop\n        /* \"#utility.yul\":9709:9710   */\n      0x01\n        /* \"#utility.yul\":9703:9707   */\n      dup3\n        /* \"#utility.yul\":9699:9711   */\n      and\n        /* \"#utility.yul\":9730:9748   */\n      dup1\n        /* \"#utility.yul\":9720:9801   */\n      tag_203\n      jumpi\n        /* \"#utility.yul\":9786:9790   */\n      0x7f\n        /* \"#utility.yul\":9778:9784   */\n      dup3\n        /* \"#utility.yul\":9774:9791   */\n      and\n        /* \"#utility.yul\":9764:9791   */\n      swap2\n      pop\n        /* \"#utility.yul\":9720:9801   */\n    tag_203:\n        /* \"#utility.yul\":9848:9850   */\n      0x20\n        /* \"#utility.yul\":9840:9846   */\n      dup3\n        /* \"#utility.yul\":9837:9851   */\n      lt\n        /* \"#utility.yul\":9817:9835   */\n      dup2\n        /* \"#utility.yul\":9814:9852   */\n      sub\n        /* \"#utility.yul\":9811:9895   */\n      tag_204\n      jumpi\n        /* \"#utility.yul\":9867:9885   */\n      tag_205\n      tag_110\n      jump\t// in\n    tag_205:\n        /* \"#utility.yul\":9811:9895   */\n    tag_204:\n        /* \"#utility.yul\":9632:9901   */\n      pop\n        /* \"#utility.yul\":9581:9901   */\n      swap2\n      swap1\n      pop\n      jump\t// out\n        /* \"#utility.yul\":9907:10139   */\n    tag_111:\n        /* \"#utility.yul\":10047:10081   */\n      0x4f6e6c79207468652047544944532061646d696e2063616e20706572666f726d\n        /* \"#utility.yul\":10043:10044   */\n      0x00\n        /* \"#utility.yul\":10035:10041   */\n      dup3\n        /* \"#utility.yul\":10031:10045   */\n      add\n        /* \"#utility.yul\":10024:10082   */\n      mstore\n        /* \"#utility.yul\":10116:10131   */\n      0x207468697320616374696f6e2e00000000000000000000000000000000000000\n        /* \"#utility.yul\":10111:10113   */\n      0x20\n        /* \"#utility.yul\":10103:10109   */\n      dup3\n        /* \"#utility.yul\":10099:10114   */\n      add\n        /* \"#utility.yul\":10092:10132   */\n      mstore\n        /* \"#utility.yul\":9907:10139   */\n      pop\n      jump\t// out\n        /* \"#utility.yul\":10145:10511   */\n    tag_112:\n        /* \"#utility.yul\":10287:10290   */\n      0x00\n        /* \"#utility.yul\":10308:10375   */\n      tag_208\n        /* \"#utility.yul\":10372:10374   */\n      0x2d\n        /* \"#utility.yul\":10367:10370   */\n      dup4\n        /* \"#utility.yul\":10308:10375   */\n      tag_107\n      jump\t// in\n    tag_208:\n        /* \"#utility.yul\":10301:10375   */\n      swap2\n      pop\n        /* \"#utility.yul\":10384:10477   */\n      tag_209\n        /* \"#utility.yul\":10473:10476   */\n      dup3\n        /* \"#utility.yul\":10384:10477   */\n      tag_111\n      jump\t// in\n    tag_209:\n        /* \"#utility.yul\":10502:10504   */\n      0x40\n        /* \"#utility.yul\":10497:10500   */\n      dup3\n        /* \"#utility.yul\":10493:10505   */\n      add\n        /* \"#utility.yul\":10486:10505   */\n      swap1\n      pop\n        /* \"#utility.yul\":10145:10511   */\n      swap2\n      swap1\n      pop\n      jump\t// out\n        /* \"#utility.yul\":10517:10936   */\n    tag_59:\n        /* \"#utility.yul\":10683:10687   */\n      0x00\n        /* \"#utility.yul\":10721:10723   */\n      0x20\n        /* \"#utility.yul\":10710:10719   */\n      dup3\n        /* \"#utility.yul\":10706:10724   */\n      add\n        /* \"#utility.yul\":10698:10724   */\n      swap1\n      pop\n        /* \"#utility.yul\":10770:10779   */\n      dup2\n        /* \"#utility.yul\":10764:10768   */\n      dup2\n        /* \"#utility.yul\":10760:10780   */\n      sub\n        /* \"#utility.yul\":10756:10757   */\n      0x00\n        /* \"#utility.yul\":10745:10754   */\n      dup4\n        /* \"#utility.yul\":10741:10758   */\n      add\n        /* \"#utility.yul\":10734:10781   */\n      mstore\n        /* \"#utility.yul\":10798:10929   */\n      tag_211\n        /* \"#utility.yul\":10924:10928   */\n      dup2\n        /* \"#utility.yul\":10798:10929   */\n      tag_112\n      jump\t// in\n    tag_211:\n        /* \"#utility.yul\":10790:10929   */\n      swap1\n      pop\n        /* \"#utility.yul\":10517:10936   */\n      swap2\n      swap1\n      pop\n      jump\t// out\n\n    auxdata: 0xa26469706673582212209340996bf2839013e5a6fb68d5bd66a7e83e35c1bfee817863a275e064c22abb64736f6c634300080d0033\n}\n",
				"bytecode": {
					"linkReferences": {},
					"object": "608060405234801561001057600080fd5b50604051620010453803806200104583398181016040528101906100349190610135565b806000806101000a81548173ffffffffffffffffffffffffffffffffffffffff021916908373ffffffffffffffffffffffffffffffffffffffff1602179055506001600260008373ffffffffffffffffffffffffffffffffffffffff1673ffffffffffffffffffffffffffffffffffffffff16815260200190815260200160002060006101000a81548160ff02191690831515021790555050610162565b600080fd5b600073ffffffffffffffffffffffffffffffffffffffff82169050919050565b6000610102826100d7565b9050919050565b610112816100f7565b811461011d57600080fd5b50565b60008151905061012f81610109565b92915050565b60006020828403121561014b5761014a6100d2565b5b600061015984828501610120565b91505092915050565b610ed380620001726000396000f3fe608060405234801561001057600080fd5b506004361061004c5760003560e01c80631255425714610051578063601f8cf51461008157806369d948d31461009d578063d1d98914146100b9575b600080fd5b61006b60048036038101906100669190610940565b6100d5565b6040516100789190610a98565b60405180910390f35b61009b60048036038101906100969190610940565b610494565b005b6100b760048036038101906100b29190610bef565b61057d565b005b6100d360048036038101906100ce9190610940565b610713565b005b6100dd6107fc565b600260003373ffffffffffffffffffffffffffffffffffffffff1673ffffffffffffffffffffffffffffffffffffffff16815260200190815260200160002060009054906101000a900460ff16610169576040517f08c379a000000000000000000000000000000000000000000000000000000000815260040161016090610d8b565b60405180910390fd5b600160008373ffffffffffffffffffffffffffffffffffffffff1673ffffffffffffffffffffffffffffffffffffffff1681526020019081526020016000206040518060a00160405290816000820180546101c390610dda565b80601f01602080910402602001604051908101604052809291908181526020018280546101ef90610dda565b801561023c5780601f106102115761010080835404028352916020019161023c565b820191906000526020600020905b81548152906001019060200180831161021f57829003601f168201915b5050505050815260200160018201805461025590610dda565b80601f016020809104026020016040519081016040528092919081815260200182805461028190610dda565b80156102ce5780601f106102a3576101008083540402835291602001916102ce565b820191906000526020600020905b8154815290600101906020018083116102b157829003601f168201915b505050505081526020016002820180546102e790610dda565b80601f016020809104026020016040519081016040528092919081815260200182805461031390610dda565b80156103605780601f1061033557610100808354040283529160200191610360565b820191906000526020600020905b81548152906001019060200180831161034357829003601f168201915b5050505050815260200160038201805461037990610dda565b80601f01602080910402602001604051908101604052809291908181526020018280546103a590610dda565b80156103f25780601f106103c7576101008083540402835291602001916103f2565b820191906000526020600020905b8154815290600101906020018083116103d557829003601f168201915b5050505050815260200160048201805461040b90610dda565b80601f016020809104026020016040519081016040528092919081815260200182805461043790610dda565b80156104845780601f1061045957610100808354040283529160200191610484565b820191906000526020600020905b81548152906001019060200180831161046757829003601f168201915b5050505050815250509050919050565b60008054906101000a900473ffffffffffffffffffffffffffffffffffffffff1673ffffffffffffffffffffffffffffffffffffffff163373ffffffffffffffffffffffffffffffffffffffff1614610522576040517f08c379a000000000000000000000000000000000000000000000000000000000815260040161051990610e7d565b60405180910390fd5b6001600260008373ffffffffffffffffffffffffffffffffffffffff1673ffffffffffffffffffffffffffffffffffffffff16815260200190815260200160002060006101000a81548160ff02191690831515021790555050565b60008054906101000a900473ffffffffffffffffffffffffffffffffffffffff1673ffffffffffffffffffffffffffffffffffffffff163373ffffffffffffffffffffffffffffffffffffffff161461060b576040517f08c379a000000000000000000000000000000000000000000000000000000000815260040161060290610e7d565b60405180910390fd5b60006040518060a0016040528087815260200186815260200185815260200184815260200183815250905080600160008973ffffffffffffffffffffffffffffffffffffffff1673ffffffffffffffffffffffffffffffffffffffff168152602001908152602001600020600082015181600001908051906020019061069292919061082b565b5060208201518160010190805190602001906106af92919061082b565b5060408201518160020190805190602001906106cc92919061082b565b5060608201518160030190805190602001906106e992919061082b565b50608082015181600401908051906020019061070692919061082b565b5090505050505050505050565b60008054906101000a900473ffffffffffffffffffffffffffffffffffffffff1673ffffffffffffffffffffffffffffffffffffffff163373ffffffffffffffffffffffffffffffffffffffff16146107a1576040517f08c379a000000000000000000000000000000000000000000000000000000000815260040161079890610e7d565b60405180910390fd5b6000600260008373ffffffffffffffffffffffffffffffffffffffff1673ffffffffffffffffffffffffffffffffffffffff16815260200190815260200160002060006101000a81548160ff02191690831515021790555050565b6040518060a0016040528060608152602001606081526020016060815260200160608152602001606081525090565b82805461083790610dda565b90600052602060002090601f01602090048101928261085957600085556108a0565b82601f1061087257805160ff19168380011785556108a0565b828001600101855582156108a0579182015b8281111561089f578251825591602001919060010190610884565b5b5090506108ad91906108b1565b5090565b5b808211156108ca5760008160009055506001016108b2565b5090565b6000604051905090565b600080fd5b600080fd5b600073ffffffffffffffffffffffffffffffffffffffff82169050919050565b600061090d826108e2565b9050919050565b61091d81610902565b811461092857600080fd5b50565b60008135905061093a81610914565b92915050565b600060208284031215610956576109556108d8565b5b60006109648482850161092b565b91505092915050565b600081519050919050565b600082825260208201905092915050565b60005b838110156109a757808201518184015260208101905061098c565b838111156109b6576000848401525b50505050565b6000601f19601f8301169050919050565b60006109d88261096d565b6109e28185610978565b93506109f2818560208601610989565b6109fb816109bc565b840191505092915050565b600060a0830160008301518482036000860152610a2382826109cd565b91505060208301518482036020860152610a3d82826109cd565b91505060408301518482036040860152610a5782826109cd565b91505060608301518482036060860152610a7182826109cd565b91505060808301518482036080860152610a8b82826109cd565b9150508091505092915050565b60006020820190508181036000830152610ab28184610a06565b905092915050565b600080fd5b600080fd5b7f4e487b7100000000000000000000000000000000000000000000000000000000600052604160045260246000fd5b610afc826109bc565b810181811067ffffffffffffffff82111715610b1b57610b1a610ac4565b5b80604052505050565b6000610b2e6108ce565b9050610b3a8282610af3565b919050565b600067ffffffffffffffff821115610b5a57610b59610ac4565b5b610b63826109bc565b9050602081019050919050565b82818337600083830152505050565b6000610b92610b8d84610b3f565b610b24565b905082815260208101848484011115610bae57610bad610abf565b5b610bb9848285610b70565b509392505050565b600082601f830112610bd657610bd5610aba565b5b8135610be6848260208601610b7f565b91505092915050565b60008060008060008060c08789031215610c0c57610c0b6108d8565b5b6000610c1a89828a0161092b565b965050602087013567ffffffffffffffff811115610c3b57610c3a6108dd565b5b610c4789828a01610bc1565b955050604087013567ffffffffffffffff811115610c6857610c676108dd565b5b610c7489828a01610bc1565b945050606087013567ffffffffffffffff811115610c9557610c946108dd565b5b610ca189828a01610bc1565b935050608087013567ffffffffffffffff811115610cc257610cc16108dd565b5b610cce89828a01610bc1565b92505060a087013567ffffffffffffffff811115610cef57610cee6108dd565b5b610cfb89828a01610bc1565b9150509295509295509295565b600082825260208201905092915050565b7f4f6e6c7920617574686f72697a656420766965776572732063616e206163636560008201527f7373207468697320696e666f726d6174696f6e2e000000000000000000000000602082015250565b6000610d75603483610d08565b9150610d8082610d19565b604082019050919050565b60006020820190508181036000830152610da481610d68565b9050919050565b7f4e487b7100000000000000000000000000000000000000000000000000000000600052602260045260246000fd5b60006002820490506001821680610df257607f821691505b602082108103610e0557610e04610dab565b5b50919050565b7f4f6e6c79207468652047544944532061646d696e2063616e20706572666f726d60008201527f207468697320616374696f6e2e00000000000000000000000000000000000000602082015250565b6000610e67602d83610d08565b9150610e7282610e0b565b604082019050919050565b60006020820190508181036000830152610e9681610e5a565b905091905056fea26469706673582212209340996bf2839013e5a6fb68d5bd66a7e83e35c1bfee817863a275e064c22abb64736f6c634300080d0033",
					"opcodes": "PUSH1 0x80 PUSH1 0x40 MSTORE CALLVALUE DUP1 ISZERO PUSH2 0x10 JUMPI PUSH1 0x0 DUP1 REVERT JUMPDEST POP PUSH1 0x40 MLOAD PUSH3 0x1045 CODESIZE SUB DUP1 PUSH3 0x1045 DUP4 CODECOPY DUP2 DUP2 ADD PUSH1 0x40 MSTORE DUP2 ADD SWAP1 PUSH2 0x34 SWAP2 SWAP1 PUSH2 0x135 JUMP JUMPDEST DUP1 PUSH1 0x0 DUP1 PUSH2 0x100 EXP DUP2 SLOAD DUP2 PUSH20 0xFFFFFFFFFFFFFFFFFFFFFFFFFFFFFFFFFFFFFFFF MUL NOT AND SWAP1 DUP4 PUSH20 0xFFFFFFFFFFFFFFFFFFFFFFFFFFFFFFFFFFFFFFFF AND MUL OR SWAP1 SSTORE POP PUSH1 0x1 PUSH1 0x2 PUSH1 0x0 DUP4 PUSH20 0xFFFFFFFFFFFFFFFFFFFFFFFFFFFFFFFFFFFFFFFF AND PUSH20 0xFFFFFFFFFFFFFFFFFFFFFFFFFFFFFFFFFFFFFFFF AND DUP2 MSTORE PUSH1 0x20 ADD SWAP1 DUP2 MSTORE PUSH1 0x20 ADD PUSH1 0x0 KECCAK256 PUSH1 0x0 PUSH2 0x100 EXP DUP2 SLOAD DUP2 PUSH1 0xFF MUL NOT AND SWAP1 DUP4 ISZERO ISZERO MUL OR SWAP1 SSTORE POP POP PUSH2 0x162 JUMP JUMPDEST PUSH1 0x0 DUP1 REVERT JUMPDEST PUSH1 0x0 PUSH20 0xFFFFFFFFFFFFFFFFFFFFFFFFFFFFFFFFFFFFFFFF DUP3 AND SWAP1 POP SWAP2 SWAP1 POP JUMP JUMPDEST PUSH1 0x0 PUSH2 0x102 DUP3 PUSH2 0xD7 JUMP JUMPDEST SWAP1 POP SWAP2 SWAP1 POP JUMP JUMPDEST PUSH2 0x112 DUP2 PUSH2 0xF7 JUMP JUMPDEST DUP2 EQ PUSH2 0x11D JUMPI PUSH1 0x0 DUP1 REVERT JUMPDEST POP JUMP JUMPDEST PUSH1 0x0 DUP2 MLOAD SWAP1 POP PUSH2 0x12F DUP2 PUSH2 0x109 JUMP JUMPDEST SWAP3 SWAP2 POP POP JUMP JUMPDEST PUSH1 0x0 PUSH1 0x20 DUP3 DUP5 SUB SLT ISZERO PUSH2 0x14B JUMPI PUSH2 0x14A PUSH2 0xD2 JUMP JUMPDEST JUMPDEST PUSH1 0x0 PUSH2 0x159 DUP5 DUP3 DUP6 ADD PUSH2 0x120 JUMP JUMPDEST SWAP2 POP POP SWAP3 SWAP2 POP POP JUMP JUMPDEST PUSH2 0xED3 DUP1 PUSH3 0x172 PUSH1 0x0 CODECOPY PUSH1 0x0 RETURN INVALID PUSH1 0x80 PUSH1 0x40 MSTORE CALLVALUE DUP1 ISZERO PUSH2 0x10 JUMPI PUSH1 0x0 DUP1 REVERT JUMPDEST POP PUSH1 0x4 CALLDATASIZE LT PUSH2 0x4C JUMPI PUSH1 0x0 CALLDATALOAD PUSH1 0xE0 SHR DUP1 PUSH4 0x12554257 EQ PUSH2 0x51 JUMPI DUP1 PUSH4 0x601F8CF5 EQ PUSH2 0x81 JUMPI DUP1 PUSH4 0x69D948D3 EQ PUSH2 0x9D JUMPI DUP1 PUSH4 0xD1D98914 EQ PUSH2 0xB9 JUMPI JUMPDEST PUSH1 0x0 DUP1 REVERT JUMPDEST PUSH2 0x6B PUSH1 0x4 DUP1 CALLDATASIZE SUB DUP2 ADD SWAP1 PUSH2 0x66 SWAP2 SWAP1 PUSH2 0x940 JUMP JUMPDEST PUSH2 0xD5 JUMP JUMPDEST PUSH1 0x40 MLOAD PUSH2 0x78 SWAP2 SWAP1 PUSH2 0xA98 JUMP JUMPDEST PUSH1 0x40 MLOAD DUP1 SWAP2 SUB SWAP1 RETURN JUMPDEST PUSH2 0x9B PUSH1 0x4 DUP1 CALLDATASIZE SUB DUP2 ADD SWAP1 PUSH2 0x96 SWAP2 SWAP1 PUSH2 0x940 JUMP JUMPDEST PUSH2 0x494 JUMP JUMPDEST STOP JUMPDEST PUSH2 0xB7 PUSH1 0x4 DUP1 CALLDATASIZE SUB DUP2 ADD SWAP1 PUSH2 0xB2 SWAP2 SWAP1 PUSH2 0xBEF JUMP JUMPDEST PUSH2 0x57D JUMP JUMPDEST STOP JUMPDEST PUSH2 0xD3 PUSH1 0x4 DUP1 CALLDATASIZE SUB DUP2 ADD SWAP1 PUSH2 0xCE SWAP2 SWAP1 PUSH2 0x940 JUMP JUMPDEST PUSH2 0x713 JUMP JUMPDEST STOP JUMPDEST PUSH2 0xDD PUSH2 0x7FC JUMP JUMPDEST PUSH1 0x2 PUSH1 0x0 CALLER PUSH20 0xFFFFFFFFFFFFFFFFFFFFFFFFFFFFFFFFFFFFFFFF AND PUSH20 0xFFFFFFFFFFFFFFFFFFFFFFFFFFFFFFFFFFFFFFFF AND DUP2 MSTORE PUSH1 0x20 ADD SWAP1 DUP2 MSTORE PUSH1 0x20 ADD PUSH1 0x0 KECCAK256 PUSH1 0x0 SWAP1 SLOAD SWAP1 PUSH2 0x100 EXP SWAP1 DIV PUSH1 0xFF AND PUSH2 0x169 JUMPI PUSH1 0x40 MLOAD PUSH32 0x8C379A000000000000000000000000000000000000000000000000000000000 DUP2 MSTORE PUSH1 0x4 ADD PUSH2 0x160 SWAP1 PUSH2 0xD8B JUMP JUMPDEST PUSH1 0x40 MLOAD DUP1 SWAP2 SUB SWAP1 REVERT JUMPDEST PUSH1 0x1 PUSH1 0x0 DUP4 PUSH20 0xFFFFFFFFFFFFFFFFFFFFFFFFFFFFFFFFFFFFFFFF AND PUSH20 0xFFFFFFFFFFFFFFFFFFFFFFFFFFFFFFFFFFFFFFFF AND DUP2 MSTORE PUSH1 0x20 ADD SWAP1 DUP2 MSTORE PUSH1 0x20 ADD PUSH1 0x0 KECCAK256 PUSH1 0x40 MLOAD DUP1 PUSH1 0xA0 ADD PUSH1 0x40 MSTORE SWAP1 DUP2 PUSH1 0x0 DUP3 ADD DUP1 SLOAD PUSH2 0x1C3 SWAP1 PUSH2 0xDDA JUMP JUMPDEST DUP1 PUSH1 0x1F ADD PUSH1 0x20 DUP1 SWAP2 DIV MUL PUSH1 0x20 ADD PUSH1 0x40 MLOAD SWAP1 DUP2 ADD PUSH1 0x40 MSTORE DUP1 SWAP3 SWAP2 SWAP1 DUP2 DUP2 MSTORE PUSH1 0x20 ADD DUP3 DUP1 SLOAD PUSH2 0x1EF SWAP1 PUSH2 0xDDA JUMP JUMPDEST DUP1 ISZERO PUSH2 0x23C JUMPI DUP1 PUSH1 0x1F LT PUSH2 0x211 JUMPI PUSH2 0x100 DUP1 DUP4 SLOAD DIV MUL DUP4 MSTORE SWAP2 PUSH1 0x20 ADD SWAP2 PUSH2 0x23C JUMP JUMPDEST DUP3 ADD SWAP2 SWAP1 PUSH1 0x0 MSTORE PUSH1 0x20 PUSH1 0x0 KECCAK256 SWAP1 JUMPDEST DUP2 SLOAD DUP2 MSTORE SWAP1 PUSH1 0x1 ADD SWAP1 PUSH1 0x20 ADD DUP1 DUP4 GT PUSH2 0x21F JUMPI DUP3 SWAP1 SUB PUSH1 0x1F AND DUP3 ADD SWAP2 JUMPDEST POP POP POP POP POP DUP2 MSTORE PUSH1 0x20 ADD PUSH1 0x1 DUP3 ADD DUP1 SLOAD PUSH2 0x255 SWAP1 PUSH2 0xDDA JUMP JUMPDEST DUP1 PUSH1 0x1F ADD PUSH1 0x20 DUP1 SWAP2 DIV MUL PUSH1 0x20 ADD PUSH1 0x40 MLOAD SWAP1 DUP2 ADD PUSH1 0x40 MSTORE DUP1 SWAP3 SWAP2 SWAP1 DUP2 DUP2 MSTORE PUSH1 0x20 ADD DUP3 DUP1 SLOAD PUSH2 0x281 SWAP1 PUSH2 0xDDA JUMP JUMPDEST DUP1 ISZERO PUSH2 0x2CE JUMPI DUP1 PUSH1 0x1F LT PUSH2 0x2A3 JUMPI PUSH2 0x100 DUP1 DUP4 SLOAD DIV MUL DUP4 MSTORE SWAP2 PUSH1 0x20 ADD SWAP2 PUSH2 0x2CE JUMP JUMPDEST DUP3 ADD SWAP2 SWAP1 PUSH1 0x0 MSTORE PUSH1 0x20 PUSH1 0x0 KECCAK256 SWAP1 JUMPDEST DUP2 SLOAD DUP2 MSTORE SWAP1 PUSH1 0x1 ADD SWAP1 PUSH1 0x20 ADD DUP1 DUP4 GT PUSH2 0x2B1 JUMPI DUP3 SWAP1 SUB PUSH1 0x1F AND DUP3 ADD SWAP2 JUMPDEST POP POP POP POP POP DUP2 MSTORE PUSH1 0x20 ADD PUSH1 0x2 DUP3 ADD DUP1 SLOAD PUSH2 0x2E7 SWAP1 PUSH2 0xDDA JUMP JUMPDEST DUP1 PUSH1 0x1F ADD PUSH1 0x20 DUP1 SWAP2 DIV MUL PUSH1 0x20 ADD PUSH1 0x40 MLOAD SWAP1 DUP2 ADD PUSH1 0x40 MSTORE DUP1 SWAP3 SWAP2 SWAP1 DUP2 DUP2 MSTORE PUSH1 0x20 ADD DUP3 DUP1 SLOAD PUSH2 0x313 SWAP1 PUSH2 0xDDA JUMP JUMPDEST DUP1 ISZERO PUSH2 0x360 JUMPI DUP1 PUSH1 0x1F LT PUSH2 0x335 JUMPI PUSH2 0x100 DUP1 DUP4 SLOAD DIV MUL DUP4 MSTORE SWAP2 PUSH1 0x20 ADD SWAP2 PUSH2 0x360 JUMP JUMPDEST DUP3 ADD SWAP2 SWAP1 PUSH1 0x0 MSTORE PUSH1 0x20 PUSH1 0x0 KECCAK256 SWAP1 JUMPDEST DUP2 SLOAD DUP2 MSTORE SWAP1 PUSH1 0x1 ADD SWAP1 PUSH1 0x20 ADD DUP1 DUP4 GT PUSH2 0x343 JUMPI DUP3 SWAP1 SUB PUSH1 0x1F AND DUP3 ADD SWAP2 JUMPDEST POP POP POP POP POP DUP2 MSTORE PUSH1 0x20 ADD PUSH1 0x3 DUP3 ADD DUP1 SLOAD PUSH2 0x379 SWAP1 PUSH2 0xDDA JUMP JUMPDEST DUP1 PUSH1 0x1F ADD PUSH1 0x20 DUP1 SWAP2 DIV MUL PUSH1 0x20 ADD PUSH1 0x40 MLOAD SWAP1 DUP2 ADD PUSH1 0x40 MSTORE DUP1 SWAP3 SWAP2 SWAP1 DUP2 DUP2 MSTORE PUSH1 0x20 ADD DUP3 DUP1 SLOAD PUSH2 0x3A5 SWAP1 PUSH2 0xDDA JUMP JUMPDEST DUP1 ISZERO PUSH2 0x3F2 JUMPI DUP1 PUSH1 0x1F LT PUSH2 0x3C7 JUMPI PUSH2 0x100 DUP1 DUP4 SLOAD DIV MUL DUP4 MSTORE SWAP2 PUSH1 0x20 ADD SWAP2 PUSH2 0x3F2 JUMP JUMPDEST DUP3 ADD SWAP2 SWAP1 PUSH1 0x0 MSTORE PUSH1 0x20 PUSH1 0x0 KECCAK256 SWAP1 JUMPDEST DUP2 SLOAD DUP2 MSTORE SWAP1 PUSH1 0x1 ADD SWAP1 PUSH1 0x20 ADD DUP1 DUP4 GT PUSH2 0x3D5 JUMPI DUP3 SWAP1 SUB PUSH1 0x1F AND DUP3 ADD SWAP2 JUMPDEST POP POP POP POP POP DUP2 MSTORE PUSH1 0x20 ADD PUSH1 0x4 DUP3 ADD DUP1 SLOAD PUSH2 0x40B SWAP1 PUSH2 0xDDA JUMP JUMPDEST DUP1 PUSH1 0x1F ADD PUSH1 0x20 DUP1 SWAP2 DIV MUL PUSH1 0x20 ADD PUSH1 0x40 MLOAD SWAP1 DUP2 ADD PUSH1 0x40 MSTORE DUP1 SWAP3 SWAP2 SWAP1 DUP2 DUP2 MSTORE PUSH1 0x20 ADD DUP3 DUP1 SLOAD PUSH2 0x437 SWAP1 PUSH2 0xDDA JUMP JUMPDEST DUP1 ISZERO PUSH2 0x484 JUMPI DUP1 PUSH1 0x1F LT PUSH2 0x459 JUMPI PUSH2 0x100 DUP1 DUP4 SLOAD DIV MUL DUP4 MSTORE SWAP2 PUSH1 0x20 ADD SWAP2 PUSH2 0x484 JUMP JUMPDEST DUP3 ADD SWAP2 SWAP1 PUSH1 0x0 MSTORE PUSH1 0x20 PUSH1 0x0 KECCAK256 SWAP1 JUMPDEST DUP2 SLOAD DUP2 MSTORE SWAP1 PUSH1 0x1 ADD SWAP1 PUSH1 0x20 ADD DUP1 DUP4 GT PUSH2 0x467 JUMPI DUP3 SWAP1 SUB PUSH1 0x1F AND DUP3 ADD SWAP2 JUMPDEST POP POP POP POP POP DUP2 MSTORE POP POP SWAP1 POP SWAP2 SWAP1 POP JUMP JUMPDEST PUSH1 0x0 DUP1 SLOAD SWAP1 PUSH2 0x100 EXP SWAP1 DIV PUSH20 0xFFFFFFFFFFFFFFFFFFFFFFFFFFFFFFFFFFFFFFFF AND PUSH20 0xFFFFFFFFFFFFFFFFFFFFFFFFFFFFFFFFFFFFFFFF AND CALLER PUSH20 0xFFFFFFFFFFFFFFFFFFFFFFFFFFFFFFFFFFFFFFFF AND EQ PUSH2 0x522 JUMPI PUSH1 0x40 MLOAD PUSH32 0x8C379A000000000000000000000000000000000000000000000000000000000 DUP2 MSTORE PUSH1 0x4 ADD PUSH2 0x519 SWAP1 PUSH2 0xE7D JUMP JUMPDEST PUSH1 0x40 MLOAD DUP1 SWAP2 SUB SWAP1 REVERT JUMPDEST PUSH1 0x1 PUSH1 0x2 PUSH1 0x0 DUP4 PUSH20 0xFFFFFFFFFFFFFFFFFFFFFFFFFFFFFFFFFFFFFFFF AND PUSH20 0xFFFFFFFFFFFFFFFFFFFFFFFFFFFFFFFFFFFFFFFF AND DUP2 MSTORE PUSH1 0x20 ADD SWAP1 DUP2 MSTORE PUSH1 0x20 ADD PUSH1 0x0 KECCAK256 PUSH1 0x0 PUSH2 0x100 EXP DUP2 SLOAD DUP2 PUSH1 0xFF MUL NOT AND SWAP1 DUP4 ISZERO ISZERO MUL OR SWAP1 SSTORE POP POP JUMP JUMPDEST PUSH1 0x0 DUP1 SLOAD SWAP1 PUSH2 0x100 EXP SWAP1 DIV PUSH20 0xFFFFFFFFFFFFFFFFFFFFFFFFFFFFFFFFFFFFFFFF AND PUSH20 0xFFFFFFFFFFFFFFFFFFFFFFFFFFFFFFFFFFFFFFFF AND CALLER PUSH20 0xFFFFFFFFFFFFFFFFFFFFFFFFFFFFFFFFFFFFFFFF AND EQ PUSH2 0x60B JUMPI PUSH1 0x40 MLOAD PUSH32 0x8C379A000000000000000000000000000000000000000000000000000000000 DUP2 MSTORE PUSH1 0x4 ADD PUSH2 0x602 SWAP1 PUSH2 0xE7D JUMP JUMPDEST PUSH1 0x40 MLOAD DUP1 SWAP2 SUB SWAP1 REVERT JUMPDEST PUSH1 0x0 PUSH1 0x40 MLOAD DUP1 PUSH1 0xA0 ADD PUSH1 0x40 MSTORE DUP1 DUP8 DUP2 MSTORE PUSH1 0x20 ADD DUP7 DUP2 MSTORE PUSH1 0x20 ADD DUP6 DUP2 MSTORE PUSH1 0x20 ADD DUP5 DUP2 MSTORE PUSH1 0x20 ADD DUP4 DUP2 MSTORE POP SWAP1 POP DUP1 PUSH1 0x1 PUSH1 0x0 DUP10 PUSH20 0xFFFFFFFFFFFFFFFFFFFFFFFFFFFFFFFFFFFFFFFF AND PUSH20 0xFFFFFFFFFFFFFFFFFFFFFFFFFFFFFFFFFFFFFFFF AND DUP2 MSTORE PUSH1 0x20 ADD SWAP1 DUP2 MSTORE PUSH1 0x20 ADD PUSH1 0x0 KECCAK256 PUSH1 0x0 DUP3 ADD MLOAD DUP2 PUSH1 0x0 ADD SWAP1 DUP1 MLOAD SWAP1 PUSH1 0x20 ADD SWAP1 PUSH2 0x692 SWAP3 SWAP2 SWAP1 PUSH2 0x82B JUMP JUMPDEST POP PUSH1 0x20 DUP3 ADD MLOAD DUP2 PUSH1 0x1 ADD SWAP1 DUP1 MLOAD SWAP1 PUSH1 0x20 ADD SWAP1 PUSH2 0x6AF SWAP3 SWAP2 SWAP1 PUSH2 0x82B JUMP JUMPDEST POP PUSH1 0x40 DUP3 ADD MLOAD DUP2 PUSH1 0x2 ADD SWAP1 DUP1 MLOAD SWAP1 PUSH1 0x20 ADD SWAP1 PUSH2 0x6CC SWAP3 SWAP2 SWAP1 PUSH2 0x82B JUMP JUMPDEST POP PUSH1 0x60 DUP3 ADD MLOAD DUP2 PUSH1 0x3 ADD SWAP1 DUP1 MLOAD SWAP1 PUSH1 0x20 ADD SWAP1 PUSH2 0x6E9 SWAP3 SWAP2 SWAP1 PUSH2 0x82B JUMP JUMPDEST POP PUSH1 0x80 DUP3 ADD MLOAD DUP2 PUSH1 0x4 ADD SWAP1 DUP1 MLOAD SWAP1 PUSH1 0x20 ADD SWAP1 PUSH2 0x706 SWAP3 SWAP2 SWAP1 PUSH2 0x82B JUMP JUMPDEST POP SWAP1 POP POP POP POP POP POP POP POP POP JUMP JUMPDEST PUSH1 0x0 DUP1 SLOAD SWAP1 PUSH2 0x100 EXP SWAP1 DIV PUSH20 0xFFFFFFFFFFFFFFFFFFFFFFFFFFFFFFFFFFFFFFFF AND PUSH20 0xFFFFFFFFFFFFFFFFFFFFFFFFFFFFFFFFFFFFFFFF AND CALLER PUSH20 0xFFFFFFFFFFFFFFFFFFFFFFFFFFFFFFFFFFFFFFFF AND EQ PUSH2 0x7A1 JUMPI PUSH1 0x40 MLOAD PUSH32 0x8C379A000000000000000000000000000000000000000000000000000000000 DUP2 MSTORE PUSH1 0x4 ADD PUSH2 0x798 SWAP1 PUSH2 0xE7D JUMP JUMPDEST PUSH1 0x40 MLOAD DUP1 SWAP2 SUB SWAP1 REVERT JUMPDEST PUSH1 0x0 PUSH1 0x2 PUSH1 0x0 DUP4 PUSH20 0xFFFFFFFFFFFFFFFFFFFFFFFFFFFFFFFFFFFFFFFF AND PUSH20 0xFFFFFFFFFFFFFFFFFFFFFFFFFFFFFFFFFFFFFFFF AND DUP2 MSTORE PUSH1 0x20 ADD SWAP1 DUP2 MSTORE PUSH1 0x20 ADD PUSH1 0x0 KECCAK256 PUSH1 0x0 PUSH2 0x100 EXP DUP2 SLOAD DUP2 PUSH1 0xFF MUL NOT AND SWAP1 DUP4 ISZERO ISZERO MUL OR SWAP1 SSTORE POP POP JUMP JUMPDEST PUSH1 0x40 MLOAD DUP1 PUSH1 0xA0 ADD PUSH1 0x40 MSTORE DUP1 PUSH1 0x60 DUP2 MSTORE PUSH1 0x20 ADD PUSH1 0x60 DUP2 MSTORE PUSH1 0x20 ADD PUSH1 0x60 DUP2 MSTORE PUSH1 0x20 ADD PUSH1 0x60 DUP2 MSTORE PUSH1 0x20 ADD PUSH1 0x60 DUP2 MSTORE POP SWAP1 JUMP JUMPDEST DUP3 DUP1 SLOAD PUSH2 0x837 SWAP1 PUSH2 0xDDA JUMP JUMPDEST SWAP1 PUSH1 0x0 MSTORE PUSH1 0x20 PUSH1 0x0 KECCAK256 SWAP1 PUSH1 0x1F ADD PUSH1 0x20 SWAP1 DIV DUP2 ADD SWAP3 DUP3 PUSH2 0x859 JUMPI PUSH1 0x0 DUP6 SSTORE PUSH2 0x8A0 JUMP JUMPDEST DUP3 PUSH1 0x1F LT PUSH2 0x872 JUMPI DUP1 MLOAD PUSH1 0xFF NOT AND DUP4 DUP1 ADD OR DUP6 SSTORE PUSH2 0x8A0 JUMP JUMPDEST DUP3 DUP1 ADD PUSH1 0x1 ADD DUP6 SSTORE DUP3 ISZERO PUSH2 0x8A0 JUMPI SWAP2 DUP3 ADD JUMPDEST DUP3 DUP2 GT ISZERO PUSH2 0x89F JUMPI DUP3 MLOAD DUP3 SSTORE SWAP2 PUSH1 0x20 ADD SWAP2 SWAP1 PUSH1 0x1 ADD SWAP1 PUSH2 0x884 JUMP JUMPDEST JUMPDEST POP SWAP1 POP PUSH2 0x8AD SWAP2 SWAP1 PUSH2 0x8B1 JUMP JUMPDEST POP SWAP1 JUMP JUMPDEST JUMPDEST DUP1 DUP3 GT ISZERO PUSH2 0x8CA JUMPI PUSH1 0x0 DUP2 PUSH1 0x0 SWAP1 SSTORE POP PUSH1 0x1 ADD PUSH2 0x8B2 JUMP JUMPDEST POP SWAP1 JUMP JUMPDEST PUSH1 0x0 PUSH1 0x40 MLOAD SWAP1 POP SWAP1 JUMP JUMPDEST PUSH1 0x0 DUP1 REVERT JUMPDEST PUSH1 0x0 DUP1 REVERT JUMPDEST PUSH1 0x0 PUSH20 0xFFFFFFFFFFFFFFFFFFFFFFFFFFFFFFFFFFFFFFFF DUP3 AND SWAP1 POP SWAP2 SWAP1 POP JUMP JUMPDEST PUSH1 0x0 PUSH2 0x90D DUP3 PUSH2 0x8E2 JUMP JUMPDEST SWAP1 POP SWAP2 SWAP1 POP JUMP JUMPDEST PUSH2 0x91D DUP2 PUSH2 0x902 JUMP JUMPDEST DUP2 EQ PUSH2 0x928 JUMPI PUSH1 0x0 DUP1 REVERT JUMPDEST POP JUMP JUMPDEST PUSH1 0x0 DUP2 CALLDATALOAD SWAP1 POP PUSH2 0x93A DUP2 PUSH2 0x914 JUMP JUMPDEST SWAP3 SWAP2 POP POP JUMP JUMPDEST PUSH1 0x0 PUSH1 0x20 DUP3 DUP5 SUB SLT ISZERO PUSH2 0x956 JUMPI PUSH2 0x955 PUSH2 0x8D8 JUMP JUMPDEST JUMPDEST PUSH1 0x0 PUSH2 0x964 DUP5 DUP3 DUP6 ADD PUSH2 0x92B JUMP JUMPDEST SWAP2 POP POP SWAP3 SWAP2 POP POP JUMP JUMPDEST PUSH1 0x0 DUP2 MLOAD SWAP1 POP SWAP2 SWAP1 POP JUMP JUMPDEST PUSH1 0x0 DUP3 DUP3 MSTORE PUSH1 0x20 DUP3 ADD SWAP1 POP SWAP3 SWAP2 POP POP JUMP JUMPDEST PUSH1 0x0 JUMPDEST DUP4 DUP2 LT ISZERO PUSH2 0x9A7 JUMPI DUP1 DUP3 ADD MLOAD DUP2 DUP5 ADD MSTORE PUSH1 0x20 DUP2 ADD SWAP1 POP PUSH2 0x98C JUMP JUMPDEST DUP4 DUP2 GT ISZERO PUSH2 0x9B6 JUMPI PUSH1 0x0 DUP5 DUP5 ADD MSTORE JUMPDEST POP POP POP POP JUMP JUMPDEST PUSH1 0x0 PUSH1 0x1F NOT PUSH1 0x1F DUP4 ADD AND SWAP1 POP SWAP2 SWAP1 POP JUMP JUMPDEST PUSH1 0x0 PUSH2 0x9D8 DUP3 PUSH2 0x96D JUMP JUMPDEST PUSH2 0x9E2 DUP2 DUP6 PUSH2 0x978 JUMP JUMPDEST SWAP4 POP PUSH2 0x9F2 DUP2 DUP6 PUSH1 0x20 DUP7 ADD PUSH2 0x989 JUMP JUMPDEST PUSH2 0x9FB DUP2 PUSH2 0x9BC JUMP JUMPDEST DUP5 ADD SWAP2 POP POP SWAP3 SWAP2 POP POP JUMP JUMPDEST PUSH1 0x0 PUSH1 0xA0 DUP4 ADD PUSH1 0x0 DUP4 ADD MLOAD DUP5 DUP3 SUB PUSH1 0x0 DUP7 ADD MSTORE PUSH2 0xA23 DUP3 DUP3 PUSH2 0x9CD JUMP JUMPDEST SWAP2 POP POP PUSH1 0x20 DUP4 ADD MLOAD DUP5 DUP3 SUB PUSH1 0x20 DUP7 ADD MSTORE PUSH2 0xA3D DUP3 DUP3 PUSH2 0x9CD JUMP JUMPDEST SWAP2 POP POP PUSH1 0x40 DUP4 ADD MLOAD DUP5 DUP3 SUB PUSH1 0x40 DUP7 ADD MSTORE PUSH2 0xA57 DUP3 DUP3 PUSH2 0x9CD JUMP JUMPDEST SWAP2 POP POP PUSH1 0x60 DUP4 ADD MLOAD DUP5 DUP3 SUB PUSH1 0x60 DUP7 ADD MSTORE PUSH2 0xA71 DUP3 DUP3 PUSH2 0x9CD JUMP JUMPDEST SWAP2 POP POP PUSH1 0x80 DUP4 ADD MLOAD DUP5 DUP3 SUB PUSH1 0x80 DUP7 ADD MSTORE PUSH2 0xA8B DUP3 DUP3 PUSH2 0x9CD JUMP JUMPDEST SWAP2 POP POP DUP1 SWAP2 POP POP SWAP3 SWAP2 POP POP JUMP JUMPDEST PUSH1 0x0 PUSH1 0x20 DUP3 ADD SWAP1 POP DUP2 DUP2 SUB PUSH1 0x0 DUP4 ADD MSTORE PUSH2 0xAB2 DUP2 DUP5 PUSH2 0xA06 JUMP JUMPDEST SWAP1 POP SWAP3 SWAP2 POP POP JUMP JUMPDEST PUSH1 0x0 DUP1 REVERT JUMPDEST PUSH1 0x0 DUP1 REVERT JUMPDEST PUSH32 0x4E487B7100000000000000000000000000000000000000000000000000000000 PUSH1 0x0 MSTORE PUSH1 0x41 PUSH1 0x4 MSTORE PUSH1 0x24 PUSH1 0x0 REVERT JUMPDEST PUSH2 0xAFC DUP3 PUSH2 0x9BC JUMP JUMPDEST DUP2 ADD DUP2 DUP2 LT PUSH8 0xFFFFFFFFFFFFFFFF DUP3 GT OR ISZERO PUSH2 0xB1B JUMPI PUSH2 0xB1A PUSH2 0xAC4 JUMP JUMPDEST JUMPDEST DUP1 PUSH1 0x40 MSTORE POP POP POP JUMP JUMPDEST PUSH1 0x0 PUSH2 0xB2E PUSH2 0x8CE JUMP JUMPDEST SWAP1 POP PUSH2 0xB3A DUP3 DUP3 PUSH2 0xAF3 JUMP JUMPDEST SWAP2 SWAP1 POP JUMP JUMPDEST PUSH1 0x0 PUSH8 0xFFFFFFFFFFFFFFFF DUP3 GT ISZERO PUSH2 0xB5A JUMPI PUSH2 0xB59 PUSH2 0xAC4 JUMP JUMPDEST JUMPDEST PUSH2 0xB63 DUP3 PUSH2 0x9BC JUMP JUMPDEST SWAP1 POP PUSH1 0x20 DUP2 ADD SWAP1 POP SWAP2 SWAP1 POP JUMP JUMPDEST DUP3 DUP2 DUP4 CALLDATACOPY PUSH1 0x0 DUP4 DUP4 ADD MSTORE POP POP POP JUMP JUMPDEST PUSH1 0x0 PUSH2 0xB92 PUSH2 0xB8D DUP5 PUSH2 0xB3F JUMP JUMPDEST PUSH2 0xB24 JUMP JUMPDEST SWAP1 POP DUP3 DUP2 MSTORE PUSH1 0x20 DUP2 ADD DUP5 DUP5 DUP5 ADD GT ISZERO PUSH2 0xBAE JUMPI PUSH2 0xBAD PUSH2 0xABF JUMP JUMPDEST JUMPDEST PUSH2 0xBB9 DUP5 DUP3 DUP6 PUSH2 0xB70 JUMP JUMPDEST POP SWAP4 SWAP3 POP POP POP JUMP JUMPDEST PUSH1 0x0 DUP3 PUSH1 0x1F DUP4 ADD SLT PUSH2 0xBD6 JUMPI PUSH2 0xBD5 PUSH2 0xABA JUMP JUMPDEST JUMPDEST DUP2 CALLDATALOAD PUSH2 0xBE6 DUP5 DUP3 PUSH1 0x20 DUP7 ADD PUSH2 0xB7F JUMP JUMPDEST SWAP2 POP POP SWAP3 SWAP2 POP POP JUMP JUMPDEST PUSH1 0x0 DUP1 PUSH1 0x0 DUP1 PUSH1 0x0 DUP1 PUSH1 0xC0 DUP8 DUP10 SUB SLT ISZERO PUSH2 0xC0C JUMPI PUSH2 0xC0B PUSH2 0x8D8 JUMP JUMPDEST JUMPDEST PUSH1 0x0 PUSH2 0xC1A DUP10 DUP3 DUP11 ADD PUSH2 0x92B JUMP JUMPDEST SWAP7 POP POP PUSH1 0x20 DUP8 ADD CALLDATALOAD PUSH8 0xFFFFFFFFFFFFFFFF DUP2 GT ISZERO PUSH2 0xC3B JUMPI PUSH2 0xC3A PUSH2 0x8DD JUMP JUMPDEST JUMPDEST PUSH2 0xC47 DUP10 DUP3 DUP11 ADD PUSH2 0xBC1 JUMP JUMPDEST SWAP6 POP POP PUSH1 0x40 DUP8 ADD CALLDATALOAD PUSH8 0xFFFFFFFFFFFFFFFF DUP2 GT ISZERO PUSH2 0xC68 JUMPI PUSH2 0xC67 PUSH2 0x8DD JUMP JUMPDEST JUMPDEST PUSH2 0xC74 DUP10 DUP3 DUP11 ADD PUSH2 0xBC1 JUMP JUMPDEST SWAP5 POP POP PUSH1 0x60 DUP8 ADD CALLDATALOAD PUSH8 0xFFFFFFFFFFFFFFFF DUP2 GT ISZERO PUSH2 0xC95 JUMPI PUSH2 0xC94 PUSH2 0x8DD JUMP JUMPDEST JUMPDEST PUSH2 0xCA1 DUP10 DUP3 DUP11 ADD PUSH2 0xBC1 JUMP JUMPDEST SWAP4 POP POP PUSH1 0x80 DUP8 ADD CALLDATALOAD PUSH8 0xFFFFFFFFFFFFFFFF DUP2 GT ISZERO PUSH2 0xCC2 JUMPI PUSH2 0xCC1 PUSH2 0x8DD JUMP JUMPDEST JUMPDEST PUSH2 0xCCE DUP10 DUP3 DUP11 ADD PUSH2 0xBC1 JUMP JUMPDEST SWAP3 POP POP PUSH1 0xA0 DUP8 ADD CALLDATALOAD PUSH8 0xFFFFFFFFFFFFFFFF DUP2 GT ISZERO PUSH2 0xCEF JUMPI PUSH2 0xCEE PUSH2 0x8DD JUMP JUMPDEST JUMPDEST PUSH2 0xCFB DUP10 DUP3 DUP11 ADD PUSH2 0xBC1 JUMP JUMPDEST SWAP2 POP POP SWAP3 SWAP6 POP SWAP3 SWAP6 POP SWAP3 SWAP6 JUMP JUMPDEST PUSH1 0x0 DUP3 DUP3 MSTORE PUSH1 0x20 DUP3 ADD SWAP1 POP SWAP3 SWAP2 POP POP JUMP JUMPDEST PUSH32 0x4F6E6C7920617574686F72697A656420766965776572732063616E2061636365 PUSH1 0x0 DUP3 ADD MSTORE PUSH32 0x7373207468697320696E666F726D6174696F6E2E000000000000000000000000 PUSH1 0x20 DUP3 ADD MSTORE POP JUMP JUMPDEST PUSH1 0x0 PUSH2 0xD75 PUSH1 0x34 DUP4 PUSH2 0xD08 JUMP JUMPDEST SWAP2 POP PUSH2 0xD80 DUP3 PUSH2 0xD19 JUMP JUMPDEST PUSH1 0x40 DUP3 ADD SWAP1 POP SWAP2 SWAP1 POP JUMP JUMPDEST PUSH1 0x0 PUSH1 0x20 DUP3 ADD SWAP1 POP DUP2 DUP2 SUB PUSH1 0x0 DUP4 ADD MSTORE PUSH2 0xDA4 DUP2 PUSH2 0xD68 JUMP JUMPDEST SWAP1 POP SWAP2 SWAP1 POP JUMP JUMPDEST PUSH32 0x4E487B7100000000000000000000000000000000000000000000000000000000 PUSH1 0x0 MSTORE PUSH1 0x22 PUSH1 0x4 MSTORE PUSH1 0x24 PUSH1 0x0 REVERT JUMPDEST PUSH1 0x0 PUSH1 0x2 DUP3 DIV SWAP1 POP PUSH1 0x1 DUP3 AND DUP1 PUSH2 0xDF2 JUMPI PUSH1 0x7F DUP3 AND SWAP2 POP JUMPDEST PUSH1 0x20 DUP3 LT DUP2 SUB PUSH2 0xE05 JUMPI PUSH2 0xE04 PUSH2 0xDAB JUMP JUMPDEST JUMPDEST POP SWAP2 SWAP1 POP JUMP JUMPDEST PUSH32 0x4F6E6C79207468652047544944532061646D696E2063616E20706572666F726D PUSH1 0x0 DUP3 ADD MSTORE PUSH32 0x207468697320616374696F6E2E00000000000000000000000000000000000000 PUSH1 0x20 DUP3 ADD MSTORE POP JUMP JUMPDEST PUSH1 0x0 PUSH2 0xE67 PUSH1 0x2D DUP4 PUSH2 0xD08 JUMP JUMPDEST SWAP2 POP PUSH2 0xE72 DUP3 PUSH2 0xE0B JUMP JUMPDEST PUSH1 0x40 DUP3 ADD SWAP1 POP SWAP2 SWAP1 POP JUMP JUMPDEST PUSH1 0x0 PUSH1 0x20 DUP3 ADD SWAP1 POP DUP2 DUP2 SUB PUSH1 0x0 DUP4 ADD MSTORE PUSH2 0xE96 DUP2 PUSH2 0xE5A JUMP JUMPDEST SWAP1 POP SWAP2 SWAP1 POP JUMP INVALID LOG2 PUSH5 0x6970667358 0x22 SLT KECCAK256 SWAP4 BLOCKHASH SWAP10 PUSH12 0xF2839013E5A6FB68D5BD66A7 0xE8 RETURNDATACOPY CALLDATALOAD 0xC1 0xBF 0xEE DUP2 PUSH25 0x63A275E064C22ABB64736F6C634300080D0033000000000000 "
				},
				"gasEstimates": {
					"creation": {
						"codeDepositCost": "759000",
						"executionCost": "infinite",
						"totalCost": "infinite"
					},
					"external": {
						"addViewer(address)": "26979",
						"addWarehouse(address,string,string,string,string,string)": "infinite",
						"getWarehouse(address)": "infinite",
						"removeViewer(address)": "27023"
					}
				},
				"methodIdentifiers": {
					"addViewer(address)": "601f8cf5",
					"addWarehouse(address,string,string,string,string,string)": "69d948d3",
					"getWarehouse(address)": "12554257",
					"removeViewer(address)": "d1d98914"
				}
			},
			"storageLayout": {
				"storage": [
					{
						"astId": 14,
						"contract": "contracts/WarehouseDao.sol:WarehouseContract",
						"label": "owner",
						"offset": 0,
						"slot": "0",
						"type": "t_address"
					},
					{
						"astId": 19,
						"contract": "contracts/WarehouseDao.sol:WarehouseContract",
						"label": "warehouses",
						"offset": 0,
						"slot": "1",
						"type": "t_mapping(t_address,t_struct(Warehouse)12_storage)"
					},
					{
						"astId": 23,
						"contract": "contracts/WarehouseDao.sol:WarehouseContract",
						"label": "viewers",
						"offset": 0,
						"slot": "2",
						"type": "t_mapping(t_address,t_bool)"
					}
				],
				"types": {
					"t_address": {
						"encoding": "inplace",
						"label": "address",
						"numberOfBytes": "20"
					},
					"t_bool": {
						"encoding": "inplace",
						"label": "bool",
						"numberOfBytes": "1"
					},
					"t_mapping(t_address,t_bool)": {
						"encoding": "mapping",
						"key": "t_address",
						"label": "mapping(address => bool)",
						"numberOfBytes": "32",
						"value": "t_bool"
					},
					"t_mapping(t_address,t_struct(Warehouse)12_storage)": {
						"encoding": "mapping",
						"key": "t_address",
						"label": "mapping(address => struct WarehouseContract.Warehouse)",
						"numberOfBytes": "32",
						"value": "t_struct(Warehouse)12_storage"
					},
					"t_string_storage": {
						"encoding": "bytes",
						"label": "string",
						"numberOfBytes": "32"
					},
					"t_struct(Warehouse)12_storage": {
						"encoding": "inplace",
						"label": "struct WarehouseContract.Warehouse",
						"members": [
							{
								"astId": 3,
								"contract": "contracts/WarehouseDao.sol:WarehouseContract",
								"label": "organization",
								"offset": 0,
								"slot": "0",
								"type": "t_string_storage"
							},
							{
								"astId": 5,
								"contract": "contracts/WarehouseDao.sol:WarehouseContract",
								"label": "name",
								"offset": 0,
								"slot": "1",
								"type": "t_string_storage"
							},
							{
								"astId": 7,
								"contract": "contracts/WarehouseDao.sol:WarehouseContract",
								"label": "Address",
								"offset": 0,
								"slot": "2",
								"type": "t_string_storage"
							},
							{
								"astId": 9,
								"contract": "contracts/WarehouseDao.sol:WarehouseContract",
								"label": "tinNo",
								"offset": 0,
								"slot": "3",
								"type": "t_string_storage"
							},
							{
								"astId": 11,
								"contract": "contracts/WarehouseDao.sol:WarehouseContract",
								"label": "gstinNo",
								"offset": 0,
								"slot": "4",
								"type": "t_string_storage"
							}
						],
						"numberOfBytes": "160"
					}
				}
			},
			"userdoc": {
				"kind": "user",
				"methods": {},
				"version": 1
			}
		}
	}
}