{
	"contracts/BankDao.sol": {
		"BankContract": {
			"abi": [
				{
					"inputs": [
						{
							"internalType": "address",
							"name": "_owner",
							"type": "address"
						}
					],
					"stateMutability": "nonpayable",
					"type": "constructor"
				},
				{
					"inputs": [
						{
							"internalType": "address",
							"name": "_address",
							"type": "address"
						},
						{
							"internalType": "string",
							"name": "_bankName",
							"type": "string"
						},
						{
							"internalType": "string",
							"name": "_branch",
							"type": "string"
						},
						{
							"internalType": "string",
							"name": "_ifscCode",
							"type": "string"
						},
						{
							"internalType": "string",
							"name": "_district",
							"type": "string"
						},
						{
							"internalType": "string",
							"name": "_state",
							"type": "string"
						}
					],
					"name": "addBank",
					"outputs": [],
					"stateMutability": "nonpayable",
					"type": "function"
				},
				{
					"inputs": [
						{
							"internalType": "address",
							"name": "_address",
							"type": "address"
						}
					],
					"name": "addViewer",
					"outputs": [],
					"stateMutability": "nonpayable",
					"type": "function"
				},
				{
					"inputs": [
						{
							"internalType": "address",
							"name": "_address",
							"type": "address"
						}
					],
					"name": "getBank",
					"outputs": [
						{
							"components": [
								{
									"internalType": "string",
									"name": "bankName",
									"type": "string"
								},
								{
									"internalType": "string",
									"name": "branch",
									"type": "string"
								},
								{
									"internalType": "string",
									"name": "ifscCode",
									"type": "string"
								},
								{
									"internalType": "string",
									"name": "district",
									"type": "string"
								},
								{
									"internalType": "string",
									"name": "state",
									"type": "string"
								}
							],
							"internalType": "struct BankContract.Bank",
							"name": "",
							"type": "tuple"
						}
					],
					"stateMutability": "view",
					"type": "function"
				},
				{
					"inputs": [
						{
							"internalType": "address",
							"name": "_address",
							"type": "address"
						}
					],
					"name": "removeViewer",
					"outputs": [],
					"stateMutability": "nonpayable",
					"type": "function"
				}
			],
			"devdoc": {
				"kind": "dev",
				"methods": {},
				"version": 1
			},
			"evm": {
				"assembly": "    /* \"contracts/BankDao.sol\":66:1443  contract BankContract {... */\n  mstore(0x40, 0x80)\n    /* \"contracts/BankDao.sol\":384:478  constructor(address _owner) {... */\n  callvalue\n  dup1\n  iszero\n  tag_1\n  jumpi\n  0x00\n  dup1\n  revert\ntag_1:\n  pop\n  mload(0x40)\n  sub(codesize, bytecodeSize)\n  dup1\n  bytecodeSize\n  dup4\n  codecopy\n  dup2\n  dup2\n  add\n  0x40\n  mstore\n  dup2\n  add\n  swap1\n  tag_2\n  swap2\n  swap1\n  tag_3\n  jump\t// in\ntag_2:\n    /* \"contracts/BankDao.sol\":431:437  _owner */\n  dup1\n    /* \"contracts/BankDao.sol\":423:428  owner */\n  0x00\n  dup1\n    /* \"contracts/BankDao.sol\":423:437  owner = _owner */\n  0x0100\n  exp\n  dup2\n  sload\n  dup2\n  0xffffffffffffffffffffffffffffffffffffffff\n  mul\n  not\n  and\n  swap1\n  dup4\n  0xffffffffffffffffffffffffffffffffffffffff\n  and\n  mul\n  or\n  swap1\n  sstore\n  pop\n    /* \"contracts/BankDao.sol\":466:470  true */\n  0x01\n    /* \"contracts/BankDao.sol\":448:455  viewers */\n  0x02\n    /* \"contracts/BankDao.sol\":448:463  viewers[_owner] */\n  0x00\n    /* \"contracts/BankDao.sol\":456:462  _owner */\n  dup4\n    /* \"contracts/BankDao.sol\":448:463  viewers[_owner] */\n  0xffffffffffffffffffffffffffffffffffffffff\n  and\n  0xffffffffffffffffffffffffffffffffffffffff\n  and\n  dup2\n  mstore\n  0x20\n  add\n  swap1\n  dup2\n  mstore\n  0x20\n  add\n  0x00\n  keccak256\n  0x00\n    /* \"contracts/BankDao.sol\":448:470  viewers[_owner] = true */\n  0x0100\n  exp\n  dup2\n  sload\n  dup2\n  0xff\n  mul\n  not\n  and\n  swap1\n  dup4\n  iszero\n  iszero\n  mul\n  or\n  swap1\n  sstore\n  pop\n    /* \"contracts/BankDao.sol\":384:478  constructor(address _owner) {... */\n  pop\n    /* \"contracts/BankDao.sol\":66:1443  contract BankContract {... */\n  jump(tag_6)\n    /* \"#utility.yul\":88:205   */\ntag_8:\n    /* \"#utility.yul\":197:198   */\n  0x00\n    /* \"#utility.yul\":194:195   */\n  dup1\n    /* \"#utility.yul\":187:199   */\n  revert\n    /* \"#utility.yul\":334:460   */\ntag_10:\n    /* \"#utility.yul\":371:378   */\n  0x00\n    /* \"#utility.yul\":411:453   */\n  0xffffffffffffffffffffffffffffffffffffffff\n    /* \"#utility.yul\":404:409   */\n  dup3\n    /* \"#utility.yul\":400:454   */\n  and\n    /* \"#utility.yul\":389:454   */\n  swap1\n  pop\n    /* \"#utility.yul\":334:460   */\n  swap2\n  swap1\n  pop\n  jump\t// out\n    /* \"#utility.yul\":466:562   */\ntag_11:\n    /* \"#utility.yul\":503:510   */\n  0x00\n    /* \"#utility.yul\":532:556   */\n  tag_20\n    /* \"#utility.yul\":550:555   */\n  dup3\n    /* \"#utility.yul\":532:556   */\n  tag_10\n  jump\t// in\ntag_20:\n    /* \"#utility.yul\":521:556   */\n  swap1\n  pop\n    /* \"#utility.yul\":466:562   */\n  swap2\n  swap1\n  pop\n  jump\t// out\n    /* \"#utility.yul\":568:690   */\ntag_12:\n    /* \"#utility.yul\":641:665   */\n  tag_22\n    /* \"#utility.yul\":659:664   */\n  dup2\n    /* \"#utility.yul\":641:665   */\n  tag_11\n  jump\t// in\ntag_22:\n    /* \"#utility.yul\":634:639   */\n  dup2\n    /* \"#utility.yul\":631:666   */\n  eq\n    /* \"#utility.yul\":621:684   */\n  tag_23\n  jumpi\n    /* \"#utility.yul\":680:681   */\n  0x00\n    /* \"#utility.yul\":677:678   */\n  dup1\n    /* \"#utility.yul\":670:682   */\n  revert\n    /* \"#utility.yul\":621:684   */\ntag_23:\n    /* \"#utility.yul\":568:690   */\n  pop\n  jump\t// out\n    /* \"#utility.yul\":696:839   */\ntag_13:\n    /* \"#utility.yul\":753:758   */\n  0x00\n    /* \"#utility.yul\":784:790   */\n  dup2\n    /* \"#utility.yul\":778:791   */\n  mload\n    /* \"#utility.yul\":769:791   */\n  swap1\n  pop\n    /* \"#utility.yul\":800:833   */\n  tag_25\n    /* \"#utility.yul\":827:832   */\n  dup2\n    /* \"#utility.yul\":800:833   */\n  tag_12\n  jump\t// in\ntag_25:\n    /* \"#utility.yul\":696:839   */\n  swap3\n  swap2\n  pop\n  pop\n  jump\t// out\n    /* \"#utility.yul\":845:1196   */\ntag_3:\n    /* \"#utility.yul\":915:921   */\n  0x00\n    /* \"#utility.yul\":964:966   */\n  0x20\n    /* \"#utility.yul\":952:961   */\n  dup3\n    /* \"#utility.yul\":943:950   */\n  dup5\n    /* \"#utility.yul\":939:962   */\n  sub\n    /* \"#utility.yul\":935:967   */\n  slt\n    /* \"#utility.yul\":932:1051   */\n  iszero\n  tag_27\n  jumpi\n    /* \"#utility.yul\":970:1049   */\n  tag_28\n  tag_8\n  jump\t// in\ntag_28:\n    /* \"#utility.yul\":932:1051   */\ntag_27:\n    /* \"#utility.yul\":1090:1091   */\n  0x00\n    /* \"#utility.yul\":1115:1179   */\n  tag_29\n    /* \"#utility.yul\":1171:1178   */\n  dup5\n    /* \"#utility.yul\":1162:1168   */\n  dup3\n    /* \"#utility.yul\":1151:1160   */\n  dup6\n    /* \"#utility.yul\":1147:1169   */\n  add\n    /* \"#utility.yul\":1115:1179   */\n  tag_13\n  jump\t// in\ntag_29:\n    /* \"#utility.yul\":1105:1179   */\n  swap2\n  pop\n    /* \"#utility.yul\":1061:1189   */\n  pop\n    /* \"#utility.yul\":845:1196   */\n  swap3\n  swap2\n  pop\n  pop\n  jump\t// out\n    /* \"contracts/BankDao.sol\":66:1443  contract BankContract {... */\ntag_6:\n  dataSize(sub_0)\n  dup1\n  dataOffset(sub_0)\n  0x00\n  codecopy\n  0x00\n  return\nstop\n\nsub_0: assembly {\n        /* \"contracts/BankDao.sol\":66:1443  contract BankContract {... */\n      mstore(0x40, 0x80)\n      callvalue\n      dup1\n      iszero\n      tag_1\n      jumpi\n      0x00\n      dup1\n      revert\n    tag_1:\n      pop\n      jumpi(tag_2, lt(calldatasize, 0x04))\n      shr(0xe0, calldataload(0x00))\n      dup1\n      0x601f8cf5\n      eq\n      tag_3\n      jumpi\n      dup1\n      0x83e0c31d\n      eq\n      tag_4\n      jumpi\n      dup1\n      0xd1d98914\n      eq\n      tag_5\n      jumpi\n      dup1\n      0xde71f52f\n      eq\n      tag_6\n      jumpi\n    tag_2:\n      0x00\n      dup1\n      revert\n        /* \"contracts/BankDao.sol\":1096:1193  function addViewer(address _address) public onlyOwner {... */\n    tag_3:\n      tag_7\n      0x04\n      dup1\n      calldatasize\n      sub\n      dup2\n      add\n      swap1\n      tag_8\n      swap2\n      swap1\n      tag_9\n      jump\t// in\n    tag_8:\n      tag_10\n      jump\t// in\n    tag_7:\n      stop\n        /* \"contracts/BankDao.sol\":1318:1440  function getBank(address _address) public view onlyViewers returns (Bank memory) {... */\n    tag_4:\n      tag_11\n      0x04\n      dup1\n      calldatasize\n      sub\n      dup2\n      add\n      swap1\n      tag_12\n      swap2\n      swap1\n      tag_9\n      jump\t// in\n    tag_12:\n      tag_13\n      jump\t// in\n    tag_11:\n      mload(0x40)\n      tag_14\n      swap2\n      swap1\n      tag_15\n      jump\t// in\n    tag_14:\n      mload(0x40)\n      dup1\n      swap2\n      sub\n      swap1\n      return\n        /* \"contracts/BankDao.sol\":1205:1306  function removeViewer(address _address) public onlyOwner {... */\n    tag_5:\n      tag_16\n      0x04\n      dup1\n      calldatasize\n      sub\n      dup2\n      add\n      swap1\n      tag_17\n      swap2\n      swap1\n      tag_9\n      jump\t// in\n    tag_17:\n      tag_18\n      jump\t// in\n    tag_16:\n      stop\n        /* \"contracts/BankDao.sol\":781:1084  function addBank(address _address, string memory _bankName, string memory _branch, string memory _ifscCode, string memory _district, string memory _state) public onlyOwner {... */\n    tag_6:\n      tag_19\n      0x04\n      dup1\n      calldatasize\n      sub\n      dup2\n      add\n      swap1\n      tag_20\n      swap2\n      swap1\n      tag_21\n      jump\t// in\n    tag_20:\n      tag_22\n      jump\t// in\n    tag_19:\n      stop\n        /* \"contracts/BankDao.sol\":1096:1193  function addViewer(address _address) public onlyOwner {... */\n    tag_10:\n        /* \"contracts/BankDao.sol\":544:549  owner */\n      0x00\n      dup1\n      sload\n      swap1\n      0x0100\n      exp\n      swap1\n      div\n      0xffffffffffffffffffffffffffffffffffffffff\n      and\n        /* \"contracts/BankDao.sol\":530:549  msg.sender == owner */\n      0xffffffffffffffffffffffffffffffffffffffff\n      and\n        /* \"contracts/BankDao.sol\":530:540  msg.sender */\n      caller\n        /* \"contracts/BankDao.sol\":530:549  msg.sender == owner */\n      0xffffffffffffffffffffffffffffffffffffffff\n      and\n      eq\n        /* \"contracts/BankDao.sol\":522:599  require(msg.sender == owner, \"Only the GTIDS admin can perform this action.\") */\n      tag_24\n      jumpi\n      mload(0x40)\n      0x08c379a000000000000000000000000000000000000000000000000000000000\n      dup2\n      mstore\n      0x04\n      add\n      tag_25\n      swap1\n      tag_26\n      jump\t// in\n    tag_25:\n      mload(0x40)\n      dup1\n      swap2\n      sub\n      swap1\n      revert\n    tag_24:\n        /* \"contracts/BankDao.sol\":1181:1185  true */\n      0x01\n        /* \"contracts/BankDao.sol\":1161:1168  viewers */\n      0x02\n        /* \"contracts/BankDao.sol\":1161:1178  viewers[_address] */\n      0x00\n        /* \"contracts/BankDao.sol\":1169:1177  _address */\n      dup4\n        /* \"contracts/BankDao.sol\":1161:1178  viewers[_address] */\n      0xffffffffffffffffffffffffffffffffffffffff\n      and\n      0xffffffffffffffffffffffffffffffffffffffff\n      and\n      dup2\n      mstore\n      0x20\n      add\n      swap1\n      dup2\n      mstore\n      0x20\n      add\n      0x00\n      keccak256\n      0x00\n        /* \"contracts/BankDao.sol\":1161:1185  viewers[_address] = true */\n      0x0100\n      exp\n      dup2\n      sload\n      dup2\n      0xff\n      mul\n      not\n      and\n      swap1\n      dup4\n      iszero\n      iszero\n      mul\n      or\n      swap1\n      sstore\n      pop\n        /* \"contracts/BankDao.sol\":1096:1193  function addViewer(address _address) public onlyOwner {... */\n      pop\n      jump\t// out\n        /* \"contracts/BankDao.sol\":1318:1440  function getBank(address _address) public view onlyViewers returns (Bank memory) {... */\n    tag_13:\n        /* \"contracts/BankDao.sol\":1386:1397  Bank memory */\n      tag_28\n      tag_29\n      jump\t// in\n    tag_28:\n        /* \"contracts/BankDao.sol\":673:680  viewers */\n      0x02\n        /* \"contracts/BankDao.sol\":673:692  viewers[msg.sender] */\n      0x00\n        /* \"contracts/BankDao.sol\":681:691  msg.sender */\n      caller\n        /* \"contracts/BankDao.sol\":673:692  viewers[msg.sender] */\n      0xffffffffffffffffffffffffffffffffffffffff\n      and\n      0xffffffffffffffffffffffffffffffffffffffff\n      and\n      dup2\n      mstore\n      0x20\n      add\n      swap1\n      dup2\n      mstore\n      0x20\n      add\n      0x00\n      keccak256\n      0x00\n      swap1\n      sload\n      swap1\n      0x0100\n      exp\n      swap1\n      div\n      0xff\n      and\n        /* \"contracts/BankDao.sol\":665:749  require(viewers[msg.sender], \"Only authorized viewers can access this information.\") */\n      tag_31\n      jumpi\n      mload(0x40)\n      0x08c379a000000000000000000000000000000000000000000000000000000000\n      dup2\n      mstore\n      0x04\n      add\n      tag_32\n      swap1\n      tag_33\n      jump\t// in\n    tag_32:\n      mload(0x40)\n      dup1\n      swap2\n      sub\n      swap1\n      revert\n    tag_31:\n        /* \"contracts/BankDao.sol\":1417:1422  banks */\n      0x01\n        /* \"contracts/BankDao.sol\":1417:1432  banks[_address] */\n      0x00\n        /* \"contracts/BankDao.sol\":1423:1431  _address */\n      dup4\n        /* \"contracts/BankDao.sol\":1417:1432  banks[_address] */\n      0xffffffffffffffffffffffffffffffffffffffff\n      and\n      0xffffffffffffffffffffffffffffffffffffffff\n      and\n      dup2\n      mstore\n      0x20\n      add\n      swap1\n      dup2\n      mstore\n      0x20\n      add\n      0x00\n      keccak256\n        /* \"contracts/BankDao.sol\":1410:1432  return banks[_address] */\n      mload(0x40)\n      dup1\n      0xa0\n      add\n      0x40\n      mstore\n      swap1\n      dup2\n      0x00\n      dup3\n      add\n      dup1\n      sload\n      tag_35\n      swap1\n      tag_36\n      jump\t// in\n    tag_35:\n      dup1\n      0x1f\n      add\n      0x20\n      dup1\n      swap2\n      div\n      mul\n      0x20\n      add\n      mload(0x40)\n      swap1\n      dup2\n      add\n      0x40\n      mstore\n      dup1\n      swap3\n      swap2\n      swap1\n      dup2\n      dup2\n      mstore\n      0x20\n      add\n      dup3\n      dup1\n      sload\n      tag_37\n      swap1\n      tag_36\n      jump\t// in\n    tag_37:\n      dup1\n      iszero\n      tag_38\n      jumpi\n      dup1\n      0x1f\n      lt\n      tag_39\n      jumpi\n      0x0100\n      dup1\n      dup4\n      sload\n      div\n      mul\n      dup4\n      mstore\n      swap2\n      0x20\n      add\n      swap2\n      jump(tag_38)\n    tag_39:\n      dup3\n      add\n      swap2\n      swap1\n      0x00\n      mstore\n      keccak256(0x00, 0x20)\n      swap1\n    tag_40:\n      dup2\n      sload\n      dup2\n      mstore\n      swap1\n      0x01\n      add\n      swap1\n      0x20\n      add\n      dup1\n      dup4\n      gt\n      tag_40\n      jumpi\n      dup3\n      swap1\n      sub\n      0x1f\n      and\n      dup3\n      add\n      swap2\n    tag_38:\n      pop\n      pop\n      pop\n      pop\n      pop\n      dup2\n      mstore\n      0x20\n      add\n      0x01\n      dup3\n      add\n      dup1\n      sload\n      tag_41\n      swap1\n      tag_36\n      jump\t// in\n    tag_41:\n      dup1\n      0x1f\n      add\n      0x20\n      dup1\n      swap2\n      div\n      mul\n      0x20\n      add\n      mload(0x40)\n      swap1\n      dup2\n      add\n      0x40\n      mstore\n      dup1\n      swap3\n      swap2\n      swap1\n      dup2\n      dup2\n      mstore\n      0x20\n      add\n      dup3\n      dup1\n      sload\n      tag_42\n      swap1\n      tag_36\n      jump\t// in\n    tag_42:\n      dup1\n      iszero\n      tag_43\n      jumpi\n      dup1\n      0x1f\n      lt\n      tag_44\n      jumpi\n      0x0100\n      dup1\n      dup4\n      sload\n      div\n      mul\n      dup4\n      mstore\n      swap2\n      0x20\n      add\n      swap2\n      jump(tag_43)\n    tag_44:\n      dup3\n      add\n      swap2\n      swap1\n      0x00\n      mstore\n      keccak256(0x00, 0x20)\n      swap1\n    tag_45:\n      dup2\n      sload\n      dup2\n      mstore\n      swap1\n      0x01\n      add\n      swap1\n      0x20\n      add\n      dup1\n      dup4\n      gt\n      tag_45\n      jumpi\n      dup3\n      swap1\n      sub\n      0x1f\n      and\n      dup3\n      add\n      swap2\n    tag_43:\n      pop\n      pop\n      pop\n      pop\n      pop\n      dup2\n      mstore\n      0x20\n      add\n      0x02\n      dup3\n      add\n      dup1\n      sload\n      tag_46\n      swap1\n      tag_36\n      jump\t// in\n    tag_46:\n      dup1\n      0x1f\n      add\n      0x20\n      dup1\n      swap2\n      div\n      mul\n      0x20\n      add\n      mload(0x40)\n      swap1\n      dup2\n      add\n      0x40\n      mstore\n      dup1\n      swap3\n      swap2\n      swap1\n      dup2\n      dup2\n      mstore\n      0x20\n      add\n      dup3\n      dup1\n      sload\n      tag_47\n      swap1\n      tag_36\n      jump\t// in\n    tag_47:\n      dup1\n      iszero\n      tag_48\n      jumpi\n      dup1\n      0x1f\n      lt\n      tag_49\n      jumpi\n      0x0100\n      dup1\n      dup4\n      sload\n      div\n      mul\n      dup4\n      mstore\n      swap2\n      0x20\n      add\n      swap2\n      jump(tag_48)\n    tag_49:\n      dup3\n      add\n      swap2\n      swap1\n      0x00\n      mstore\n      keccak256(0x00, 0x20)\n      swap1\n    tag_50:\n      dup2\n      sload\n      dup2\n      mstore\n      swap1\n      0x01\n      add\n      swap1\n      0x20\n      add\n      dup1\n      dup4\n      gt\n      tag_50\n      jumpi\n      dup3\n      swap1\n      sub\n      0x1f\n      and\n      dup3\n      add\n      swap2\n    tag_48:\n      pop\n      pop\n      pop\n      pop\n      pop\n      dup2\n      mstore\n      0x20\n      add\n      0x03\n      dup3\n      add\n      dup1\n      sload\n      tag_51\n      swap1\n      tag_36\n      jump\t// in\n    tag_51:\n      dup1\n      0x1f\n      add\n      0x20\n      dup1\n      swap2\n      div\n      mul\n      0x20\n      add\n      mload(0x40)\n      swap1\n      dup2\n      add\n      0x40\n      mstore\n      dup1\n      swap3\n      swap2\n      swap1\n      dup2\n      dup2\n      mstore\n      0x20\n      add\n      dup3\n      dup1\n      sload\n      tag_52\n      swap1\n      tag_36\n      jump\t// in\n    tag_52:\n      dup1\n      iszero\n      tag_53\n      jumpi\n      dup1\n      0x1f\n      lt\n      tag_54\n      jumpi\n      0x0100\n      dup1\n      dup4\n      sload\n      div\n      mul\n      dup4\n      mstore\n      swap2\n      0x20\n      add\n      swap2\n      jump(tag_53)\n    tag_54:\n      dup3\n      add\n      swap2\n      swap1\n      0x00\n      mstore\n      keccak256(0x00, 0x20)\n      swap1\n    tag_55:\n      dup2\n      sload\n      dup2\n      mstore\n      swap1\n      0x01\n      add\n      swap1\n      0x20\n      add\n      dup1\n      dup4\n      gt\n      tag_55\n      jumpi\n      dup3\n      swap1\n      sub\n      0x1f\n      and\n      dup3\n      add\n      swap2\n    tag_53:\n      pop\n      pop\n      pop\n      pop\n      pop\n      dup2\n      mstore\n      0x20\n      add\n      0x04\n      dup3\n      add\n      dup1\n      sload\n      tag_56\n      swap1\n      tag_36\n      jump\t// in\n    tag_56:\n      dup1\n      0x1f\n      add\n      0x20\n      dup1\n      swap2\n      div\n      mul\n      0x20\n      add\n      mload(0x40)\n      swap1\n      dup2\n      add\n      0x40\n      mstore\n      dup1\n      swap3\n      swap2\n      swap1\n      dup2\n      dup2\n      mstore\n      0x20\n      add\n      dup3\n      dup1\n      sload\n      tag_57\n      swap1\n      tag_36\n      jump\t// in\n    tag_57:\n      dup1\n      iszero\n      tag_58\n      jumpi\n      dup1\n      0x1f\n      lt\n      tag_59\n      jumpi\n      0x0100\n      dup1\n      dup4\n      sload\n      div\n      mul\n      dup4\n      mstore\n      swap2\n      0x20\n      add\n      swap2\n      jump(tag_58)\n    tag_59:\n      dup3\n      add\n      swap2\n      swap1\n      0x00\n      mstore\n      keccak256(0x00, 0x20)\n      swap1\n    tag_60:\n      dup2\n      sload\n      dup2\n      mstore\n      swap1\n      0x01\n      add\n      swap1\n      0x20\n      add\n      dup1\n      dup4\n      gt\n      tag_60\n      jumpi\n      dup3\n      swap1\n      sub\n      0x1f\n      and\n      dup3\n      add\n      swap2\n    tag_58:\n      pop\n      pop\n      pop\n      pop\n      pop\n      dup2\n      mstore\n      pop\n      pop\n      swap1\n      pop\n        /* \"contracts/BankDao.sol\":1318:1440  function getBank(address _address) public view onlyViewers returns (Bank memory) {... */\n      swap2\n      swap1\n      pop\n      jump\t// out\n        /* \"contracts/BankDao.sol\":1205:1306  function removeViewer(address _address) public onlyOwner {... */\n    tag_18:\n        /* \"contracts/BankDao.sol\":544:549  owner */\n      0x00\n      dup1\n      sload\n      swap1\n      0x0100\n      exp\n      swap1\n      div\n      0xffffffffffffffffffffffffffffffffffffffff\n      and\n        /* \"contracts/BankDao.sol\":530:549  msg.sender == owner */\n      0xffffffffffffffffffffffffffffffffffffffff\n      and\n        /* \"contracts/BankDao.sol\":530:540  msg.sender */\n      caller\n        /* \"contracts/BankDao.sol\":530:549  msg.sender == owner */\n      0xffffffffffffffffffffffffffffffffffffffff\n      and\n      eq\n        /* \"contracts/BankDao.sol\":522:599  require(msg.sender == owner, \"Only the GTIDS admin can perform this action.\") */\n      tag_62\n      jumpi\n      mload(0x40)\n      0x08c379a000000000000000000000000000000000000000000000000000000000\n      dup2\n      mstore\n      0x04\n      add\n      tag_63\n      swap1\n      tag_26\n      jump\t// in\n    tag_63:\n      mload(0x40)\n      dup1\n      swap2\n      sub\n      swap1\n      revert\n    tag_62:\n        /* \"contracts/BankDao.sol\":1293:1298  false */\n      0x00\n        /* \"contracts/BankDao.sol\":1273:1280  viewers */\n      0x02\n        /* \"contracts/BankDao.sol\":1273:1290  viewers[_address] */\n      0x00\n        /* \"contracts/BankDao.sol\":1281:1289  _address */\n      dup4\n        /* \"contracts/BankDao.sol\":1273:1290  viewers[_address] */\n      0xffffffffffffffffffffffffffffffffffffffff\n      and\n      0xffffffffffffffffffffffffffffffffffffffff\n      and\n      dup2\n      mstore\n      0x20\n      add\n      swap1\n      dup2\n      mstore\n      0x20\n      add\n      0x00\n      keccak256\n      0x00\n        /* \"contracts/BankDao.sol\":1273:1298  viewers[_address] = false */\n      0x0100\n      exp\n      dup2\n      sload\n      dup2\n      0xff\n      mul\n      not\n      and\n      swap1\n      dup4\n      iszero\n      iszero\n      mul\n      or\n      swap1\n      sstore\n      pop\n        /* \"contracts/BankDao.sol\":1205:1306  function removeViewer(address _address) public onlyOwner {... */\n      pop\n      jump\t// out\n        /* \"contracts/BankDao.sol\":781:1084  function addBank(address _address, string memory _bankName, string memory _branch, string memory _ifscCode, string memory _district, string memory _state) public onlyOwner {... */\n    tag_22:\n        /* \"contracts/BankDao.sol\":544:549  owner */\n      0x00\n      dup1\n      sload\n      swap1\n      0x0100\n      exp\n      swap1\n      div\n      0xffffffffffffffffffffffffffffffffffffffff\n      and\n        /* \"contracts/BankDao.sol\":530:549  msg.sender == owner */\n      0xffffffffffffffffffffffffffffffffffffffff\n      and\n        /* \"contracts/BankDao.sol\":530:540  msg.sender */\n      caller\n        /* \"contracts/BankDao.sol\":530:549  msg.sender == owner */\n      0xffffffffffffffffffffffffffffffffffffffff\n      and\n      eq\n        /* \"contracts/BankDao.sol\":522:599  require(msg.sender == owner, \"Only the GTIDS admin can perform this action.\") */\n      tag_66\n      jumpi\n      mload(0x40)\n      0x08c379a000000000000000000000000000000000000000000000000000000000\n      dup2\n      mstore\n      0x04\n      add\n      tag_67\n      swap1\n      tag_26\n      jump\t// in\n    tag_67:\n      mload(0x40)\n      dup1\n      swap2\n      sub\n      swap1\n      revert\n    tag_66:\n        /* \"contracts/BankDao.sol\":964:983  Bank memory newBank */\n      0x00\n        /* \"contracts/BankDao.sol\":986:1040  Bank(_bankName, _branch, _ifscCode, _district, _state) */\n      mload(0x40)\n      dup1\n      0xa0\n      add\n      0x40\n      mstore\n      dup1\n        /* \"contracts/BankDao.sol\":991:1000  _bankName */\n      dup8\n        /* \"contracts/BankDao.sol\":986:1040  Bank(_bankName, _branch, _ifscCode, _district, _state) */\n      dup2\n      mstore\n      0x20\n      add\n        /* \"contracts/BankDao.sol\":1002:1009  _branch */\n      dup7\n        /* \"contracts/BankDao.sol\":986:1040  Bank(_bankName, _branch, _ifscCode, _district, _state) */\n      dup2\n      mstore\n      0x20\n      add\n        /* \"contracts/BankDao.sol\":1011:1020  _ifscCode */\n      dup6\n        /* \"contracts/BankDao.sol\":986:1040  Bank(_bankName, _branch, _ifscCode, _district, _state) */\n      dup2\n      mstore\n      0x20\n      add\n        /* \"contracts/BankDao.sol\":1022:1031  _district */\n      dup5\n        /* \"contracts/BankDao.sol\":986:1040  Bank(_bankName, _branch, _ifscCode, _district, _state) */\n      dup2\n      mstore\n      0x20\n      add\n        /* \"contracts/BankDao.sol\":1033:1039  _state */\n      dup4\n        /* \"contracts/BankDao.sol\":986:1040  Bank(_bankName, _branch, _ifscCode, _district, _state) */\n      dup2\n      mstore\n      pop\n        /* \"contracts/BankDao.sol\":964:1040  Bank memory newBank = Bank(_bankName, _branch, _ifscCode, _district, _state) */\n      swap1\n      pop\n        /* \"contracts/BankDao.sol\":1069:1076  newBank */\n      dup1\n        /* \"contracts/BankDao.sol\":1051:1056  banks */\n      0x01\n        /* \"contracts/BankDao.sol\":1051:1066  banks[_address] */\n      0x00\n        /* \"contracts/BankDao.sol\":1057:1065  _address */\n      dup10\n        /* \"contracts/BankDao.sol\":1051:1066  banks[_address] */\n      0xffffffffffffffffffffffffffffffffffffffff\n      and\n      0xffffffffffffffffffffffffffffffffffffffff\n      and\n      dup2\n      mstore\n      0x20\n      add\n      swap1\n      dup2\n      mstore\n      0x20\n      add\n      0x00\n      keccak256\n        /* \"contracts/BankDao.sol\":1051:1076  banks[_address] = newBank */\n      0x00\n      dup3\n      add\n      mload\n      dup2\n      0x00\n      add\n      swap1\n      dup1\n      mload\n      swap1\n      0x20\n      add\n      swap1\n      tag_69\n      swap3\n      swap2\n      swap1\n      tag_70\n      jump\t// in\n    tag_69:\n      pop\n      0x20\n      dup3\n      add\n      mload\n      dup2\n      0x01\n      add\n      swap1\n      dup1\n      mload\n      swap1\n      0x20\n      add\n      swap1\n      tag_71\n      swap3\n      swap2\n      swap1\n      tag_70\n      jump\t// in\n    tag_71:\n      pop\n      0x40\n      dup3\n      add\n      mload\n      dup2\n      0x02\n      add\n      swap1\n      dup1\n      mload\n      swap1\n      0x20\n      add\n      swap1\n      tag_72\n      swap3\n      swap2\n      swap1\n      tag_70\n      jump\t// in\n    tag_72:\n      pop\n      0x60\n      dup3\n      add\n      mload\n      dup2\n      0x03\n      add\n      swap1\n      dup1\n      mload\n      swap1\n      0x20\n      add\n      swap1\n      tag_73\n      swap3\n      swap2\n      swap1\n      tag_70\n      jump\t// in\n    tag_73:\n      pop\n      0x80\n      dup3\n      add\n      mload\n      dup2\n      0x04\n      add\n      swap1\n      dup1\n      mload\n      swap1\n      0x20\n      add\n      swap1\n      tag_74\n      swap3\n      swap2\n      swap1\n      tag_70\n      jump\t// in\n    tag_74:\n      pop\n      swap1\n      pop\n      pop\n        /* \"contracts/BankDao.sol\":953:1084  {... */\n      pop\n        /* \"contracts/BankDao.sol\":781:1084  function addBank(address _address, string memory _bankName, string memory _branch, string memory _ifscCode, string memory _district, string memory _state) public onlyOwner {... */\n      pop\n      pop\n      pop\n      pop\n      pop\n      pop\n      jump\t// out\n    tag_29:\n      mload(0x40)\n      dup1\n      0xa0\n      add\n      0x40\n      mstore\n      dup1\n      0x60\n      dup2\n      mstore\n      0x20\n      add\n      0x60\n      dup2\n      mstore\n      0x20\n      add\n      0x60\n      dup2\n      mstore\n      0x20\n      add\n      0x60\n      dup2\n      mstore\n      0x20\n      add\n      0x60\n      dup2\n      mstore\n      pop\n      swap1\n      jump\t// out\n    tag_70:\n      dup3\n      dup1\n      sload\n      tag_75\n      swap1\n      tag_36\n      jump\t// in\n    tag_75:\n      swap1\n      0x00\n      mstore\n      keccak256(0x00, 0x20)\n      swap1\n      0x1f\n      add\n      0x20\n      swap1\n      div\n      dup2\n      add\n      swap3\n      dup3\n      tag_77\n      jumpi\n      0x00\n      dup6\n      sstore\n      jump(tag_76)\n    tag_77:\n      dup3\n      0x1f\n      lt\n      tag_78\n      jumpi\n      dup1\n      mload\n      not(0xff)\n      and\n      dup4\n      dup1\n      add\n      or\n      dup6\n      sstore\n      jump(tag_76)\n    tag_78:\n      dup3\n      dup1\n      add\n      0x01\n      add\n      dup6\n      sstore\n      dup3\n      iszero\n      tag_76\n      jumpi\n      swap2\n      dup3\n      add\n    tag_79:\n      dup3\n      dup2\n      gt\n      iszero\n      tag_80\n      jumpi\n      dup3\n      mload\n      dup3\n      sstore\n      swap2\n      0x20\n      add\n      swap2\n      swap1\n      0x01\n      add\n      swap1\n      jump(tag_79)\n    tag_80:\n    tag_76:\n      pop\n      swap1\n      pop\n      tag_81\n      swap2\n      swap1\n      tag_82\n      jump\t// in\n    tag_81:\n      pop\n      swap1\n      jump\t// out\n    tag_82:\n    tag_83:\n      dup1\n      dup3\n      gt\n      iszero\n      tag_84\n      jumpi\n      0x00\n      dup2\n      0x00\n      swap1\n      sstore\n      pop\n      0x01\n      add\n      jump(tag_83)\n    tag_84:\n      pop\n      swap1\n      jump\t// out\n        /* \"#utility.yul\":7:82   */\n    tag_85:\n        /* \"#utility.yul\":40:46   */\n      0x00\n        /* \"#utility.yul\":73:75   */\n      0x40\n        /* \"#utility.yul\":67:76   */\n      mload\n        /* \"#utility.yul\":57:76   */\n      swap1\n      pop\n        /* \"#utility.yul\":7:82   */\n      swap1\n      jump\t// out\n        /* \"#utility.yul\":88:205   */\n    tag_86:\n        /* \"#utility.yul\":197:198   */\n      0x00\n        /* \"#utility.yul\":194:195   */\n      dup1\n        /* \"#utility.yul\":187:199   */\n      revert\n        /* \"#utility.yul\":211:328   */\n    tag_87:\n        /* \"#utility.yul\":320:321   */\n      0x00\n        /* \"#utility.yul\":317:318   */\n      dup1\n        /* \"#utility.yul\":310:322   */\n      revert\n        /* \"#utility.yul\":334:460   */\n    tag_88:\n        /* \"#utility.yul\":371:378   */\n      0x00\n        /* \"#utility.yul\":411:453   */\n      0xffffffffffffffffffffffffffffffffffffffff\n        /* \"#utility.yul\":404:409   */\n      dup3\n        /* \"#utility.yul\":400:454   */\n      and\n        /* \"#utility.yul\":389:454   */\n      swap1\n      pop\n        /* \"#utility.yul\":334:460   */\n      swap2\n      swap1\n      pop\n      jump\t// out\n        /* \"#utility.yul\":466:562   */\n    tag_89:\n        /* \"#utility.yul\":503:510   */\n      0x00\n        /* \"#utility.yul\":532:556   */\n      tag_119\n        /* \"#utility.yul\":550:555   */\n      dup3\n        /* \"#utility.yul\":532:556   */\n      tag_88\n      jump\t// in\n    tag_119:\n        /* \"#utility.yul\":521:556   */\n      swap1\n      pop\n        /* \"#utility.yul\":466:562   */\n      swap2\n      swap1\n      pop\n      jump\t// out\n        /* \"#utility.yul\":568:690   */\n    tag_90:\n        /* \"#utility.yul\":641:665   */\n      tag_121\n        /* \"#utility.yul\":659:664   */\n      dup2\n        /* \"#utility.yul\":641:665   */\n      tag_89\n      jump\t// in\n    tag_121:\n        /* \"#utility.yul\":634:639   */\n      dup2\n        /* \"#utility.yul\":631:666   */\n      eq\n        /* \"#utility.yul\":621:684   */\n      tag_122\n      jumpi\n        /* \"#utility.yul\":680:681   */\n      0x00\n        /* \"#utility.yul\":677:678   */\n      dup1\n        /* \"#utility.yul\":670:682   */\n      revert\n        /* \"#utility.yul\":621:684   */\n    tag_122:\n        /* \"#utility.yul\":568:690   */\n      pop\n      jump\t// out\n        /* \"#utility.yul\":696:835   */\n    tag_91:\n        /* \"#utility.yul\":742:747   */\n      0x00\n        /* \"#utility.yul\":780:786   */\n      dup2\n        /* \"#utility.yul\":767:787   */\n      calldataload\n        /* \"#utility.yul\":758:787   */\n      swap1\n      pop\n        /* \"#utility.yul\":796:829   */\n      tag_124\n        /* \"#utility.yul\":823:828   */\n      dup2\n        /* \"#utility.yul\":796:829   */\n      tag_90\n      jump\t// in\n    tag_124:\n        /* \"#utility.yul\":696:835   */\n      swap3\n      swap2\n      pop\n      pop\n      jump\t// out\n        /* \"#utility.yul\":841:1170   */\n    tag_9:\n        /* \"#utility.yul\":900:906   */\n      0x00\n        /* \"#utility.yul\":949:951   */\n      0x20\n        /* \"#utility.yul\":937:946   */\n      dup3\n        /* \"#utility.yul\":928:935   */\n      dup5\n        /* \"#utility.yul\":924:947   */\n      sub\n        /* \"#utility.yul\":920:952   */\n      slt\n        /* \"#utility.yul\":917:1036   */\n      iszero\n      tag_126\n      jumpi\n        /* \"#utility.yul\":955:1034   */\n      tag_127\n      tag_86\n      jump\t// in\n    tag_127:\n        /* \"#utility.yul\":917:1036   */\n    tag_126:\n        /* \"#utility.yul\":1075:1076   */\n      0x00\n        /* \"#utility.yul\":1100:1153   */\n      tag_128\n        /* \"#utility.yul\":1145:1152   */\n      dup5\n        /* \"#utility.yul\":1136:1142   */\n      dup3\n        /* \"#utility.yul\":1125:1134   */\n      dup6\n        /* \"#utility.yul\":1121:1143   */\n      add\n        /* \"#utility.yul\":1100:1153   */\n      tag_91\n      jump\t// in\n    tag_128:\n        /* \"#utility.yul\":1090:1153   */\n      swap2\n      pop\n        /* \"#utility.yul\":1046:1163   */\n      pop\n        /* \"#utility.yul\":841:1170   */\n      swap3\n      swap2\n      pop\n      pop\n      jump\t// out\n        /* \"#utility.yul\":1176:1275   */\n    tag_92:\n        /* \"#utility.yul\":1228:1234   */\n      0x00\n        /* \"#utility.yul\":1262:1267   */\n      dup2\n        /* \"#utility.yul\":1256:1268   */\n      mload\n        /* \"#utility.yul\":1246:1268   */\n      swap1\n      pop\n        /* \"#utility.yul\":1176:1275   */\n      swap2\n      swap1\n      pop\n      jump\t// out\n        /* \"#utility.yul\":1281:1440   */\n    tag_93:\n        /* \"#utility.yul\":1355:1366   */\n      0x00\n        /* \"#utility.yul\":1389:1395   */\n      dup3\n        /* \"#utility.yul\":1384:1387   */\n      dup3\n        /* \"#utility.yul\":1377:1396   */\n      mstore\n        /* \"#utility.yul\":1429:1433   */\n      0x20\n        /* \"#utility.yul\":1424:1427   */\n      dup3\n        /* \"#utility.yul\":1420:1434   */\n      add\n        /* \"#utility.yul\":1405:1434   */\n      swap1\n      pop\n        /* \"#utility.yul\":1281:1440   */\n      swap3\n      swap2\n      pop\n      pop\n      jump\t// out\n        /* \"#utility.yul\":1446:1753   */\n    tag_94:\n        /* \"#utility.yul\":1514:1515   */\n      0x00\n        /* \"#utility.yul\":1524:1637   */\n    tag_132:\n        /* \"#utility.yul\":1538:1544   */\n      dup4\n        /* \"#utility.yul\":1535:1536   */\n      dup2\n        /* \"#utility.yul\":1532:1545   */\n      lt\n        /* \"#utility.yul\":1524:1637   */\n      iszero\n      tag_134\n      jumpi\n        /* \"#utility.yul\":1623:1624   */\n      dup1\n        /* \"#utility.yul\":1618:1621   */\n      dup3\n        /* \"#utility.yul\":1614:1625   */\n      add\n        /* \"#utility.yul\":1608:1626   */\n      mload\n        /* \"#utility.yul\":1604:1605   */\n      dup2\n        /* \"#utility.yul\":1599:1602   */\n      dup5\n        /* \"#utility.yul\":1595:1606   */\n      add\n        /* \"#utility.yul\":1588:1627   */\n      mstore\n        /* \"#utility.yul\":1560:1562   */\n      0x20\n        /* \"#utility.yul\":1557:1558   */\n      dup2\n        /* \"#utility.yul\":1553:1563   */\n      add\n        /* \"#utility.yul\":1548:1563   */\n      swap1\n      pop\n        /* \"#utility.yul\":1524:1637   */\n      jump(tag_132)\n    tag_134:\n        /* \"#utility.yul\":1655:1661   */\n      dup4\n        /* \"#utility.yul\":1652:1653   */\n      dup2\n        /* \"#utility.yul\":1649:1662   */\n      gt\n        /* \"#utility.yul\":1646:1747   */\n      iszero\n      tag_135\n      jumpi\n        /* \"#utility.yul\":1735:1736   */\n      0x00\n        /* \"#utility.yul\":1726:1732   */\n      dup5\n        /* \"#utility.yul\":1721:1724   */\n      dup5\n        /* \"#utility.yul\":1717:1733   */\n      add\n        /* \"#utility.yul\":1710:1737   */\n      mstore\n        /* \"#utility.yul\":1646:1747   */\n    tag_135:\n        /* \"#utility.yul\":1495:1753   */\n      pop\n        /* \"#utility.yul\":1446:1753   */\n      pop\n      pop\n      pop\n      jump\t// out\n        /* \"#utility.yul\":1759:1861   */\n    tag_95:\n        /* \"#utility.yul\":1800:1806   */\n      0x00\n        /* \"#utility.yul\":1851:1853   */\n      0x1f\n        /* \"#utility.yul\":1847:1854   */\n      not\n        /* \"#utility.yul\":1842:1844   */\n      0x1f\n        /* \"#utility.yul\":1835:1840   */\n      dup4\n        /* \"#utility.yul\":1831:1845   */\n      add\n        /* \"#utility.yul\":1827:1855   */\n      and\n        /* \"#utility.yul\":1817:1855   */\n      swap1\n      pop\n        /* \"#utility.yul\":1759:1861   */\n      swap2\n      swap1\n      pop\n      jump\t// out\n        /* \"#utility.yul\":1867:2211   */\n    tag_96:\n        /* \"#utility.yul\":1945:1948   */\n      0x00\n        /* \"#utility.yul\":1973:2012   */\n      tag_138\n        /* \"#utility.yul\":2006:2011   */\n      dup3\n        /* \"#utility.yul\":1973:2012   */\n      tag_92\n      jump\t// in\n    tag_138:\n        /* \"#utility.yul\":2028:2089   */\n      tag_139\n        /* \"#utility.yul\":2082:2088   */\n      dup2\n        /* \"#utility.yul\":2077:2080   */\n      dup6\n        /* \"#utility.yul\":2028:2089   */\n      tag_93\n      jump\t// in\n    tag_139:\n        /* \"#utility.yul\":2021:2089   */\n      swap4\n      pop\n        /* \"#utility.yul\":2098:2150   */\n      tag_140\n        /* \"#utility.yul\":2143:2149   */\n      dup2\n        /* \"#utility.yul\":2138:2141   */\n      dup6\n        /* \"#utility.yul\":2131:2135   */\n      0x20\n        /* \"#utility.yul\":2124:2129   */\n      dup7\n        /* \"#utility.yul\":2120:2136   */\n      add\n        /* \"#utility.yul\":2098:2150   */\n      tag_94\n      jump\t// in\n    tag_140:\n        /* \"#utility.yul\":2175:2204   */\n      tag_141\n        /* \"#utility.yul\":2197:2203   */\n      dup2\n        /* \"#utility.yul\":2175:2204   */\n      tag_95\n      jump\t// in\n    tag_141:\n        /* \"#utility.yul\":2170:2173   */\n      dup5\n        /* \"#utility.yul\":2166:2205   */\n      add\n        /* \"#utility.yul\":2159:2205   */\n      swap2\n      pop\n        /* \"#utility.yul\":1949:2211   */\n      pop\n        /* \"#utility.yul\":1867:2211   */\n      swap3\n      swap2\n      pop\n      pop\n      jump\t// out\n        /* \"#utility.yul\":2277:3694   */\n    tag_97:\n        /* \"#utility.yul\":2386:2389   */\n      0x00\n        /* \"#utility.yul\":2422:2426   */\n      0xa0\n        /* \"#utility.yul\":2417:2420   */\n      dup4\n        /* \"#utility.yul\":2413:2427   */\n      add\n        /* \"#utility.yul\":2513:2517   */\n      0x00\n        /* \"#utility.yul\":2506:2511   */\n      dup4\n        /* \"#utility.yul\":2502:2518   */\n      add\n        /* \"#utility.yul\":2496:2519   */\n      mload\n        /* \"#utility.yul\":2566:2569   */\n      dup5\n        /* \"#utility.yul\":2560:2564   */\n      dup3\n        /* \"#utility.yul\":2556:2570   */\n      sub\n        /* \"#utility.yul\":2549:2553   */\n      0x00\n        /* \"#utility.yul\":2544:2547   */\n      dup7\n        /* \"#utility.yul\":2540:2554   */\n      add\n        /* \"#utility.yul\":2533:2571   */\n      mstore\n        /* \"#utility.yul\":2592:2665   */\n      tag_143\n        /* \"#utility.yul\":2660:2664   */\n      dup3\n        /* \"#utility.yul\":2646:2658   */\n      dup3\n        /* \"#utility.yul\":2592:2665   */\n      tag_96\n      jump\t// in\n    tag_143:\n        /* \"#utility.yul\":2584:2665   */\n      swap2\n      pop\n        /* \"#utility.yul\":2437:2676   */\n      pop\n        /* \"#utility.yul\":2760:2764   */\n      0x20\n        /* \"#utility.yul\":2753:2758   */\n      dup4\n        /* \"#utility.yul\":2749:2765   */\n      add\n        /* \"#utility.yul\":2743:2766   */\n      mload\n        /* \"#utility.yul\":2813:2816   */\n      dup5\n        /* \"#utility.yul\":2807:2811   */\n      dup3\n        /* \"#utility.yul\":2803:2817   */\n      sub\n        /* \"#utility.yul\":2796:2800   */\n      0x20\n        /* \"#utility.yul\":2791:2794   */\n      dup7\n        /* \"#utility.yul\":2787:2801   */\n      add\n        /* \"#utility.yul\":2780:2818   */\n      mstore\n        /* \"#utility.yul\":2839:2912   */\n      tag_144\n        /* \"#utility.yul\":2907:2911   */\n      dup3\n        /* \"#utility.yul\":2893:2905   */\n      dup3\n        /* \"#utility.yul\":2839:2912   */\n      tag_96\n      jump\t// in\n    tag_144:\n        /* \"#utility.yul\":2831:2912   */\n      swap2\n      pop\n        /* \"#utility.yul\":2686:2923   */\n      pop\n        /* \"#utility.yul\":3009:3013   */\n      0x40\n        /* \"#utility.yul\":3002:3007   */\n      dup4\n        /* \"#utility.yul\":2998:3014   */\n      add\n        /* \"#utility.yul\":2992:3015   */\n      mload\n        /* \"#utility.yul\":3062:3065   */\n      dup5\n        /* \"#utility.yul\":3056:3060   */\n      dup3\n        /* \"#utility.yul\":3052:3066   */\n      sub\n        /* \"#utility.yul\":3045:3049   */\n      0x40\n        /* \"#utility.yul\":3040:3043   */\n      dup7\n        /* \"#utility.yul\":3036:3050   */\n      add\n        /* \"#utility.yul\":3029:3067   */\n      mstore\n        /* \"#utility.yul\":3088:3161   */\n      tag_145\n        /* \"#utility.yul\":3156:3160   */\n      dup3\n        /* \"#utility.yul\":3142:3154   */\n      dup3\n        /* \"#utility.yul\":3088:3161   */\n      tag_96\n      jump\t// in\n    tag_145:\n        /* \"#utility.yul\":3080:3161   */\n      swap2\n      pop\n        /* \"#utility.yul\":2933:3172   */\n      pop\n        /* \"#utility.yul\":3258:3262   */\n      0x60\n        /* \"#utility.yul\":3251:3256   */\n      dup4\n        /* \"#utility.yul\":3247:3263   */\n      add\n        /* \"#utility.yul\":3241:3264   */\n      mload\n        /* \"#utility.yul\":3311:3314   */\n      dup5\n        /* \"#utility.yul\":3305:3309   */\n      dup3\n        /* \"#utility.yul\":3301:3315   */\n      sub\n        /* \"#utility.yul\":3294:3298   */\n      0x60\n        /* \"#utility.yul\":3289:3292   */\n      dup7\n        /* \"#utility.yul\":3285:3299   */\n      add\n        /* \"#utility.yul\":3278:3316   */\n      mstore\n        /* \"#utility.yul\":3337:3410   */\n      tag_146\n        /* \"#utility.yul\":3405:3409   */\n      dup3\n        /* \"#utility.yul\":3391:3403   */\n      dup3\n        /* \"#utility.yul\":3337:3410   */\n      tag_96\n      jump\t// in\n    tag_146:\n        /* \"#utility.yul\":3329:3410   */\n      swap2\n      pop\n        /* \"#utility.yul\":3182:3421   */\n      pop\n        /* \"#utility.yul\":3504:3508   */\n      0x80\n        /* \"#utility.yul\":3497:3502   */\n      dup4\n        /* \"#utility.yul\":3493:3509   */\n      add\n        /* \"#utility.yul\":3487:3510   */\n      mload\n        /* \"#utility.yul\":3557:3560   */\n      dup5\n        /* \"#utility.yul\":3551:3555   */\n      dup3\n        /* \"#utility.yul\":3547:3561   */\n      sub\n        /* \"#utility.yul\":3540:3544   */\n      0x80\n        /* \"#utility.yul\":3535:3538   */\n      dup7\n        /* \"#utility.yul\":3531:3545   */\n      add\n        /* \"#utility.yul\":3524:3562   */\n      mstore\n        /* \"#utility.yul\":3583:3656   */\n      tag_147\n        /* \"#utility.yul\":3651:3655   */\n      dup3\n        /* \"#utility.yul\":3637:3649   */\n      dup3\n        /* \"#utility.yul\":3583:3656   */\n      tag_96\n      jump\t// in\n    tag_147:\n        /* \"#utility.yul\":3575:3656   */\n      swap2\n      pop\n        /* \"#utility.yul\":3431:3667   */\n      pop\n        /* \"#utility.yul\":3684:3688   */\n      dup1\n        /* \"#utility.yul\":3677:3688   */\n      swap2\n      pop\n        /* \"#utility.yul\":2391:3694   */\n      pop\n        /* \"#utility.yul\":2277:3694   */\n      swap3\n      swap2\n      pop\n      pop\n      jump\t// out\n        /* \"#utility.yul\":3700:4053   */\n    tag_15:\n        /* \"#utility.yul\":3833:3837   */\n      0x00\n        /* \"#utility.yul\":3871:3873   */\n      0x20\n        /* \"#utility.yul\":3860:3869   */\n      dup3\n        /* \"#utility.yul\":3856:3874   */\n      add\n        /* \"#utility.yul\":3848:3874   */\n      swap1\n      pop\n        /* \"#utility.yul\":3920:3929   */\n      dup2\n        /* \"#utility.yul\":3914:3918   */\n      dup2\n        /* \"#utility.yul\":3910:3930   */\n      sub\n        /* \"#utility.yul\":3906:3907   */\n      0x00\n        /* \"#utility.yul\":3895:3904   */\n      dup4\n        /* \"#utility.yul\":3891:3908   */\n      add\n        /* \"#utility.yul\":3884:3931   */\n      mstore\n        /* \"#utility.yul\":3948:4046   */\n      tag_149\n        /* \"#utility.yul\":4041:4045   */\n      dup2\n        /* \"#utility.yul\":4032:4038   */\n      dup5\n        /* \"#utility.yul\":3948:4046   */\n      tag_97\n      jump\t// in\n    tag_149:\n        /* \"#utility.yul\":3940:4046   */\n      swap1\n      pop\n        /* \"#utility.yul\":3700:4053   */\n      swap3\n      swap2\n      pop\n      pop\n      jump\t// out\n        /* \"#utility.yul\":4059:4176   */\n    tag_98:\n        /* \"#utility.yul\":4168:4169   */\n      0x00\n        /* \"#utility.yul\":4165:4166   */\n      dup1\n        /* \"#utility.yul\":4158:4170   */\n      revert\n        /* \"#utility.yul\":4182:4299   */\n    tag_99:\n        /* \"#utility.yul\":4291:4292   */\n      0x00\n        /* \"#utility.yul\":4288:4289   */\n      dup1\n        /* \"#utility.yul\":4281:4293   */\n      revert\n        /* \"#utility.yul\":4305:4485   */\n    tag_100:\n        /* \"#utility.yul\":4353:4430   */\n      0x4e487b7100000000000000000000000000000000000000000000000000000000\n        /* \"#utility.yul\":4350:4351   */\n      0x00\n        /* \"#utility.yul\":4343:4431   */\n      mstore\n        /* \"#utility.yul\":4450:4454   */\n      0x41\n        /* \"#utility.yul\":4447:4448   */\n      0x04\n        /* \"#utility.yul\":4440:4455   */\n      mstore\n        /* \"#utility.yul\":4474:4478   */\n      0x24\n        /* \"#utility.yul\":4471:4472   */\n      0x00\n        /* \"#utility.yul\":4464:4479   */\n      revert\n        /* \"#utility.yul\":4491:4772   */\n    tag_101:\n        /* \"#utility.yul\":4574:4601   */\n      tag_154\n        /* \"#utility.yul\":4596:4600   */\n      dup3\n        /* \"#utility.yul\":4574:4601   */\n      tag_95\n      jump\t// in\n    tag_154:\n        /* \"#utility.yul\":4566:4572   */\n      dup2\n        /* \"#utility.yul\":4562:4602   */\n      add\n        /* \"#utility.yul\":4704:4710   */\n      dup2\n        /* \"#utility.yul\":4692:4702   */\n      dup2\n        /* \"#utility.yul\":4689:4711   */\n      lt\n        /* \"#utility.yul\":4668:4686   */\n      0xffffffffffffffff\n        /* \"#utility.yul\":4656:4666   */\n      dup3\n        /* \"#utility.yul\":4653:4687   */\n      gt\n        /* \"#utility.yul\":4650:4712   */\n      or\n        /* \"#utility.yul\":4647:4735   */\n      iszero\n      tag_155\n      jumpi\n        /* \"#utility.yul\":4715:4733   */\n      tag_156\n      tag_100\n      jump\t// in\n    tag_156:\n        /* \"#utility.yul\":4647:4735   */\n    tag_155:\n        /* \"#utility.yul\":4755:4765   */\n      dup1\n        /* \"#utility.yul\":4751:4753   */\n      0x40\n        /* \"#utility.yul\":4744:4766   */\n      mstore\n        /* \"#utility.yul\":4534:4772   */\n      pop\n        /* \"#utility.yul\":4491:4772   */\n      pop\n      pop\n      jump\t// out\n        /* \"#utility.yul\":4778:4907   */\n    tag_102:\n        /* \"#utility.yul\":4812:4818   */\n      0x00\n        /* \"#utility.yul\":4839:4859   */\n      tag_158\n      tag_85\n      jump\t// in\n    tag_158:\n        /* \"#utility.yul\":4829:4859   */\n      swap1\n      pop\n        /* \"#utility.yul\":4868:4901   */\n      tag_159\n        /* \"#utility.yul\":4896:4900   */\n      dup3\n        /* \"#utility.yul\":4888:4894   */\n      dup3\n        /* \"#utility.yul\":4868:4901   */\n      tag_101\n      jump\t// in\n    tag_159:\n        /* \"#utility.yul\":4778:4907   */\n      swap2\n      swap1\n      pop\n      jump\t// out\n        /* \"#utility.yul\":4913:5221   */\n    tag_103:\n        /* \"#utility.yul\":4975:4979   */\n      0x00\n        /* \"#utility.yul\":5065:5083   */\n      0xffffffffffffffff\n        /* \"#utility.yul\":5057:5063   */\n      dup3\n        /* \"#utility.yul\":5054:5084   */\n      gt\n        /* \"#utility.yul\":5051:5107   */\n      iszero\n      tag_161\n      jumpi\n        /* \"#utility.yul\":5087:5105   */\n      tag_162\n      tag_100\n      jump\t// in\n    tag_162:\n        /* \"#utility.yul\":5051:5107   */\n    tag_161:\n        /* \"#utility.yul\":5125:5154   */\n      tag_163\n        /* \"#utility.yul\":5147:5153   */\n      dup3\n        /* \"#utility.yul\":5125:5154   */\n      tag_95\n      jump\t// in\n    tag_163:\n        /* \"#utility.yul\":5117:5154   */\n      swap1\n      pop\n        /* \"#utility.yul\":5209:5213   */\n      0x20\n        /* \"#utility.yul\":5203:5207   */\n      dup2\n        /* \"#utility.yul\":5199:5214   */\n      add\n        /* \"#utility.yul\":5191:5214   */\n      swap1\n      pop\n        /* \"#utility.yul\":4913:5221   */\n      swap2\n      swap1\n      pop\n      jump\t// out\n        /* \"#utility.yul\":5227:5381   */\n    tag_104:\n        /* \"#utility.yul\":5311:5317   */\n      dup3\n        /* \"#utility.yul\":5306:5309   */\n      dup2\n        /* \"#utility.yul\":5301:5304   */\n      dup4\n        /* \"#utility.yul\":5288:5318   */\n      calldatacopy\n        /* \"#utility.yul\":5373:5374   */\n      0x00\n        /* \"#utility.yul\":5364:5370   */\n      dup4\n        /* \"#utility.yul\":5359:5362   */\n      dup4\n        /* \"#utility.yul\":5355:5371   */\n      add\n        /* \"#utility.yul\":5348:5375   */\n      mstore\n        /* \"#utility.yul\":5227:5381   */\n      pop\n      pop\n      pop\n      jump\t// out\n        /* \"#utility.yul\":5387:5799   */\n    tag_105:\n        /* \"#utility.yul\":5465:5470   */\n      0x00\n        /* \"#utility.yul\":5490:5556   */\n      tag_166\n        /* \"#utility.yul\":5506:5555   */\n      tag_167\n        /* \"#utility.yul\":5548:5554   */\n      dup5\n        /* \"#utility.yul\":5506:5555   */\n      tag_103\n      jump\t// in\n    tag_167:\n        /* \"#utility.yul\":5490:5556   */\n      tag_102\n      jump\t// in\n    tag_166:\n        /* \"#utility.yul\":5481:5556   */\n      swap1\n      pop\n        /* \"#utility.yul\":5579:5585   */\n      dup3\n        /* \"#utility.yul\":5572:5577   */\n      dup2\n        /* \"#utility.yul\":5565:5586   */\n      mstore\n        /* \"#utility.yul\":5617:5621   */\n      0x20\n        /* \"#utility.yul\":5610:5615   */\n      dup2\n        /* \"#utility.yul\":5606:5622   */\n      add\n        /* \"#utility.yul\":5655:5658   */\n      dup5\n        /* \"#utility.yul\":5646:5652   */\n      dup5\n        /* \"#utility.yul\":5641:5644   */\n      dup5\n        /* \"#utility.yul\":5637:5653   */\n      add\n        /* \"#utility.yul\":5634:5659   */\n      gt\n        /* \"#utility.yul\":5631:5743   */\n      iszero\n      tag_168\n      jumpi\n        /* \"#utility.yul\":5662:5741   */\n      tag_169\n      tag_99\n      jump\t// in\n    tag_169:\n        /* \"#utility.yul\":5631:5743   */\n    tag_168:\n        /* \"#utility.yul\":5752:5793   */\n      tag_170\n        /* \"#utility.yul\":5786:5792   */\n      dup5\n        /* \"#utility.yul\":5781:5784   */\n      dup3\n        /* \"#utility.yul\":5776:5779   */\n      dup6\n        /* \"#utility.yul\":5752:5793   */\n      tag_104\n      jump\t// in\n    tag_170:\n        /* \"#utility.yul\":5471:5799   */\n      pop\n        /* \"#utility.yul\":5387:5799   */\n      swap4\n      swap3\n      pop\n      pop\n      pop\n      jump\t// out\n        /* \"#utility.yul\":5819:6159   */\n    tag_106:\n        /* \"#utility.yul\":5875:5880   */\n      0x00\n        /* \"#utility.yul\":5924:5927   */\n      dup3\n        /* \"#utility.yul\":5917:5921   */\n      0x1f\n        /* \"#utility.yul\":5909:5915   */\n      dup4\n        /* \"#utility.yul\":5905:5922   */\n      add\n        /* \"#utility.yul\":5901:5928   */\n      slt\n        /* \"#utility.yul\":5891:6013   */\n      tag_172\n      jumpi\n        /* \"#utility.yul\":5932:6011   */\n      tag_173\n      tag_98\n      jump\t// in\n    tag_173:\n        /* \"#utility.yul\":5891:6013   */\n    tag_172:\n        /* \"#utility.yul\":6049:6055   */\n      dup2\n        /* \"#utility.yul\":6036:6056   */\n      calldataload\n        /* \"#utility.yul\":6074:6153   */\n      tag_174\n        /* \"#utility.yul\":6149:6152   */\n      dup5\n        /* \"#utility.yul\":6141:6147   */\n      dup3\n        /* \"#utility.yul\":6134:6138   */\n      0x20\n        /* \"#utility.yul\":6126:6132   */\n      dup7\n        /* \"#utility.yul\":6122:6139   */\n      add\n        /* \"#utility.yul\":6074:6153   */\n      tag_105\n      jump\t// in\n    tag_174:\n        /* \"#utility.yul\":6065:6153   */\n      swap2\n      pop\n        /* \"#utility.yul\":5881:6159   */\n      pop\n        /* \"#utility.yul\":5819:6159   */\n      swap3\n      swap2\n      pop\n      pop\n      jump\t// out\n        /* \"#utility.yul\":6165:8122   */\n    tag_21:\n        /* \"#utility.yul\":6319:6325   */\n      0x00\n        /* \"#utility.yul\":6327:6333   */\n      dup1\n        /* \"#utility.yul\":6335:6341   */\n      0x00\n        /* \"#utility.yul\":6343:6349   */\n      dup1\n        /* \"#utility.yul\":6351:6357   */\n      0x00\n        /* \"#utility.yul\":6359:6365   */\n      dup1\n        /* \"#utility.yul\":6408:6411   */\n      0xc0\n        /* \"#utility.yul\":6396:6405   */\n      dup8\n        /* \"#utility.yul\":6387:6394   */\n      dup10\n        /* \"#utility.yul\":6383:6406   */\n      sub\n        /* \"#utility.yul\":6379:6412   */\n      slt\n        /* \"#utility.yul\":6376:6496   */\n      iszero\n      tag_176\n      jumpi\n        /* \"#utility.yul\":6415:6494   */\n      tag_177\n      tag_86\n      jump\t// in\n    tag_177:\n        /* \"#utility.yul\":6376:6496   */\n    tag_176:\n        /* \"#utility.yul\":6535:6536   */\n      0x00\n        /* \"#utility.yul\":6560:6613   */\n      tag_178\n        /* \"#utility.yul\":6605:6612   */\n      dup10\n        /* \"#utility.yul\":6596:6602   */\n      dup3\n        /* \"#utility.yul\":6585:6594   */\n      dup11\n        /* \"#utility.yul\":6581:6603   */\n      add\n        /* \"#utility.yul\":6560:6613   */\n      tag_91\n      jump\t// in\n    tag_178:\n        /* \"#utility.yul\":6550:6613   */\n      swap7\n      pop\n        /* \"#utility.yul\":6506:6623   */\n      pop\n        /* \"#utility.yul\":6690:6692   */\n      0x20\n        /* \"#utility.yul\":6679:6688   */\n      dup8\n        /* \"#utility.yul\":6675:6693   */\n      add\n        /* \"#utility.yul\":6662:6694   */\n      calldataload\n        /* \"#utility.yul\":6721:6739   */\n      0xffffffffffffffff\n        /* \"#utility.yul\":6713:6719   */\n      dup2\n        /* \"#utility.yul\":6710:6740   */\n      gt\n        /* \"#utility.yul\":6707:6824   */\n      iszero\n      tag_179\n      jumpi\n        /* \"#utility.yul\":6743:6822   */\n      tag_180\n      tag_87\n      jump\t// in\n    tag_180:\n        /* \"#utility.yul\":6707:6824   */\n    tag_179:\n        /* \"#utility.yul\":6848:6911   */\n      tag_181\n        /* \"#utility.yul\":6903:6910   */\n      dup10\n        /* \"#utility.yul\":6894:6900   */\n      dup3\n        /* \"#utility.yul\":6883:6892   */\n      dup11\n        /* \"#utility.yul\":6879:6901   */\n      add\n        /* \"#utility.yul\":6848:6911   */\n      tag_106\n      jump\t// in\n    tag_181:\n        /* \"#utility.yul\":6838:6911   */\n      swap6\n      pop\n        /* \"#utility.yul\":6633:6921   */\n      pop\n        /* \"#utility.yul\":6988:6990   */\n      0x40\n        /* \"#utility.yul\":6977:6986   */\n      dup8\n        /* \"#utility.yul\":6973:6991   */\n      add\n        /* \"#utility.yul\":6960:6992   */\n      calldataload\n        /* \"#utility.yul\":7019:7037   */\n      0xffffffffffffffff\n        /* \"#utility.yul\":7011:7017   */\n      dup2\n        /* \"#utility.yul\":7008:7038   */\n      gt\n        /* \"#utility.yul\":7005:7122   */\n      iszero\n      tag_182\n      jumpi\n        /* \"#utility.yul\":7041:7120   */\n      tag_183\n      tag_87\n      jump\t// in\n    tag_183:\n        /* \"#utility.yul\":7005:7122   */\n    tag_182:\n        /* \"#utility.yul\":7146:7209   */\n      tag_184\n        /* \"#utility.yul\":7201:7208   */\n      dup10\n        /* \"#utility.yul\":7192:7198   */\n      dup3\n        /* \"#utility.yul\":7181:7190   */\n      dup11\n        /* \"#utility.yul\":7177:7199   */\n      add\n        /* \"#utility.yul\":7146:7209   */\n      tag_106\n      jump\t// in\n    tag_184:\n        /* \"#utility.yul\":7136:7209   */\n      swap5\n      pop\n        /* \"#utility.yul\":6931:7219   */\n      pop\n        /* \"#utility.yul\":7286:7288   */\n      0x60\n        /* \"#utility.yul\":7275:7284   */\n      dup8\n        /* \"#utility.yul\":7271:7289   */\n      add\n        /* \"#utility.yul\":7258:7290   */\n      calldataload\n        /* \"#utility.yul\":7317:7335   */\n      0xffffffffffffffff\n        /* \"#utility.yul\":7309:7315   */\n      dup2\n        /* \"#utility.yul\":7306:7336   */\n      gt\n        /* \"#utility.yul\":7303:7420   */\n      iszero\n      tag_185\n      jumpi\n        /* \"#utility.yul\":7339:7418   */\n      tag_186\n      tag_87\n      jump\t// in\n    tag_186:\n        /* \"#utility.yul\":7303:7420   */\n    tag_185:\n        /* \"#utility.yul\":7444:7507   */\n      tag_187\n        /* \"#utility.yul\":7499:7506   */\n      dup10\n        /* \"#utility.yul\":7490:7496   */\n      dup3\n        /* \"#utility.yul\":7479:7488   */\n      dup11\n        /* \"#utility.yul\":7475:7497   */\n      add\n        /* \"#utility.yul\":7444:7507   */\n      tag_106\n      jump\t// in\n    tag_187:\n        /* \"#utility.yul\":7434:7507   */\n      swap4\n      pop\n        /* \"#utility.yul\":7229:7517   */\n      pop\n        /* \"#utility.yul\":7584:7587   */\n      0x80\n        /* \"#utility.yul\":7573:7582   */\n      dup8\n        /* \"#utility.yul\":7569:7588   */\n      add\n        /* \"#utility.yul\":7556:7589   */\n      calldataload\n        /* \"#utility.yul\":7616:7634   */\n      0xffffffffffffffff\n        /* \"#utility.yul\":7608:7614   */\n      dup2\n        /* \"#utility.yul\":7605:7635   */\n      gt\n        /* \"#utility.yul\":7602:7719   */\n      iszero\n      tag_188\n      jumpi\n        /* \"#utility.yul\":7638:7717   */\n      tag_189\n      tag_87\n      jump\t// in\n    tag_189:\n        /* \"#utility.yul\":7602:7719   */\n    tag_188:\n        /* \"#utility.yul\":7743:7806   */\n      tag_190\n        /* \"#utility.yul\":7798:7805   */\n      dup10\n        /* \"#utility.yul\":7789:7795   */\n      dup3\n        /* \"#utility.yul\":7778:7787   */\n      dup11\n        /* \"#utility.yul\":7774:7796   */\n      add\n        /* \"#utility.yul\":7743:7806   */\n      tag_106\n      jump\t// in\n    tag_190:\n        /* \"#utility.yul\":7733:7806   */\n      swap3\n      pop\n        /* \"#utility.yul\":7527:7816   */\n      pop\n        /* \"#utility.yul\":7883:7886   */\n      0xa0\n        /* \"#utility.yul\":7872:7881   */\n      dup8\n        /* \"#utility.yul\":7868:7887   */\n      add\n        /* \"#utility.yul\":7855:7888   */\n      calldataload\n        /* \"#utility.yul\":7915:7933   */\n      0xffffffffffffffff\n        /* \"#utility.yul\":7907:7913   */\n      dup2\n        /* \"#utility.yul\":7904:7934   */\n      gt\n        /* \"#utility.yul\":7901:8018   */\n      iszero\n      tag_191\n      jumpi\n        /* \"#utility.yul\":7937:8016   */\n      tag_192\n      tag_87\n      jump\t// in\n    tag_192:\n        /* \"#utility.yul\":7901:8018   */\n    tag_191:\n        /* \"#utility.yul\":8042:8105   */\n      tag_193\n        /* \"#utility.yul\":8097:8104   */\n      dup10\n        /* \"#utility.yul\":8088:8094   */\n      dup3\n        /* \"#utility.yul\":8077:8086   */\n      dup11\n        /* \"#utility.yul\":8073:8095   */\n      add\n        /* \"#utility.yul\":8042:8105   */\n      tag_106\n      jump\t// in\n    tag_193:\n        /* \"#utility.yul\":8032:8105   */\n      swap2\n      pop\n        /* \"#utility.yul\":7826:8115   */\n      pop\n        /* \"#utility.yul\":6165:8122   */\n      swap3\n      swap6\n      pop\n      swap3\n      swap6\n      pop\n      swap3\n      swap6\n      jump\t// out\n        /* \"#utility.yul\":8128:8297   */\n    tag_107:\n        /* \"#utility.yul\":8212:8223   */\n      0x00\n        /* \"#utility.yul\":8246:8252   */\n      dup3\n        /* \"#utility.yul\":8241:8244   */\n      dup3\n        /* \"#utility.yul\":8234:8253   */\n      mstore\n        /* \"#utility.yul\":8286:8290   */\n      0x20\n        /* \"#utility.yul\":8281:8284   */\n      dup3\n        /* \"#utility.yul\":8277:8291   */\n      add\n        /* \"#utility.yul\":8262:8291   */\n      swap1\n      pop\n        /* \"#utility.yul\":8128:8297   */\n      swap3\n      swap2\n      pop\n      pop\n      jump\t// out\n        /* \"#utility.yul\":8303:8535   */\n    tag_108:\n        /* \"#utility.yul\":8443:8477   */\n      0x4f6e6c79207468652047544944532061646d696e2063616e20706572666f726d\n        /* \"#utility.yul\":8439:8440   */\n      0x00\n        /* \"#utility.yul\":8431:8437   */\n      dup3\n        /* \"#utility.yul\":8427:8441   */\n      add\n        /* \"#utility.yul\":8420:8478   */\n      mstore\n        /* \"#utility.yul\":8512:8527   */\n      0x207468697320616374696f6e2e00000000000000000000000000000000000000\n        /* \"#utility.yul\":8507:8509   */\n      0x20\n        /* \"#utility.yul\":8499:8505   */\n      dup3\n        /* \"#utility.yul\":8495:8510   */\n      add\n        /* \"#utility.yul\":8488:8528   */\n      mstore\n        /* \"#utility.yul\":8303:8535   */\n      pop\n      jump\t// out\n        /* \"#utility.yul\":8541:8907   */\n    tag_109:\n        /* \"#utility.yul\":8683:8686   */\n      0x00\n        /* \"#utility.yul\":8704:8771   */\n      tag_197\n        /* \"#utility.yul\":8768:8770   */\n      0x2d\n        /* \"#utility.yul\":8763:8766   */\n      dup4\n        /* \"#utility.yul\":8704:8771   */\n      tag_107\n      jump\t// in\n    tag_197:\n        /* \"#utility.yul\":8697:8771   */\n      swap2\n      pop\n        /* \"#utility.yul\":8780:8873   */\n      tag_198\n        /* \"#utility.yul\":8869:8872   */\n      dup3\n        /* \"#utility.yul\":8780:8873   */\n      tag_108\n      jump\t// in\n    tag_198:\n        /* \"#utility.yul\":8898:8900   */\n      0x40\n        /* \"#utility.yul\":8893:8896   */\n      dup3\n        /* \"#utility.yul\":8889:8901   */\n      add\n        /* \"#utility.yul\":8882:8901   */\n      swap1\n      pop\n        /* \"#utility.yul\":8541:8907   */\n      swap2\n      swap1\n      pop\n      jump\t// out\n        /* \"#utility.yul\":8913:9332   */\n    tag_26:\n        /* \"#utility.yul\":9079:9083   */\n      0x00\n        /* \"#utility.yul\":9117:9119   */\n      0x20\n        /* \"#utility.yul\":9106:9115   */\n      dup3\n        /* \"#utility.yul\":9102:9120   */\n      add\n        /* \"#utility.yul\":9094:9120   */\n      swap1\n      pop\n        /* \"#utility.yul\":9166:9175   */\n      dup2\n        /* \"#utility.yul\":9160:9164   */\n      dup2\n        /* \"#utility.yul\":9156:9176   */\n      sub\n        /* \"#utility.yul\":9152:9153   */\n      0x00\n        /* \"#utility.yul\":9141:9150   */\n      dup4\n        /* \"#utility.yul\":9137:9154   */\n      add\n        /* \"#utility.yul\":9130:9177   */\n      mstore\n        /* \"#utility.yul\":9194:9325   */\n      tag_200\n        /* \"#utility.yul\":9320:9324   */\n      dup2\n        /* \"#utility.yul\":9194:9325   */\n      tag_109\n      jump\t// in\n    tag_200:\n        /* \"#utility.yul\":9186:9325   */\n      swap1\n      pop\n        /* \"#utility.yul\":8913:9332   */\n      swap2\n      swap1\n      pop\n      jump\t// out\n        /* \"#utility.yul\":9338:9577   */\n    tag_110:\n        /* \"#utility.yul\":9478:9512   */\n      0x4f6e6c7920617574686f72697a656420766965776572732063616e2061636365\n        /* \"#utility.yul\":9474:9475   */\n      0x00\n        /* \"#utility.yul\":9466:9472   */\n      dup3\n        /* \"#utility.yul\":9462:9476   */\n      add\n        /* \"#utility.yul\":9455:9513   */\n      mstore\n        /* \"#utility.yul\":9547:9569   */\n      0x7373207468697320696e666f726d6174696f6e2e000000000000000000000000\n        /* \"#utility.yul\":9542:9544   */\n      0x20\n        /* \"#utility.yul\":9534:9540   */\n      dup3\n        /* \"#utility.yul\":9530:9545   */\n      add\n        /* \"#utility.yul\":9523:9570   */\n      mstore\n        /* \"#utility.yul\":9338:9577   */\n      pop\n      jump\t// out\n        /* \"#utility.yul\":9583:9949   */\n    tag_111:\n        /* \"#utility.yul\":9725:9728   */\n      0x00\n        /* \"#utility.yul\":9746:9813   */\n      tag_203\n        /* \"#utility.yul\":9810:9812   */\n      0x34\n        /* \"#utility.yul\":9805:9808   */\n      dup4\n        /* \"#utility.yul\":9746:9813   */\n      tag_107\n      jump\t// in\n    tag_203:\n        /* \"#utility.yul\":9739:9813   */\n      swap2\n      pop\n        /* \"#utility.yul\":9822:9915   */\n      tag_204\n        /* \"#utility.yul\":9911:9914   */\n      dup3\n        /* \"#utility.yul\":9822:9915   */\n      tag_110\n      jump\t// in\n    tag_204:\n        /* \"#utility.yul\":9940:9942   */\n      0x40\n        /* \"#utility.yul\":9935:9938   */\n      dup3\n        /* \"#utility.yul\":9931:9943   */\n      add\n        /* \"#utility.yul\":9924:9943   */\n      swap1\n      pop\n        /* \"#utility.yul\":9583:9949   */\n      swap2\n      swap1\n      pop\n      jump\t// out\n        /* \"#utility.yul\":9955:10374   */\n    tag_33:\n        /* \"#utility.yul\":10121:10125   */\n      0x00\n        /* \"#utility.yul\":10159:10161   */\n      0x20\n        /* \"#utility.yul\":10148:10157   */\n      dup3\n        /* \"#utility.yul\":10144:10162   */\n      add\n        /* \"#utility.yul\":10136:10162   */\n      swap1\n      pop\n        /* \"#utility.yul\":10208:10217   */\n      dup2\n        /* \"#utility.yul\":10202:10206   */\n      dup2\n        /* \"#utility.yul\":10198:10218   */\n      sub\n        /* \"#utility.yul\":10194:10195   */\n      0x00\n        /* \"#utility.yul\":10183:10192   */\n      dup4\n        /* \"#utility.yul\":10179:10196   */\n      add\n        /* \"#utility.yul\":10172:10219   */\n      mstore\n        /* \"#utility.yul\":10236:10367   */\n      tag_206\n        /* \"#utility.yul\":10362:10366   */\n      dup2\n        /* \"#utility.yul\":10236:10367   */\n      tag_111\n      jump\t// in\n    tag_206:\n        /* \"#utility.yul\":10228:10367   */\n      swap1\n      pop\n        /* \"#utility.yul\":9955:10374   */\n      swap2\n      swap1\n      pop\n      jump\t// out\n        /* \"#utility.yul\":10380:10560   */\n    tag_112:\n        /* \"#utility.yul\":10428:10505   */\n      0x4e487b7100000000000000000000000000000000000000000000000000000000\n        /* \"#utility.yul\":10425:10426   */\n      0x00\n        /* \"#utility.yul\":10418:10506   */\n      mstore\n        /* \"#utility.yul\":10525:10529   */\n      0x22\n        /* \"#utility.yul\":10522:10523   */\n      0x04\n        /* \"#utility.yul\":10515:10530   */\n      mstore\n        /* \"#utility.yul\":10549:10553   */\n      0x24\n        /* \"#utility.yul\":10546:10547   */\n      0x00\n        /* \"#utility.yul\":10539:10554   */\n      revert\n        /* \"#utility.yul\":10566:10886   */\n    tag_36:\n        /* \"#utility.yul\":10610:10616   */\n      0x00\n        /* \"#utility.yul\":10647:10648   */\n      0x02\n        /* \"#utility.yul\":10641:10645   */\n      dup3\n        /* \"#utility.yul\":10637:10649   */\n      div\n        /* \"#utility.yul\":10627:10649   */\n      swap1\n      pop\n        /* \"#utility.yul\":10694:10695   */\n      0x01\n        /* \"#utility.yul\":10688:10692   */\n      dup3\n        /* \"#utility.yul\":10684:10696   */\n      and\n        /* \"#utility.yul\":10715:10733   */\n      dup1\n        /* \"#utility.yul\":10705:10786   */\n      tag_209\n      jumpi\n        /* \"#utility.yul\":10771:10775   */\n      0x7f\n        /* \"#utility.yul\":10763:10769   */\n      dup3\n        /* \"#utility.yul\":10759:10776   */\n      and\n        /* \"#utility.yul\":10749:10776   */\n      swap2\n      pop\n        /* \"#utility.yul\":10705:10786   */\n    tag_209:\n        /* \"#utility.yul\":10833:10835   */\n      0x20\n        /* \"#utility.yul\":10825:10831   */\n      dup3\n        /* \"#utility.yul\":10822:10836   */\n      lt\n        /* \"#utility.yul\":10802:10820   */\n      dup2\n        /* \"#utility.yul\":10799:10837   */\n      sub\n        /* \"#utility.yul\":10796:10880   */\n      tag_210\n      jumpi\n        /* \"#utility.yul\":10852:10870   */\n      tag_211\n      tag_112\n      jump\t// in\n    tag_211:\n        /* \"#utility.yul\":10796:10880   */\n    tag_210:\n        /* \"#utility.yul\":10617:10886   */\n      pop\n        /* \"#utility.yul\":10566:10886   */\n      swap2\n      swap1\n      pop\n      jump\t// out\n\n    auxdata: 0xa2646970667358221220068e4facfbae0519ca062006a0b3e5e69d555dab9760c8ed637abe6aacd25dc464736f6c634300080d0033\n}\n",
				"bytecode": {
					"linkReferences": {},
					"object": "608060405234801561001057600080fd5b50604051620010453803806200104583398181016040528101906100349190610135565b806000806101000a81548173ffffffffffffffffffffffffffffffffffffffff021916908373ffffffffffffffffffffffffffffffffffffffff1602179055506001600260008373ffffffffffffffffffffffffffffffffffffffff1673ffffffffffffffffffffffffffffffffffffffff16815260200190815260200160002060006101000a81548160ff02191690831515021790555050610162565b600080fd5b600073ffffffffffffffffffffffffffffffffffffffff82169050919050565b6000610102826100d7565b9050919050565b610112816100f7565b811461011d57600080fd5b50565b60008151905061012f81610109565b92915050565b60006020828403121561014b5761014a6100d2565b5b600061015984828501610120565b91505092915050565b610ed380620001726000396000f3fe608060405234801561001057600080fd5b506004361061004c5760003560e01c8063601f8cf51461005157806383e0c31d1461006d578063d1d989141461009d578063de71f52f146100b9575b600080fd5b61006b60048036038101906100669190610940565b6100d5565b005b61008760048036038101906100829190610940565b6101be565b6040516100949190610a98565b60405180910390f35b6100b760048036038101906100b29190610940565b61057d565b005b6100d360048036038101906100ce9190610bef565b610666565b005b60008054906101000a900473ffffffffffffffffffffffffffffffffffffffff1673ffffffffffffffffffffffffffffffffffffffff163373ffffffffffffffffffffffffffffffffffffffff1614610163576040517f08c379a000000000000000000000000000000000000000000000000000000000815260040161015a90610d8b565b60405180910390fd5b6001600260008373ffffffffffffffffffffffffffffffffffffffff1673ffffffffffffffffffffffffffffffffffffffff16815260200190815260200160002060006101000a81548160ff02191690831515021790555050565b6101c66107fc565b600260003373ffffffffffffffffffffffffffffffffffffffff1673ffffffffffffffffffffffffffffffffffffffff16815260200190815260200160002060009054906101000a900460ff16610252576040517f08c379a000000000000000000000000000000000000000000000000000000000815260040161024990610e1d565b60405180910390fd5b600160008373ffffffffffffffffffffffffffffffffffffffff1673ffffffffffffffffffffffffffffffffffffffff1681526020019081526020016000206040518060a00160405290816000820180546102ac90610e6c565b80601f01602080910402602001604051908101604052809291908181526020018280546102d890610e6c565b80156103255780601f106102fa57610100808354040283529160200191610325565b820191906000526020600020905b81548152906001019060200180831161030857829003601f168201915b5050505050815260200160018201805461033e90610e6c565b80601f016020809104026020016040519081016040528092919081815260200182805461036a90610e6c565b80156103b75780601f1061038c576101008083540402835291602001916103b7565b820191906000526020600020905b81548152906001019060200180831161039a57829003601f168201915b505050505081526020016002820180546103d090610e6c565b80601f01602080910402602001604051908101604052809291908181526020018280546103fc90610e6c565b80156104495780601f1061041e57610100808354040283529160200191610449565b820191906000526020600020905b81548152906001019060200180831161042c57829003601f168201915b5050505050815260200160038201805461046290610e6c565b80601f016020809104026020016040519081016040528092919081815260200182805461048e90610e6c565b80156104db5780601f106104b0576101008083540402835291602001916104db565b820191906000526020600020905b8154815290600101906020018083116104be57829003601f168201915b505050505081526020016004820180546104f490610e6c565b80601f016020809104026020016040519081016040528092919081815260200182805461052090610e6c565b801561056d5780601f106105425761010080835404028352916020019161056d565b820191906000526020600020905b81548152906001019060200180831161055057829003601f168201915b5050505050815250509050919050565b60008054906101000a900473ffffffffffffffffffffffffffffffffffffffff1673ffffffffffffffffffffffffffffffffffffffff163373ffffffffffffffffffffffffffffffffffffffff161461060b576040517f08c379a000000000000000000000000000000000000000000000000000000000815260040161060290610d8b565b60405180910390fd5b6000600260008373ffffffffffffffffffffffffffffffffffffffff1673ffffffffffffffffffffffffffffffffffffffff16815260200190815260200160002060006101000a81548160ff02191690831515021790555050565b60008054906101000a900473ffffffffffffffffffffffffffffffffffffffff1673ffffffffffffffffffffffffffffffffffffffff163373ffffffffffffffffffffffffffffffffffffffff16146106f4576040517f08c379a00000000000000000000000000000000000000000000000000000000081526004016106eb90610d8b565b60405180910390fd5b60006040518060a0016040528087815260200186815260200185815260200184815260200183815250905080600160008973ffffffffffffffffffffffffffffffffffffffff1673ffffffffffffffffffffffffffffffffffffffff168152602001908152602001600020600082015181600001908051906020019061077b92919061082b565b50602082015181600101908051906020019061079892919061082b565b5060408201518160020190805190602001906107b592919061082b565b5060608201518160030190805190602001906107d292919061082b565b5060808201518160040190805190602001906107ef92919061082b565b5090505050505050505050565b6040518060a0016040528060608152602001606081526020016060815260200160608152602001606081525090565b82805461083790610e6c565b90600052602060002090601f01602090048101928261085957600085556108a0565b82601f1061087257805160ff19168380011785556108a0565b828001600101855582156108a0579182015b8281111561089f578251825591602001919060010190610884565b5b5090506108ad91906108b1565b5090565b5b808211156108ca5760008160009055506001016108b2565b5090565b6000604051905090565b600080fd5b600080fd5b600073ffffffffffffffffffffffffffffffffffffffff82169050919050565b600061090d826108e2565b9050919050565b61091d81610902565b811461092857600080fd5b50565b60008135905061093a81610914565b92915050565b600060208284031215610956576109556108d8565b5b60006109648482850161092b565b91505092915050565b600081519050919050565b600082825260208201905092915050565b60005b838110156109a757808201518184015260208101905061098c565b838111156109b6576000848401525b50505050565b6000601f19601f8301169050919050565b60006109d88261096d565b6109e28185610978565b93506109f2818560208601610989565b6109fb816109bc565b840191505092915050565b600060a0830160008301518482036000860152610a2382826109cd565b91505060208301518482036020860152610a3d82826109cd565b91505060408301518482036040860152610a5782826109cd565b91505060608301518482036060860152610a7182826109cd565b91505060808301518482036080860152610a8b82826109cd565b9150508091505092915050565b60006020820190508181036000830152610ab28184610a06565b905092915050565b600080fd5b600080fd5b7f4e487b7100000000000000000000000000000000000000000000000000000000600052604160045260246000fd5b610afc826109bc565b810181811067ffffffffffffffff82111715610b1b57610b1a610ac4565b5b80604052505050565b6000610b2e6108ce565b9050610b3a8282610af3565b919050565b600067ffffffffffffffff821115610b5a57610b59610ac4565b5b610b63826109bc565b9050602081019050919050565b82818337600083830152505050565b6000610b92610b8d84610b3f565b610b24565b905082815260208101848484011115610bae57610bad610abf565b5b610bb9848285610b70565b509392505050565b600082601f830112610bd657610bd5610aba565b5b8135610be6848260208601610b7f565b91505092915050565b60008060008060008060c08789031215610c0c57610c0b6108d8565b5b6000610c1a89828a0161092b565b965050602087013567ffffffffffffffff811115610c3b57610c3a6108dd565b5b610c4789828a01610bc1565b955050604087013567ffffffffffffffff811115610c6857610c676108dd565b5b610c7489828a01610bc1565b945050606087013567ffffffffffffffff811115610c9557610c946108dd565b5b610ca189828a01610bc1565b935050608087013567ffffffffffffffff811115610cc257610cc16108dd565b5b610cce89828a01610bc1565b92505060a087013567ffffffffffffffff811115610cef57610cee6108dd565b5b610cfb89828a01610bc1565b9150509295509295509295565b600082825260208201905092915050565b7f4f6e6c79207468652047544944532061646d696e2063616e20706572666f726d60008201527f207468697320616374696f6e2e00000000000000000000000000000000000000602082015250565b6000610d75602d83610d08565b9150610d8082610d19565b604082019050919050565b60006020820190508181036000830152610da481610d68565b9050919050565b7f4f6e6c7920617574686f72697a656420766965776572732063616e206163636560008201527f7373207468697320696e666f726d6174696f6e2e000000000000000000000000602082015250565b6000610e07603483610d08565b9150610e1282610dab565b604082019050919050565b60006020820190508181036000830152610e3681610dfa565b9050919050565b7f4e487b7100000000000000000000000000000000000000000000000000000000600052602260045260246000fd5b60006002820490506001821680610e8457607f821691505b602082108103610e9757610e96610e3d565b5b5091905056fea2646970667358221220068e4facfbae0519ca062006a0b3e5e69d555dab9760c8ed637abe6aacd25dc464736f6c634300080d0033",
					"opcodes": "PUSH1 0x80 PUSH1 0x40 MSTORE CALLVALUE DUP1 ISZERO PUSH2 0x10 JUMPI PUSH1 0x0 DUP1 REVERT JUMPDEST POP PUSH1 0x40 MLOAD PUSH3 0x1045 CODESIZE SUB DUP1 PUSH3 0x1045 DUP4 CODECOPY DUP2 DUP2 ADD PUSH1 0x40 MSTORE DUP2 ADD SWAP1 PUSH2 0x34 SWAP2 SWAP1 PUSH2 0x135 JUMP JUMPDEST DUP1 PUSH1 0x0 DUP1 PUSH2 0x100 EXP DUP2 SLOAD DUP2 PUSH20 0xFFFFFFFFFFFFFFFFFFFFFFFFFFFFFFFFFFFFFFFF MUL NOT AND SWAP1 DUP4 PUSH20 0xFFFFFFFFFFFFFFFFFFFFFFFFFFFFFFFFFFFFFFFF AND MUL OR SWAP1 SSTORE POP PUSH1 0x1 PUSH1 0x2 PUSH1 0x0 DUP4 PUSH20 0xFFFFFFFFFFFFFFFFFFFFFFFFFFFFFFFFFFFFFFFF AND PUSH20 0xFFFFFFFFFFFFFFFFFFFFFFFFFFFFFFFFFFFFFFFF AND DUP2 MSTORE PUSH1 0x20 ADD SWAP1 DUP2 MSTORE PUSH1 0x20 ADD PUSH1 0x0 KECCAK256 PUSH1 0x0 PUSH2 0x100 EXP DUP2 SLOAD DUP2 PUSH1 0xFF MUL NOT AND SWAP1 DUP4 ISZERO ISZERO MUL OR SWAP1 SSTORE POP POP PUSH2 0x162 JUMP JUMPDEST PUSH1 0x0 DUP1 REVERT JUMPDEST PUSH1 0x0 PUSH20 0xFFFFFFFFFFFFFFFFFFFFFFFFFFFFFFFFFFFFFFFF DUP3 AND SWAP1 POP SWAP2 SWAP1 POP JUMP JUMPDEST PUSH1 0x0 PUSH2 0x102 DUP3 PUSH2 0xD7 JUMP JUMPDEST SWAP1 POP SWAP2 SWAP1 POP JUMP JUMPDEST PUSH2 0x112 DUP2 PUSH2 0xF7 JUMP JUMPDEST DUP2 EQ PUSH2 0x11D JUMPI PUSH1 0x0 DUP1 REVERT JUMPDEST POP JUMP JUMPDEST PUSH1 0x0 DUP2 MLOAD SWAP1 POP PUSH2 0x12F DUP2 PUSH2 0x109 JUMP JUMPDEST SWAP3 SWAP2 POP POP JUMP JUMPDEST PUSH1 0x0 PUSH1 0x20 DUP3 DUP5 SUB SLT ISZERO PUSH2 0x14B JUMPI PUSH2 0x14A PUSH2 0xD2 JUMP JUMPDEST JUMPDEST PUSH1 0x0 PUSH2 0x159 DUP5 DUP3 DUP6 ADD PUSH2 0x120 JUMP JUMPDEST SWAP2 POP POP SWAP3 SWAP2 POP POP JUMP JUMPDEST PUSH2 0xED3 DUP1 PUSH3 0x172 PUSH1 0x0 CODECOPY PUSH1 0x0 RETURN INVALID PUSH1 0x80 PUSH1 0x40 MSTORE CALLVALUE DUP1 ISZERO PUSH2 0x10 JUMPI PUSH1 0x0 DUP1 REVERT JUMPDEST POP PUSH1 0x4 CALLDATASIZE LT PUSH2 0x4C JUMPI PUSH1 0x0 CALLDATALOAD PUSH1 0xE0 SHR DUP1 PUSH4 0x601F8CF5 EQ PUSH2 0x51 JUMPI DUP1 PUSH4 0x83E0C31D EQ PUSH2 0x6D JUMPI DUP1 PUSH4 0xD1D98914 EQ PUSH2 0x9D JUMPI DUP1 PUSH4 0xDE71F52F EQ PUSH2 0xB9 JUMPI JUMPDEST PUSH1 0x0 DUP1 REVERT JUMPDEST PUSH2 0x6B PUSH1 0x4 DUP1 CALLDATASIZE SUB DUP2 ADD SWAP1 PUSH2 0x66 SWAP2 SWAP1 PUSH2 0x940 JUMP JUMPDEST PUSH2 0xD5 JUMP JUMPDEST STOP JUMPDEST PUSH2 0x87 PUSH1 0x4 DUP1 CALLDATASIZE SUB DUP2 ADD SWAP1 PUSH2 0x82 SWAP2 SWAP1 PUSH2 0x940 JUMP JUMPDEST PUSH2 0x1BE JUMP JUMPDEST PUSH1 0x40 MLOAD PUSH2 0x94 SWAP2 SWAP1 PUSH2 0xA98 JUMP JUMPDEST PUSH1 0x40 MLOAD DUP1 SWAP2 SUB SWAP1 RETURN JUMPDEST PUSH2 0xB7 PUSH1 0x4 DUP1 CALLDATASIZE SUB DUP2 ADD SWAP1 PUSH2 0xB2 SWAP2 SWAP1 PUSH2 0x940 JUMP JUMPDEST PUSH2 0x57D JUMP JUMPDEST STOP JUMPDEST PUSH2 0xD3 PUSH1 0x4 DUP1 CALLDATASIZE SUB DUP2 ADD SWAP1 PUSH2 0xCE SWAP2 SWAP1 PUSH2 0xBEF JUMP JUMPDEST PUSH2 0x666 JUMP JUMPDEST STOP JUMPDEST PUSH1 0x0 DUP1 SLOAD SWAP1 PUSH2 0x100 EXP SWAP1 DIV PUSH20 0xFFFFFFFFFFFFFFFFFFFFFFFFFFFFFFFFFFFFFFFF AND PUSH20 0xFFFFFFFFFFFFFFFFFFFFFFFFFFFFFFFFFFFFFFFF AND CALLER PUSH20 0xFFFFFFFFFFFFFFFFFFFFFFFFFFFFFFFFFFFFFFFF AND EQ PUSH2 0x163 JUMPI PUSH1 0x40 MLOAD PUSH32 0x8C379A000000000000000000000000000000000000000000000000000000000 DUP2 MSTORE PUSH1 0x4 ADD PUSH2 0x15A SWAP1 PUSH2 0xD8B JUMP JUMPDEST PUSH1 0x40 MLOAD DUP1 SWAP2 SUB SWAP1 REVERT JUMPDEST PUSH1 0x1 PUSH1 0x2 PUSH1 0x0 DUP4 PUSH20 0xFFFFFFFFFFFFFFFFFFFFFFFFFFFFFFFFFFFFFFFF AND PUSH20 0xFFFFFFFFFFFFFFFFFFFFFFFFFFFFFFFFFFFFFFFF AND DUP2 MSTORE PUSH1 0x20 ADD SWAP1 DUP2 MSTORE PUSH1 0x20 ADD PUSH1 0x0 KECCAK256 PUSH1 0x0 PUSH2 0x100 EXP DUP2 SLOAD DUP2 PUSH1 0xFF MUL NOT AND SWAP1 DUP4 ISZERO ISZERO MUL OR SWAP1 SSTORE POP POP JUMP JUMPDEST PUSH2 0x1C6 PUSH2 0x7FC JUMP JUMPDEST PUSH1 0x2 PUSH1 0x0 CALLER PUSH20 0xFFFFFFFFFFFFFFFFFFFFFFFFFFFFFFFFFFFFFFFF AND PUSH20 0xFFFFFFFFFFFFFFFFFFFFFFFFFFFFFFFFFFFFFFFF AND DUP2 MSTORE PUSH1 0x20 ADD SWAP1 DUP2 MSTORE PUSH1 0x20 ADD PUSH1 0x0 KECCAK256 PUSH1 0x0 SWAP1 SLOAD SWAP1 PUSH2 0x100 EXP SWAP1 DIV PUSH1 0xFF AND PUSH2 0x252 JUMPI PUSH1 0x40 MLOAD PUSH32 0x8C379A000000000000000000000000000000000000000000000000000000000 DUP2 MSTORE PUSH1 0x4 ADD PUSH2 0x249 SWAP1 PUSH2 0xE1D JUMP JUMPDEST PUSH1 0x40 MLOAD DUP1 SWAP2 SUB SWAP1 REVERT JUMPDEST PUSH1 0x1 PUSH1 0x0 DUP4 PUSH20 0xFFFFFFFFFFFFFFFFFFFFFFFFFFFFFFFFFFFFFFFF AND PUSH20 0xFFFFFFFFFFFFFFFFFFFFFFFFFFFFFFFFFFFFFFFF AND DUP2 MSTORE PUSH1 0x20 ADD SWAP1 DUP2 MSTORE PUSH1 0x20 ADD PUSH1 0x0 KECCAK256 PUSH1 0x40 MLOAD DUP1 PUSH1 0xA0 ADD PUSH1 0x40 MSTORE SWAP1 DUP2 PUSH1 0x0 DUP3 ADD DUP1 SLOAD PUSH2 0x2AC SWAP1 PUSH2 0xE6C JUMP JUMPDEST DUP1 PUSH1 0x1F ADD PUSH1 0x20 DUP1 SWAP2 DIV MUL PUSH1 0x20 ADD PUSH1 0x40 MLOAD SWAP1 DUP2 ADD PUSH1 0x40 MSTORE DUP1 SWAP3 SWAP2 SWAP1 DUP2 DUP2 MSTORE PUSH1 0x20 ADD DUP3 DUP1 SLOAD PUSH2 0x2D8 SWAP1 PUSH2 0xE6C JUMP JUMPDEST DUP1 ISZERO PUSH2 0x325 JUMPI DUP1 PUSH1 0x1F LT PUSH2 0x2FA JUMPI PUSH2 0x100 DUP1 DUP4 SLOAD DIV MUL DUP4 MSTORE SWAP2 PUSH1 0x20 ADD SWAP2 PUSH2 0x325 JUMP JUMPDEST DUP3 ADD SWAP2 SWAP1 PUSH1 0x0 MSTORE PUSH1 0x20 PUSH1 0x0 KECCAK256 SWAP1 JUMPDEST DUP2 SLOAD DUP2 MSTORE SWAP1 PUSH1 0x1 ADD SWAP1 PUSH1 0x20 ADD DUP1 DUP4 GT PUSH2 0x308 JUMPI DUP3 SWAP1 SUB PUSH1 0x1F AND DUP3 ADD SWAP2 JUMPDEST POP POP POP POP POP DUP2 MSTORE PUSH1 0x20 ADD PUSH1 0x1 DUP3 ADD DUP1 SLOAD PUSH2 0x33E SWAP1 PUSH2 0xE6C JUMP JUMPDEST DUP1 PUSH1 0x1F ADD PUSH1 0x20 DUP1 SWAP2 DIV MUL PUSH1 0x20 ADD PUSH1 0x40 MLOAD SWAP1 DUP2 ADD PUSH1 0x40 MSTORE DUP1 SWAP3 SWAP2 SWAP1 DUP2 DUP2 MSTORE PUSH1 0x20 ADD DUP3 DUP1 SLOAD PUSH2 0x36A SWAP1 PUSH2 0xE6C JUMP JUMPDEST DUP1 ISZERO PUSH2 0x3B7 JUMPI DUP1 PUSH1 0x1F LT PUSH2 0x38C JUMPI PUSH2 0x100 DUP1 DUP4 SLOAD DIV MUL DUP4 MSTORE SWAP2 PUSH1 0x20 ADD SWAP2 PUSH2 0x3B7 JUMP JUMPDEST DUP3 ADD SWAP2 SWAP1 PUSH1 0x0 MSTORE PUSH1 0x20 PUSH1 0x0 KECCAK256 SWAP1 JUMPDEST DUP2 SLOAD DUP2 MSTORE SWAP1 PUSH1 0x1 ADD SWAP1 PUSH1 0x20 ADD DUP1 DUP4 GT PUSH2 0x39A JUMPI DUP3 SWAP1 SUB PUSH1 0x1F AND DUP3 ADD SWAP2 JUMPDEST POP POP POP POP POP DUP2 MSTORE PUSH1 0x20 ADD PUSH1 0x2 DUP3 ADD DUP1 SLOAD PUSH2 0x3D0 SWAP1 PUSH2 0xE6C JUMP JUMPDEST DUP1 PUSH1 0x1F ADD PUSH1 0x20 DUP1 SWAP2 DIV MUL PUSH1 0x20 ADD PUSH1 0x40 MLOAD SWAP1 DUP2 ADD PUSH1 0x40 MSTORE DUP1 SWAP3 SWAP2 SWAP1 DUP2 DUP2 MSTORE PUSH1 0x20 ADD DUP3 DUP1 SLOAD PUSH2 0x3FC SWAP1 PUSH2 0xE6C JUMP JUMPDEST DUP1 ISZERO PUSH2 0x449 JUMPI DUP1 PUSH1 0x1F LT PUSH2 0x41E JUMPI PUSH2 0x100 DUP1 DUP4 SLOAD DIV MUL DUP4 MSTORE SWAP2 PUSH1 0x20 ADD SWAP2 PUSH2 0x449 JUMP JUMPDEST DUP3 ADD SWAP2 SWAP1 PUSH1 0x0 MSTORE PUSH1 0x20 PUSH1 0x0 KECCAK256 SWAP1 JUMPDEST DUP2 SLOAD DUP2 MSTORE SWAP1 PUSH1 0x1 ADD SWAP1 PUSH1 0x20 ADD DUP1 DUP4 GT PUSH2 0x42C JUMPI DUP3 SWAP1 SUB PUSH1 0x1F AND DUP3 ADD SWAP2 JUMPDEST POP POP POP POP POP DUP2 MSTORE PUSH1 0x20 ADD PUSH1 0x3 DUP3 ADD DUP1 SLOAD PUSH2 0x462 SWAP1 PUSH2 0xE6C JUMP JUMPDEST DUP1 PUSH1 0x1F ADD PUSH1 0x20 DUP1 SWAP2 DIV MUL PUSH1 0x20 ADD PUSH1 0x40 MLOAD SWAP1 DUP2 ADD PUSH1 0x40 MSTORE DUP1 SWAP3 SWAP2 SWAP1 DUP2 DUP2 MSTORE PUSH1 0x20 ADD DUP3 DUP1 SLOAD PUSH2 0x48E SWAP1 PUSH2 0xE6C JUMP JUMPDEST DUP1 ISZERO PUSH2 0x4DB JUMPI DUP1 PUSH1 0x1F LT PUSH2 0x4B0 JUMPI PUSH2 0x100 DUP1 DUP4 SLOAD DIV MUL DUP4 MSTORE SWAP2 PUSH1 0x20 ADD SWAP2 PUSH2 0x4DB JUMP JUMPDEST DUP3 ADD SWAP2 SWAP1 PUSH1 0x0 MSTORE PUSH1 0x20 PUSH1 0x0 KECCAK256 SWAP1 JUMPDEST DUP2 SLOAD DUP2 MSTORE SWAP1 PUSH1 0x1 ADD SWAP1 PUSH1 0x20 ADD DUP1 DUP4 GT PUSH2 0x4BE JUMPI DUP3 SWAP1 SUB PUSH1 0x1F AND DUP3 ADD SWAP2 JUMPDEST POP POP POP POP POP DUP2 MSTORE PUSH1 0x20 ADD PUSH1 0x4 DUP3 ADD DUP1 SLOAD PUSH2 0x4F4 SWAP1 PUSH2 0xE6C JUMP JUMPDEST DUP1 PUSH1 0x1F ADD PUSH1 0x20 DUP1 SWAP2 DIV MUL PUSH1 0x20 ADD PUSH1 0x40 MLOAD SWAP1 DUP2 ADD PUSH1 0x40 MSTORE DUP1 SWAP3 SWAP2 SWAP1 DUP2 DUP2 MSTORE PUSH1 0x20 ADD DUP3 DUP1 SLOAD PUSH2 0x520 SWAP1 PUSH2 0xE6C JUMP JUMPDEST DUP1 ISZERO PUSH2 0x56D JUMPI DUP1 PUSH1 0x1F LT PUSH2 0x542 JUMPI PUSH2 0x100 DUP1 DUP4 SLOAD DIV MUL DUP4 MSTORE SWAP2 PUSH1 0x20 ADD SWAP2 PUSH2 0x56D JUMP JUMPDEST DUP3 ADD SWAP2 SWAP1 PUSH1 0x0 MSTORE PUSH1 0x20 PUSH1 0x0 KECCAK256 SWAP1 JUMPDEST DUP2 SLOAD DUP2 MSTORE SWAP1 PUSH1 0x1 ADD SWAP1 PUSH1 0x20 ADD DUP1 DUP4 GT PUSH2 0x550 JUMPI DUP3 SWAP1 SUB PUSH1 0x1F AND DUP3 ADD SWAP2 JUMPDEST POP POP POP POP POP DUP2 MSTORE POP POP SWAP1 POP SWAP2 SWAP1 POP JUMP JUMPDEST PUSH1 0x0 DUP1 SLOAD SWAP1 PUSH2 0x100 EXP SWAP1 DIV PUSH20 0xFFFFFFFFFFFFFFFFFFFFFFFFFFFFFFFFFFFFFFFF AND PUSH20 0xFFFFFFFFFFFFFFFFFFFFFFFFFFFFFFFFFFFFFFFF AND CALLER PUSH20 0xFFFFFFFFFFFFFFFFFFFFFFFFFFFFFFFFFFFFFFFF AND EQ PUSH2 0x60B JUMPI PUSH1 0x40 MLOAD PUSH32 0x8C379A000000000000000000000000000000000000000000000000000000000 DUP2 MSTORE PUSH1 0x4 ADD PUSH2 0x602 SWAP1 PUSH2 0xD8B JUMP JUMPDEST PUSH1 0x40 MLOAD DUP1 SWAP2 SUB SWAP1 REVERT JUMPDEST PUSH1 0x0 PUSH1 0x2 PUSH1 0x0 DUP4 PUSH20 0xFFFFFFFFFFFFFFFFFFFFFFFFFFFFFFFFFFFFFFFF AND PUSH20 0xFFFFFFFFFFFFFFFFFFFFFFFFFFFFFFFFFFFFFFFF AND DUP2 MSTORE PUSH1 0x20 ADD SWAP1 DUP2 MSTORE PUSH1 0x20 ADD PUSH1 0x0 KECCAK256 PUSH1 0x0 PUSH2 0x100 EXP DUP2 SLOAD DUP2 PUSH1 0xFF MUL NOT AND SWAP1 DUP4 ISZERO ISZERO MUL OR SWAP1 SSTORE POP POP JUMP JUMPDEST PUSH1 0x0 DUP1 SLOAD SWAP1 PUSH2 0x100 EXP SWAP1 DIV PUSH20 0xFFFFFFFFFFFFFFFFFFFFFFFFFFFFFFFFFFFFFFFF AND PUSH20 0xFFFFFFFFFFFFFFFFFFFFFFFFFFFFFFFFFFFFFFFF AND CALLER PUSH20 0xFFFFFFFFFFFFFFFFFFFFFFFFFFFFFFFFFFFFFFFF AND EQ PUSH2 0x6F4 JUMPI PUSH1 0x40 MLOAD PUSH32 0x8C379A000000000000000000000000000000000000000000000000000000000 DUP2 MSTORE PUSH1 0x4 ADD PUSH2 0x6EB SWAP1 PUSH2 0xD8B JUMP JUMPDEST PUSH1 0x40 MLOAD DUP1 SWAP2 SUB SWAP1 REVERT JUMPDEST PUSH1 0x0 PUSH1 0x40 MLOAD DUP1 PUSH1 0xA0 ADD PUSH1 0x40 MSTORE DUP1 DUP8 DUP2 MSTORE PUSH1 0x20 ADD DUP7 DUP2 MSTORE PUSH1 0x20 ADD DUP6 DUP2 MSTORE PUSH1 0x20 ADD DUP5 DUP2 MSTORE PUSH1 0x20 ADD DUP4 DUP2 MSTORE POP SWAP1 POP DUP1 PUSH1 0x1 PUSH1 0x0 DUP10 PUSH20 0xFFFFFFFFFFFFFFFFFFFFFFFFFFFFFFFFFFFFFFFF AND PUSH20 0xFFFFFFFFFFFFFFFFFFFFFFFFFFFFFFFFFFFFFFFF AND DUP2 MSTORE PUSH1 0x20 ADD SWAP1 DUP2 MSTORE PUSH1 0x20 ADD PUSH1 0x0 KECCAK256 PUSH1 0x0 DUP3 ADD MLOAD DUP2 PUSH1 0x0 ADD SWAP1 DUP1 MLOAD SWAP1 PUSH1 0x20 ADD SWAP1 PUSH2 0x77B SWAP3 SWAP2 SWAP1 PUSH2 0x82B JUMP JUMPDEST POP PUSH1 0x20 DUP3 ADD MLOAD DUP2 PUSH1 0x1 ADD SWAP1 DUP1 MLOAD SWAP1 PUSH1 0x20 ADD SWAP1 PUSH2 0x798 SWAP3 SWAP2 SWAP1 PUSH2 0x82B JUMP JUMPDEST POP PUSH1 0x40 DUP3 ADD MLOAD DUP2 PUSH1 0x2 ADD SWAP1 DUP1 MLOAD SWAP1 PUSH1 0x20 ADD SWAP1 PUSH2 0x7B5 SWAP3 SWAP2 SWAP1 PUSH2 0x82B JUMP JUMPDEST POP PUSH1 0x60 DUP3 ADD MLOAD DUP2 PUSH1 0x3 ADD SWAP1 DUP1 MLOAD SWAP1 PUSH1 0x20 ADD SWAP1 PUSH2 0x7D2 SWAP3 SWAP2 SWAP1 PUSH2 0x82B JUMP JUMPDEST POP PUSH1 0x80 DUP3 ADD MLOAD DUP2 PUSH1 0x4 ADD SWAP1 DUP1 MLOAD SWAP1 PUSH1 0x20 ADD SWAP1 PUSH2 0x7EF SWAP3 SWAP2 SWAP1 PUSH2 0x82B JUMP JUMPDEST POP SWAP1 POP POP POP POP POP POP POP POP POP JUMP JUMPDEST PUSH1 0x40 MLOAD DUP1 PUSH1 0xA0 ADD PUSH1 0x40 MSTORE DUP1 PUSH1 0x60 DUP2 MSTORE PUSH1 0x20 ADD PUSH1 0x60 DUP2 MSTORE PUSH1 0x20 ADD PUSH1 0x60 DUP2 MSTORE PUSH1 0x20 ADD PUSH1 0x60 DUP2 MSTORE PUSH1 0x20 ADD PUSH1 0x60 DUP2 MSTORE POP SWAP1 JUMP JUMPDEST DUP3 DUP1 SLOAD PUSH2 0x837 SWAP1 PUSH2 0xE6C JUMP JUMPDEST SWAP1 PUSH1 0x0 MSTORE PUSH1 0x20 PUSH1 0x0 KECCAK256 SWAP1 PUSH1 0x1F ADD PUSH1 0x20 SWAP1 DIV DUP2 ADD SWAP3 DUP3 PUSH2 0x859 JUMPI PUSH1 0x0 DUP6 SSTORE PUSH2 0x8A0 JUMP JUMPDEST DUP3 PUSH1 0x1F LT PUSH2 0x872 JUMPI DUP1 MLOAD PUSH1 0xFF NOT AND DUP4 DUP1 ADD OR DUP6 SSTORE PUSH2 0x8A0 JUMP JUMPDEST DUP3 DUP1 ADD PUSH1 0x1 ADD DUP6 SSTORE DUP3 ISZERO PUSH2 0x8A0 JUMPI SWAP2 DUP3 ADD JUMPDEST DUP3 DUP2 GT ISZERO PUSH2 0x89F JUMPI DUP3 MLOAD DUP3 SSTORE SWAP2 PUSH1 0x20 ADD SWAP2 SWAP1 PUSH1 0x1 ADD SWAP1 PUSH2 0x884 JUMP JUMPDEST JUMPDEST POP SWAP1 POP PUSH2 0x8AD SWAP2 SWAP1 PUSH2 0x8B1 JUMP JUMPDEST POP SWAP1 JUMP JUMPDEST JUMPDEST DUP1 DUP3 GT ISZERO PUSH2 0x8CA JUMPI PUSH1 0x0 DUP2 PUSH1 0x0 SWAP1 SSTORE POP PUSH1 0x1 ADD PUSH2 0x8B2 JUMP JUMPDEST POP SWAP1 JUMP JUMPDEST PUSH1 0x0 PUSH1 0x40 MLOAD SWAP1 POP SWAP1 JUMP JUMPDEST PUSH1 0x0 DUP1 REVERT JUMPDEST PUSH1 0x0 DUP1 REVERT JUMPDEST PUSH1 0x0 PUSH20 0xFFFFFFFFFFFFFFFFFFFFFFFFFFFFFFFFFFFFFFFF DUP3 AND SWAP1 POP SWAP2 SWAP1 POP JUMP JUMPDEST PUSH1 0x0 PUSH2 0x90D DUP3 PUSH2 0x8E2 JUMP JUMPDEST SWAP1 POP SWAP2 SWAP1 POP JUMP JUMPDEST PUSH2 0x91D DUP2 PUSH2 0x902 JUMP JUMPDEST DUP2 EQ PUSH2 0x928 JUMPI PUSH1 0x0 DUP1 REVERT JUMPDEST POP JUMP JUMPDEST PUSH1 0x0 DUP2 CALLDATALOAD SWAP1 POP PUSH2 0x93A DUP2 PUSH2 0x914 JUMP JUMPDEST SWAP3 SWAP2 POP POP JUMP JUMPDEST PUSH1 0x0 PUSH1 0x20 DUP3 DUP5 SUB SLT ISZERO PUSH2 0x956 JUMPI PUSH2 0x955 PUSH2 0x8D8 JUMP JUMPDEST JUMPDEST PUSH1 0x0 PUSH2 0x964 DUP5 DUP3 DUP6 ADD PUSH2 0x92B JUMP JUMPDEST SWAP2 POP POP SWAP3 SWAP2 POP POP JUMP JUMPDEST PUSH1 0x0 DUP2 MLOAD SWAP1 POP SWAP2 SWAP1 POP JUMP JUMPDEST PUSH1 0x0 DUP3 DUP3 MSTORE PUSH1 0x20 DUP3 ADD SWAP1 POP SWAP3 SWAP2 POP POP JUMP JUMPDEST PUSH1 0x0 JUMPDEST DUP4 DUP2 LT ISZERO PUSH2 0x9A7 JUMPI DUP1 DUP3 ADD MLOAD DUP2 DUP5 ADD MSTORE PUSH1 0x20 DUP2 ADD SWAP1 POP PUSH2 0x98C JUMP JUMPDEST DUP4 DUP2 GT ISZERO PUSH2 0x9B6 JUMPI PUSH1 0x0 DUP5 DUP5 ADD MSTORE JUMPDEST POP POP POP POP JUMP JUMPDEST PUSH1 0x0 PUSH1 0x1F NOT PUSH1 0x1F DUP4 ADD AND SWAP1 POP SWAP2 SWAP1 POP JUMP JUMPDEST PUSH1 0x0 PUSH2 0x9D8 DUP3 PUSH2 0x96D JUMP JUMPDEST PUSH2 0x9E2 DUP2 DUP6 PUSH2 0x978 JUMP JUMPDEST SWAP4 POP PUSH2 0x9F2 DUP2 DUP6 PUSH1 0x20 DUP7 ADD PUSH2 0x989 JUMP JUMPDEST PUSH2 0x9FB DUP2 PUSH2 0x9BC JUMP JUMPDEST DUP5 ADD SWAP2 POP POP SWAP3 SWAP2 POP POP JUMP JUMPDEST PUSH1 0x0 PUSH1 0xA0 DUP4 ADD PUSH1 0x0 DUP4 ADD MLOAD DUP5 DUP3 SUB PUSH1 0x0 DUP7 ADD MSTORE PUSH2 0xA23 DUP3 DUP3 PUSH2 0x9CD JUMP JUMPDEST SWAP2 POP POP PUSH1 0x20 DUP4 ADD MLOAD DUP5 DUP3 SUB PUSH1 0x20 DUP7 ADD MSTORE PUSH2 0xA3D DUP3 DUP3 PUSH2 0x9CD JUMP JUMPDEST SWAP2 POP POP PUSH1 0x40 DUP4 ADD MLOAD DUP5 DUP3 SUB PUSH1 0x40 DUP7 ADD MSTORE PUSH2 0xA57 DUP3 DUP3 PUSH2 0x9CD JUMP JUMPDEST SWAP2 POP POP PUSH1 0x60 DUP4 ADD MLOAD DUP5 DUP3 SUB PUSH1 0x60 DUP7 ADD MSTORE PUSH2 0xA71 DUP3 DUP3 PUSH2 0x9CD JUMP JUMPDEST SWAP2 POP POP PUSH1 0x80 DUP4 ADD MLOAD DUP5 DUP3 SUB PUSH1 0x80 DUP7 ADD MSTORE PUSH2 0xA8B DUP3 DUP3 PUSH2 0x9CD JUMP JUMPDEST SWAP2 POP POP DUP1 SWAP2 POP POP SWAP3 SWAP2 POP POP JUMP JUMPDEST PUSH1 0x0 PUSH1 0x20 DUP3 ADD SWAP1 POP DUP2 DUP2 SUB PUSH1 0x0 DUP4 ADD MSTORE PUSH2 0xAB2 DUP2 DUP5 PUSH2 0xA06 JUMP JUMPDEST SWAP1 POP SWAP3 SWAP2 POP POP JUMP JUMPDEST PUSH1 0x0 DUP1 REVERT JUMPDEST PUSH1 0x0 DUP1 REVERT JUMPDEST PUSH32 0x4E487B7100000000000000000000000000000000000000000000000000000000 PUSH1 0x0 MSTORE PUSH1 0x41 PUSH1 0x4 MSTORE PUSH1 0x24 PUSH1 0x0 REVERT JUMPDEST PUSH2 0xAFC DUP3 PUSH2 0x9BC JUMP JUMPDEST DUP2 ADD DUP2 DUP2 LT PUSH8 0xFFFFFFFFFFFFFFFF DUP3 GT OR ISZERO PUSH2 0xB1B JUMPI PUSH2 0xB1A PUSH2 0xAC4 JUMP JUMPDEST JUMPDEST DUP1 PUSH1 0x40 MSTORE POP POP POP JUMP JUMPDEST PUSH1 0x0 PUSH2 0xB2E PUSH2 0x8CE JUMP JUMPDEST SWAP1 POP PUSH2 0xB3A DUP3 DUP3 PUSH2 0xAF3 JUMP JUMPDEST SWAP2 SWAP1 POP JUMP JUMPDEST PUSH1 0x0 PUSH8 0xFFFFFFFFFFFFFFFF DUP3 GT ISZERO PUSH2 0xB5A JUMPI PUSH2 0xB59 PUSH2 0xAC4 JUMP JUMPDEST JUMPDEST PUSH2 0xB63 DUP3 PUSH2 0x9BC JUMP JUMPDEST SWAP1 POP PUSH1 0x20 DUP2 ADD SWAP1 POP SWAP2 SWAP1 POP JUMP JUMPDEST DUP3 DUP2 DUP4 CALLDATACOPY PUSH1 0x0 DUP4 DUP4 ADD MSTORE POP POP POP JUMP JUMPDEST PUSH1 0x0 PUSH2 0xB92 PUSH2 0xB8D DUP5 PUSH2 0xB3F JUMP JUMPDEST PUSH2 0xB24 JUMP JUMPDEST SWAP1 POP DUP3 DUP2 MSTORE PUSH1 0x20 DUP2 ADD DUP5 DUP5 DUP5 ADD GT ISZERO PUSH2 0xBAE JUMPI PUSH2 0xBAD PUSH2 0xABF JUMP JUMPDEST JUMPDEST PUSH2 0xBB9 DUP5 DUP3 DUP6 PUSH2 0xB70 JUMP JUMPDEST POP SWAP4 SWAP3 POP POP POP JUMP JUMPDEST PUSH1 0x0 DUP3 PUSH1 0x1F DUP4 ADD SLT PUSH2 0xBD6 JUMPI PUSH2 0xBD5 PUSH2 0xABA JUMP JUMPDEST JUMPDEST DUP2 CALLDATALOAD PUSH2 0xBE6 DUP5 DUP3 PUSH1 0x20 DUP7 ADD PUSH2 0xB7F JUMP JUMPDEST SWAP2 POP POP SWAP3 SWAP2 POP POP JUMP JUMPDEST PUSH1 0x0 DUP1 PUSH1 0x0 DUP1 PUSH1 0x0 DUP1 PUSH1 0xC0 DUP8 DUP10 SUB SLT ISZERO PUSH2 0xC0C JUMPI PUSH2 0xC0B PUSH2 0x8D8 JUMP JUMPDEST JUMPDEST PUSH1 0x0 PUSH2 0xC1A DUP10 DUP3 DUP11 ADD PUSH2 0x92B JUMP JUMPDEST SWAP7 POP POP PUSH1 0x20 DUP8 ADD CALLDATALOAD PUSH8 0xFFFFFFFFFFFFFFFF DUP2 GT ISZERO PUSH2 0xC3B JUMPI PUSH2 0xC3A PUSH2 0x8DD JUMP JUMPDEST JUMPDEST PUSH2 0xC47 DUP10 DUP3 DUP11 ADD PUSH2 0xBC1 JUMP JUMPDEST SWAP6 POP POP PUSH1 0x40 DUP8 ADD CALLDATALOAD PUSH8 0xFFFFFFFFFFFFFFFF DUP2 GT ISZERO PUSH2 0xC68 JUMPI PUSH2 0xC67 PUSH2 0x8DD JUMP JUMPDEST JUMPDEST PUSH2 0xC74 DUP10 DUP3 DUP11 ADD PUSH2 0xBC1 JUMP JUMPDEST SWAP5 POP POP PUSH1 0x60 DUP8 ADD CALLDATALOAD PUSH8 0xFFFFFFFFFFFFFFFF DUP2 GT ISZERO PUSH2 0xC95 JUMPI PUSH2 0xC94 PUSH2 0x8DD JUMP JUMPDEST JUMPDEST PUSH2 0xCA1 DUP10 DUP3 DUP11 ADD PUSH2 0xBC1 JUMP JUMPDEST SWAP4 POP POP PUSH1 0x80 DUP8 ADD CALLDATALOAD PUSH8 0xFFFFFFFFFFFFFFFF DUP2 GT ISZERO PUSH2 0xCC2 JUMPI PUSH2 0xCC1 PUSH2 0x8DD JUMP JUMPDEST JUMPDEST PUSH2 0xCCE DUP10 DUP3 DUP11 ADD PUSH2 0xBC1 JUMP JUMPDEST SWAP3 POP POP PUSH1 0xA0 DUP8 ADD CALLDATALOAD PUSH8 0xFFFFFFFFFFFFFFFF DUP2 GT ISZERO PUSH2 0xCEF JUMPI PUSH2 0xCEE PUSH2 0x8DD JUMP JUMPDEST JUMPDEST PUSH2 0xCFB DUP10 DUP3 DUP11 ADD PUSH2 0xBC1 JUMP JUMPDEST SWAP2 POP POP SWAP3 SWAP6 POP SWAP3 SWAP6 POP SWAP3 SWAP6 JUMP JUMPDEST PUSH1 0x0 DUP3 DUP3 MSTORE PUSH1 0x20 DUP3 ADD SWAP1 POP SWAP3 SWAP2 POP POP JUMP JUMPDEST PUSH32 0x4F6E6C79207468652047544944532061646D696E2063616E20706572666F726D PUSH1 0x0 DUP3 ADD MSTORE PUSH32 0x207468697320616374696F6E2E00000000000000000000000000000000000000 PUSH1 0x20 DUP3 ADD MSTORE POP JUMP JUMPDEST PUSH1 0x0 PUSH2 0xD75 PUSH1 0x2D DUP4 PUSH2 0xD08 JUMP JUMPDEST SWAP2 POP PUSH2 0xD80 DUP3 PUSH2 0xD19 JUMP JUMPDEST PUSH1 0x40 DUP3 ADD SWAP1 POP SWAP2 SWAP1 POP JUMP JUMPDEST PUSH1 0x0 PUSH1 0x20 DUP3 ADD SWAP1 POP DUP2 DUP2 SUB PUSH1 0x0 DUP4 ADD MSTORE PUSH2 0xDA4 DUP2 PUSH2 0xD68 JUMP JUMPDEST SWAP1 POP SWAP2 SWAP1 POP JUMP JUMPDEST PUSH32 0x4F6E6C7920617574686F72697A656420766965776572732063616E2061636365 PUSH1 0x0 DUP3 ADD MSTORE PUSH32 0x7373207468697320696E666F726D6174696F6E2E000000000000000000000000 PUSH1 0x20 DUP3 ADD MSTORE POP JUMP JUMPDEST PUSH1 0x0 PUSH2 0xE07 PUSH1 0x34 DUP4 PUSH2 0xD08 JUMP JUMPDEST SWAP2 POP PUSH2 0xE12 DUP3 PUSH2 0xDAB JUMP JUMPDEST PUSH1 0x40 DUP3 ADD SWAP1 POP SWAP2 SWAP1 POP JUMP JUMPDEST PUSH1 0x0 PUSH1 0x20 DUP3 ADD SWAP1 POP DUP2 DUP2 SUB PUSH1 0x0 DUP4 ADD MSTORE PUSH2 0xE36 DUP2 PUSH2 0xDFA JUMP JUMPDEST SWAP1 POP SWAP2 SWAP1 POP JUMP JUMPDEST PUSH32 0x4E487B7100000000000000000000000000000000000000000000000000000000 PUSH1 0x0 MSTORE PUSH1 0x22 PUSH1 0x4 MSTORE PUSH1 0x24 PUSH1 0x0 REVERT JUMPDEST PUSH1 0x0 PUSH1 0x2 DUP3 DIV SWAP1 POP PUSH1 0x1 DUP3 AND DUP1 PUSH2 0xE84 JUMPI PUSH1 0x7F DUP3 AND SWAP2 POP JUMPDEST PUSH1 0x20 DUP3 LT DUP2 SUB PUSH2 0xE97 JUMPI PUSH2 0xE96 PUSH2 0xE3D JUMP JUMPDEST JUMPDEST POP SWAP2 SWAP1 POP JUMP INVALID LOG2 PUSH5 0x6970667358 0x22 SLT KECCAK256 MOD DUP15 0x4F 0xAC 0xFB 0xAE SDIV NOT 0xCA MOD KECCAK256 MOD LOG0 0xB3 0xE5 0xE6 SWAP14 SSTORE 0x5D 0xAB SWAP8 PUSH1 0xC8 0xED PUSH4 0x7ABE6AAC 0xD2 0x5D 0xC4 PUSH5 0x736F6C6343 STOP ADDMOD 0xD STOP CALLER "
				},
				"gasEstimates": {
					"creation": {
						"codeDepositCost": "759000",
						"executionCost": "infinite",
						"totalCost": "infinite"
					},
					"external": {
						"addBank(address,string,string,string,string,string)": "infinite",
						"addViewer(address)": "26957",
						"getBank(address)": "infinite",
						"removeViewer(address)": "27001"
					}
				},
				"methodIdentifiers": {
					"addBank(address,string,string,string,string,string)": "de71f52f",
					"addViewer(address)": "601f8cf5",
					"getBank(address)": "83e0c31d",
					"removeViewer(address)": "d1d98914"
				}
			},
			"storageLayout": {
				"storage": [
					{
						"astId": 14,
						"contract": "contracts/BankDao.sol:BankContract",
						"label": "owner",
						"offset": 0,
						"slot": "0",
						"type": "t_address"
					},
					{
						"astId": 19,
						"contract": "contracts/BankDao.sol:BankContract",
						"label": "banks",
						"offset": 0,
						"slot": "1",
						"type": "t_mapping(t_address,t_struct(Bank)12_storage)"
					},
					{
						"astId": 23,
						"contract": "contracts/BankDao.sol:BankContract",
						"label": "viewers",
						"offset": 0,
						"slot": "2",
						"type": "t_mapping(t_address,t_bool)"
					}
				],
				"types": {
					"t_address": {
						"encoding": "inplace",
						"label": "address",
						"numberOfBytes": "20"
					},
					"t_bool": {
						"encoding": "inplace",
						"label": "bool",
						"numberOfBytes": "1"
					},
					"t_mapping(t_address,t_bool)": {
						"encoding": "mapping",
						"key": "t_address",
						"label": "mapping(address => bool)",
						"numberOfBytes": "32",
						"value": "t_bool"
					},
					"t_mapping(t_address,t_struct(Bank)12_storage)": {
						"encoding": "mapping",
						"key": "t_address",
						"label": "mapping(address => struct BankContract.Bank)",
						"numberOfBytes": "32",
						"value": "t_struct(Bank)12_storage"
					},
					"t_string_storage": {
						"encoding": "bytes",
						"label": "string",
						"numberOfBytes": "32"
					},
					"t_struct(Bank)12_storage": {
						"encoding": "inplace",
						"label": "struct BankContract.Bank",
						"members": [
							{
								"astId": 3,
								"contract": "contracts/BankDao.sol:BankContract",
								"label": "bankName",
								"offset": 0,
								"slot": "0",
								"type": "t_string_storage"
							},
							{
								"astId": 5,
								"contract": "contracts/BankDao.sol:BankContract",
								"label": "branch",
								"offset": 0,
								"slot": "1",
								"type": "t_string_storage"
							},
							{
								"astId": 7,
								"contract": "contracts/BankDao.sol:BankContract",
								"label": "ifscCode",
								"offset": 0,
								"slot": "2",
								"type": "t_string_storage"
							},
							{
								"astId": 9,
								"contract": "contracts/BankDao.sol:BankContract",
								"label": "district",
								"offset": 0,
								"slot": "3",
								"type": "t_string_storage"
							},
							{
								"astId": 11,
								"contract": "contracts/BankDao.sol:BankContract",
								"label": "state",
								"offset": 0,
								"slot": "4",
								"type": "t_string_storage"
							}
						],
						"numberOfBytes": "160"
					}
				}
			},
			"userdoc": {
				"kind": "user",
				"methods": {},
				"version": 1
			}
		}
	}
}